{
  "contractName": "CredentialsConstrained",
  "abi": [
    {
      "constant": true,
      "inputs": [
        {
          "name": "",
          "type": "address"
        }
      ],
      "name": "authorizedUsers",
      "outputs": [
        {
          "name": "",
          "type": "bool"
        }
      ],
      "payable": false,
      "stateMutability": "view",
      "type": "function"
    },
    {
      "constant": true,
      "inputs": [],
      "name": "isOpenToEveryUser",
      "outputs": [
        {
          "name": "",
          "type": "bool"
        }
      ],
      "payable": false,
      "stateMutability": "view",
      "type": "function"
    },
    {
      "constant": true,
      "inputs": [],
      "name": "contractOwner",
      "outputs": [
        {
          "name": "",
          "type": "address"
        }
      ],
      "payable": false,
      "stateMutability": "view",
      "type": "function"
    },
    {
      "inputs": [],
      "payable": false,
      "stateMutability": "nonpayable",
      "type": "constructor"
    },
    {
      "payable": false,
      "stateMutability": "nonpayable",
      "type": "fallback"
    },
    {
      "anonymous": false,
      "inputs": [
        {
          "indexed": false,
          "name": "user",
          "type": "address"
        }
      ],
      "name": "AuthorizedUserAdded",
      "type": "event"
    },
    {
      "anonymous": false,
      "inputs": [
        {
          "indexed": false,
          "name": "user",
          "type": "address"
        }
      ],
      "name": "CredentialsRemoved",
      "type": "event"
    },
    {
      "constant": false,
      "inputs": [
        {
          "name": "user",
          "type": "address"
        }
      ],
      "name": "addAuthorizedUser",
      "outputs": [],
      "payable": false,
      "stateMutability": "nonpayable",
      "type": "function"
    },
    {
      "constant": false,
      "inputs": [
        {
          "name": "user",
          "type": "address"
        }
      ],
      "name": "removeCredentials",
      "outputs": [],
      "payable": false,
      "stateMutability": "nonpayable",
      "type": "function"
    },
    {
      "constant": false,
      "inputs": [],
      "name": "openToEveryUser",
      "outputs": [],
      "payable": false,
      "stateMutability": "nonpayable",
      "type": "function"
    },
    {
      "constant": false,
      "inputs": [],
      "name": "closeToAuthorizedUsers",
      "outputs": [],
      "payable": false,
      "stateMutability": "nonpayable",
      "type": "function"
    }
  ],
  "bytecode": "0x608060405234801561001057600080fd5b5033600160006101000a81548173ffffffffffffffffffffffffffffffffffffffff021916908373ffffffffffffffffffffffffffffffffffffffff1602179055506001600080600160009054906101000a900473ffffffffffffffffffffffffffffffffffffffff1673ffffffffffffffffffffffffffffffffffffffff1673ffffffffffffffffffffffffffffffffffffffff16815260200190815260200160002060006101000a81548160ff0219169083151502179055506109d0806100da6000396000f3fe608060405260043610610083576000357c0100000000000000000000000000000000000000000000000000000000900463ffffffff168063177d2a74146100955780631828983a146100e65780633e36da481461014f5780637320a2871461017e578063ce606ee014610195578063f3c6d71a146101ec578063feab07771461023d575b34801561008f57600080fd5b50600080fd5b3480156100a157600080fd5b506100e4600480360360208110156100b857600080fd5b81019080803573ffffffffffffffffffffffffffffffffffffffff169060200190929190505050610254565b005b3480156100f257600080fd5b506101356004803603602081101561010957600080fd5b81019080803573ffffffffffffffffffffffffffffffffffffffff1690602001909291905050506103fc565b604051808215151515815260200191505060405180910390f35b34801561015b57600080fd5b5061016461041c565b604051808215151515815260200191505060405180910390f35b34801561018a57600080fd5b5061019361042f565b005b3480156101a157600080fd5b506101aa610607565b604051808273ffffffffffffffffffffffffffffffffffffffff1673ffffffffffffffffffffffffffffffffffffffff16815260200191505060405180910390f35b3480156101f857600080fd5b5061023b6004803603602081101561020f57600080fd5b81019080803573ffffffffffffffffffffffffffffffffffffffff16906020019092919050505061062d565b005b34801561024957600080fd5b506102526107cc565b005b600160009054906101000a900473ffffffffffffffffffffffffffffffffffffffff1673ffffffffffffffffffffffffffffffffffffffff163373ffffffffffffffffffffffffffffffffffffffff1614151561033f576040517f08c379a000000000000000000000000000000000000000000000000000000000815260040180806020018281038252603f8152602001807f452d43432d303031202d204f6e6c792074686520636f6e7472616374206f776e81526020017f65722061646420657865637574652074686973207472616e73616374696f6e0081525060400191505060405180910390fd5b60016000808373ffffffffffffffffffffffffffffffffffffffff1673ffffffffffffffffffffffffffffffffffffffff16815260200190815260200160002060006101000a81548160ff0219169083151502179055507f7e07c71a6d7714652e08d641a843dff01e823c8eeed08945be844015fe33539381604051808273ffffffffffffffffffffffffffffffffffffffff1673ffffffffffffffffffffffffffffffffffffffff16815260200191505060405180910390a150565b60006020528060005260406000206000915054906101000a900460ff1681565b600160149054906101000a900460ff1681565b600160009054906101000a900473ffffffffffffffffffffffffffffffffffffffff1673ffffffffffffffffffffffffffffffffffffffff163373ffffffffffffffffffffffffffffffffffffffff1614151561051a576040517f08c379a000000000000000000000000000000000000000000000000000000000815260040180806020018281038252603f8152602001807f452d43432d303031202d204f6e6c792074686520636f6e7472616374206f776e81526020017f65722061646420657865637574652074686973207472616e73616374696f6e0081525060400191505060405180910390fd5b600160149054906101000a900460ff1615156105ea576040517f08c379a00000000000000000000000000000000000000000000000000000000081526004018080602001828103825260448152602001807f452d43432d303033202d2043657274696669636174696f6e206f70657261746981526020017f6f6e732061726520616c726561647920636c6f73656420746f2065766572792081526020017f757365720000000000000000000000000000000000000000000000000000000081525060600191505060405180910390fd5b6000600160146101000a81548160ff021916908315150217905550565b600160009054906101000a900473ffffffffffffffffffffffffffffffffffffffff1681565b600160009054906101000a900473ffffffffffffffffffffffffffffffffffffffff1673ffffffffffffffffffffffffffffffffffffffff163373ffffffffffffffffffffffffffffffffffffffff16141515610718576040517f08c379a000000000000000000000000000000000000000000000000000000000815260040180806020018281038252603f8152602001807f452d43432d303031202d204f6e6c792074686520636f6e7472616374206f776e81526020017f65722061646420657865637574652074686973207472616e73616374696f6e0081525060400191505060405180910390fd5b6000808273ffffffffffffffffffffffffffffffffffffffff1673ffffffffffffffffffffffffffffffffffffffff16815260200190815260200160002060006101000a81549060ff02191690557fbebbb6faf74eef3594a83912d2f77145b62aacc4520832f587e2130cdcbf08f081604051808273ffffffffffffffffffffffffffffffffffffffff1673ffffffffffffffffffffffffffffffffffffffff16815260200191505060405180910390a150565b600160009054906101000a900473ffffffffffffffffffffffffffffffffffffffff1673ffffffffffffffffffffffffffffffffffffffff163373ffffffffffffffffffffffffffffffffffffffff161415156108b7576040517f08c379a000000000000000000000000000000000000000000000000000000000815260040180806020018281038252603f8152602001807f452d43432d303031202d204f6e6c792074686520636f6e7472616374206f776e81526020017f65722061646420657865637574652074686973207472616e73616374696f6e0081525060400191505060405180910390fd5b600160149054906101000a900460ff16151515610988576040517f08c379a00000000000000000000000000000000000000000000000000000000081526004018080602001828103825260428152602001807f452d43432d303034202d2043657274696669636174696f6e206f70657261746981526020017f6f6e732061726520616c7265616479206f70656e20746f20657665727920757381526020017f657200000000000000000000000000000000000000000000000000000000000081525060600191505060405180910390fd5b60018060146101000a81548160ff02191690831515021790555056fea165627a7a723058201e3f85fb692cc305e16e18c291c83994c981363b11dc149bc6c9afd3367ea8a30029",
  "source": "pragma solidity ^0.5.0;\n\n\n/* @title CredentialsConstrained */\ncontract CredentialsConstrained {\n    \n    // State\n    mapping(address  => bool) public authorizedUsers;\n    address public contractOwner;\n    bool public isOpenToEveryUser;\n    \n    // Events\n    event AuthorizedUserAdded(address user);\n    event CredentialsRemoved(address user);\n    \n    // Modifiers\n    modifier onlyContractOwner() { \n        require(msg.sender == contractOwner, \n        \"E-CC-001 - Only the contract owner add execute this transaction\"); \n        _; \n    }\n\n    modifier onlyAuthorizedUsers() { \n        require(authorizedUsers[msg.sender] || isOpenToEveryUser, \n        \"E-CC-002 - Only authorized users can execute this transaction\"); \n        _; \n    }\n\n    modifier onlyWhenOpenToEveryUser() { \n        require(isOpenToEveryUser, \n        \"E-CC-003 - Certification operations are already closed to every user\"); \n        _; \n    }\n\n    modifier onlyWhenCloseToEveryUser() { \n        require(!isOpenToEveryUser, \n        \"E-CC-004 - Certification operations are already open to every user\"); \n        _; \n    }\n  \n    /* @notice Constructor\n    * @dev Initializes contract instance with the sender\n    * as both document owner and an authorizedUser.\n    */\n    constructor() public {    \n        contractOwner = msg.sender;\n        authorizedUsers[contractOwner] = true;\n    }\n    \n    /* @notice Fallback function\n    /* @dev It reverts the transaction for security reasons\n    */\n    function() external {\n        revert();\n    }\n\n    /* @notice Add authorized user\n    * @dev Includes a new user in the authorized users list\n    * @param user - the address you want to authorize\n    */\n    function addAuthorizedUser(address user) public onlyContractOwner {\n        authorizedUsers[user] = true;\n        emit AuthorizedUserAdded(user);\n    }\n    \n    /* @notice Remove credentials\n    * @dev Remove credentials of an authorized user\n    * @param user - the authorized address to be removed\n    */\n    function removeCredentials(address user) public onlyContractOwner {\n        delete authorizedUsers[user];\n        emit CredentialsRemoved(user);\n    }\n    \n    /* @notice Open to every user\n    * @dev Allows every address to certify documents in the contract\n    */\n    function openToEveryUser() public onlyContractOwner onlyWhenCloseToEveryUser {\n        isOpenToEveryUser = true;\n    }\n    \n    /* @notice Close to authorized users\n    * @dev Only allows document certification to authorized users\n    */\n    function closeToAuthorizedUsers() public onlyContractOwner onlyWhenOpenToEveryUser {\n        isOpenToEveryUser = false;\n    }\n\n}",
  "sourcePath": "/Users/xmunch/Desktop/Projects/Ethereum Projects/docuten-blockchain-proof/contracts/CredentialsConstrained.sol",
  "compiler": {
    "name": "solc",
    "version": "0.5.0+commit.1d4f565a.Emscripten.clang"
  },
  "schemaVersion": "3.0.0",
  "updatedAt": "2019-01-15T12:52:27.927Z",
  "devdoc": {
    "methods": {}
  },
  "userdoc": {
    "methods": {}
  }
}