{
  "contractName": "Lockable",
  "abi": [
    {
      "constant": true,
      "inputs": [
        {
          "name": "",
          "type": "address"
        }
      ],
      "name": "authorizedUsers",
      "outputs": [
        {
          "name": "",
          "type": "bool"
        }
      ],
      "payable": false,
      "stateMutability": "view",
      "type": "function"
    },
    {
      "constant": true,
      "inputs": [],
      "name": "isOpenToEveryUser",
      "outputs": [
        {
          "name": "",
          "type": "bool"
        }
      ],
      "payable": false,
      "stateMutability": "view",
      "type": "function"
    },
    {
      "constant": true,
      "inputs": [],
      "name": "isLocked",
      "outputs": [
        {
          "name": "",
          "type": "bool"
        }
      ],
      "payable": false,
      "stateMutability": "view",
      "type": "function"
    },
    {
      "constant": true,
      "inputs": [],
      "name": "contractOwner",
      "outputs": [
        {
          "name": "",
          "type": "address"
        }
      ],
      "payable": false,
      "stateMutability": "view",
      "type": "function"
    },
    {
      "payable": false,
      "stateMutability": "nonpayable",
      "type": "fallback"
    },
    {
      "anonymous": false,
      "inputs": [],
      "name": "ContractLocked",
      "type": "event"
    },
    {
      "anonymous": false,
      "inputs": [],
      "name": "ContractUnlocked",
      "type": "event"
    },
    {
      "anonymous": false,
      "inputs": [
        {
          "indexed": false,
          "name": "user",
          "type": "address"
        }
      ],
      "name": "AuthorizedUserAdded",
      "type": "event"
    },
    {
      "anonymous": false,
      "inputs": [
        {
          "indexed": false,
          "name": "user",
          "type": "address"
        }
      ],
      "name": "CredentialsRemoved",
      "type": "event"
    },
    {
      "constant": false,
      "inputs": [],
      "name": "lock",
      "outputs": [],
      "payable": false,
      "stateMutability": "nonpayable",
      "type": "function"
    },
    {
      "constant": false,
      "inputs": [],
      "name": "unlock",
      "outputs": [],
      "payable": false,
      "stateMutability": "nonpayable",
      "type": "function"
    },
    {
      "constant": false,
      "inputs": [
        {
          "name": "user",
          "type": "address"
        }
      ],
      "name": "addAuthorizedUser",
      "outputs": [],
      "payable": false,
      "stateMutability": "nonpayable",
      "type": "function"
    },
    {
      "constant": false,
      "inputs": [
        {
          "name": "user",
          "type": "address"
        }
      ],
      "name": "removeCredentials",
      "outputs": [],
      "payable": false,
      "stateMutability": "nonpayable",
      "type": "function"
    },
    {
      "constant": false,
      "inputs": [],
      "name": "openToEveryUser",
      "outputs": [],
      "payable": false,
      "stateMutability": "nonpayable",
      "type": "function"
    },
    {
      "constant": false,
      "inputs": [],
      "name": "closeToAuthorizedUsers",
      "outputs": [],
      "payable": false,
      "stateMutability": "nonpayable",
      "type": "function"
    }
  ],
  "bytecode": "0x608060405233600160006101000a81548173ffffffffffffffffffffffffffffffffffffffff021916908373ffffffffffffffffffffffffffffffffffffffff1602179055506001600080600160009054906101000a900473ffffffffffffffffffffffffffffffffffffffff1673ffffffffffffffffffffffffffffffffffffffff1673ffffffffffffffffffffffffffffffffffffffff16815260200190815260200160002060006101000a81548160ff021916908315150217905550611245806100cd6000396000f3fe6080604052600436106100a4576000357c0100000000000000000000000000000000000000000000000000000000900463ffffffff168063177d2a74146100b65780631828983a146101075780633e36da48146101705780637320a2871461019f578063a4e2d634146101b6578063a69df4b5146101e5578063ce606ee0146101fc578063f3c6d71a14610253578063f83d08ba146102a4578063feab0777146102bb575b3480156100b057600080fd5b50600080fd5b3480156100c257600080fd5b50610105600480360360208110156100d957600080fd5b81019080803573ffffffffffffffffffffffffffffffffffffffff1690602001909291905050506102d2565b005b34801561011357600080fd5b506101566004803603602081101561012a57600080fd5b81019080803573ffffffffffffffffffffffffffffffffffffffff169060200190929190505050610571565b604051808215151515815260200191505060405180910390f35b34801561017c57600080fd5b50610185610591565b604051808215151515815260200191505060405180910390f35b3480156101ab57600080fd5b506101b46105a4565b005b3480156101c257600080fd5b506101cb610873565b604051808215151515815260200191505060405180910390f35b3480156101f157600080fd5b506101fa610886565b005b34801561020857600080fd5b50610211610a64565b604051808273ffffffffffffffffffffffffffffffffffffffff1673ffffffffffffffffffffffffffffffffffffffff16815260200191505060405180910390f35b34801561025f57600080fd5b506102a26004803603602081101561027657600080fd5b81019080803573ffffffffffffffffffffffffffffffffffffffff169060200190929190505050610a8a565b005b3480156102b057600080fd5b506102b9610d20565b005b3480156102c757600080fd5b506102d0610f4a565b005b600160159054906101000a900460ff161515156103c9576040517f08c379a00000000000000000000000000000000000000000000000000000000081526004018080602001828103825260768152602001807f452d4c4f434b2d303031202d205468697320636f6e747261637420686173206281526020017f65656e2074656d706f72617279206c6f636b656420666f72207365637572697481526020017f7920726561736f6e732e205468697320616374696f6e2063616e206e6f74206281526020017f6520706572666f726d6564207269676874206e6f772e0000000000000000000081525060800191505060405180910390fd5b600160009054906101000a900473ffffffffffffffffffffffffffffffffffffffff1673ffffffffffffffffffffffffffffffffffffffff163373ffffffffffffffffffffffffffffffffffffffff161415156104b4576040517f08c379a000000000000000000000000000000000000000000000000000000000815260040180806020018281038252603f8152602001807f452d43432d303031202d204f6e6c792074686520636f6e7472616374206f776e81526020017f65722061646420657865637574652074686973207472616e73616374696f6e0081525060400191505060405180910390fd5b60016000808373ffffffffffffffffffffffffffffffffffffffff1673ffffffffffffffffffffffffffffffffffffffff16815260200190815260200160002060006101000a81548160ff0219169083151502179055507f7e07c71a6d7714652e08d641a843dff01e823c8eeed08945be844015fe33539381604051808273ffffffffffffffffffffffffffffffffffffffff1673ffffffffffffffffffffffffffffffffffffffff16815260200191505060405180910390a150565b60006020528060005260406000206000915054906101000a900460ff1681565b600160149054906101000a900460ff1681565b600160159054906101000a900460ff1615151561069b576040517f08c379a00000000000000000000000000000000000000000000000000000000081526004018080602001828103825260768152602001807f452d4c4f434b2d303031202d205468697320636f6e747261637420686173206281526020017f65656e2074656d706f72617279206c6f636b656420666f72207365637572697481526020017f7920726561736f6e732e205468697320616374696f6e2063616e206e6f74206281526020017f6520706572666f726d6564207269676874206e6f772e0000000000000000000081525060800191505060405180910390fd5b600160009054906101000a900473ffffffffffffffffffffffffffffffffffffffff1673ffffffffffffffffffffffffffffffffffffffff163373ffffffffffffffffffffffffffffffffffffffff16141515610786576040517f08c379a000000000000000000000000000000000000000000000000000000000815260040180806020018281038252603f8152602001807f452d43432d303031202d204f6e6c792074686520636f6e7472616374206f776e81526020017f65722061646420657865637574652074686973207472616e73616374696f6e0081525060400191505060405180910390fd5b600160149054906101000a900460ff161515610856576040517f08c379a00000000000000000000000000000000000000000000000000000000081526004018080602001828103825260448152602001807f452d43432d303033202d2043657274696669636174696f6e206f70657261746981526020017f6f6e732061726520616c726561647920636c6f73656420746f2065766572792081526020017f757365720000000000000000000000000000000000000000000000000000000081525060600191505060405180910390fd5b6000600160146101000a81548160ff021916908315150217905550565b600160159054906101000a900460ff1681565b600160159054906101000a900460ff161515610930576040517f08c379a00000000000000000000000000000000000000000000000000000000081526004018080602001828103825260308152602001807f452d4c4f434b2d30303220202d205468697320636f6e7472616374206973206181526020017f6c726561647920756e6c6f636b65642e0000000000000000000000000000000081525060400191505060405180910390fd5b600160009054906101000a900473ffffffffffffffffffffffffffffffffffffffff1673ffffffffffffffffffffffffffffffffffffffff163373ffffffffffffffffffffffffffffffffffffffff16141515610a1b576040517f08c379a000000000000000000000000000000000000000000000000000000000815260040180806020018281038252603f8152602001807f452d43432d303031202d204f6e6c792074686520636f6e7472616374206f776e81526020017f65722061646420657865637574652074686973207472616e73616374696f6e0081525060400191505060405180910390fd5b6000600160156101000a81548160ff0219169083151502179055507f3e5f4fd66bc9f59f15a9304dbc6394e240a57a1b4eb7ca42a75c5d9b298da45560405160405180910390a1565b600160009054906101000a900473ffffffffffffffffffffffffffffffffffffffff1681565b600160159054906101000a900460ff16151515610b81576040517f08c379a00000000000000000000000000000000000000000000000000000000081526004018080602001828103825260768152602001807f452d4c4f434b2d303031202d205468697320636f6e747261637420686173206281526020017f65656e2074656d706f72617279206c6f636b656420666f72207365637572697481526020017f7920726561736f6e732e205468697320616374696f6e2063616e206e6f74206281526020017f6520706572666f726d6564207269676874206e6f772e0000000000000000000081525060800191505060405180910390fd5b600160009054906101000a900473ffffffffffffffffffffffffffffffffffffffff1673ffffffffffffffffffffffffffffffffffffffff163373ffffffffffffffffffffffffffffffffffffffff16141515610c6c576040517f08c379a000000000000000000000000000000000000000000000000000000000815260040180806020018281038252603f8152602001807f452d43432d303031202d204f6e6c792074686520636f6e7472616374206f776e81526020017f65722061646420657865637574652074686973207472616e73616374696f6e0081525060400191505060405180910390fd5b6000808273ffffffffffffffffffffffffffffffffffffffff1673ffffffffffffffffffffffffffffffffffffffff16815260200190815260200160002060006101000a81549060ff02191690557fbebbb6faf74eef3594a83912d2f77145b62aacc4520832f587e2130cdcbf08f081604051808273ffffffffffffffffffffffffffffffffffffffff1673ffffffffffffffffffffffffffffffffffffffff16815260200191505060405180910390a150565b600160009054906101000a900473ffffffffffffffffffffffffffffffffffffffff1673ffffffffffffffffffffffffffffffffffffffff163373ffffffffffffffffffffffffffffffffffffffff16141515610e0b576040517f08c379a000000000000000000000000000000000000000000000000000000000815260040180806020018281038252603f8152602001807f452d43432d303031202d204f6e6c792074686520636f6e7472616374206f776e81526020017f65722061646420657865637574652074686973207472616e73616374696f6e0081525060400191505060405180910390fd5b600160159054906101000a900460ff16151515610f02576040517f08c379a00000000000000000000000000000000000000000000000000000000081526004018080602001828103825260768152602001807f452d4c4f434b2d303031202d205468697320636f6e747261637420686173206281526020017f65656e2074656d706f72617279206c6f636b656420666f72207365637572697481526020017f7920726561736f6e732e205468697320616374696f6e2063616e206e6f74206281526020017f6520706572666f726d6564207269676874206e6f772e0000000000000000000081525060800191505060405180910390fd5b60018060156101000a81548160ff0219169083151502179055507f6f5ffb7e2a6656882126927a79e460ca27ab657927d593522b90dc28229f7dbc60405160405180910390a1565b600160159054906101000a900460ff16151515611041576040517f08c379a00000000000000000000000000000000000000000000000000000000081526004018080602001828103825260768152602001807f452d4c4f434b2d303031202d205468697320636f6e747261637420686173206281526020017f65656e2074656d706f72617279206c6f636b656420666f72207365637572697481526020017f7920726561736f6e732e205468697320616374696f6e2063616e206e6f74206281526020017f6520706572666f726d6564207269676874206e6f772e0000000000000000000081525060800191505060405180910390fd5b600160009054906101000a900473ffffffffffffffffffffffffffffffffffffffff1673ffffffffffffffffffffffffffffffffffffffff163373ffffffffffffffffffffffffffffffffffffffff1614151561112c576040517f08c379a000000000000000000000000000000000000000000000000000000000815260040180806020018281038252603f8152602001807f452d43432d303031202d204f6e6c792074686520636f6e7472616374206f776e81526020017f65722061646420657865637574652074686973207472616e73616374696f6e0081525060400191505060405180910390fd5b600160149054906101000a900460ff161515156111fd576040517f08c379a00000000000000000000000000000000000000000000000000000000081526004018080602001828103825260428152602001807f452d43432d303034202d2043657274696669636174696f6e206f70657261746981526020017f6f6e732061726520616c7265616479206f70656e20746f20657665727920757381526020017f657200000000000000000000000000000000000000000000000000000000000081525060600191505060405180910390fd5b60018060146101000a81548160ff02191690831515021790555056fea165627a7a7230582012a9bac7ffbe0a148bab8dc04f94c1786db0fd3e4c55b5773b534fbbb8aa0c840029",
  "source": "pragma solidity ^0.5.0;\n\nimport \"./CredentialsConstrained.sol\";\n\n/* @title Lockable */\ncontract Lockable is CredentialsConstrained {\n  \n  // State\n  bool public isLocked;\n  \n  // Events\n  event ContractLocked();\n  event ContractUnlocked();\n  \n  // Modifiers\n  modifier onlyWhenUnlocked() { require(!isLocked, \"E-LOCK-001 - This contract has been temporary locked for security reasons. This action can not be performed right now.\"); _; }\n  modifier onlyWhenLocked() { require(isLocked, \"E-LOCK-002  - This contract is already unlocked.\"); _; }\n \n   /* @notice Lock contract\n   * @dev Maintenance and security circuit locker\n   */\n  function lock() public onlyContractOwner onlyWhenUnlocked{\n     isLocked = true;\n     emit ContractLocked();\n  }\n  \n  /* @notice Unlock contract\n   * @dev Maintenance and security circuit unlocker\n   */\n  function unlock() public onlyWhenLocked onlyContractOwner{\n     isLocked = false;\n      emit ContractUnlocked();\n  }\n  \n   /* @notice Add authorized user (overrided function with new modifier)\n   * @dev Includes a new user in the authorized users list\n   * @param user - the address you want to authorize\n   */\n  function addAuthorizedUser(address user) public onlyWhenUnlocked onlyContractOwner{\n     authorizedUsers[user] = true;\n     emit AuthorizedUserAdded(user);\n  }\n  \n  /* @notice Remove credentials (overrided function with new modifier)\n   * @dev Remove credentials of an authorized user\n   * @param user - the authorized address to be removed\n   */\n  function removeCredentials(address user) public onlyWhenUnlocked onlyContractOwner{\n     delete authorizedUsers[user];\n     emit CredentialsRemoved(user);\n  }\n  \n    \n  /* @notice Open to every user  (overrided function with new modifier)\n   * @dev Allows every address to certify documents in the contract\n   */\n  function openToEveryUser() public onlyWhenUnlocked onlyContractOwner onlyWhenCloseToEveryUser{\n     isOpenToEveryUser = true;\n  }\n   \n  /* @notice Close to authorized users  (overrided function with new modifier)\n   * @dev Only allows document certification to authorized users\n   */\n  function closeToAuthorizedUsers() public onlyWhenUnlocked onlyContractOwner onlyWhenOpenToEveryUser{\n     isOpenToEveryUser = false;\n  }\n    \n  \n  /* @notice Fallback function\n  /* @dev It reverts the transaction for security reasons\n  */\n  function() external {\n      revert();\n  }\n  \n}",
  "sourcePath": "/Users/xmunch/Desktop/Projects/Ethereum Projects/docuten-blockchain-proof/contracts/Lockable.sol",
  "compiler": {
    "name": "solc",
    "version": "0.5.0+commit.1d4f565a.Emscripten.clang"
  },
  "schemaVersion": "3.0.0",
  "updatedAt": "2018-12-26T07:32:53.741Z",
  "devdoc": {
    "methods": {}
  },
  "userdoc": {
    "methods": {}
  }
}