{
  "contractName": "ProofOfExistence",
  "abi": [
    {
      "constant": false,
      "inputs": [
        {
          "name": "user",
          "type": "address"
        }
      ],
      "name": "addAuthorizedUser",
      "outputs": [],
      "payable": false,
      "stateMutability": "nonpayable",
      "type": "function"
    },
    {
      "constant": true,
      "inputs": [
        {
          "name": "",
          "type": "address"
        }
      ],
      "name": "authorizedUsers",
      "outputs": [
        {
          "name": "",
          "type": "bool"
        }
      ],
      "payable": false,
      "stateMutability": "view",
      "type": "function"
    },
    {
      "constant": true,
      "inputs": [],
      "name": "isOpenToEveryUser",
      "outputs": [
        {
          "name": "",
          "type": "bool"
        }
      ],
      "payable": false,
      "stateMutability": "view",
      "type": "function"
    },
    {
      "constant": true,
      "inputs": [
        {
          "name": "",
          "type": "bytes32"
        }
      ],
      "name": "idByDocumentHash",
      "outputs": [
        {
          "name": "",
          "type": "uint256"
        }
      ],
      "payable": false,
      "stateMutability": "view",
      "type": "function"
    },
    {
      "constant": true,
      "inputs": [
        {
          "name": "",
          "type": "uint256"
        }
      ],
      "name": "hashByDocumentId",
      "outputs": [
        {
          "name": "",
          "type": "bytes32"
        }
      ],
      "payable": false,
      "stateMutability": "view",
      "type": "function"
    },
    {
      "constant": false,
      "inputs": [],
      "name": "closeToAuthorizedUsers",
      "outputs": [],
      "payable": false,
      "stateMutability": "nonpayable",
      "type": "function"
    },
    {
      "constant": true,
      "inputs": [
        {
          "name": "",
          "type": "uint256"
        }
      ],
      "name": "ownerByDocumentId",
      "outputs": [
        {
          "name": "",
          "type": "address"
        }
      ],
      "payable": false,
      "stateMutability": "view",
      "type": "function"
    },
    {
      "constant": true,
      "inputs": [],
      "name": "isLocked",
      "outputs": [
        {
          "name": "",
          "type": "bool"
        }
      ],
      "payable": false,
      "stateMutability": "view",
      "type": "function"
    },
    {
      "constant": false,
      "inputs": [],
      "name": "unlock",
      "outputs": [],
      "payable": false,
      "stateMutability": "nonpayable",
      "type": "function"
    },
    {
      "constant": true,
      "inputs": [
        {
          "name": "",
          "type": "address"
        },
        {
          "name": "",
          "type": "uint256"
        }
      ],
      "name": "documentsByOwnerAddress",
      "outputs": [
        {
          "name": "",
          "type": "uint256"
        }
      ],
      "payable": false,
      "stateMutability": "view",
      "type": "function"
    },
    {
      "constant": true,
      "inputs": [],
      "name": "lastId",
      "outputs": [
        {
          "name": "",
          "type": "uint256"
        }
      ],
      "payable": false,
      "stateMutability": "view",
      "type": "function"
    },
    {
      "constant": true,
      "inputs": [
        {
          "name": "",
          "type": "uint256"
        }
      ],
      "name": "ipfsHashByDocumentId",
      "outputs": [
        {
          "name": "",
          "type": "string"
        }
      ],
      "payable": false,
      "stateMutability": "view",
      "type": "function"
    },
    {
      "constant": true,
      "inputs": [],
      "name": "contractOwner",
      "outputs": [
        {
          "name": "",
          "type": "address"
        }
      ],
      "payable": false,
      "stateMutability": "view",
      "type": "function"
    },
    {
      "constant": false,
      "inputs": [
        {
          "name": "user",
          "type": "address"
        }
      ],
      "name": "removeCredentials",
      "outputs": [],
      "payable": false,
      "stateMutability": "nonpayable",
      "type": "function"
    },
    {
      "constant": false,
      "inputs": [],
      "name": "lock",
      "outputs": [],
      "payable": false,
      "stateMutability": "nonpayable",
      "type": "function"
    },
    {
      "constant": false,
      "inputs": [],
      "name": "openToEveryUser",
      "outputs": [],
      "payable": false,
      "stateMutability": "nonpayable",
      "type": "function"
    },
    {
      "payable": false,
      "stateMutability": "nonpayable",
      "type": "fallback"
    },
    {
      "anonymous": false,
      "inputs": [],
      "name": "ContractLocked",
      "type": "event"
    },
    {
      "anonymous": false,
      "inputs": [],
      "name": "ContractUnlocked",
      "type": "event"
    },
    {
      "anonymous": false,
      "inputs": [
        {
          "indexed": false,
          "name": "user",
          "type": "address"
        }
      ],
      "name": "AuthorizedUserAdded",
      "type": "event"
    },
    {
      "anonymous": false,
      "inputs": [
        {
          "indexed": false,
          "name": "user",
          "type": "address"
        }
      ],
      "name": "CredentialsRemoved",
      "type": "event"
    },
    {
      "constant": false,
      "inputs": [
        {
          "name": "_docHash",
          "type": "bytes32"
        },
        {
          "name": "_ipfsHash",
          "type": "string"
        }
      ],
      "name": "certifyDocument",
      "outputs": [
        {
          "name": "",
          "type": "uint256"
        }
      ],
      "payable": false,
      "stateMutability": "nonpayable",
      "type": "function"
    },
    {
      "constant": false,
      "inputs": [
        {
          "name": "_documentHash",
          "type": "bytes32"
        }
      ],
      "name": "certifyDocument",
      "outputs": [
        {
          "name": "",
          "type": "uint256"
        }
      ],
      "payable": false,
      "stateMutability": "nonpayable",
      "type": "function"
    }
  ],
  "bytecode": "0x6080604052600060025533600160006101000a81548173ffffffffffffffffffffffffffffffffffffffff021916908373ffffffffffffffffffffffffffffffffffffffff1602179055506001600080600160009054906101000a900473ffffffffffffffffffffffffffffffffffffffff1673ffffffffffffffffffffffffffffffffffffffff1673ffffffffffffffffffffffffffffffffffffffff16815260200190815260200160002060006101000a81548160ff021916908315150217905550611c07806100d26000396000f3fe6080604052600436106100fc576000357c0100000000000000000000000000000000000000000000000000000000900463ffffffff168063177d2a741461010e5780631828983a1461015f5780633e36da48146101c8578063435b022f146101f757806371f94e83146102465780637320a287146102955780638a701ed1146102ac578063965b72dc146103275780639e244fc91461040d578063a4e2d6341461045c578063a69df4b51461048b578063ad0eafec146104a2578063c1292cc314610511578063c85eb0471461053c578063ce606ee0146105f0578063f3c6d71a14610647578063f83d08ba14610698578063feab0777146106af575b34801561010857600080fd5b50600080fd5b34801561011a57600080fd5b5061015d6004803603602081101561013157600080fd5b81019080803573ffffffffffffffffffffffffffffffffffffffff1690602001909291905050506106c6565b005b34801561016b57600080fd5b506101ae6004803603602081101561018257600080fd5b81019080803573ffffffffffffffffffffffffffffffffffffffff169060200190929190505050610919565b604051808215151515815260200191505060405180910390f35b3480156101d457600080fd5b506101dd610939565b604051808215151515815260200191505060405180910390f35b34801561020357600080fd5b506102306004803603602081101561021a57600080fd5b810190808035906020019092919050505061094c565b6040518082815260200191505060405180910390f35b34801561025257600080fd5b5061027f6004803603602081101561026957600080fd5b8101908080359060200190929190505050610964565b6040518082815260200191505060405180910390f35b3480156102a157600080fd5b506102aa61097c565b005b3480156102b857600080fd5b506102e5600480360360208110156102cf57600080fd5b8101908080359060200190929190505050610bff565b604051808273ffffffffffffffffffffffffffffffffffffffff1673ffffffffffffffffffffffffffffffffffffffff16815260200191505060405180910390f35b34801561033357600080fd5b506103f76004803603604081101561034a57600080fd5b81019080803590602001909291908035906020019064010000000081111561037157600080fd5b82018360208201111561038357600080fd5b803590602001918460018302840111640100000000831117156103a557600080fd5b91908080601f016020809104026020016040519081016040528093929190818152602001838380828437600081840152601f19601f820116905080830192505050505050509192919290505050610c32565b6040518082815260200191505060405180910390f35b34801561041957600080fd5b506104466004803603602081101561043057600080fd5b8101908080359060200190929190505050610fc3565b6040518082815260200191505060405180910390f35b34801561046857600080fd5b5061047161118e565b604051808215151515815260200191505060405180910390f35b34801561049757600080fd5b506104a06111a1565b005b3480156104ae57600080fd5b506104fb600480360360408110156104c557600080fd5b81019080803573ffffffffffffffffffffffffffffffffffffffff1690602001909291908035906020019092919050505061137f565b6040518082815260200191505060405180910390f35b34801561051d57600080fd5b506105266113af565b6040518082815260200191505060405180910390f35b34801561054857600080fd5b506105756004803603602081101561055f57600080fd5b81019080803590602001909291905050506113b5565b6040518080602001828103825283818151815260200191508051906020019080838360005b838110156105b557808201518184015260208101905061059a565b50505050905090810190601f1680156105e25780820380516001836020036101000a031916815260200191505b509250505060405180910390f35b3480156105fc57600080fd5b50610605611465565b604051808273ffffffffffffffffffffffffffffffffffffffff1673ffffffffffffffffffffffffffffffffffffffff16815260200191505060405180910390f35b34801561065357600080fd5b506106966004803603602081101561066a57600080fd5b81019080803573ffffffffffffffffffffffffffffffffffffffff16906020019092919050505061148b565b005b3480156106a457600080fd5b506106ad6116d5565b005b3480156106bb57600080fd5b506106c46118b3565b005b600160159054906101000a900460ff16151515610771576040517f08c379a00000000000000000000000000000000000000000000000000000000081526004018080602001828103825260278152602001807f452d4c4f434b2d303031202d20436f6e74726163742074656d706f726172792081526020017f6c6f636b65642e0000000000000000000000000000000000000000000000000081525060400191505060405180910390fd5b600160009054906101000a900473ffffffffffffffffffffffffffffffffffffffff1673ffffffffffffffffffffffffffffffffffffffff163373ffffffffffffffffffffffffffffffffffffffff1614151561085c576040517f08c379a000000000000000000000000000000000000000000000000000000000815260040180806020018281038252603f8152602001807f452d43432d303031202d204f6e6c792074686520636f6e7472616374206f776e81526020017f65722061646420657865637574652074686973207472616e73616374696f6e0081525060400191505060405180910390fd5b60016000808373ffffffffffffffffffffffffffffffffffffffff1673ffffffffffffffffffffffffffffffffffffffff16815260200190815260200160002060006101000a81548160ff0219169083151502179055507f7e07c71a6d7714652e08d641a843dff01e823c8eeed08945be844015fe33539381604051808273ffffffffffffffffffffffffffffffffffffffff1673ffffffffffffffffffffffffffffffffffffffff16815260200191505060405180910390a150565b60006020528060005260406000206000915054906101000a900460ff1681565b600160149054906101000a900460ff1681565b60036020528060005260406000206000915090505481565b60066020528060005260406000206000915090505481565b600160159054906101000a900460ff16151515610a27576040517f08c379a00000000000000000000000000000000000000000000000000000000081526004018080602001828103825260278152602001807f452d4c4f434b2d303031202d20436f6e74726163742074656d706f726172792081526020017f6c6f636b65642e0000000000000000000000000000000000000000000000000081525060400191505060405180910390fd5b600160009054906101000a900473ffffffffffffffffffffffffffffffffffffffff1673ffffffffffffffffffffffffffffffffffffffff163373ffffffffffffffffffffffffffffffffffffffff16141515610b12576040517f08c379a000000000000000000000000000000000000000000000000000000000815260040180806020018281038252603f8152602001807f452d43432d303031202d204f6e6c792074686520636f6e7472616374206f776e81526020017f65722061646420657865637574652074686973207472616e73616374696f6e0081525060400191505060405180910390fd5b600160149054906101000a900460ff161515610be2576040517f08c379a00000000000000000000000000000000000000000000000000000000081526004018080602001828103825260448152602001807f452d43432d303033202d2043657274696669636174696f6e206f70657261746981526020017f6f6e732061726520616c726561647920636c6f73656420746f2065766572792081526020017f757365720000000000000000000000000000000000000000000000000000000081525060600191505060405180910390fd5b6000600160146101000a81548160ff021916908315150217905550565b60046020528060005260406000206000915054906101000a900473ffffffffffffffffffffffffffffffffffffffff1681565b60008060003373ffffffffffffffffffffffffffffffffffffffff1673ffffffffffffffffffffffffffffffffffffffff16815260200190815260200160002060009054906101000a900460ff1680610c975750600160149054906101000a900460ff165b1515610d31576040517f08c379a000000000000000000000000000000000000000000000000000000000815260040180806020018281038252603d8152602001807f452d43432d303032202d204f6e6c7920617574686f72697a656420757365727381526020017f2063616e20657865637574652074686973207472616e73616374696f6e00000081525060400191505060405180910390fd5b600160159054906101000a900460ff16151515610ddc576040517f08c379a00000000000000000000000000000000000000000000000000000000081526004018080602001828103825260278152602001807f452d4c4f434b2d303031202d20436f6e74726163742074656d706f726172792081526020017f6c6f636b65642e0000000000000000000000000000000000000000000000000081525060400191505060405180910390fd5b60006003600085815260200190815260200160002054141515610e8d576040517f08c379a00000000000000000000000000000000000000000000000000000000081526004018080602001828103825260408152602001807f452d504f452d303031202d20546865726520697320616c72656164792061206381526020017f657274696669656420646f63756d656e7420776974682074686174206861736881525060400191505060405180910390fd5b6002600081548092919060010191905055506000600254905083600660008381526020019081526020016000208190555082600560008381526020019081526020016000209080519060200190610ee5929190611b36565b50806003600086815260200190815260200160002081905550336004600083815260200190815260200160002060006101000a81548173ffffffffffffffffffffffffffffffffffffffff021916908373ffffffffffffffffffffffffffffffffffffffff160217905550600760003373ffffffffffffffffffffffffffffffffffffffff1673ffffffffffffffffffffffffffffffffffffffff1681526020019081526020016000208190806001815401808255809150509060018203906000526020600020016000909192909190915055508091505092915050565b60008060003373ffffffffffffffffffffffffffffffffffffffff1673ffffffffffffffffffffffffffffffffffffffff16815260200190815260200160002060009054906101000a900460ff16806110285750600160149054906101000a900460ff165b15156110c2576040517f08c379a000000000000000000000000000000000000000000000000000000000815260040180806020018281038252603d8152602001807f452d43432d303032202d204f6e6c7920617574686f72697a656420757365727381526020017f2063616e20657865637574652074686973207472616e73616374696f6e00000081525060400191505060405180910390fd5b600160159054906101000a900460ff1615151561116d576040517f08c379a00000000000000000000000000000000000000000000000000000000081526004018080602001828103825260278152602001807f452d4c4f434b2d303031202d20436f6e74726163742074656d706f726172792081526020017f6c6f636b65642e0000000000000000000000000000000000000000000000000081525060400191505060405180910390fd5b611187826020604051908101604052806000815250610c32565b9050919050565b600160159054906101000a900460ff1681565b600160159054906101000a900460ff16151561124b576040517f08c379a00000000000000000000000000000000000000000000000000000000081526004018080602001828103825260308152602001807f452d4c4f434b2d30303220202d205468697320636f6e7472616374206973206181526020017f6c726561647920756e6c6f636b65642e0000000000000000000000000000000081525060400191505060405180910390fd5b600160009054906101000a900473ffffffffffffffffffffffffffffffffffffffff1673ffffffffffffffffffffffffffffffffffffffff163373ffffffffffffffffffffffffffffffffffffffff16141515611336576040517f08c379a000000000000000000000000000000000000000000000000000000000815260040180806020018281038252603f8152602001807f452d43432d303031202d204f6e6c792074686520636f6e7472616374206f776e81526020017f65722061646420657865637574652074686973207472616e73616374696f6e0081525060400191505060405180910390fd5b6000600160156101000a81548160ff0219169083151502179055507f3e5f4fd66bc9f59f15a9304dbc6394e240a57a1b4eb7ca42a75c5d9b298da45560405160405180910390a1565b60076020528160005260406000208181548110151561139a57fe5b90600052602060002001600091509150505481565b60025481565b60056020528060005260406000206000915090508054600181600116156101000203166002900480601f01602080910402602001604051908101604052809291908181526020018280546001816001161561010002031660029004801561145d5780601f106114325761010080835404028352916020019161145d565b820191906000526020600020905b81548152906001019060200180831161144057829003601f168201915b505050505081565b600160009054906101000a900473ffffffffffffffffffffffffffffffffffffffff1681565b600160159054906101000a900460ff16151515611536576040517f08c379a00000000000000000000000000000000000000000000000000000000081526004018080602001828103825260278152602001807f452d4c4f434b2d303031202d20436f6e74726163742074656d706f726172792081526020017f6c6f636b65642e0000000000000000000000000000000000000000000000000081525060400191505060405180910390fd5b600160009054906101000a900473ffffffffffffffffffffffffffffffffffffffff1673ffffffffffffffffffffffffffffffffffffffff163373ffffffffffffffffffffffffffffffffffffffff16141515611621576040517f08c379a000000000000000000000000000000000000000000000000000000000815260040180806020018281038252603f8152602001807f452d43432d303031202d204f6e6c792074686520636f6e7472616374206f776e81526020017f65722061646420657865637574652074686973207472616e73616374696f6e0081525060400191505060405180910390fd5b6000808273ffffffffffffffffffffffffffffffffffffffff1673ffffffffffffffffffffffffffffffffffffffff16815260200190815260200160002060006101000a81549060ff02191690557fbebbb6faf74eef3594a83912d2f77145b62aacc4520832f587e2130cdcbf08f081604051808273ffffffffffffffffffffffffffffffffffffffff1673ffffffffffffffffffffffffffffffffffffffff16815260200191505060405180910390a150565b600160159054906101000a900460ff16151515611780576040517f08c379a00000000000000000000000000000000000000000000000000000000081526004018080602001828103825260278152602001807f452d4c4f434b2d303031202d20436f6e74726163742074656d706f726172792081526020017f6c6f636b65642e0000000000000000000000000000000000000000000000000081525060400191505060405180910390fd5b600160009054906101000a900473ffffffffffffffffffffffffffffffffffffffff1673ffffffffffffffffffffffffffffffffffffffff163373ffffffffffffffffffffffffffffffffffffffff1614151561186b576040517f08c379a000000000000000000000000000000000000000000000000000000000815260040180806020018281038252603f8152602001807f452d43432d303031202d204f6e6c792074686520636f6e7472616374206f776e81526020017f65722061646420657865637574652074686973207472616e73616374696f6e0081525060400191505060405180910390fd5b60018060156101000a81548160ff0219169083151502179055507f6f5ffb7e2a6656882126927a79e460ca27ab657927d593522b90dc28229f7dbc60405160405180910390a1565b600160159054906101000a900460ff1615151561195e576040517f08c379a00000000000000000000000000000000000000000000000000000000081526004018080602001828103825260278152602001807f452d4c4f434b2d303031202d20436f6e74726163742074656d706f726172792081526020017f6c6f636b65642e0000000000000000000000000000000000000000000000000081525060400191505060405180910390fd5b600160009054906101000a900473ffffffffffffffffffffffffffffffffffffffff1673ffffffffffffffffffffffffffffffffffffffff163373ffffffffffffffffffffffffffffffffffffffff16141515611a49576040517f08c379a000000000000000000000000000000000000000000000000000000000815260040180806020018281038252603f8152602001807f452d43432d303031202d204f6e6c792074686520636f6e7472616374206f776e81526020017f65722061646420657865637574652074686973207472616e73616374696f6e0081525060400191505060405180910390fd5b600160149054906101000a900460ff16151515611b1a576040517f08c379a00000000000000000000000000000000000000000000000000000000081526004018080602001828103825260428152602001807f452d43432d303034202d2043657274696669636174696f6e206f70657261746981526020017f6f6e732061726520616c7265616479206f70656e20746f20657665727920757381526020017f657200000000000000000000000000000000000000000000000000000000000081525060600191505060405180910390fd5b60018060146101000a81548160ff021916908315150217905550565b828054600181600116156101000203166002900490600052602060002090601f016020900481019282601f10611b7757805160ff1916838001178555611ba5565b82800160010185558215611ba5579182015b82811115611ba4578251825591602001919060010190611b89565b5b509050611bb29190611bb6565b5090565b611bd891905b80821115611bd4576000816000905550600101611bbc565b5090565b9056fea165627a7a7230582061745d7e8a6392ff89b39d829ea1be378b15c991276df40631c1a3c8d12bedeb0029",
  "source": "pragma solidity ^0.5.0;\n\nimport \"./Lockable.sol\";\n\n\n/* @title Proof of Existence */\ncontract ProofOfExistence is Lockable {\n  \n    // State\n    uint256 public lastId = 0;\n    mapping(bytes32  => uint256) public idByDocumentHash;\n    mapping(uint256  => address) public ownerByDocumentId;\n    mapping(uint256  => string) public ipfsHashByDocumentId;\n    mapping(uint256  => bytes32) public hashByDocumentId;\n    mapping(address  => uint256[]) public documentsByOwnerAddress;\n    \n    /* @notice Fallback function\n    /* @dev It reverts the transaction for security reasons\n    */\n    function() external {\n        revert();\n    }\n\n    /* @notice Certify document with hash\n    * @dev It registers in the blockchain the proof-of-existence of an external document\n    * @param _documentHash - Hash of the document (it should have 32 bytes)\n    * @return id - returns certified document id\n    */\n    function certifyDocument(bytes32 _documentHash) public onlyAuthorizedUsers onlyWhenUnlocked returns(uint256) {\n        return certifyDocument(_documentHash, \"\");\n    }\n    \n    /* @notice Certify document with hash and IPFS hash\n    * @dev It registers in the blockchain the proof-of-existence of an external document\n    * @param _documentHash - Hash of the document (it should have 32 bytes)\n    * @param _ipfsHash - IPFS Hash, if it exists \n    * @return id - returns certified document id\n    */\n    function certifyDocument(bytes32 _docHash, string memory _ipfsHash) \n    public onlyAuthorizedUsers onlyWhenUnlocked returns(uint256) {\n        \n        require(idByDocumentHash[_docHash] == 0, \"E-POE-001 - There is already a certified document with that hash\");\n    \n        //An auto-incremental identifier will be generated by this method\n        lastId++;\n        uint256 _id = lastId;\n      \n        hashByDocumentId[_id] = _docHash; //Add to list of document hashes\n        ipfsHashByDocumentId[_id] = _ipfsHash; //Add to list of ipfs hashes\n        idByDocumentHash[_docHash] = _id; //Add hash-id mapping information\n        ownerByDocumentId[_id] = msg.sender; //Link document to owner      \n        documentsByOwnerAddress[msg.sender].push(_id); //Add hash to owner's documents list\n      \n        return _id;\n    }\n    \n    function bytes32ToString(bytes32 x) private pure returns (string memory) {\n        bytes memory bytesString = new bytes(32);\n        uint charCount = 0;\n        \n        for (uint j = 0; j < 32; j++) {\n            byte char = byte(bytes32(uint(x) * 2 ** (8 * j)));\n            if (char != 0) {\n                bytesString[charCount] = char;\n                charCount++;\n            }\n        }\n        \n        bytes memory bytesStringTrimmed = new bytes(charCount);\n        for (uint j = 0; j < charCount; j++) {\n            bytesStringTrimmed[j] = bytesString[j];\n        }\n        \n        return string(bytesStringTrimmed);\n    }\n\n  \n}",
  "sourcePath": "/Users/xmunch/Desktop/Projects/Ethereum Projects/docuten-blockchain-proof/contracts/ProofOfExistence.sol",
  "compiler": {
    "name": "solc",
    "version": "0.5.0+commit.1d4f565a.Emscripten.clang"
  },
  "schemaVersion": "3.0.1",
  "updatedAt": "2019-01-29T11:05:37.641Z",
  "devdoc": {
    "methods": {}
  },
  "userdoc": {
    "methods": {}
  }
}