{
  "contractName": "ProofOfLifeProxy",
  "abi": [
    {
      "constant": true,
      "inputs": [
        {
          "name": "",
          "type": "address"
        }
      ],
      "name": "authorizedUsers",
      "outputs": [
        {
          "name": "",
          "type": "bool"
        }
      ],
      "payable": false,
      "stateMutability": "view",
      "type": "function",
      "signature": "0x1828983a"
    },
    {
      "constant": true,
      "inputs": [],
      "name": "isOpenToEveryUser",
      "outputs": [
        {
          "name": "",
          "type": "bool"
        }
      ],
      "payable": false,
      "stateMutability": "view",
      "type": "function",
      "signature": "0x3e36da48"
    },
    {
      "constant": true,
      "inputs": [
        {
          "name": "",
          "type": "bytes32"
        }
      ],
      "name": "idByDocumentHash",
      "outputs": [
        {
          "name": "",
          "type": "uint256"
        }
      ],
      "payable": false,
      "stateMutability": "view",
      "type": "function",
      "signature": "0x435b022f"
    },
    {
      "constant": true,
      "inputs": [
        {
          "name": "",
          "type": "uint256"
        },
        {
          "name": "",
          "type": "uint256"
        }
      ],
      "name": "auditRegistryByDocumentId",
      "outputs": [
        {
          "name": "description",
          "type": "string"
        },
        {
          "name": "timestamp",
          "type": "string"
        },
        {
          "name": "blockTimestamp",
          "type": "uint256"
        }
      ],
      "payable": false,
      "stateMutability": "view",
      "type": "function",
      "signature": "0x6e8cc87f"
    },
    {
      "constant": true,
      "inputs": [
        {
          "name": "",
          "type": "uint256"
        }
      ],
      "name": "hashByDocumentId",
      "outputs": [
        {
          "name": "",
          "type": "string"
        }
      ],
      "payable": false,
      "stateMutability": "view",
      "type": "function",
      "signature": "0x71f94e83"
    },
    {
      "constant": true,
      "inputs": [
        {
          "name": "",
          "type": "uint256"
        }
      ],
      "name": "ownerByDocumentId",
      "outputs": [
        {
          "name": "",
          "type": "address"
        }
      ],
      "payable": false,
      "stateMutability": "view",
      "type": "function",
      "signature": "0x8a701ed1"
    },
    {
      "constant": true,
      "inputs": [],
      "name": "delegateCallAddress",
      "outputs": [
        {
          "name": "",
          "type": "address"
        }
      ],
      "payable": false,
      "stateMutability": "view",
      "type": "function",
      "signature": "0xa362390a"
    },
    {
      "constant": true,
      "inputs": [],
      "name": "isLocked",
      "outputs": [
        {
          "name": "",
          "type": "bool"
        }
      ],
      "payable": false,
      "stateMutability": "view",
      "type": "function",
      "signature": "0xa4e2d634"
    },
    {
      "constant": true,
      "inputs": [
        {
          "name": "",
          "type": "address"
        },
        {
          "name": "",
          "type": "uint256"
        }
      ],
      "name": "documentsByOwnerAddress",
      "outputs": [
        {
          "name": "",
          "type": "uint256"
        }
      ],
      "payable": false,
      "stateMutability": "view",
      "type": "function",
      "signature": "0xad0eafec"
    },
    {
      "constant": true,
      "inputs": [
        {
          "name": "",
          "type": "uint256"
        }
      ],
      "name": "ipfsHashByDocumentId",
      "outputs": [
        {
          "name": "",
          "type": "string"
        }
      ],
      "payable": false,
      "stateMutability": "view",
      "type": "function",
      "signature": "0xc85eb047"
    },
    {
      "constant": true,
      "inputs": [],
      "name": "contractOwner",
      "outputs": [
        {
          "name": "",
          "type": "address"
        }
      ],
      "payable": false,
      "stateMutability": "view",
      "type": "function",
      "signature": "0xce606ee0"
    },
    {
      "inputs": [
        {
          "name": "existingContractAddress",
          "type": "address"
        }
      ],
      "payable": false,
      "stateMutability": "nonpayable",
      "type": "constructor",
      "signature": "constructor"
    },
    {
      "anonymous": false,
      "inputs": [
        {
          "indexed": false,
          "name": "call",
          "type": "string"
        },
        {
          "indexed": false,
          "name": "result",
          "type": "bool"
        }
      ],
      "name": "DelegateCallEvent",
      "type": "event",
      "signature": "0x1be77fb289cfaf0382d7113e77bb87b4ce9ff776ce290a27e92991246140bd7b"
    },
    {
      "constant": false,
      "inputs": [
        {
          "name": "existingContractAddress",
          "type": "address"
        }
      ],
      "name": "updateDelegateCallAddress",
      "outputs": [],
      "payable": false,
      "stateMutability": "nonpayable",
      "type": "function",
      "signature": "0xbba9a352"
    },
    {
      "constant": false,
      "inputs": [],
      "name": "addProxyAsAuthorizedUser",
      "outputs": [],
      "payable": false,
      "stateMutability": "nonpayable",
      "type": "function",
      "signature": "0xd92d2a49"
    },
    {
      "constant": false,
      "inputs": [],
      "name": "lock",
      "outputs": [],
      "payable": false,
      "stateMutability": "nonpayable",
      "type": "function",
      "signature": "0xf83d08ba"
    },
    {
      "constant": false,
      "inputs": [],
      "name": "unlock",
      "outputs": [],
      "payable": false,
      "stateMutability": "nonpayable",
      "type": "function",
      "signature": "0xa69df4b5"
    },
    {
      "constant": false,
      "inputs": [
        {
          "name": "_documentHash",
          "type": "string"
        },
        {
          "name": "_ipfsHash",
          "type": "string"
        },
        {
          "name": "_timestamp",
          "type": "string"
        }
      ],
      "name": "certifyDocumentCreationWithIPFSHash",
      "outputs": [
        {
          "name": "",
          "type": "uint256"
        }
      ],
      "payable": false,
      "stateMutability": "nonpayable",
      "type": "function",
      "signature": "0xdef63c05"
    },
    {
      "constant": true,
      "inputs": [],
      "name": "getDocumentsOwnedByProxy",
      "outputs": [
        {
          "name": "",
          "type": "uint256[]"
        }
      ],
      "payable": false,
      "stateMutability": "view",
      "type": "function",
      "signature": "0x47dd629c"
    }
  ],
  "bytecode": "0x6080604052600060025534801561001557600080fd5b50604051602080611d678339810180604052602081101561003557600080fd5b810190808051906020019092919050505080600960006101000a81548173ffffffffffffffffffffffffffffffffffffffff021916908373ffffffffffffffffffffffffffffffffffffffff16021790555033600160006101000a81548173ffffffffffffffffffffffffffffffffffffffff021916908373ffffffffffffffffffffffffffffffffffffffff1602179055506001600080600160009054906101000a900473ffffffffffffffffffffffffffffffffffffffff1673ffffffffffffffffffffffffffffffffffffffff1673ffffffffffffffffffffffffffffffffffffffff16815260200190815260200160002060006101000a81548160ff02191690831515021790555050611c16806101516000396000f3fe6080604052600436106100f1576000357c0100000000000000000000000000000000000000000000000000000000900463ffffffff1680631828983a146100f65780633e36da481461015f578063435b022f1461018e57806347dd629c146101dd5780636e8cc87f1461024957806371f94e831461037a5780638a701ed11461042e578063a362390a146104a9578063a4e2d63414610500578063a69df4b51461052f578063ad0eafec14610546578063bba9a352146105b5578063c85eb04714610606578063ce606ee0146106ba578063d92d2a4914610711578063def63c0514610728578063f83d08ba14610932575b600080fd5b34801561010257600080fd5b506101456004803603602081101561011957600080fd5b81019080803573ffffffffffffffffffffffffffffffffffffffff169060200190929190505050610949565b604051808215151515815260200191505060405180910390f35b34801561016b57600080fd5b50610174610969565b604051808215151515815260200191505060405180910390f35b34801561019a57600080fd5b506101c7600480360360208110156101b157600080fd5b810190808035906020019092919050505061097c565b6040518082815260200191505060405180910390f35b3480156101e957600080fd5b506101f2610994565b6040518080602001828103825283818151815260200191508051906020019060200280838360005b8381101561023557808201518184015260208101905061021a565b505050509050019250505060405180910390f35b34801561025557600080fd5b5061028c6004803603604081101561026c57600080fd5b810190808035906020019092919080359060200190929190505050610a29565b604051808060200180602001848152602001838103835286818151815260200191508051906020019080838360005b838110156102d65780820151818401526020810190506102bb565b50505050905090810190601f1680156103035780820380516001836020036101000a031916815260200191505b50838103825285818151815260200191508051906020019080838360005b8381101561033c578082015181840152602081019050610321565b50505050905090810190601f1680156103695780820380516001836020036101000a031916815260200191505b509550505050505060405180910390f35b34801561038657600080fd5b506103b36004803603602081101561039d57600080fd5b8101908080359060200190929190505050610b9f565b6040518080602001828103825283818151815260200191508051906020019080838360005b838110156103f35780820151818401526020810190506103d8565b50505050905090810190601f1680156104205780820380516001836020036101000a031916815260200191505b509250505060405180910390f35b34801561043a57600080fd5b506104676004803603602081101561045157600080fd5b8101908080359060200190929190505050610c4f565b604051808273ffffffffffffffffffffffffffffffffffffffff1673ffffffffffffffffffffffffffffffffffffffff16815260200191505060405180910390f35b3480156104b557600080fd5b506104be610c82565b604051808273ffffffffffffffffffffffffffffffffffffffff1673ffffffffffffffffffffffffffffffffffffffff16815260200191505060405180910390f35b34801561050c57600080fd5b50610515610ca8565b604051808215151515815260200191505060405180910390f35b34801561053b57600080fd5b50610544610cbb565b005b34801561055257600080fd5b5061059f6004803603604081101561056957600080fd5b81019080803573ffffffffffffffffffffffffffffffffffffffff16906020019092919080359060200190929190505050610fb3565b6040518082815260200191505060405180910390f35b3480156105c157600080fd5b50610604600480360360208110156105d857600080fd5b81019080803573ffffffffffffffffffffffffffffffffffffffff169060200190929190505050610fe3565b005b34801561061257600080fd5b5061063f6004803603602081101561062957600080fd5b8101908080359060200190929190505050611138565b6040518080602001828103825283818151815260200191508051906020019080838360005b8381101561067f578082015181840152602081019050610664565b50505050905090810190601f1680156106ac5780820380516001836020036101000a031916815260200191505b509250505060405180910390f35b3480156106c657600080fd5b506106cf6111e8565b604051808273ffffffffffffffffffffffffffffffffffffffff1673ffffffffffffffffffffffffffffffffffffffff16815260200191505060405180910390f35b34801561071d57600080fd5b5061072661120e565b005b34801561073457600080fd5b5061091c6004803603606081101561074b57600080fd5b810190808035906020019064010000000081111561076857600080fd5b82018360208201111561077a57600080fd5b8035906020019184600183028401116401000000008311171561079c57600080fd5b91908080601f016020809104026020016040519081016040528093929190818152602001838380828437600081840152601f19601f820116905080830192505050505050509192919290803590602001906401000000008111156107ff57600080fd5b82018360208201111561081157600080fd5b8035906020019184600183028401116401000000008311171561083357600080fd5b91908080601f016020809104026020016040519081016040528093929190818152602001838380828437600081840152601f19601f8201169050808301925050505050505091929192908035906020019064010000000081111561089657600080fd5b8201836020820111156108a857600080fd5b803590602001918460018302840111640100000000831117156108ca57600080fd5b91908080601f016020809104026020016040519081016040528093929190818152602001838380828437600081840152601f19601f820116905080830192505050505050509192919290505050611549565b6040518082815260200191505060405180910390f35b34801561093e57600080fd5b506109476118f2565b005b60006020528060005260406000206000915054906101000a900460ff1681565b600160149054906101000a900460ff1681565b60036020528060005260406000206000915090505481565b6060600760003073ffffffffffffffffffffffffffffffffffffffff1673ffffffffffffffffffffffffffffffffffffffff168152602001908152602001600020805480602002602001604051908101604052809291908181526020018280548015610a1f57602002820191906000526020600020905b815481526020019060010190808311610a0b575b5050505050905090565b600860205281600052604060002081815481101515610a4457fe5b906000526020600020906003020160009150915050806000018054600181600116156101000203166002900480601f016020809104026020016040519081016040528092919081815260200182805460018160011615610100020316600290048015610af15780601f10610ac657610100808354040283529160200191610af1565b820191906000526020600020905b815481529060010190602001808311610ad457829003601f168201915b505050505090806001018054600181600116156101000203166002900480601f016020809104026020016040519081016040528092919081815260200182805460018160011615610100020316600290048015610b8f5780601f10610b6457610100808354040283529160200191610b8f565b820191906000526020600020905b815481529060010190602001808311610b7257829003601f168201915b5050505050908060020154905083565b60066020528060005260406000206000915090508054600181600116156101000203166002900480601f016020809104026020016040519081016040528092919081815260200182805460018160011615610100020316600290048015610c475780601f10610c1c57610100808354040283529160200191610c47565b820191906000526020600020905b815481529060010190602001808311610c2a57829003601f168201915b505050505081565b60046020528060005260406000206000915054906101000a900473ffffffffffffffffffffffffffffffffffffffff1681565b600960009054906101000a900473ffffffffffffffffffffffffffffffffffffffff1681565b600160159054906101000a900460ff1681565b600160009054906101000a900473ffffffffffffffffffffffffffffffffffffffff1673ffffffffffffffffffffffffffffffffffffffff163373ffffffffffffffffffffffffffffffffffffffff16141515610dcc576040517f08c379a00000000000000000000000000000000000000000000000000000000081526004018080602001828103825260478152602001807f452d504f4c502d303031202d204f6e6c79207468652070726f787920636f6e7481526020017f72616374206f776e65722061646420657865637574652074686973207472616e81526020017f73616374696f6e0000000000000000000000000000000000000000000000000081525060600191505060405180910390fd5b60006060600960009054906101000a900473ffffffffffffffffffffffffffffffffffffffff1673ffffffffffffffffffffffffffffffffffffffff1660405180807f756e6c6f636b28290000000000000000000000000000000000000000000000008152506008019050604051809103902060405160200180827bffffffffffffffffffffffffffffffffffffffffffffffffffffffff19167bffffffffffffffffffffffffffffffffffffffffffffffffffffffff191681526004019150506040516020818303038152906040526040518082805190602001908083835b602083101515610ed15780518252602082019150602081019050602083039250610eac565b6001836020036101000a038019825116818451168082178552505050505050905001915050600060405180830381855af49150503d8060008114610f31576040519150601f19603f3d011682016040523d82523d6000602084013e610f36565b606091505b50915091507f1be77fb289cfaf0382d7113e77bb87b4ce9ff776ce290a27e92991246140bd7b82604051808060200183151515158152602001828103825260068152602001807f756e6c6f636b00000000000000000000000000000000000000000000000000008152506020019250505060405180910390a15050565b600760205281600052604060002081815481101515610fce57fe5b90600052602060002001600091509150505481565b600160009054906101000a900473ffffffffffffffffffffffffffffffffffffffff1673ffffffffffffffffffffffffffffffffffffffff163373ffffffffffffffffffffffffffffffffffffffff161415156110f4576040517f08c379a00000000000000000000000000000000000000000000000000000000081526004018080602001828103825260478152602001807f452d504f4c502d303031202d204f6e6c79207468652070726f787920636f6e7481526020017f72616374206f776e65722061646420657865637574652074686973207472616e81526020017f73616374696f6e0000000000000000000000000000000000000000000000000081525060600191505060405180910390fd5b80600960006101000a81548173ffffffffffffffffffffffffffffffffffffffff021916908373ffffffffffffffffffffffffffffffffffffffff16021790555050565b60056020528060005260406000206000915090508054600181600116156101000203166002900480601f0160208091040260200160405190810160405280929190818152602001828054600181600116156101000203166002900480156111e05780601f106111b5576101008083540402835291602001916111e0565b820191906000526020600020905b8154815290600101906020018083116111c357829003601f168201915b505050505081565b600160009054906101000a900473ffffffffffffffffffffffffffffffffffffffff1681565b600160009054906101000a900473ffffffffffffffffffffffffffffffffffffffff1673ffffffffffffffffffffffffffffffffffffffff163373ffffffffffffffffffffffffffffffffffffffff1614151561131f576040517f08c379a00000000000000000000000000000000000000000000000000000000081526004018080602001828103825260478152602001807f452d504f4c502d303031202d204f6e6c79207468652070726f787920636f6e7481526020017f72616374206f776e65722061646420657865637574652074686973207472616e81526020017f73616374696f6e0000000000000000000000000000000000000000000000000081525060600191505060405180910390fd5b60006060600960009054906101000a900473ffffffffffffffffffffffffffffffffffffffff1673ffffffffffffffffffffffffffffffffffffffff1660405180807f616464417574686f72697a656455736572286164647265737329000000000000815250601a01905060405180910390203060405160200180837bffffffffffffffffffffffffffffffffffffffffffffffffffffffff19167bffffffffffffffffffffffffffffffffffffffffffffffffffffffff191681526004018273ffffffffffffffffffffffffffffffffffffffff1673ffffffffffffffffffffffffffffffffffffffff166c01000000000000000000000000028152601401925050506040516020818303038152906040526040518082805190602001908083835b6020831015156114675780518252602082019150602081019050602083039250611442565b6001836020036101000a038019825116818451168082178552505050505050905001915050600060405180830381855af49150503d80600081146114c7576040519150601f19603f3d011682016040523d82523d6000602084013e6114cc565b606091505b50915091507f1be77fb289cfaf0382d7113e77bb87b4ce9ff776ce290a27e92991246140bd7b82604051808060200183151515158152602001828103825260118152602001807f616464417574686f72697a6564557365720000000000000000000000000000008152506020019250505060405180910390a15050565b6000600160009054906101000a900473ffffffffffffffffffffffffffffffffffffffff1673ffffffffffffffffffffffffffffffffffffffff163373ffffffffffffffffffffffffffffffffffffffff1614151561165c576040517f08c379a00000000000000000000000000000000000000000000000000000000081526004018080602001828103825260478152602001807f452d504f4c502d303031202d204f6e6c79207468652070726f787920636f6e7481526020017f72616374206f776e65722061646420657865637574652074686973207472616e81526020017f73616374696f6e0000000000000000000000000000000000000000000000000081525060600191505060405180910390fd5b60006060600960009054906101000a900473ffffffffffffffffffffffffffffffffffffffff1673ffffffffffffffffffffffffffffffffffffffff1660405180807f63657274696679446f63756d656e7428737472696e672c737472696e67290000815250601e0190506040518091039020878760405160200180847bffffffffffffffffffffffffffffffffffffffffffffffffffffffff19167bffffffffffffffffffffffffffffffffffffffffffffffffffffffff1916815260040183805190602001908083835b60208310151561174d5780518252602082019150602081019050602083039250611728565b6001836020036101000a03801982511681845116808217855250505050505090500182805190602001908083835b6020831015156117a0578051825260208201915060208101905060208303925061177b565b6001836020036101000a03801982511681845116808217855250505050505090500193505050506040516020818303038152906040526040518082805190602001908083835b60208310151561180b57805182526020820191506020810190506020830392506117e6565b6001836020036101000a038019825116818451168082178552505050505050905001915050600060405180830381855af49150503d806000811461186b576040519150601f19603f3d011682016040523d82523d6000602084013e611870565b606091505b50915091507f1be77fb289cfaf0382d7113e77bb87b4ce9ff776ce290a27e92991246140bd7b826040518080602001831515151581526020018281038252600f8152602001807f63657274696679446f63756d656e7400000000000000000000000000000000008152506020019250505060405180910390a150509392505050565b600160009054906101000a900473ffffffffffffffffffffffffffffffffffffffff1673ffffffffffffffffffffffffffffffffffffffff163373ffffffffffffffffffffffffffffffffffffffff16141515611a03576040517f08c379a00000000000000000000000000000000000000000000000000000000081526004018080602001828103825260478152602001807f452d504f4c502d303031202d204f6e6c79207468652070726f787920636f6e7481526020017f72616374206f776e65722061646420657865637574652074686973207472616e81526020017f73616374696f6e0000000000000000000000000000000000000000000000000081525060600191505060405180910390fd5b60006060600960009054906101000a900473ffffffffffffffffffffffffffffffffffffffff1673ffffffffffffffffffffffffffffffffffffffff1660405180807f6c6f636b282900000000000000000000000000000000000000000000000000008152506006019050604051809103902060405160200180827bffffffffffffffffffffffffffffffffffffffffffffffffffffffff19167bffffffffffffffffffffffffffffffffffffffffffffffffffffffff191681526004019150506040516020818303038152906040526040518082805190602001908083835b602083101515611b085780518252602082019150602081019050602083039250611ae3565b6001836020036101000a038019825116818451168082178552505050505050905001915050600060405180830381855af49150503d8060008114611b68576040519150601f19603f3d011682016040523d82523d6000602084013e611b6d565b606091505b50915091507f1be77fb289cfaf0382d7113e77bb87b4ce9ff776ce290a27e92991246140bd7b82604051808060200183151515158152602001828103825260048152602001807f6c6f636b000000000000000000000000000000000000000000000000000000008152506020019250505060405180910390a1505056fea165627a7a723058201b7f7352559048e57631f8d93d19840494120efa03a356c61347e353c5f643a00029",
  "source": "pragma solidity ^0.5.0;\n\nimport \"./HasAuditRegistry.sol\";\n\n\n/* @title Proof of Life Proxy with delegateCall */\ncontract ProofOfLifeProxy is HasAuditRegistry {\n \n    // State variables (to be updated by delegateCalls)\n    mapping(address  => bool) public authorizedUsers;\n    address public contractOwner; //used to override the delegate contractOwner value with the proxy contract's address\n    bool public isOpenToEveryUser;\n    bool public isLocked;\n    uint256 private lastId = 0;\n    mapping(bytes32  => uint256) public idByDocumentHash;\n    mapping(uint256  => address) public ownerByDocumentId;\n    mapping(uint256  => string) public ipfsHashByDocumentId;\n    mapping(uint256  => string) public hashByDocumentId;\n    mapping(address  => uint256[]) public documentsByOwnerAddress;\n    mapping(uint256 => AuditRegistry[]) public auditRegistryByDocumentId;\n    \n    // Delegate call address \n    address public delegateCallAddress;\n    \n    // Events\n    event DelegateCallEvent (string call, bool result);\n\n    // Modifiers\n    modifier onlyContractOwner(){\n        require(msg.sender == contractOwner, \"E-POLP-001 - Only the proxy contract owner add execute this transaction\"); \n        _; \n    }\n    \n    // ------ Local functions -------\n    \n    /* @notice Proxy constructor\n    * @dev It creates a proxy instance\n    * @param _existingContractAddress - the new delegated contract address\n    */\n    constructor (address existingContractAddress) public {\n        delegateCallAddress = existingContractAddress;\n        contractOwner = msg.sender;\n        authorizedUsers[contractOwner] = true;\n    }\n\n    /* @notice Update Delegate Call Address\n    * @dev It allows the owner to update the address of the delegate contract\n    * @param _existingContractAddress - the new delegated contract address\n    */\n    function updateDelegateCallAddress(address existingContractAddress) public onlyContractOwner {\n        delegateCallAddress = existingContractAddress;\n    }\n\n    \n    /* @notice Update contractOwner\n    * @dev It forces the update of all credentials with the proxy address\n    */\n    function addProxyAsAuthorizedUser() public onlyContractOwner {\n         (bool success, bytes memory data)  = delegateCallAddress.delegatecall(abi.encodePacked(bytes4(keccak256(\"addAuthorizedUser(address)\")), address(this)));\n         emit DelegateCallEvent(\"addAuthorizedUser\", success);\n    }\n    //  ---- Functions with delegateCall -----\n\n    /* @notice Lock contract\n    * @dev Maintenance and security circuit locker\n    */\n    function lock() public onlyContractOwner {\n        (bool success, bytes memory data)  = delegateCallAddress.delegatecall(abi.encodePacked(bytes4(keccak256(\"lock()\"))));\n        emit DelegateCallEvent(\"lock\", success);\n    }\n    \n      /* @notice Unlock contract\n    * @dev Maintenance and security circuit locker\n    */\n    function unlock() public onlyContractOwner {\n        (bool success, bytes memory data)  = delegateCallAddress.delegatecall(abi.encodePacked(bytes4(keccak256(\"unlock()\"))));\n        emit DelegateCallEvent(\"unlock\", success);\n    }\n\n    /* @notice Certify document creation with hash and timestamp\n    * @dev It registers in the blockchain the proof-of-existence of an external document\n    * @param _documentHash - Hash of the document (it should have 32 bytes)\n    * @param _ipfsHash - IPFS Hash, if it exists \n    * @return id - returns certified document id\n    */\n    function certifyDocumentCreationWithIPFSHash(string memory _documentHash, string memory _ipfsHash,\n    string memory _timestamp) public onlyContractOwner returns(uint256) {\n        (bool success, bytes memory data)  = delegateCallAddress.delegatecall(abi.encodePacked(bytes4(keccak256(\"certifyDocument(string,string)\")), _documentHash, _ipfsHash));\n        emit DelegateCallEvent(\"certifyDocument\", success);\n    }\n\n\n /* @notice Get documents owned by proxy\n    * @dev Retrieves a list with all the documents hashes of the proxy address\n    * @return bytes32[] documentsByOwnerAddress\n    */\n    function getDocumentsOwnedByProxy() public view \n    returns(uint256[] memory) {\n        return documentsByOwnerAddress[address(this)];\n    }\n    \n    //certifyDocumentCreationWithIPFSHash\n    //appendAuditRegistry\n    //getDocumentDetailsByHash\n    //countAuditRegistriesByDocumentHash\n    //getAuditRegistryByDocumentHash\n    //getDocumentDetailsById\n\n\n      \n}",
  "sourcePath": "/Users/xmunch/Desktop/Projects/Ethereum Projects/docuten-blockchain-proof/contracts/ProofOfLifeProxy.sol",
  "compiler": {
    "name": "solc",
    "version": "0.5.0+commit.1d4f565a.Emscripten.clang"
  },
  "schemaVersion": "3.0.0",
  "updatedAt": "2019-01-15T12:52:28.875Z",
  "devdoc": {
    "methods": {}
  },
  "userdoc": {
    "methods": {}
  }
}