{
  "contractName": "ProofOfLife",
  "abi": [
    {
      "constant": false,
      "inputs": [
        {
          "name": "user",
          "type": "address"
        }
      ],
      "name": "addAuthorizedUser",
      "outputs": [],
      "payable": false,
      "stateMutability": "nonpayable",
      "type": "function",
      "signature": "0x177d2a74"
    },
    {
      "constant": true,
      "inputs": [
        {
          "name": "",
          "type": "address"
        }
      ],
      "name": "authorizedUsers",
      "outputs": [
        {
          "name": "",
          "type": "bool"
        }
      ],
      "payable": false,
      "stateMutability": "view",
      "type": "function",
      "signature": "0x1828983a"
    },
    {
      "constant": false,
      "inputs": [
        {
          "name": "_documentHash",
          "type": "string"
        },
        {
          "name": "_ipfsHash",
          "type": "string"
        }
      ],
      "name": "certifyDocument",
      "outputs": [
        {
          "name": "",
          "type": "uint256"
        }
      ],
      "payable": false,
      "stateMutability": "nonpayable",
      "type": "function",
      "signature": "0x2657caaf"
    },
    {
      "constant": true,
      "inputs": [],
      "name": "isOpenToEveryUser",
      "outputs": [
        {
          "name": "",
          "type": "bool"
        }
      ],
      "payable": false,
      "stateMutability": "view",
      "type": "function",
      "signature": "0x3e36da48"
    },
    {
      "constant": true,
      "inputs": [
        {
          "name": "",
          "type": "bytes32"
        }
      ],
      "name": "idByDocumentHash",
      "outputs": [
        {
          "name": "",
          "type": "uint256"
        }
      ],
      "payable": false,
      "stateMutability": "view",
      "type": "function",
      "signature": "0x435b022f"
    },
    {
      "constant": true,
      "inputs": [
        {
          "name": "",
          "type": "uint256"
        },
        {
          "name": "",
          "type": "uint256"
        }
      ],
      "name": "auditRegistryByDocumentId",
      "outputs": [
        {
          "name": "description",
          "type": "string"
        },
        {
          "name": "timestamp",
          "type": "string"
        },
        {
          "name": "blockTimestamp",
          "type": "uint256"
        }
      ],
      "payable": false,
      "stateMutability": "view",
      "type": "function",
      "signature": "0x6e8cc87f"
    },
    {
      "constant": true,
      "inputs": [
        {
          "name": "",
          "type": "uint256"
        }
      ],
      "name": "hashByDocumentId",
      "outputs": [
        {
          "name": "",
          "type": "string"
        }
      ],
      "payable": false,
      "stateMutability": "view",
      "type": "function",
      "signature": "0x71f94e83"
    },
    {
      "constant": false,
      "inputs": [],
      "name": "closeToAuthorizedUsers",
      "outputs": [],
      "payable": false,
      "stateMutability": "nonpayable",
      "type": "function",
      "signature": "0x7320a287"
    },
    {
      "constant": true,
      "inputs": [
        {
          "name": "",
          "type": "uint256"
        }
      ],
      "name": "ownerByDocumentId",
      "outputs": [
        {
          "name": "",
          "type": "address"
        }
      ],
      "payable": false,
      "stateMutability": "view",
      "type": "function",
      "signature": "0x8a701ed1"
    },
    {
      "constant": true,
      "inputs": [],
      "name": "isLocked",
      "outputs": [
        {
          "name": "",
          "type": "bool"
        }
      ],
      "payable": false,
      "stateMutability": "view",
      "type": "function",
      "signature": "0xa4e2d634"
    },
    {
      "constant": false,
      "inputs": [],
      "name": "unlock",
      "outputs": [],
      "payable": false,
      "stateMutability": "nonpayable",
      "type": "function",
      "signature": "0xa69df4b5"
    },
    {
      "constant": true,
      "inputs": [
        {
          "name": "",
          "type": "address"
        },
        {
          "name": "",
          "type": "uint256"
        }
      ],
      "name": "documentsByOwnerAddress",
      "outputs": [
        {
          "name": "",
          "type": "uint256"
        }
      ],
      "payable": false,
      "stateMutability": "view",
      "type": "function",
      "signature": "0xad0eafec"
    },
    {
      "constant": true,
      "inputs": [],
      "name": "lastId",
      "outputs": [
        {
          "name": "",
          "type": "uint256"
        }
      ],
      "payable": false,
      "stateMutability": "view",
      "type": "function",
      "signature": "0xc1292cc3"
    },
    {
      "constant": true,
      "inputs": [
        {
          "name": "",
          "type": "uint256"
        }
      ],
      "name": "ipfsHashByDocumentId",
      "outputs": [
        {
          "name": "",
          "type": "string"
        }
      ],
      "payable": false,
      "stateMutability": "view",
      "type": "function",
      "signature": "0xc85eb047"
    },
    {
      "constant": true,
      "inputs": [],
      "name": "contractOwner",
      "outputs": [
        {
          "name": "",
          "type": "address"
        }
      ],
      "payable": false,
      "stateMutability": "view",
      "type": "function",
      "signature": "0xce606ee0"
    },
    {
      "constant": true,
      "inputs": [
        {
          "name": "_stringInput",
          "type": "string"
        }
      ],
      "name": "stringToBytes32",
      "outputs": [
        {
          "name": "result",
          "type": "bytes32"
        }
      ],
      "payable": false,
      "stateMutability": "pure",
      "type": "function",
      "signature": "0xcfb51928"
    },
    {
      "constant": false,
      "inputs": [
        {
          "name": "_documentHash",
          "type": "string"
        }
      ],
      "name": "certifyDocument",
      "outputs": [
        {
          "name": "",
          "type": "uint256"
        }
      ],
      "payable": false,
      "stateMutability": "nonpayable",
      "type": "function",
      "signature": "0xdb9dd762"
    },
    {
      "constant": false,
      "inputs": [
        {
          "name": "user",
          "type": "address"
        }
      ],
      "name": "removeCredentials",
      "outputs": [],
      "payable": false,
      "stateMutability": "nonpayable",
      "type": "function",
      "signature": "0xf3c6d71a"
    },
    {
      "constant": false,
      "inputs": [],
      "name": "lock",
      "outputs": [],
      "payable": false,
      "stateMutability": "nonpayable",
      "type": "function",
      "signature": "0xf83d08ba"
    },
    {
      "constant": false,
      "inputs": [],
      "name": "openToEveryUser",
      "outputs": [],
      "payable": false,
      "stateMutability": "nonpayable",
      "type": "function",
      "signature": "0xfeab0777"
    },
    {
      "payable": false,
      "stateMutability": "nonpayable",
      "type": "fallback"
    },
    {
      "anonymous": false,
      "inputs": [
        {
          "indexed": false,
          "name": "id",
          "type": "uint256"
        },
        {
          "indexed": false,
          "name": "description",
          "type": "string"
        },
        {
          "indexed": false,
          "name": "timestamp",
          "type": "string"
        },
        {
          "indexed": false,
          "name": "blockTimestamp",
          "type": "uint256"
        }
      ],
      "name": "DocumentCreation",
      "type": "event",
      "signature": "0xfdcfed0cfff2a60f310626a01c493f3fafef4fe7410c8d634d22ef8db8b6740b"
    },
    {
      "anonymous": false,
      "inputs": [
        {
          "indexed": false,
          "name": "id",
          "type": "uint256"
        },
        {
          "indexed": false,
          "name": "description",
          "type": "string"
        },
        {
          "indexed": false,
          "name": "timestamp",
          "type": "string"
        },
        {
          "indexed": false,
          "name": "blockTimestamp",
          "type": "uint256"
        }
      ],
      "name": "NewAuditRegistry",
      "type": "event",
      "signature": "0x4de4d5b2e05cf7d3139a39b8a6dd01e1fd84ef8e17d821560779dce59186023c"
    },
    {
      "anonymous": false,
      "inputs": [],
      "name": "ContractLocked",
      "type": "event",
      "signature": "0x6f5ffb7e2a6656882126927a79e460ca27ab657927d593522b90dc28229f7dbc"
    },
    {
      "anonymous": false,
      "inputs": [],
      "name": "ContractUnlocked",
      "type": "event",
      "signature": "0x3e5f4fd66bc9f59f15a9304dbc6394e240a57a1b4eb7ca42a75c5d9b298da455"
    },
    {
      "anonymous": false,
      "inputs": [
        {
          "indexed": false,
          "name": "user",
          "type": "address"
        }
      ],
      "name": "AuthorizedUserAdded",
      "type": "event",
      "signature": "0x7e07c71a6d7714652e08d641a843dff01e823c8eeed08945be844015fe335393"
    },
    {
      "anonymous": false,
      "inputs": [
        {
          "indexed": false,
          "name": "user",
          "type": "address"
        }
      ],
      "name": "CredentialsRemoved",
      "type": "event",
      "signature": "0xbebbb6faf74eef3594a83912d2f77145b62aacc4520832f587e2130cdcbf08f0"
    },
    {
      "constant": false,
      "inputs": [
        {
          "name": "_documentHash",
          "type": "string"
        },
        {
          "name": "_ipfsHash",
          "type": "string"
        },
        {
          "name": "_timestamp",
          "type": "string"
        }
      ],
      "name": "certifyDocumentCreationWithIPFSHash",
      "outputs": [
        {
          "name": "",
          "type": "uint256"
        }
      ],
      "payable": false,
      "stateMutability": "nonpayable",
      "type": "function",
      "signature": "0xdef63c05"
    },
    {
      "constant": false,
      "inputs": [
        {
          "name": "_documentHash",
          "type": "string"
        },
        {
          "name": "_ipfsHash",
          "type": "string"
        },
        {
          "name": "_timestamp",
          "type": "string"
        }
      ],
      "name": "certifyDocumentCreation",
      "outputs": [
        {
          "name": "",
          "type": "uint256"
        }
      ],
      "payable": false,
      "stateMutability": "nonpayable",
      "type": "function",
      "signature": "0x05ce5c03"
    },
    {
      "constant": false,
      "inputs": [
        {
          "name": "_documentHash",
          "type": "string"
        },
        {
          "name": "_timestamp",
          "type": "string"
        }
      ],
      "name": "certifyDocumentCreation",
      "outputs": [
        {
          "name": "",
          "type": "uint256"
        }
      ],
      "payable": false,
      "stateMutability": "nonpayable",
      "type": "function",
      "signature": "0x2a23f99b"
    },
    {
      "constant": false,
      "inputs": [
        {
          "name": "_id",
          "type": "uint256"
        },
        {
          "name": "_description",
          "type": "string"
        },
        {
          "name": "_timestamp",
          "type": "string"
        }
      ],
      "name": "appendAuditRegistry",
      "outputs": [],
      "payable": false,
      "stateMutability": "nonpayable",
      "type": "function",
      "signature": "0x39f7b69d"
    }
  ],
  "bytecode": "0x6080604052600060025533600160006101000a81548173ffffffffffffffffffffffffffffffffffffffff021916908373ffffffffffffffffffffffffffffffffffffffff1602179055506001600080600160009054906101000a900473ffffffffffffffffffffffffffffffffffffffff1673ffffffffffffffffffffffffffffffffffffffff1673ffffffffffffffffffffffffffffffffffffffff16815260200190815260200160002060006101000a81548160ff02191690831515021790555061367a806100d26000396000f3fe60806040526004361061013e576000357c0100000000000000000000000000000000000000000000000000000000900463ffffffff16806305ce5c0314610150578063177d2a741461035a5780631828983a146103ab5780632657caaf146104145780632a23f99b1461058757806339f7b69d146106fa5780633e36da4814610863578063435b022f146108925780636e8cc87f146108e157806371f94e8314610a125780637320a28714610ac65780638a701ed114610add578063a4e2d63414610b58578063a69df4b514610b87578063ad0eafec14610b9e578063c1292cc314610c0d578063c85eb04714610c38578063ce606ee014610cec578063cfb5192814610d43578063db9dd76214610e1f578063def63c0514610efb578063f3c6d71a14611105578063f83d08ba14611156578063feab07771461116d575b34801561014a57600080fd5b50600080fd5b34801561015c57600080fd5b506103446004803603606081101561017357600080fd5b810190808035906020019064010000000081111561019057600080fd5b8201836020820111156101a257600080fd5b803590602001918460018302840111640100000000831117156101c457600080fd5b91908080601f016020809104026020016040519081016040528093929190818152602001838380828437600081840152601f19601f8201169050808301925050505050505091929192908035906020019064010000000081111561022757600080fd5b82018360208201111561023957600080fd5b8035906020019184600183028401116401000000008311171561025b57600080fd5b91908080601f016020809104026020016040519081016040528093929190818152602001838380828437600081840152601f19601f820116905080830192505050505050509192919290803590602001906401000000008111156102be57600080fd5b8201836020820111156102d057600080fd5b803590602001918460018302840111640100000000831117156102f257600080fd5b91908080601f016020809104026020016040519081016040528093929190818152602001838380828437600081840152601f19601f820116905080830192505050505050509192919290505050611184565b6040518082815260200191505060405180910390f35b34801561036657600080fd5b506103a96004803603602081101561037d57600080fd5b81019080803573ffffffffffffffffffffffffffffffffffffffff16906020019092919050505061154e565b005b3480156103b757600080fd5b506103fa600480360360208110156103ce57600080fd5b81019080803573ffffffffffffffffffffffffffffffffffffffff1690602001909291905050506117a1565b604051808215151515815260200191505060405180910390f35b34801561042057600080fd5b506105716004803603604081101561043757600080fd5b810190808035906020019064010000000081111561045457600080fd5b82018360208201111561046657600080fd5b8035906020019184600183028401116401000000008311171561048857600080fd5b91908080601f016020809104026020016040519081016040528093929190818152602001838380828437600081840152601f19601f820116905080830192505050505050509192919290803590602001906401000000008111156104eb57600080fd5b8201836020820111156104fd57600080fd5b8035906020019184600183028401116401000000008311171561051f57600080fd5b91908080601f016020809104026020016040519081016040528093929190818152602001838380828437600081840152601f19601f8201169050808301925050505050505091929192905050506117c1565b6040518082815260200191505060405180910390f35b34801561059357600080fd5b506106e4600480360360408110156105aa57600080fd5b81019080803590602001906401000000008111156105c757600080fd5b8201836020820111156105d957600080fd5b803590602001918460018302840111640100000000831117156105fb57600080fd5b91908080601f016020809104026020016040519081016040528093929190818152602001838380828437600081840152601f19601f8201169050808301925050505050505091929192908035906020019064010000000081111561065e57600080fd5b82018360208201111561067057600080fd5b8035906020019184600183028401116401000000008311171561069257600080fd5b91908080601f016020809104026020016040519081016040528093929190818152602001838380828437600081840152601f19601f820116905080830192505050505050509192919290505050611b70565b6040518082815260200191505060405180910390f35b34801561070657600080fd5b506108616004803603606081101561071d57600080fd5b81019080803590602001909291908035906020019064010000000081111561074457600080fd5b82018360208201111561075657600080fd5b8035906020019184600183028401116401000000008311171561077857600080fd5b91908080601f016020809104026020016040519081016040528093929190818152602001838380828437600081840152601f19601f820116905080830192505050505050509192919290803590602001906401000000008111156107db57600080fd5b8201836020820111156107ed57600080fd5b8035906020019184600183028401116401000000008311171561080f57600080fd5b91908080601f016020809104026020016040519081016040528093929190818152602001838380828437600081840152601f19601f820116905080830192505050505050509192919290505050611d3d565b005b34801561086f57600080fd5b506108786122a3565b604051808215151515815260200191505060405180910390f35b34801561089e57600080fd5b506108cb600480360360208110156108b557600080fd5b81019080803590602001909291905050506122b6565b6040518082815260200191505060405180910390f35b3480156108ed57600080fd5b506109246004803603604081101561090457600080fd5b8101908080359060200190929190803590602001909291905050506122ce565b604051808060200180602001848152602001838103835286818151815260200191508051906020019080838360005b8381101561096e578082015181840152602081019050610953565b50505050905090810190601f16801561099b5780820380516001836020036101000a031916815260200191505b50838103825285818151815260200191508051906020019080838360005b838110156109d45780820151818401526020810190506109b9565b50505050905090810190601f168015610a015780820380516001836020036101000a031916815260200191505b509550505050505060405180910390f35b348015610a1e57600080fd5b50610a4b60048036036020811015610a3557600080fd5b8101908080359060200190929190505050612444565b6040518080602001828103825283818151815260200191508051906020019080838360005b83811015610a8b578082015181840152602081019050610a70565b50505050905090810190601f168015610ab85780820380516001836020036101000a031916815260200191505b509250505060405180910390f35b348015610ad257600080fd5b50610adb6124f4565b005b348015610ae957600080fd5b50610b1660048036036020811015610b0057600080fd5b8101908080359060200190929190505050612777565b604051808273ffffffffffffffffffffffffffffffffffffffff1673ffffffffffffffffffffffffffffffffffffffff16815260200191505060405180910390f35b348015610b6457600080fd5b50610b6d6127aa565b604051808215151515815260200191505060405180910390f35b348015610b9357600080fd5b50610b9c6127bd565b005b348015610baa57600080fd5b50610bf760048036036040811015610bc157600080fd5b81019080803573ffffffffffffffffffffffffffffffffffffffff1690602001909291908035906020019092919050505061299b565b6040518082815260200191505060405180910390f35b348015610c1957600080fd5b50610c226129cb565b6040518082815260200191505060405180910390f35b348015610c4457600080fd5b50610c7160048036036020811015610c5b57600080fd5b81019080803590602001909291905050506129d1565b6040518080602001828103825283818151815260200191508051906020019080838360005b83811015610cb1578082015181840152602081019050610c96565b50505050905090810190601f168015610cde5780820380516001836020036101000a031916815260200191505b509250505060405180910390f35b348015610cf857600080fd5b50610d01612a81565b604051808273ffffffffffffffffffffffffffffffffffffffff1673ffffffffffffffffffffffffffffffffffffffff16815260200191505060405180910390f35b348015610d4f57600080fd5b50610e0960048036036020811015610d6657600080fd5b8101908080359060200190640100000000811115610d8357600080fd5b820183602082011115610d9557600080fd5b80359060200191846001830284011164010000000083111715610db757600080fd5b91908080601f016020809104026020016040519081016040528093929190818152602001838380828437600081840152601f19601f820116905080830192505050505050509192919290505050612aa7565b6040518082815260200191505060405180910390f35b348015610e2b57600080fd5b50610ee560048036036020811015610e4257600080fd5b8101908080359060200190640100000000811115610e5f57600080fd5b820183602082011115610e7157600080fd5b80359060200191846001830284011164010000000083111715610e9357600080fd5b91908080601f016020809104026020016040519081016040528093929190818152602001838380828437600081840152601f19601f820116905080830192505050505050509192919290505050612ad3565b6040518082815260200191505060405180910390f35b348015610f0757600080fd5b506110ef60048036036060811015610f1e57600080fd5b8101908080359060200190640100000000811115610f3b57600080fd5b820183602082011115610f4d57600080fd5b80359060200191846001830284011164010000000083111715610f6f57600080fd5b91908080601f016020809104026020016040519081016040528093929190818152602001838380828437600081840152601f19601f82011690508083019250505050505050919291929080359060200190640100000000811115610fd257600080fd5b820183602082011115610fe457600080fd5b8035906020019184600183028401116401000000008311171561100657600080fd5b91908080601f016020809104026020016040519081016040528093929190818152602001838380828437600081840152601f19601f8201169050808301925050505050505091929192908035906020019064010000000081111561106957600080fd5b82018360208201111561107b57600080fd5b8035906020019184600183028401116401000000008311171561109d57600080fd5b91908080601f016020809104026020016040519081016040528093929190818152602001838380828437600081840152601f19601f820116905080830192505050505050509192919290505050612c9e565b6040518082815260200191505060405180910390f35b34801561111157600080fd5b506111546004803603602081101561112857600080fd5b81019080803573ffffffffffffffffffffffffffffffffffffffff169060200190929190505050612e5c565b005b34801561116257600080fd5b5061116b6130a6565b005b34801561117957600080fd5b50611182613284565b005b60008060003373ffffffffffffffffffffffffffffffffffffffff1673ffffffffffffffffffffffffffffffffffffffff16815260200190815260200160002060009054906101000a900460ff16806111e95750600160149054906101000a900460ff165b1515611283576040517f08c379a000000000000000000000000000000000000000000000000000000000815260040180806020018281038252603d8152602001807f452d43432d303032202d204f6e6c7920617574686f72697a656420757365727381526020017f2063616e20657865637574652074686973207472616e73616374696f6e00000081525060400191505060405180910390fd5b600160159054906101000a900460ff1615151561132e576040517f08c379a00000000000000000000000000000000000000000000000000000000081526004018080602001828103825260278152602001807f452d4c4f434b2d303031202d20436f6e74726163742074656d706f726172792081526020017f6c6f636b65642e0000000000000000000000000000000000000000000000000081525060400191505060405180910390fd5b600061133a85856117c1565b9050611344613507565b6060604051908101604052806040805190810160405280601b81526020017f7b7374617475734368616e67653a2027434552544946494544277d0000000000815250815260200185815260200142815250905060086000838152602001908152602001600020819080600181540180825580915050906001820390600052602060002090600302016000909192909190915060008201518160000190805190602001906113f2929190613529565b50602082015181600101908051906020019061140f929190613529565b50604082015181600201555050507ffdcfed0cfff2a60f310626a01c493f3fafef4fe7410c8d634d22ef8db8b6740b82826000015183602001518460400151604051808581526020018060200180602001848152602001838103835286818151815260200191508051906020019080838360005b8381101561149e578082015181840152602081019050611483565b50505050905090810190601f1680156114cb5780820380516001836020036101000a031916815260200191505b50838103825285818151815260200191508051906020019080838360005b838110156115045780820151818401526020810190506114e9565b50505050905090810190601f1680156115315780820380516001836020036101000a031916815260200191505b50965050505050505060405180910390a181925050509392505050565b600160159054906101000a900460ff161515156115f9576040517f08c379a00000000000000000000000000000000000000000000000000000000081526004018080602001828103825260278152602001807f452d4c4f434b2d303031202d20436f6e74726163742074656d706f726172792081526020017f6c6f636b65642e0000000000000000000000000000000000000000000000000081525060400191505060405180910390fd5b600160009054906101000a900473ffffffffffffffffffffffffffffffffffffffff1673ffffffffffffffffffffffffffffffffffffffff163373ffffffffffffffffffffffffffffffffffffffff161415156116e4576040517f08c379a000000000000000000000000000000000000000000000000000000000815260040180806020018281038252603f8152602001807f452d43432d303031202d204f6e6c792074686520636f6e7472616374206f776e81526020017f65722061646420657865637574652074686973207472616e73616374696f6e0081525060400191505060405180910390fd5b60016000808373ffffffffffffffffffffffffffffffffffffffff1673ffffffffffffffffffffffffffffffffffffffff16815260200190815260200160002060006101000a81548160ff0219169083151502179055507f7e07c71a6d7714652e08d641a843dff01e823c8eeed08945be844015fe33539381604051808273ffffffffffffffffffffffffffffffffffffffff1673ffffffffffffffffffffffffffffffffffffffff16815260200191505060405180910390a150565b60006020528060005260406000206000915054906101000a900460ff1681565b60008060003373ffffffffffffffffffffffffffffffffffffffff1673ffffffffffffffffffffffffffffffffffffffff16815260200190815260200160002060009054906101000a900460ff16806118265750600160149054906101000a900460ff165b15156118c0576040517f08c379a000000000000000000000000000000000000000000000000000000000815260040180806020018281038252603d8152602001807f452d43432d303032202d204f6e6c7920617574686f72697a656420757365727381526020017f2063616e20657865637574652074686973207472616e73616374696f6e00000081525060400191505060405180910390fd5b600160159054906101000a900460ff1615151561196b576040517f08c379a00000000000000000000000000000000000000000000000000000000081526004018080602001828103825260278152602001807f452d4c4f434b2d303031202d20436f6e74726163742074656d706f726172792081526020017f6c6f636b65642e0000000000000000000000000000000000000000000000000081525060400191505060405180910390fd5b600061197684612aa7565b905060006003600083815260200190815260200160002054141515611a29576040517f08c379a00000000000000000000000000000000000000000000000000000000081526004018080602001828103825260408152602001807f452d504f452d303031202d20546865726520697320616c72656164792061206381526020017f657274696669656420646f63756d656e7420776974682074686174206861736881525060400191505060405180910390fd5b6002600081548092919060010191905055506000600254905084600660008381526020019081526020016000209080519060200190611a699291906135a9565b5083600560008381526020019081526020016000209080519060200190611a919291906135a9565b50806003600084815260200190815260200160002081905550336004600083815260200190815260200160002060006101000a81548173ffffffffffffffffffffffffffffffffffffffff021916908373ffffffffffffffffffffffffffffffffffffffff160217905550600760003373ffffffffffffffffffffffffffffffffffffffff1673ffffffffffffffffffffffffffffffffffffffff168152602001908152602001600020819080600181540180825580915050906001820390600052602060002001600090919290919091505550809250505092915050565b60008060003373ffffffffffffffffffffffffffffffffffffffff1673ffffffffffffffffffffffffffffffffffffffff16815260200190815260200160002060009054906101000a900460ff1680611bd55750600160149054906101000a900460ff165b1515611c6f576040517f08c379a000000000000000000000000000000000000000000000000000000000815260040180806020018281038252603d8152602001807f452d43432d303032202d204f6e6c7920617574686f72697a656420757365727381526020017f2063616e20657865637574652074686973207472616e73616374696f6e00000081525060400191505060405180910390fd5b600160159054906101000a900460ff16151515611d1a576040517f08c379a00000000000000000000000000000000000000000000000000000000081526004018080602001828103825260278152602001807f452d4c4f434b2d303031202d20436f6e74726163742074656d706f726172792081526020017f6c6f636b65642e0000000000000000000000000000000000000000000000000081525060400191505060405180910390fd5b611d3583602060405190810160405280600081525084611184565b905092915050565b6000803373ffffffffffffffffffffffffffffffffffffffff1673ffffffffffffffffffffffffffffffffffffffff16815260200190815260200160002060009054906101000a900460ff1680611da05750600160149054906101000a900460ff165b1515611e3a576040517f08c379a000000000000000000000000000000000000000000000000000000000815260040180806020018281038252603d8152602001807f452d43432d303032202d204f6e6c7920617574686f72697a656420757365727381526020017f2063616e20657865637574652074686973207472616e73616374696f6e00000081525060400191505060405180910390fd5b600160159054906101000a900460ff16151515611ee5576040517f08c379a00000000000000000000000000000000000000000000000000000000081526004018080602001828103825260278152602001807f452d4c4f434b2d303031202d20436f6e74726163742074656d706f726172792081526020017f6c6f636b65642e0000000000000000000000000000000000000000000000000081525060400191505060405180910390fd5b60008314151515611faa576040517f08c379a00000000000000000000000000000000000000000000000000000000081526004018080602001828103825260418152602001807f452d504f4c2d3030312d205468657265206973206e6f7420612063657274696681526020017f69656420646f63756d656e7420776974682074686174206964656e746966696581526020017f720000000000000000000000000000000000000000000000000000000000000081525060600191505060405180910390fd5b3373ffffffffffffffffffffffffffffffffffffffff166004600085815260200190815260200160002060009054906101000a900473ffffffffffffffffffffffffffffffffffffffff1673ffffffffffffffffffffffffffffffffffffffff161415156120cc576040517f08c379a000000000000000000000000000000000000000000000000000000000815260040180806020018281038252604a8152602001807f452d504f4c2d303033202d204f6e6c792074686520646f63756d656e74206f7781526020017f6e65722063616e20617070656e6420617564697420726567697374727920747281526020017f616e73616374696f6e730000000000000000000000000000000000000000000081525060600191505060405180910390fd5b6120d4613507565b606060405190810160405280848152602001838152602001428152509050600860008581526020019081526020016000208190806001815401808255809150509060018203906000526020600020906003020160009091929091909150600082015181600001908051906020019061214d929190613529565b50602082015181600101908051906020019061216a929190613529565b50604082015181600201555050507f4de4d5b2e05cf7d3139a39b8a6dd01e1fd84ef8e17d821560779dce59186023c84826000015183602001518460400151604051808581526020018060200180602001848152602001838103835286818151815260200191508051906020019080838360005b838110156121f95780820151818401526020810190506121de565b50505050905090810190601f1680156122265780820380516001836020036101000a031916815260200191505b50838103825285818151815260200191508051906020019080838360005b8381101561225f578082015181840152602081019050612244565b50505050905090810190601f16801561228c5780820380516001836020036101000a031916815260200191505b50965050505050505060405180910390a150505050565b600160149054906101000a900460ff1681565b60036020528060005260406000206000915090505481565b6008602052816000526040600020818154811015156122e957fe5b906000526020600020906003020160009150915050806000018054600181600116156101000203166002900480601f0160208091040260200160405190810160405280929190818152602001828054600181600116156101000203166002900480156123965780601f1061236b57610100808354040283529160200191612396565b820191906000526020600020905b81548152906001019060200180831161237957829003601f168201915b505050505090806001018054600181600116156101000203166002900480601f0160208091040260200160405190810160405280929190818152602001828054600181600116156101000203166002900480156124345780601f1061240957610100808354040283529160200191612434565b820191906000526020600020905b81548152906001019060200180831161241757829003601f168201915b5050505050908060020154905083565b60066020528060005260406000206000915090508054600181600116156101000203166002900480601f0160208091040260200160405190810160405280929190818152602001828054600181600116156101000203166002900480156124ec5780601f106124c1576101008083540402835291602001916124ec565b820191906000526020600020905b8154815290600101906020018083116124cf57829003601f168201915b505050505081565b600160159054906101000a900460ff1615151561259f576040517f08c379a00000000000000000000000000000000000000000000000000000000081526004018080602001828103825260278152602001807f452d4c4f434b2d303031202d20436f6e74726163742074656d706f726172792081526020017f6c6f636b65642e0000000000000000000000000000000000000000000000000081525060400191505060405180910390fd5b600160009054906101000a900473ffffffffffffffffffffffffffffffffffffffff1673ffffffffffffffffffffffffffffffffffffffff163373ffffffffffffffffffffffffffffffffffffffff1614151561268a576040517f08c379a000000000000000000000000000000000000000000000000000000000815260040180806020018281038252603f8152602001807f452d43432d303031202d204f6e6c792074686520636f6e7472616374206f776e81526020017f65722061646420657865637574652074686973207472616e73616374696f6e0081525060400191505060405180910390fd5b600160149054906101000a900460ff16151561275a576040517f08c379a00000000000000000000000000000000000000000000000000000000081526004018080602001828103825260448152602001807f452d43432d303033202d2043657274696669636174696f6e206f70657261746981526020017f6f6e732061726520616c726561647920636c6f73656420746f2065766572792081526020017f757365720000000000000000000000000000000000000000000000000000000081525060600191505060405180910390fd5b6000600160146101000a81548160ff021916908315150217905550565b60046020528060005260406000206000915054906101000a900473ffffffffffffffffffffffffffffffffffffffff1681565b600160159054906101000a900460ff1681565b600160159054906101000a900460ff161515612867576040517f08c379a00000000000000000000000000000000000000000000000000000000081526004018080602001828103825260308152602001807f452d4c4f434b2d30303220202d205468697320636f6e7472616374206973206181526020017f6c726561647920756e6c6f636b65642e0000000000000000000000000000000081525060400191505060405180910390fd5b600160009054906101000a900473ffffffffffffffffffffffffffffffffffffffff1673ffffffffffffffffffffffffffffffffffffffff163373ffffffffffffffffffffffffffffffffffffffff16141515612952576040517f08c379a000000000000000000000000000000000000000000000000000000000815260040180806020018281038252603f8152602001807f452d43432d303031202d204f6e6c792074686520636f6e7472616374206f776e81526020017f65722061646420657865637574652074686973207472616e73616374696f6e0081525060400191505060405180910390fd5b6000600160156101000a81548160ff0219169083151502179055507f3e5f4fd66bc9f59f15a9304dbc6394e240a57a1b4eb7ca42a75c5d9b298da45560405160405180910390a1565b6007602052816000526040600020818154811015156129b657fe5b90600052602060002001600091509150505481565b60025481565b60056020528060005260406000206000915090508054600181600116156101000203166002900480601f016020809104026020016040519081016040528092919081815260200182805460018160011615610100020316600290048015612a795780601f10612a4e57610100808354040283529160200191612a79565b820191906000526020600020905b815481529060010190602001808311612a5c57829003601f168201915b505050505081565b600160009054906101000a900473ffffffffffffffffffffffffffffffffffffffff1681565b60006060829050600081511415612ac5576000600102915050612ace565b60208301519150505b919050565b60008060003373ffffffffffffffffffffffffffffffffffffffff1673ffffffffffffffffffffffffffffffffffffffff16815260200190815260200160002060009054906101000a900460ff1680612b385750600160149054906101000a900460ff165b1515612bd2576040517f08c379a000000000000000000000000000000000000000000000000000000000815260040180806020018281038252603d8152602001807f452d43432d303032202d204f6e6c7920617574686f72697a656420757365727381526020017f2063616e20657865637574652074686973207472616e73616374696f6e00000081525060400191505060405180910390fd5b600160159054906101000a900460ff16151515612c7d576040517f08c379a00000000000000000000000000000000000000000000000000000000081526004018080602001828103825260278152602001807f452d4c4f434b2d303031202d20436f6e74726163742074656d706f726172792081526020017f6c6f636b65642e0000000000000000000000000000000000000000000000000081525060400191505060405180910390fd5b612c978260206040519081016040528060008152506117c1565b9050919050565b60008060003373ffffffffffffffffffffffffffffffffffffffff1673ffffffffffffffffffffffffffffffffffffffff16815260200190815260200160002060009054906101000a900460ff1680612d035750600160149054906101000a900460ff165b1515612d9d576040517f08c379a000000000000000000000000000000000000000000000000000000000815260040180806020018281038252603d8152602001807f452d43432d303032202d204f6e6c7920617574686f72697a656420757365727381526020017f2063616e20657865637574652074686973207472616e73616374696f6e00000081525060400191505060405180910390fd5b600160159054906101000a900460ff16151515612e48576040517f08c379a00000000000000000000000000000000000000000000000000000000081526004018080602001828103825260278152602001807f452d4c4f434b2d303031202d20436f6e74726163742074656d706f726172792081526020017f6c6f636b65642e0000000000000000000000000000000000000000000000000081525060400191505060405180910390fd5b612e53848484611184565b90509392505050565b600160159054906101000a900460ff16151515612f07576040517f08c379a00000000000000000000000000000000000000000000000000000000081526004018080602001828103825260278152602001807f452d4c4f434b2d303031202d20436f6e74726163742074656d706f726172792081526020017f6c6f636b65642e0000000000000000000000000000000000000000000000000081525060400191505060405180910390fd5b600160009054906101000a900473ffffffffffffffffffffffffffffffffffffffff1673ffffffffffffffffffffffffffffffffffffffff163373ffffffffffffffffffffffffffffffffffffffff16141515612ff2576040517f08c379a000000000000000000000000000000000000000000000000000000000815260040180806020018281038252603f8152602001807f452d43432d303031202d204f6e6c792074686520636f6e7472616374206f776e81526020017f65722061646420657865637574652074686973207472616e73616374696f6e0081525060400191505060405180910390fd5b6000808273ffffffffffffffffffffffffffffffffffffffff1673ffffffffffffffffffffffffffffffffffffffff16815260200190815260200160002060006101000a81549060ff02191690557fbebbb6faf74eef3594a83912d2f77145b62aacc4520832f587e2130cdcbf08f081604051808273ffffffffffffffffffffffffffffffffffffffff1673ffffffffffffffffffffffffffffffffffffffff16815260200191505060405180910390a150565b600160159054906101000a900460ff16151515613151576040517f08c379a00000000000000000000000000000000000000000000000000000000081526004018080602001828103825260278152602001807f452d4c4f434b2d303031202d20436f6e74726163742074656d706f726172792081526020017f6c6f636b65642e0000000000000000000000000000000000000000000000000081525060400191505060405180910390fd5b600160009054906101000a900473ffffffffffffffffffffffffffffffffffffffff1673ffffffffffffffffffffffffffffffffffffffff163373ffffffffffffffffffffffffffffffffffffffff1614151561323c576040517f08c379a000000000000000000000000000000000000000000000000000000000815260040180806020018281038252603f8152602001807f452d43432d303031202d204f6e6c792074686520636f6e7472616374206f776e81526020017f65722061646420657865637574652074686973207472616e73616374696f6e0081525060400191505060405180910390fd5b60018060156101000a81548160ff0219169083151502179055507f6f5ffb7e2a6656882126927a79e460ca27ab657927d593522b90dc28229f7dbc60405160405180910390a1565b600160159054906101000a900460ff1615151561332f576040517f08c379a00000000000000000000000000000000000000000000000000000000081526004018080602001828103825260278152602001807f452d4c4f434b2d303031202d20436f6e74726163742074656d706f726172792081526020017f6c6f636b65642e0000000000000000000000000000000000000000000000000081525060400191505060405180910390fd5b600160009054906101000a900473ffffffffffffffffffffffffffffffffffffffff1673ffffffffffffffffffffffffffffffffffffffff163373ffffffffffffffffffffffffffffffffffffffff1614151561341a576040517f08c379a000000000000000000000000000000000000000000000000000000000815260040180806020018281038252603f8152602001807f452d43432d303031202d204f6e6c792074686520636f6e7472616374206f776e81526020017f65722061646420657865637574652074686973207472616e73616374696f6e0081525060400191505060405180910390fd5b600160149054906101000a900460ff161515156134eb576040517f08c379a00000000000000000000000000000000000000000000000000000000081526004018080602001828103825260428152602001807f452d43432d303034202d2043657274696669636174696f6e206f70657261746981526020017f6f6e732061726520616c7265616479206f70656e20746f20657665727920757381526020017f657200000000000000000000000000000000000000000000000000000000000081525060600191505060405180910390fd5b60018060146101000a81548160ff021916908315150217905550565b6060604051908101604052806060815260200160608152602001600081525090565b828054600181600116156101000203166002900490600052602060002090601f016020900481019282601f1061356a57805160ff1916838001178555613598565b82800160010185558215613598579182015b8281111561359757825182559160200191906001019061357c565b5b5090506135a59190613629565b5090565b828054600181600116156101000203166002900490600052602060002090601f016020900481019282601f106135ea57805160ff1916838001178555613618565b82800160010185558215613618579182015b828111156136175782518255916020019190600101906135fc565b5b5090506136259190613629565b5090565b61364b91905b8082111561364757600081600090555060010161362f565b5090565b9056fea165627a7a7230582056224df71194ad1802e2a33595c5988d1e3f3fcc24d7b494f1db1438f99b3a290029",
  "source": "pragma solidity ^0.5.0;\n\nimport \"./ProofOfExistence.sol\";\nimport \"./HasAuditRegistry.sol\";\n\n\n/* @title Proof of Life */\ncontract ProofOfLife  is ProofOfExistence, HasAuditRegistry {\n    \n    // State\n    mapping(uint256 => AuditRegistry[]) public auditRegistryByDocumentId;\n\n    // Events\n    event DocumentCreation (uint256 id, string description, string timestamp, uint256 blockTimestamp);\n    event NewAuditRegistry (uint256 id, string description, string timestamp, uint256 blockTimestamp);\n      \n    /* @notice Fallback function\n    /* @dev It reverts the transaction for security reasons\n    */\n    function() external {\n        revert();\n    }\n    \n    /* @notice Certify document creation with hash and timestamp\n    * @dev It registers in the blockchain the proof-of-existence of an external document\n    * @param _documentHash - Hash of the document (it should have 32 bytes)\n    * @return id - returns certified document id\n    */\n    function certifyDocumentCreation(string memory _documentHash, string memory _timestamp) \n    public onlyAuthorizedUsers onlyWhenUnlocked returns(uint256) {\n        return certifyDocumentCreation(_documentHash, \"\", _timestamp);\n    }\n    \n    /* @notice Certify document creation with hash and timestamp\n    * @dev It registers in the blockchain the proof-of-existence of an external document\n    * @param _documentHash - Hash of the document (it should have 32 bytes)\n    * @param _ipfsHash - IPFS Hash, if it exists \n    * @return id - returns certified document id\n    */\n    function certifyDocumentCreationWithIPFSHash(string memory _documentHash, string memory _ipfsHash,\n    string memory _timestamp) public onlyAuthorizedUsers onlyWhenUnlocked returns(uint256) {\n        return certifyDocumentCreation(_documentHash, _ipfsHash, _timestamp);\n    }\n\n    /* @notice Certify document creation\n    * @dev It registers in the blockchain the proof-of-existence of an external document\n    * @param _documentHash - Hash of the document (it should have 32 bytes)\n    * @param _ipfsHash - IPFS Hash, if it exists \n    * @return _id - returns certified document id\n    */\n    function certifyDocumentCreation(string memory _documentHash, string memory _ipfsHash,\n    string memory _timestamp) public onlyAuthorizedUsers onlyWhenUnlocked returns(uint256) {\n        \n        uint256 _id = certifyDocument(_documentHash, _ipfsHash);\n        \n        //Create an AuditRegistry with a description.\n        AuditRegistry memory creationRegistry = AuditRegistry(\n                                              { timestamp: _timestamp, \n                                                blockTimestamp: block.timestamp, \n                                                description: \"{statusChange: 'CERTIFIED'}\" }\n        );\n\n        auditRegistryByDocumentId[_id].push(creationRegistry);\n        \n        emit DocumentCreation(_id, creationRegistry.description, \n        creationRegistry.timestamp, creationRegistry.blockTimestamp);\n        \n        return _id;\n    }  \n    \n    /* @notice Append Audit Registry\n    * @dev A document owner can use this function to append audit information to it\n    * @param _id - Id of the document\n    * @param _description - Content of the audit registry (status change, extra information, etc...)\n    * @param _timestamp - Local timestamp (UNIX Epoch format) from the external\n    * system or the UI which executes the contract\n    */\n    function appendAuditRegistry(uint256 _id, string memory _description, string memory _timestamp) \n    public onlyAuthorizedUsers onlyWhenUnlocked {\n        \n        require(_id != 0, \"E-POL-001- There is not a certified document with that identifier\");\n\n        require(ownerByDocumentId[_id] == msg.sender, \n        \"E-POL-003 - Only the document owner can append audit registry transactions\");\n        \n        AuditRegistry memory auditRegistry = AuditRegistry(\n                                                        { timestamp: _timestamp,\n                                                          blockTimestamp: now,\n                                                          description: _description }\n        );\n                                                    \n        auditRegistryByDocumentId[_id].push(auditRegistry);\n        emit NewAuditRegistry(_id, auditRegistry.description, auditRegistry.timestamp, auditRegistry.blockTimestamp);\n        \n    }\n\n\n}\n",
  "sourcePath": "/Users/xmunch/Desktop/Projects/Ethereum Projects/docuten-blockchain-proof/contracts/ProofOfLife.sol",
  "compiler": {
    "name": "solc",
    "version": "0.5.0+commit.1d4f565a.Emscripten.clang"
  },
  "schemaVersion": "3.0.0",
  "updatedAt": "2019-01-18T09:22:36.144Z",
  "devdoc": {
    "methods": {}
  },
  "userdoc": {
    "methods": {}
  }
}