{
  "contractName": "ProofOfLifeProxy",
  "abi": [
    {
      "constant": true,
      "inputs": [],
      "name": "delegatedContractAddress",
      "outputs": [
        {
          "name": "",
          "type": "address"
        }
      ],
      "payable": false,
      "stateMutability": "view",
      "type": "function",
      "signature": "0x75b6e378"
    },
    {
      "inputs": [
        {
          "name": "existingContractAddress",
          "type": "address"
        }
      ],
      "payable": false,
      "stateMutability": "nonpayable",
      "type": "constructor",
      "signature": "constructor"
    }
  ],
  "bytecode": "0x608060405234801561001057600080fd5b506040516020806101798339810180604052602081101561003057600080fd5b8101908080519060200190929190505050806000806101000a81548173ffffffffffffffffffffffffffffffffffffffff021916908373ffffffffffffffffffffffffffffffffffffffff1602179055505060e9806100906000396000f3fe608060405260043610603f576000357c0100000000000000000000000000000000000000000000000000000000900463ffffffff16806375b6e378146044575b600080fd5b348015604f57600080fd5b5060566098565b604051808273ffffffffffffffffffffffffffffffffffffffff1673ffffffffffffffffffffffffffffffffffffffff16815260200191505060405180910390f35b6000809054906101000a900473ffffffffffffffffffffffffffffffffffffffff168156fea165627a7a72305820a37237195ee968d767cc5974e63094150f03ff61ad9d0cc82df6e3eba9d940350029",
  "source": "pragma solidity ^0.5.0;\n\nimport \"./HasAuditRegistry.sol\";\n\n\n/* @title Proof of Life Proxy with delegateCall */\ncontract ProofOfLifeProxy is HasAuditRegistry {\n \n    // State\n    address public delegatedContractAddress;\n\n    /* @notice Lock contract\n    * @dev Maintenance and security circuit locker\n    */\n    //function lock() public {\n    /*   uint256256 val = 100;\n        delegatedContractAddress.delegatecall(abi.encodeWithSignature(\"foo(uint256256,uint256256)\")), val, val);\n      delegatedContractAddress.delegatecall(bytes4(keccak256(\"storeValue(uint256256)\")), val);\n      bytes memory delegateBytes = bytes4(keccak256(\"lock()\"));\n      contractAddress.delegatecall(delegateBytes);*/\n\n    //}\n\n    constructor (address existingContractAddress) public {\n      delegatedContractAddress = existingContractAddress;\n    }\n}",
  "sourcePath": "/Users/xmunch/Desktop/Projects/Ethereum Projects/docuten-blockchain-proof/contracts/ProofOfLifeProxy.sol",
  "compiler": {
    "name": "solc",
    "version": "0.5.0+commit.1d4f565a.Emscripten.clang"
  },
  "schemaVersion": "3.0.0",
  "updatedAt": "2019-01-10T10:18:12.776Z",
  "devdoc": {
    "methods": {}
  },
  "userdoc": {
    "methods": {}
  }
}