{
  "contractName": "ProofOfExistence",
  "abi": [
    {
      "constant": false,
      "inputs": [
        {
          "name": "user",
          "type": "address"
        }
      ],
      "name": "addAuthorizedUser",
      "outputs": [],
      "payable": false,
      "stateMutability": "nonpayable",
      "type": "function"
    },
    {
      "constant": true,
      "inputs": [
        {
          "name": "",
          "type": "address"
        }
      ],
      "name": "authorizedUsers",
      "outputs": [
        {
          "name": "",
          "type": "bool"
        }
      ],
      "payable": false,
      "stateMutability": "view",
      "type": "function"
    },
    {
      "constant": true,
      "inputs": [],
      "name": "isOpenToEveryUser",
      "outputs": [
        {
          "name": "",
          "type": "bool"
        }
      ],
      "payable": false,
      "stateMutability": "view",
      "type": "function"
    },
    {
      "constant": true,
      "inputs": [
        {
          "name": "",
          "type": "bytes32"
        }
      ],
      "name": "idByDocumentHash",
      "outputs": [
        {
          "name": "",
          "type": "uint256"
        }
      ],
      "payable": false,
      "stateMutability": "view",
      "type": "function"
    },
    {
      "constant": true,
      "inputs": [
        {
          "name": "",
          "type": "uint256"
        }
      ],
      "name": "hashByDocumentId",
      "outputs": [
        {
          "name": "",
          "type": "string"
        }
      ],
      "payable": false,
      "stateMutability": "view",
      "type": "function"
    },
    {
      "constant": false,
      "inputs": [],
      "name": "closeToAuthorizedUsers",
      "outputs": [],
      "payable": false,
      "stateMutability": "nonpayable",
      "type": "function"
    },
    {
      "constant": true,
      "inputs": [
        {
          "name": "",
          "type": "uint256"
        }
      ],
      "name": "ownerByDocumentId",
      "outputs": [
        {
          "name": "",
          "type": "address"
        }
      ],
      "payable": false,
      "stateMutability": "view",
      "type": "function"
    },
    {
      "constant": true,
      "inputs": [],
      "name": "isLocked",
      "outputs": [
        {
          "name": "",
          "type": "bool"
        }
      ],
      "payable": false,
      "stateMutability": "view",
      "type": "function"
    },
    {
      "constant": false,
      "inputs": [],
      "name": "unlock",
      "outputs": [],
      "payable": false,
      "stateMutability": "nonpayable",
      "type": "function"
    },
    {
      "constant": true,
      "inputs": [
        {
          "name": "",
          "type": "address"
        },
        {
          "name": "",
          "type": "uint256"
        }
      ],
      "name": "documentsByOwnerAddress",
      "outputs": [
        {
          "name": "",
          "type": "uint256"
        }
      ],
      "payable": false,
      "stateMutability": "view",
      "type": "function"
    },
    {
      "constant": true,
      "inputs": [],
      "name": "lastId",
      "outputs": [
        {
          "name": "",
          "type": "uint256"
        }
      ],
      "payable": false,
      "stateMutability": "view",
      "type": "function"
    },
    {
      "constant": true,
      "inputs": [
        {
          "name": "",
          "type": "uint256"
        }
      ],
      "name": "ipfsHashByDocumentId",
      "outputs": [
        {
          "name": "",
          "type": "string"
        }
      ],
      "payable": false,
      "stateMutability": "view",
      "type": "function"
    },
    {
      "constant": true,
      "inputs": [],
      "name": "contractOwner",
      "outputs": [
        {
          "name": "",
          "type": "address"
        }
      ],
      "payable": false,
      "stateMutability": "view",
      "type": "function"
    },
    {
      "constant": false,
      "inputs": [
        {
          "name": "user",
          "type": "address"
        }
      ],
      "name": "removeCredentials",
      "outputs": [],
      "payable": false,
      "stateMutability": "nonpayable",
      "type": "function"
    },
    {
      "constant": false,
      "inputs": [],
      "name": "lock",
      "outputs": [],
      "payable": false,
      "stateMutability": "nonpayable",
      "type": "function"
    },
    {
      "constant": false,
      "inputs": [],
      "name": "openToEveryUser",
      "outputs": [],
      "payable": false,
      "stateMutability": "nonpayable",
      "type": "function"
    },
    {
      "payable": false,
      "stateMutability": "nonpayable",
      "type": "fallback"
    },
    {
      "anonymous": false,
      "inputs": [],
      "name": "ContractLocked",
      "type": "event"
    },
    {
      "anonymous": false,
      "inputs": [],
      "name": "ContractUnlocked",
      "type": "event"
    },
    {
      "anonymous": false,
      "inputs": [
        {
          "indexed": false,
          "name": "user",
          "type": "address"
        }
      ],
      "name": "AuthorizedUserAdded",
      "type": "event"
    },
    {
      "anonymous": false,
      "inputs": [
        {
          "indexed": false,
          "name": "user",
          "type": "address"
        }
      ],
      "name": "CredentialsRemoved",
      "type": "event"
    },
    {
      "constant": false,
      "inputs": [
        {
          "name": "_documentHash",
          "type": "string"
        },
        {
          "name": "_ipfsHash",
          "type": "string"
        }
      ],
      "name": "certifyDocument",
      "outputs": [
        {
          "name": "",
          "type": "uint256"
        }
      ],
      "payable": false,
      "stateMutability": "nonpayable",
      "type": "function"
    },
    {
      "constant": false,
      "inputs": [
        {
          "name": "_documentHash",
          "type": "string"
        }
      ],
      "name": "certifyDocument",
      "outputs": [
        {
          "name": "",
          "type": "uint256"
        }
      ],
      "payable": false,
      "stateMutability": "nonpayable",
      "type": "function"
    },
    {
      "constant": true,
      "inputs": [
        {
          "name": "_stringInput",
          "type": "string"
        }
      ],
      "name": "stringToBytes32",
      "outputs": [
        {
          "name": "result",
          "type": "bytes32"
        }
      ],
      "payable": false,
      "stateMutability": "pure",
      "type": "function"
    }
  ],
  "bytecode": "0x6080604052600060025533600160006101000a81548173ffffffffffffffffffffffffffffffffffffffff021916908373ffffffffffffffffffffffffffffffffffffffff1602179055506001600080600160009054906101000a900473ffffffffffffffffffffffffffffffffffffffff1673ffffffffffffffffffffffffffffffffffffffff1673ffffffffffffffffffffffffffffffffffffffff16815260200190815260200160002060006101000a81548160ff021916908315150217905550611f4f806100d26000396000f3fe608060405260043610610107576000357c0100000000000000000000000000000000000000000000000000000000900463ffffffff168063177d2a74146101195780631828983a1461016a5780632657caaf146101d35780633e36da4814610346578063435b022f1461037557806371f94e83146103c45780637320a287146104785780638a701ed11461048f578063a4e2d6341461050a578063a69df4b514610539578063ad0eafec14610550578063c1292cc3146105bf578063c85eb047146105ea578063ce606ee01461069e578063cfb51928146106f5578063db9dd762146107d1578063f3c6d71a146108ad578063f83d08ba146108fe578063feab077714610915575b34801561011357600080fd5b50600080fd5b34801561012557600080fd5b506101686004803603602081101561013c57600080fd5b81019080803573ffffffffffffffffffffffffffffffffffffffff16906020019092919050505061092c565b005b34801561017657600080fd5b506101b96004803603602081101561018d57600080fd5b81019080803573ffffffffffffffffffffffffffffffffffffffff169060200190929190505050610b7f565b604051808215151515815260200191505060405180910390f35b3480156101df57600080fd5b50610330600480360360408110156101f657600080fd5b810190808035906020019064010000000081111561021357600080fd5b82018360208201111561022557600080fd5b8035906020019184600183028401116401000000008311171561024757600080fd5b91908080601f016020809104026020016040519081016040528093929190818152602001838380828437600081840152601f19601f820116905080830192505050505050509192919290803590602001906401000000008111156102aa57600080fd5b8201836020820111156102bc57600080fd5b803590602001918460018302840111640100000000831117156102de57600080fd5b91908080601f016020809104026020016040519081016040528093929190818152602001838380828437600081840152601f19601f820116905080830192505050505050509192919290505050610b9f565b6040518082815260200191505060405180910390f35b34801561035257600080fd5b5061035b610f4e565b604051808215151515815260200191505060405180910390f35b34801561038157600080fd5b506103ae6004803603602081101561039857600080fd5b8101908080359060200190929190505050610f61565b6040518082815260200191505060405180910390f35b3480156103d057600080fd5b506103fd600480360360208110156103e757600080fd5b8101908080359060200190929190505050610f79565b6040518080602001828103825283818151815260200191508051906020019080838360005b8381101561043d578082015181840152602081019050610422565b50505050905090810190601f16801561046a5780820380516001836020036101000a031916815260200191505b509250505060405180910390f35b34801561048457600080fd5b5061048d611029565b005b34801561049b57600080fd5b506104c8600480360360208110156104b257600080fd5b81019080803590602001909291905050506112ac565b604051808273ffffffffffffffffffffffffffffffffffffffff1673ffffffffffffffffffffffffffffffffffffffff16815260200191505060405180910390f35b34801561051657600080fd5b5061051f6112df565b604051808215151515815260200191505060405180910390f35b34801561054557600080fd5b5061054e6112f2565b005b34801561055c57600080fd5b506105a96004803603604081101561057357600080fd5b81019080803573ffffffffffffffffffffffffffffffffffffffff169060200190929190803590602001909291905050506114d0565b6040518082815260200191505060405180910390f35b3480156105cb57600080fd5b506105d4611500565b6040518082815260200191505060405180910390f35b3480156105f657600080fd5b506106236004803603602081101561060d57600080fd5b8101908080359060200190929190505050611506565b6040518080602001828103825283818151815260200191508051906020019080838360005b83811015610663578082015181840152602081019050610648565b50505050905090810190601f1680156106905780820380516001836020036101000a031916815260200191505b509250505060405180910390f35b3480156106aa57600080fd5b506106b36115b6565b604051808273ffffffffffffffffffffffffffffffffffffffff1673ffffffffffffffffffffffffffffffffffffffff16815260200191505060405180910390f35b34801561070157600080fd5b506107bb6004803603602081101561071857600080fd5b810190808035906020019064010000000081111561073557600080fd5b82018360208201111561074757600080fd5b8035906020019184600183028401116401000000008311171561076957600080fd5b91908080601f016020809104026020016040519081016040528093929190818152602001838380828437600081840152601f19601f8201169050808301925050505050505091929192905050506115dc565b6040518082815260200191505060405180910390f35b3480156107dd57600080fd5b50610897600480360360208110156107f457600080fd5b810190808035906020019064010000000081111561081157600080fd5b82018360208201111561082357600080fd5b8035906020019184600183028401116401000000008311171561084557600080fd5b91908080601f016020809104026020016040519081016040528093929190818152602001838380828437600081840152601f19601f820116905080830192505050505050509192919290505050611608565b6040518082815260200191505060405180910390f35b3480156108b957600080fd5b506108fc600480360360208110156108d057600080fd5b81019080803573ffffffffffffffffffffffffffffffffffffffff1690602001909291905050506117d3565b005b34801561090a57600080fd5b50610913611a1d565b005b34801561092157600080fd5b5061092a611bfb565b005b600160159054906101000a900460ff161515156109d7576040517f08c379a00000000000000000000000000000000000000000000000000000000081526004018080602001828103825260278152602001807f452d4c4f434b2d303031202d20436f6e74726163742074656d706f726172792081526020017f6c6f636b65642e0000000000000000000000000000000000000000000000000081525060400191505060405180910390fd5b600160009054906101000a900473ffffffffffffffffffffffffffffffffffffffff1673ffffffffffffffffffffffffffffffffffffffff163373ffffffffffffffffffffffffffffffffffffffff16141515610ac2576040517f08c379a000000000000000000000000000000000000000000000000000000000815260040180806020018281038252603f8152602001807f452d43432d303031202d204f6e6c792074686520636f6e7472616374206f776e81526020017f65722061646420657865637574652074686973207472616e73616374696f6e0081525060400191505060405180910390fd5b60016000808373ffffffffffffffffffffffffffffffffffffffff1673ffffffffffffffffffffffffffffffffffffffff16815260200190815260200160002060006101000a81548160ff0219169083151502179055507f7e07c71a6d7714652e08d641a843dff01e823c8eeed08945be844015fe33539381604051808273ffffffffffffffffffffffffffffffffffffffff1673ffffffffffffffffffffffffffffffffffffffff16815260200191505060405180910390a150565b60006020528060005260406000206000915054906101000a900460ff1681565b60008060003373ffffffffffffffffffffffffffffffffffffffff1673ffffffffffffffffffffffffffffffffffffffff16815260200190815260200160002060009054906101000a900460ff1680610c045750600160149054906101000a900460ff165b1515610c9e576040517f08c379a000000000000000000000000000000000000000000000000000000000815260040180806020018281038252603d8152602001807f452d43432d303032202d204f6e6c7920617574686f72697a656420757365727381526020017f2063616e20657865637574652074686973207472616e73616374696f6e00000081525060400191505060405180910390fd5b600160159054906101000a900460ff16151515610d49576040517f08c379a00000000000000000000000000000000000000000000000000000000081526004018080602001828103825260278152602001807f452d4c4f434b2d303031202d20436f6e74726163742074656d706f726172792081526020017f6c6f636b65642e0000000000000000000000000000000000000000000000000081525060400191505060405180910390fd5b6000610d54846115dc565b905060006003600083815260200190815260200160002054141515610e07576040517f08c379a00000000000000000000000000000000000000000000000000000000081526004018080602001828103825260408152602001807f452d504f452d303031202d20546865726520697320616c72656164792061206381526020017f657274696669656420646f63756d656e7420776974682074686174206861736881525060400191505060405180910390fd5b6002600081548092919060010191905055506000600254905084600660008381526020019081526020016000209080519060200190610e47929190611e7e565b5083600560008381526020019081526020016000209080519060200190610e6f929190611e7e565b50806003600084815260200190815260200160002081905550336004600083815260200190815260200160002060006101000a81548173ffffffffffffffffffffffffffffffffffffffff021916908373ffffffffffffffffffffffffffffffffffffffff160217905550600760003373ffffffffffffffffffffffffffffffffffffffff1673ffffffffffffffffffffffffffffffffffffffff168152602001908152602001600020819080600181540180825580915050906001820390600052602060002001600090919290919091505550809250505092915050565b600160149054906101000a900460ff1681565b60036020528060005260406000206000915090505481565b60066020528060005260406000206000915090508054600181600116156101000203166002900480601f0160208091040260200160405190810160405280929190818152602001828054600181600116156101000203166002900480156110215780601f10610ff657610100808354040283529160200191611021565b820191906000526020600020905b81548152906001019060200180831161100457829003601f168201915b505050505081565b600160159054906101000a900460ff161515156110d4576040517f08c379a00000000000000000000000000000000000000000000000000000000081526004018080602001828103825260278152602001807f452d4c4f434b2d303031202d20436f6e74726163742074656d706f726172792081526020017f6c6f636b65642e0000000000000000000000000000000000000000000000000081525060400191505060405180910390fd5b600160009054906101000a900473ffffffffffffffffffffffffffffffffffffffff1673ffffffffffffffffffffffffffffffffffffffff163373ffffffffffffffffffffffffffffffffffffffff161415156111bf576040517f08c379a000000000000000000000000000000000000000000000000000000000815260040180806020018281038252603f8152602001807f452d43432d303031202d204f6e6c792074686520636f6e7472616374206f776e81526020017f65722061646420657865637574652074686973207472616e73616374696f6e0081525060400191505060405180910390fd5b600160149054906101000a900460ff16151561128f576040517f08c379a00000000000000000000000000000000000000000000000000000000081526004018080602001828103825260448152602001807f452d43432d303033202d2043657274696669636174696f6e206f70657261746981526020017f6f6e732061726520616c726561647920636c6f73656420746f2065766572792081526020017f757365720000000000000000000000000000000000000000000000000000000081525060600191505060405180910390fd5b6000600160146101000a81548160ff021916908315150217905550565b60046020528060005260406000206000915054906101000a900473ffffffffffffffffffffffffffffffffffffffff1681565b600160159054906101000a900460ff1681565b600160159054906101000a900460ff16151561139c576040517f08c379a00000000000000000000000000000000000000000000000000000000081526004018080602001828103825260308152602001807f452d4c4f434b2d30303220202d205468697320636f6e7472616374206973206181526020017f6c726561647920756e6c6f636b65642e0000000000000000000000000000000081525060400191505060405180910390fd5b600160009054906101000a900473ffffffffffffffffffffffffffffffffffffffff1673ffffffffffffffffffffffffffffffffffffffff163373ffffffffffffffffffffffffffffffffffffffff16141515611487576040517f08c379a000000000000000000000000000000000000000000000000000000000815260040180806020018281038252603f8152602001807f452d43432d303031202d204f6e6c792074686520636f6e7472616374206f776e81526020017f65722061646420657865637574652074686973207472616e73616374696f6e0081525060400191505060405180910390fd5b6000600160156101000a81548160ff0219169083151502179055507f3e5f4fd66bc9f59f15a9304dbc6394e240a57a1b4eb7ca42a75c5d9b298da45560405160405180910390a1565b6007602052816000526040600020818154811015156114eb57fe5b90600052602060002001600091509150505481565b60025481565b60056020528060005260406000206000915090508054600181600116156101000203166002900480601f0160208091040260200160405190810160405280929190818152602001828054600181600116156101000203166002900480156115ae5780601f10611583576101008083540402835291602001916115ae565b820191906000526020600020905b81548152906001019060200180831161159157829003601f168201915b505050505081565b600160009054906101000a900473ffffffffffffffffffffffffffffffffffffffff1681565b600060608290506000815114156115fa576000600102915050611603565b60208301519150505b919050565b60008060003373ffffffffffffffffffffffffffffffffffffffff1673ffffffffffffffffffffffffffffffffffffffff16815260200190815260200160002060009054906101000a900460ff168061166d5750600160149054906101000a900460ff165b1515611707576040517f08c379a000000000000000000000000000000000000000000000000000000000815260040180806020018281038252603d8152602001807f452d43432d303032202d204f6e6c7920617574686f72697a656420757365727381526020017f2063616e20657865637574652074686973207472616e73616374696f6e00000081525060400191505060405180910390fd5b600160159054906101000a900460ff161515156117b2576040517f08c379a00000000000000000000000000000000000000000000000000000000081526004018080602001828103825260278152602001807f452d4c4f434b2d303031202d20436f6e74726163742074656d706f726172792081526020017f6c6f636b65642e0000000000000000000000000000000000000000000000000081525060400191505060405180910390fd5b6117cc826020604051908101604052806000815250610b9f565b9050919050565b600160159054906101000a900460ff1615151561187e576040517f08c379a00000000000000000000000000000000000000000000000000000000081526004018080602001828103825260278152602001807f452d4c4f434b2d303031202d20436f6e74726163742074656d706f726172792081526020017f6c6f636b65642e0000000000000000000000000000000000000000000000000081525060400191505060405180910390fd5b600160009054906101000a900473ffffffffffffffffffffffffffffffffffffffff1673ffffffffffffffffffffffffffffffffffffffff163373ffffffffffffffffffffffffffffffffffffffff16141515611969576040517f08c379a000000000000000000000000000000000000000000000000000000000815260040180806020018281038252603f8152602001807f452d43432d303031202d204f6e6c792074686520636f6e7472616374206f776e81526020017f65722061646420657865637574652074686973207472616e73616374696f6e0081525060400191505060405180910390fd5b6000808273ffffffffffffffffffffffffffffffffffffffff1673ffffffffffffffffffffffffffffffffffffffff16815260200190815260200160002060006101000a81549060ff02191690557fbebbb6faf74eef3594a83912d2f77145b62aacc4520832f587e2130cdcbf08f081604051808273ffffffffffffffffffffffffffffffffffffffff1673ffffffffffffffffffffffffffffffffffffffff16815260200191505060405180910390a150565b600160159054906101000a900460ff16151515611ac8576040517f08c379a00000000000000000000000000000000000000000000000000000000081526004018080602001828103825260278152602001807f452d4c4f434b2d303031202d20436f6e74726163742074656d706f726172792081526020017f6c6f636b65642e0000000000000000000000000000000000000000000000000081525060400191505060405180910390fd5b600160009054906101000a900473ffffffffffffffffffffffffffffffffffffffff1673ffffffffffffffffffffffffffffffffffffffff163373ffffffffffffffffffffffffffffffffffffffff16141515611bb3576040517f08c379a000000000000000000000000000000000000000000000000000000000815260040180806020018281038252603f8152602001807f452d43432d303031202d204f6e6c792074686520636f6e7472616374206f776e81526020017f65722061646420657865637574652074686973207472616e73616374696f6e0081525060400191505060405180910390fd5b60018060156101000a81548160ff0219169083151502179055507f6f5ffb7e2a6656882126927a79e460ca27ab657927d593522b90dc28229f7dbc60405160405180910390a1565b600160159054906101000a900460ff16151515611ca6576040517f08c379a00000000000000000000000000000000000000000000000000000000081526004018080602001828103825260278152602001807f452d4c4f434b2d303031202d20436f6e74726163742074656d706f726172792081526020017f6c6f636b65642e0000000000000000000000000000000000000000000000000081525060400191505060405180910390fd5b600160009054906101000a900473ffffffffffffffffffffffffffffffffffffffff1673ffffffffffffffffffffffffffffffffffffffff163373ffffffffffffffffffffffffffffffffffffffff16141515611d91576040517f08c379a000000000000000000000000000000000000000000000000000000000815260040180806020018281038252603f8152602001807f452d43432d303031202d204f6e6c792074686520636f6e7472616374206f776e81526020017f65722061646420657865637574652074686973207472616e73616374696f6e0081525060400191505060405180910390fd5b600160149054906101000a900460ff16151515611e62576040517f08c379a00000000000000000000000000000000000000000000000000000000081526004018080602001828103825260428152602001807f452d43432d303034202d2043657274696669636174696f6e206f70657261746981526020017f6f6e732061726520616c7265616479206f70656e20746f20657665727920757381526020017f657200000000000000000000000000000000000000000000000000000000000081525060600191505060405180910390fd5b60018060146101000a81548160ff021916908315150217905550565b828054600181600116156101000203166002900490600052602060002090601f016020900481019282601f10611ebf57805160ff1916838001178555611eed565b82800160010185558215611eed579182015b82811115611eec578251825591602001919060010190611ed1565b5b509050611efa9190611efe565b5090565b611f2091905b80821115611f1c576000816000905550600101611f04565b5090565b9056fea165627a7a72305820b6c0bc7e6c33fe4b468fa081923c48d92cc646c7ed407d9eba14c27a889b56870029",
  "source": "pragma solidity ^0.5.0;\n\nimport \"./Lockable.sol\";\n\n\n/* @title Proof of Existence */\ncontract ProofOfExistence is Lockable {\n  \n    // State\n    uint256 public lastId = 0;\n    mapping(bytes32  => uint256) public idByDocumentHash;\n    mapping(uint256  => address) public ownerByDocumentId;\n    mapping(uint256  => string) public ipfsHashByDocumentId;\n    mapping(uint256  => string) public hashByDocumentId;\n    mapping(address  => uint256[]) public documentsByOwnerAddress;\n    \n    /* @notice Fallback function\n    /* @dev It reverts the transaction for security reasons\n    */\n    function() external {\n        revert();\n    }\n\n    /* @notice Certify document with hash\n    * @dev It registers in the blockchain the proof-of-existence of an external document\n    * @param _documentHash - Hash of the document (it should have 32 bytes)\n    * @return id - returns certified document id\n    */\n    function certifyDocument(string memory _documentHash) public onlyAuthorizedUsers onlyWhenUnlocked returns(uint256) {\n        return certifyDocument(_documentHash, \"\");\n    }\n    \n    /* @notice Certify document with hash and IPFS hash\n    * @dev It registers in the blockchain the proof-of-existence of an external document\n    * @param _documentHash - Hash of the document (it should have 32 bytes)\n    * @param _ipfsHash - IPFS Hash, if it exists \n    * @return id - returns certified document id\n    */\n    function certifyDocument(string memory _documentHash, string memory _ipfsHash) \n    public onlyAuthorizedUsers onlyWhenUnlocked returns(uint256) {\n      \n        bytes32 _docHash = stringToBytes32(_documentHash);\n        require(idByDocumentHash[_docHash] == 0, \"E-POE-001 - There is already a certified document with that hash\");\n    \n        //An auto-incremental identifier will be generated by this method\n        lastId++;\n        uint256 _id = lastId;\n      \n        hashByDocumentId[_id] = _documentHash; //Add to list of document hashes\n        ipfsHashByDocumentId[_id] = _ipfsHash; //Add to list of ipfs hashes\n        idByDocumentHash[_docHash] = _id; //Add hash-id mapping information\n        ownerByDocumentId[_id] = msg.sender; //Link document to owner      \n        documentsByOwnerAddress[msg.sender].push(_id); //Add hash to owner's documents list\n      \n        return _id;\n    }\n  \n        \n    /* @notice StringToBytes32 (based on Grzegorz Kapkowski's method)\n    * @ref https://ethereum.stackexchange.com/questions/9142/how-to-convert-a-string-to-bytes32\n    * @dev Transforms a string in bytes32\n    * @param _documentHash - Hash of the document\n    * @return bytes32\n    */\n    function stringToBytes32(string memory _stringInput) public pure returns (bytes32 result) {\n        bytes memory tempEmptyStringTest = bytes(_stringInput);\n        if (tempEmptyStringTest.length == 0) {\n            return 0x0;\n        }\n    \n        assembly {\n            result := mload(add(_stringInput, 32))\n        }\n    } \n  \n}",
  "sourcePath": "/Users/xmunch/Desktop/Projects/Ethereum Projects/docuten-blockchain-proof/contracts/ProofOfExistence.sol",
  "compiler": {
    "name": "solc",
    "version": "0.5.0+commit.1d4f565a.Emscripten.clang"
  },
  "schemaVersion": "3.0.0",
  "updatedAt": "2019-01-16T11:34:18.214Z",
  "devdoc": {
    "methods": {}
  },
  "userdoc": {
    "methods": {}
  }
}