{
  "contractName": "ProofOfLife",
  "abi": [
    {
      "constant": false,
      "inputs": [
        {
          "name": "user",
          "type": "address"
        }
      ],
      "name": "addAuthorizedUser",
      "outputs": [],
      "payable": false,
      "stateMutability": "nonpayable",
      "type": "function",
      "signature": "0x177d2a74"
    },
    {
      "constant": true,
      "inputs": [
        {
          "name": "",
          "type": "address"
        }
      ],
      "name": "authorizedUsers",
      "outputs": [
        {
          "name": "",
          "type": "bool"
        }
      ],
      "payable": false,
      "stateMutability": "view",
      "type": "function",
      "signature": "0x1828983a"
    },
    {
      "constant": false,
      "inputs": [
        {
          "name": "_documentHash",
          "type": "string"
        },
        {
          "name": "_ipfsHash",
          "type": "string"
        }
      ],
      "name": "certifyDocument",
      "outputs": [
        {
          "name": "",
          "type": "uint256"
        }
      ],
      "payable": false,
      "stateMutability": "nonpayable",
      "type": "function",
      "signature": "0x2657caaf"
    },
    {
      "constant": true,
      "inputs": [
        {
          "name": "_documentHash",
          "type": "string"
        }
      ],
      "name": "getDocumentDetailsByHash",
      "outputs": [
        {
          "name": "",
          "type": "uint256"
        },
        {
          "name": "",
          "type": "string"
        },
        {
          "name": "",
          "type": "string"
        },
        {
          "name": "",
          "type": "address"
        }
      ],
      "payable": false,
      "stateMutability": "view",
      "type": "function",
      "signature": "0x2ad020e1"
    },
    {
      "constant": true,
      "inputs": [
        {
          "name": "_id",
          "type": "uint256"
        }
      ],
      "name": "getDocumentDetailsById",
      "outputs": [
        {
          "name": "",
          "type": "uint256"
        },
        {
          "name": "",
          "type": "string"
        },
        {
          "name": "",
          "type": "string"
        },
        {
          "name": "",
          "type": "address"
        }
      ],
      "payable": false,
      "stateMutability": "view",
      "type": "function",
      "signature": "0x30423791"
    },
    {
      "constant": true,
      "inputs": [],
      "name": "isOpenToEveryUser",
      "outputs": [
        {
          "name": "",
          "type": "bool"
        }
      ],
      "payable": false,
      "stateMutability": "view",
      "type": "function",
      "signature": "0x3e36da48"
    },
    {
      "constant": true,
      "inputs": [
        {
          "name": "",
          "type": "bytes32"
        }
      ],
      "name": "idByDocumentHash",
      "outputs": [
        {
          "name": "",
          "type": "uint256"
        }
      ],
      "payable": false,
      "stateMutability": "view",
      "type": "function",
      "signature": "0x435b022f"
    },
    {
      "constant": true,
      "inputs": [
        {
          "name": "",
          "type": "uint256"
        },
        {
          "name": "",
          "type": "uint256"
        }
      ],
      "name": "auditRegistryByDocumentId",
      "outputs": [
        {
          "name": "description",
          "type": "string"
        },
        {
          "name": "timestamp",
          "type": "string"
        },
        {
          "name": "blockTimestamp",
          "type": "uint256"
        }
      ],
      "payable": false,
      "stateMutability": "view",
      "type": "function",
      "signature": "0x6e8cc87f"
    },
    {
      "constant": true,
      "inputs": [
        {
          "name": "",
          "type": "uint256"
        }
      ],
      "name": "hashByDocumentId",
      "outputs": [
        {
          "name": "",
          "type": "string"
        }
      ],
      "payable": false,
      "stateMutability": "view",
      "type": "function",
      "signature": "0x71f94e83"
    },
    {
      "constant": false,
      "inputs": [],
      "name": "closeToAuthorizedUsers",
      "outputs": [],
      "payable": false,
      "stateMutability": "nonpayable",
      "type": "function",
      "signature": "0x7320a287"
    },
    {
      "constant": true,
      "inputs": [
        {
          "name": "owner",
          "type": "address"
        }
      ],
      "name": "getDocumentsByOwner",
      "outputs": [
        {
          "name": "",
          "type": "uint256[]"
        }
      ],
      "payable": false,
      "stateMutability": "view",
      "type": "function",
      "signature": "0x7ddfc7d4"
    },
    {
      "constant": true,
      "inputs": [
        {
          "name": "",
          "type": "uint256"
        }
      ],
      "name": "ownerByDocumentId",
      "outputs": [
        {
          "name": "",
          "type": "address"
        }
      ],
      "payable": false,
      "stateMutability": "view",
      "type": "function",
      "signature": "0x8a701ed1"
    },
    {
      "constant": true,
      "inputs": [],
      "name": "isLocked",
      "outputs": [
        {
          "name": "",
          "type": "bool"
        }
      ],
      "payable": false,
      "stateMutability": "view",
      "type": "function",
      "signature": "0xa4e2d634"
    },
    {
      "constant": false,
      "inputs": [],
      "name": "unlock",
      "outputs": [],
      "payable": false,
      "stateMutability": "nonpayable",
      "type": "function",
      "signature": "0xa69df4b5"
    },
    {
      "constant": true,
      "inputs": [
        {
          "name": "",
          "type": "address"
        },
        {
          "name": "",
          "type": "uint256"
        }
      ],
      "name": "documentsByOwnerAddress",
      "outputs": [
        {
          "name": "",
          "type": "uint256"
        }
      ],
      "payable": false,
      "stateMutability": "view",
      "type": "function",
      "signature": "0xad0eafec"
    },
    {
      "constant": false,
      "inputs": [
        {
          "name": "te",
          "type": "string"
        },
        {
          "name": "te2",
          "type": "string"
        }
      ],
      "name": "test",
      "outputs": [],
      "payable": false,
      "stateMutability": "nonpayable",
      "type": "function",
      "signature": "0xbab86ea8"
    },
    {
      "constant": true,
      "inputs": [
        {
          "name": "_documentHash",
          "type": "string"
        }
      ],
      "name": "getId",
      "outputs": [
        {
          "name": "",
          "type": "uint256"
        }
      ],
      "payable": false,
      "stateMutability": "view",
      "type": "function",
      "signature": "0xbee51f3b"
    },
    {
      "constant": true,
      "inputs": [],
      "name": "lastId",
      "outputs": [
        {
          "name": "",
          "type": "uint256"
        }
      ],
      "payable": false,
      "stateMutability": "view",
      "type": "function",
      "signature": "0xc1292cc3"
    },
    {
      "constant": true,
      "inputs": [
        {
          "name": "",
          "type": "uint256"
        }
      ],
      "name": "ipfsHashByDocumentId",
      "outputs": [
        {
          "name": "",
          "type": "string"
        }
      ],
      "payable": false,
      "stateMutability": "view",
      "type": "function",
      "signature": "0xc85eb047"
    },
    {
      "constant": true,
      "inputs": [],
      "name": "contractOwner",
      "outputs": [
        {
          "name": "",
          "type": "address"
        }
      ],
      "payable": false,
      "stateMutability": "view",
      "type": "function",
      "signature": "0xce606ee0"
    },
    {
      "constant": true,
      "inputs": [
        {
          "name": "_stringInput",
          "type": "string"
        }
      ],
      "name": "stringToBytes32",
      "outputs": [
        {
          "name": "result",
          "type": "bytes32"
        }
      ],
      "payable": false,
      "stateMutability": "pure",
      "type": "function",
      "signature": "0xcfb51928"
    },
    {
      "constant": false,
      "inputs": [
        {
          "name": "_documentHash",
          "type": "string"
        }
      ],
      "name": "certifyDocument",
      "outputs": [
        {
          "name": "",
          "type": "uint256"
        }
      ],
      "payable": false,
      "stateMutability": "nonpayable",
      "type": "function",
      "signature": "0xdb9dd762"
    },
    {
      "constant": false,
      "inputs": [
        {
          "name": "user",
          "type": "address"
        }
      ],
      "name": "removeCredentials",
      "outputs": [],
      "payable": false,
      "stateMutability": "nonpayable",
      "type": "function",
      "signature": "0xf3c6d71a"
    },
    {
      "constant": false,
      "inputs": [],
      "name": "lock",
      "outputs": [],
      "payable": false,
      "stateMutability": "nonpayable",
      "type": "function",
      "signature": "0xf83d08ba"
    },
    {
      "constant": false,
      "inputs": [],
      "name": "openToEveryUser",
      "outputs": [],
      "payable": false,
      "stateMutability": "nonpayable",
      "type": "function",
      "signature": "0xfeab0777"
    },
    {
      "payable": false,
      "stateMutability": "nonpayable",
      "type": "fallback"
    },
    {
      "anonymous": false,
      "inputs": [
        {
          "indexed": false,
          "name": "id",
          "type": "uint256"
        },
        {
          "indexed": false,
          "name": "description",
          "type": "string"
        },
        {
          "indexed": false,
          "name": "timestamp",
          "type": "string"
        },
        {
          "indexed": false,
          "name": "blockTimestamp",
          "type": "uint256"
        }
      ],
      "name": "DocumentCreation",
      "type": "event",
      "signature": "0xfdcfed0cfff2a60f310626a01c493f3fafef4fe7410c8d634d22ef8db8b6740b"
    },
    {
      "anonymous": false,
      "inputs": [
        {
          "indexed": false,
          "name": "id",
          "type": "uint256"
        },
        {
          "indexed": false,
          "name": "description",
          "type": "string"
        },
        {
          "indexed": false,
          "name": "timestamp",
          "type": "string"
        },
        {
          "indexed": false,
          "name": "blockTimestamp",
          "type": "uint256"
        }
      ],
      "name": "NewAuditRegistry",
      "type": "event",
      "signature": "0x4de4d5b2e05cf7d3139a39b8a6dd01e1fd84ef8e17d821560779dce59186023c"
    },
    {
      "anonymous": false,
      "inputs": [],
      "name": "ContractLocked",
      "type": "event",
      "signature": "0x6f5ffb7e2a6656882126927a79e460ca27ab657927d593522b90dc28229f7dbc"
    },
    {
      "anonymous": false,
      "inputs": [],
      "name": "ContractUnlocked",
      "type": "event",
      "signature": "0x3e5f4fd66bc9f59f15a9304dbc6394e240a57a1b4eb7ca42a75c5d9b298da455"
    },
    {
      "anonymous": false,
      "inputs": [
        {
          "indexed": false,
          "name": "user",
          "type": "address"
        }
      ],
      "name": "AuthorizedUserAdded",
      "type": "event",
      "signature": "0x7e07c71a6d7714652e08d641a843dff01e823c8eeed08945be844015fe335393"
    },
    {
      "anonymous": false,
      "inputs": [
        {
          "indexed": false,
          "name": "user",
          "type": "address"
        }
      ],
      "name": "CredentialsRemoved",
      "type": "event",
      "signature": "0xbebbb6faf74eef3594a83912d2f77145b62aacc4520832f587e2130cdcbf08f0"
    },
    {
      "constant": false,
      "inputs": [
        {
          "name": "_documentHash",
          "type": "string"
        },
        {
          "name": "_ipfsHash",
          "type": "string"
        },
        {
          "name": "_timestamp",
          "type": "string"
        }
      ],
      "name": "certifyDocumentCreationWithIPFSHash",
      "outputs": [
        {
          "name": "",
          "type": "uint256"
        }
      ],
      "payable": false,
      "stateMutability": "nonpayable",
      "type": "function",
      "signature": "0xdef63c05"
    },
    {
      "constant": false,
      "inputs": [
        {
          "name": "_documentHash",
          "type": "string"
        },
        {
          "name": "_ipfsHash",
          "type": "string"
        },
        {
          "name": "_timestamp",
          "type": "string"
        }
      ],
      "name": "certifyDocumentCreation",
      "outputs": [
        {
          "name": "",
          "type": "uint256"
        }
      ],
      "payable": false,
      "stateMutability": "nonpayable",
      "type": "function",
      "signature": "0x05ce5c03"
    },
    {
      "constant": false,
      "inputs": [
        {
          "name": "_documentHash",
          "type": "string"
        },
        {
          "name": "_timestamp",
          "type": "string"
        }
      ],
      "name": "certifyDocumentCreation",
      "outputs": [
        {
          "name": "",
          "type": "uint256"
        }
      ],
      "payable": false,
      "stateMutability": "nonpayable",
      "type": "function",
      "signature": "0x2a23f99b"
    },
    {
      "constant": false,
      "inputs": [
        {
          "name": "_id",
          "type": "uint256"
        },
        {
          "name": "_description",
          "type": "string"
        },
        {
          "name": "_timestamp",
          "type": "string"
        }
      ],
      "name": "appendAuditRegistry",
      "outputs": [],
      "payable": false,
      "stateMutability": "nonpayable",
      "type": "function",
      "signature": "0x39f7b69d"
    },
    {
      "constant": true,
      "inputs": [
        {
          "name": "_documentHash",
          "type": "string"
        },
        {
          "name": "_index",
          "type": "uint256"
        }
      ],
      "name": "getAuditRegistryByDocumentHash",
      "outputs": [
        {
          "name": "",
          "type": "string"
        },
        {
          "name": "",
          "type": "string"
        },
        {
          "name": "",
          "type": "uint256"
        }
      ],
      "payable": false,
      "stateMutability": "view",
      "type": "function",
      "signature": "0xc2ef00be"
    },
    {
      "constant": true,
      "inputs": [
        {
          "name": "_id",
          "type": "uint256"
        },
        {
          "name": "_index",
          "type": "uint256"
        }
      ],
      "name": "getAuditRegistryByDocumentId",
      "outputs": [
        {
          "name": "",
          "type": "string"
        },
        {
          "name": "",
          "type": "string"
        },
        {
          "name": "",
          "type": "uint256"
        }
      ],
      "payable": false,
      "stateMutability": "view",
      "type": "function",
      "signature": "0x385e0210"
    },
    {
      "constant": true,
      "inputs": [
        {
          "name": "_documentHash",
          "type": "string"
        }
      ],
      "name": "countAuditRegistriesByDocumentHash",
      "outputs": [
        {
          "name": "",
          "type": "uint256"
        }
      ],
      "payable": false,
      "stateMutability": "view",
      "type": "function",
      "signature": "0x5be19337"
    },
    {
      "constant": true,
      "inputs": [
        {
          "name": "_id",
          "type": "uint256"
        }
      ],
      "name": "countAuditRegistriesByDocumentId",
      "outputs": [
        {
          "name": "",
          "type": "uint256"
        }
      ],
      "payable": false,
      "stateMutability": "view",
      "type": "function",
      "signature": "0x9e3caca7"
    }
  ],
  "bytecode": "0x6080604052600060025533600160006101000a81548173ffffffffffffffffffffffffffffffffffffffff021916908373ffffffffffffffffffffffffffffffffffffffff1602179055506001600080600160009054906101000a900473ffffffffffffffffffffffffffffffffffffffff1673ffffffffffffffffffffffffffffffffffffffff1673ffffffffffffffffffffffffffffffffffffffff16815260200190815260200160002060006101000a81548160ff0219169083151502179055506146f5806100d26000396000f3fe6080604052600436106101a1576000357c0100000000000000000000000000000000000000000000000000000000900463ffffffff16806305ce5c03146101b3578063177d2a74146103bd5780631828983a1461040e5780632657caaf146104775780632a23f99b146105ea5780632ad020e11461075d5780633042379114610944578063385e021014610a9e57806339f7b69d14610bcf5780633e36da4814610d38578063435b022f14610d675780635be1933714610db65780636e8cc87f14610e9257806371f94e8314610fc35780637320a287146110775780637ddfc7d41461108e5780638a701ed1146111345780639e3caca7146111af578063a4e2d634146111fe578063a69df4b51461122d578063ad0eafec14611244578063bab86ea8146112b3578063bee51f3b14611412578063c1292cc3146114ee578063c2ef00be14611519578063c85eb047146116d7578063ce606ee01461178b578063cfb51928146117e2578063db9dd762146118be578063def63c051461199a578063f3c6d71a14611ba4578063f83d08ba14611bf5578063feab077714611c0c575b3480156101ad57600080fd5b50600080fd5b3480156101bf57600080fd5b506103a7600480360360608110156101d657600080fd5b81019080803590602001906401000000008111156101f357600080fd5b82018360208201111561020557600080fd5b8035906020019184600183028401116401000000008311171561022757600080fd5b91908080601f016020809104026020016040519081016040528093929190818152602001838380828437600081840152601f19601f8201169050808301925050505050505091929192908035906020019064010000000081111561028a57600080fd5b82018360208201111561029c57600080fd5b803590602001918460018302840111640100000000831117156102be57600080fd5b91908080601f016020809104026020016040519081016040528093929190818152602001838380828437600081840152601f19601f8201169050808301925050505050505091929192908035906020019064010000000081111561032157600080fd5b82018360208201111561033357600080fd5b8035906020019184600183028401116401000000008311171561035557600080fd5b91908080601f016020809104026020016040519081016040528093929190818152602001838380828437600081840152601f19601f820116905080830192505050505050509192919290505050611c23565b6040518082815260200191505060405180910390f35b3480156103c957600080fd5b5061040c600480360360208110156103e057600080fd5b81019080803573ffffffffffffffffffffffffffffffffffffffff169060200190929190505050611fed565b005b34801561041a57600080fd5b5061045d6004803603602081101561043157600080fd5b81019080803573ffffffffffffffffffffffffffffffffffffffff169060200190929190505050612240565b604051808215151515815260200191505060405180910390f35b34801561048357600080fd5b506105d46004803603604081101561049a57600080fd5b81019080803590602001906401000000008111156104b757600080fd5b8201836020820111156104c957600080fd5b803590602001918460018302840111640100000000831117156104eb57600080fd5b91908080601f016020809104026020016040519081016040528093929190818152602001838380828437600081840152601f19601f8201169050808301925050505050505091929192908035906020019064010000000081111561054e57600080fd5b82018360208201111561056057600080fd5b8035906020019184600183028401116401000000008311171561058257600080fd5b91908080601f016020809104026020016040519081016040528093929190818152602001838380828437600081840152601f19601f820116905080830192505050505050509192919290505050612260565b6040518082815260200191505060405180910390f35b3480156105f657600080fd5b506107476004803603604081101561060d57600080fd5b810190808035906020019064010000000081111561062a57600080fd5b82018360208201111561063c57600080fd5b8035906020019184600183028401116401000000008311171561065e57600080fd5b91908080601f016020809104026020016040519081016040528093929190818152602001838380828437600081840152601f19601f820116905080830192505050505050509192919290803590602001906401000000008111156106c157600080fd5b8201836020820111156106d357600080fd5b803590602001918460018302840111640100000000831117156106f557600080fd5b91908080601f016020809104026020016040519081016040528093929190818152602001838380828437600081840152601f19601f82011690508083019250505050505050919291929050505061260f565b6040518082815260200191505060405180910390f35b34801561076957600080fd5b506108236004803603602081101561078057600080fd5b810190808035906020019064010000000081111561079d57600080fd5b8201836020820111156107af57600080fd5b803590602001918460018302840111640100000000831117156107d157600080fd5b91908080601f016020809104026020016040519081016040528093929190818152602001838380828437600081840152601f19601f8201169050808301925050505050505091929192905050506127dc565b6040518085815260200180602001806020018473ffffffffffffffffffffffffffffffffffffffff1673ffffffffffffffffffffffffffffffffffffffff168152602001838103835286818151815260200191508051906020019080838360005b8381101561089f578082015181840152602081019050610884565b50505050905090810190601f1680156108cc5780820380516001836020036101000a031916815260200191505b50838103825285818151815260200191508051906020019080838360005b838110156109055780820151818401526020810190506108ea565b50505050905090810190601f1680156109325780820380516001836020036101000a031916815260200191505b50965050505050505060405180910390f35b34801561095057600080fd5b5061097d6004803603602081101561096757600080fd5b81019080803590602001909291905050506128e4565b6040518085815260200180602001806020018473ffffffffffffffffffffffffffffffffffffffff1673ffffffffffffffffffffffffffffffffffffffff168152602001838103835286818151815260200191508051906020019080838360005b838110156109f95780820151818401526020810190506109de565b50505050905090810190601f168015610a265780820380516001836020036101000a031916815260200191505b50838103825285818151815260200191508051906020019080838360005b83811015610a5f578082015181840152602081019050610a44565b50505050905090810190601f168015610a8c5780820380516001836020036101000a031916815260200191505b50965050505050505060405180910390f35b348015610aaa57600080fd5b50610ae160048036036040811015610ac157600080fd5b810190808035906020019092919080359060200190929190505050612a8d565b604051808060200180602001848152602001838103835286818151815260200191508051906020019080838360005b83811015610b2b578082015181840152602081019050610b10565b50505050905090810190601f168015610b585780820380516001836020036101000a031916815260200191505b50838103825285818151815260200191508051906020019080838360005b83811015610b91578082015181840152602081019050610b76565b50505050905090810190601f168015610bbe5780820380516001836020036101000a031916815260200191505b509550505050505060405180910390f35b348015610bdb57600080fd5b50610d3660048036036060811015610bf257600080fd5b810190808035906020019092919080359060200190640100000000811115610c1957600080fd5b820183602082011115610c2b57600080fd5b80359060200191846001830284011164010000000083111715610c4d57600080fd5b91908080601f016020809104026020016040519081016040528093929190818152602001838380828437600081840152601f19601f82011690508083019250505050505050919291929080359060200190640100000000811115610cb057600080fd5b820183602082011115610cc257600080fd5b80359060200191846001830284011164010000000083111715610ce457600080fd5b91908080601f016020809104026020016040519081016040528093929190818152602001838380828437600081840152601f19601f820116905080830192505050505050509192919290505050612c6b565b005b348015610d4457600080fd5b50610d4d6131d1565b604051808215151515815260200191505060405180910390f35b348015610d7357600080fd5b50610da060048036036020811015610d8a57600080fd5b81019080803590602001909291905050506131e4565b6040518082815260200191505060405180910390f35b348015610dc257600080fd5b50610e7c60048036036020811015610dd957600080fd5b8101908080359060200190640100000000811115610df657600080fd5b820183602082011115610e0857600080fd5b80359060200191846001830284011164010000000083111715610e2a57600080fd5b91908080601f016020809104026020016040519081016040528093929190818152602001838380828437600081840152601f19601f8201169050808301925050505050505091929192905050506131fc565b6040518082815260200191505060405180910390f35b348015610e9e57600080fd5b50610ed560048036036040811015610eb557600080fd5b810190808035906020019092919080359060200190929190505050613229565b604051808060200180602001848152602001838103835286818151815260200191508051906020019080838360005b83811015610f1f578082015181840152602081019050610f04565b50505050905090810190601f168015610f4c5780820380516001836020036101000a031916815260200191505b50838103825285818151815260200191508051906020019080838360005b83811015610f85578082015181840152602081019050610f6a565b50505050905090810190601f168015610fb25780820380516001836020036101000a031916815260200191505b509550505050505060405180910390f35b348015610fcf57600080fd5b50610ffc60048036036020811015610fe657600080fd5b810190808035906020019092919050505061339f565b6040518080602001828103825283818151815260200191508051906020019080838360005b8381101561103c578082015181840152602081019050611021565b50505050905090810190601f1680156110695780820380516001836020036101000a031916815260200191505b509250505060405180910390f35b34801561108357600080fd5b5061108c61344f565b005b34801561109a57600080fd5b506110dd600480360360208110156110b157600080fd5b81019080803573ffffffffffffffffffffffffffffffffffffffff1690602001909291905050506136d2565b6040518080602001828103825283818151815260200191508051906020019060200280838360005b83811015611120578082015181840152602081019050611105565b505050509050019250505060405180910390f35b34801561114057600080fd5b5061116d6004803603602081101561115757600080fd5b8101908080359060200190929190505050613769565b604051808273ffffffffffffffffffffffffffffffffffffffff1673ffffffffffffffffffffffffffffffffffffffff16815260200191505060405180910390f35b3480156111bb57600080fd5b506111e8600480360360208110156111d257600080fd5b810190808035906020019092919050505061379c565b6040518082815260200191505060405180910390f35b34801561120a57600080fd5b506112136137bc565b604051808215151515815260200191505060405180910390f35b34801561123957600080fd5b506112426137cf565b005b34801561125057600080fd5b5061129d6004803603604081101561126757600080fd5b81019080803573ffffffffffffffffffffffffffffffffffffffff169060200190929190803590602001909291905050506139ad565b6040518082815260200191505060405180910390f35b3480156112bf57600080fd5b50611410600480360360408110156112d657600080fd5b81019080803590602001906401000000008111156112f357600080fd5b82018360208201111561130557600080fd5b8035906020019184600183028401116401000000008311171561132757600080fd5b91908080601f016020809104026020016040519081016040528093929190818152602001838380828437600081840152601f19601f8201169050808301925050505050505091929192908035906020019064010000000081111561138a57600080fd5b82018360208201111561139c57600080fd5b803590602001918460018302840111640100000000831117156113be57600080fd5b91908080601f016020809104026020016040519081016040528093929190818152602001838380828437600081840152601f19601f8201169050808301925050505050505091929192905050506139dd565b005b34801561141e57600080fd5b506114d86004803603602081101561143557600080fd5b810190808035906020019064010000000081111561145257600080fd5b82018360208201111561146457600080fd5b8035906020019184600183028401116401000000008311171561148657600080fd5b91908080601f016020809104026020016040519081016040528093929190818152602001838380828437600081840152601f19601f8201169050808301925050505050505091929192905050506139f3565b6040518082815260200191505060405180910390f35b3480156114fa57600080fd5b50611503613a1d565b6040518082815260200191505060405180910390f35b34801561152557600080fd5b506115e96004803603604081101561153c57600080fd5b810190808035906020019064010000000081111561155957600080fd5b82018360208201111561156b57600080fd5b8035906020019184600183028401116401000000008311171561158d57600080fd5b91908080601f016020809104026020016040519081016040528093929190818152602001838380828437600081840152601f19601f82011690508083019250505050505050919291929080359060200190929190505050613a23565b604051808060200180602001848152602001838103835286818151815260200191508051906020019080838360005b83811015611633578082015181840152602081019050611618565b50505050905090810190601f1680156116605780820380516001836020036101000a031916815260200191505b50838103825285818151815260200191508051906020019080838360005b8381101561169957808201518184015260208101905061167e565b50505050905090810190601f1680156116c65780820380516001836020036101000a031916815260200191505b509550505050505060405180910390f35b3480156116e357600080fd5b50611710600480360360208110156116fa57600080fd5b8101908080359060200190929190505050613a4c565b6040518080602001828103825283818151815260200191508051906020019080838360005b83811015611750578082015181840152602081019050611735565b50505050905090810190601f16801561177d5780820380516001836020036101000a031916815260200191505b509250505060405180910390f35b34801561179757600080fd5b506117a0613afc565b604051808273ffffffffffffffffffffffffffffffffffffffff1673ffffffffffffffffffffffffffffffffffffffff16815260200191505060405180910390f35b3480156117ee57600080fd5b506118a86004803603602081101561180557600080fd5b810190808035906020019064010000000081111561182257600080fd5b82018360208201111561183457600080fd5b8035906020019184600183028401116401000000008311171561185657600080fd5b91908080601f016020809104026020016040519081016040528093929190818152602001838380828437600081840152601f19601f820116905080830192505050505050509192919290505050613b22565b6040518082815260200191505060405180910390f35b3480156118ca57600080fd5b50611984600480360360208110156118e157600080fd5b81019080803590602001906401000000008111156118fe57600080fd5b82018360208201111561191057600080fd5b8035906020019184600183028401116401000000008311171561193257600080fd5b91908080601f016020809104026020016040519081016040528093929190818152602001838380828437600081840152601f19601f820116905080830192505050505050509192919290505050613b4e565b6040518082815260200191505060405180910390f35b3480156119a657600080fd5b50611b8e600480360360608110156119bd57600080fd5b81019080803590602001906401000000008111156119da57600080fd5b8201836020820111156119ec57600080fd5b80359060200191846001830284011164010000000083111715611a0e57600080fd5b91908080601f016020809104026020016040519081016040528093929190818152602001838380828437600081840152601f19601f82011690508083019250505050505050919291929080359060200190640100000000811115611a7157600080fd5b820183602082011115611a8357600080fd5b80359060200191846001830284011164010000000083111715611aa557600080fd5b91908080601f016020809104026020016040519081016040528093929190818152602001838380828437600081840152601f19601f82011690508083019250505050505050919291929080359060200190640100000000811115611b0857600080fd5b820183602082011115611b1a57600080fd5b80359060200191846001830284011164010000000083111715611b3c57600080fd5b91908080601f016020809104026020016040519081016040528093929190818152602001838380828437600081840152601f19601f820116905080830192505050505050509192919290505050613d19565b6040518082815260200191505060405180910390f35b348015611bb057600080fd5b50611bf360048036036020811015611bc757600080fd5b81019080803573ffffffffffffffffffffffffffffffffffffffff169060200190929190505050613ed7565b005b348015611c0157600080fd5b50611c0a614121565b005b348015611c1857600080fd5b50611c216142ff565b005b60008060003373ffffffffffffffffffffffffffffffffffffffff1673ffffffffffffffffffffffffffffffffffffffff16815260200190815260200160002060009054906101000a900460ff1680611c885750600160149054906101000a900460ff165b1515611d22576040517f08c379a000000000000000000000000000000000000000000000000000000000815260040180806020018281038252603d8152602001807f452d43432d303032202d204f6e6c7920617574686f72697a656420757365727381526020017f2063616e20657865637574652074686973207472616e73616374696f6e00000081525060400191505060405180910390fd5b600160159054906101000a900460ff16151515611dcd576040517f08c379a00000000000000000000000000000000000000000000000000000000081526004018080602001828103825260278152602001807f452d4c4f434b2d303031202d20436f6e74726163742074656d706f726172792081526020017f6c6f636b65642e0000000000000000000000000000000000000000000000000081525060400191505060405180910390fd5b6000611dd98585612260565b9050611de3614582565b6060604051908101604052806040805190810160405280601b81526020017f7b7374617475734368616e67653a2027434552544946494544277d000000000081525081526020018581526020014281525090506008600083815260200190815260200160002081908060018154018082558091505090600182039060005260206000209060030201600090919290919091506000820151816000019080519060200190611e919291906145a4565b506020820151816001019080519060200190611eae9291906145a4565b50604082015181600201555050507ffdcfed0cfff2a60f310626a01c493f3fafef4fe7410c8d634d22ef8db8b6740b82826000015183602001518460400151604051808581526020018060200180602001848152602001838103835286818151815260200191508051906020019080838360005b83811015611f3d578082015181840152602081019050611f22565b50505050905090810190601f168015611f6a5780820380516001836020036101000a031916815260200191505b50838103825285818151815260200191508051906020019080838360005b83811015611fa3578082015181840152602081019050611f88565b50505050905090810190601f168015611fd05780820380516001836020036101000a031916815260200191505b50965050505050505060405180910390a181925050509392505050565b600160159054906101000a900460ff16151515612098576040517f08c379a00000000000000000000000000000000000000000000000000000000081526004018080602001828103825260278152602001807f452d4c4f434b2d303031202d20436f6e74726163742074656d706f726172792081526020017f6c6f636b65642e0000000000000000000000000000000000000000000000000081525060400191505060405180910390fd5b600160009054906101000a900473ffffffffffffffffffffffffffffffffffffffff1673ffffffffffffffffffffffffffffffffffffffff163373ffffffffffffffffffffffffffffffffffffffff16141515612183576040517f08c379a000000000000000000000000000000000000000000000000000000000815260040180806020018281038252603f8152602001807f452d43432d303031202d204f6e6c792074686520636f6e7472616374206f776e81526020017f65722061646420657865637574652074686973207472616e73616374696f6e0081525060400191505060405180910390fd5b60016000808373ffffffffffffffffffffffffffffffffffffffff1673ffffffffffffffffffffffffffffffffffffffff16815260200190815260200160002060006101000a81548160ff0219169083151502179055507f7e07c71a6d7714652e08d641a843dff01e823c8eeed08945be844015fe33539381604051808273ffffffffffffffffffffffffffffffffffffffff1673ffffffffffffffffffffffffffffffffffffffff16815260200191505060405180910390a150565b60006020528060005260406000206000915054906101000a900460ff1681565b60008060003373ffffffffffffffffffffffffffffffffffffffff1673ffffffffffffffffffffffffffffffffffffffff16815260200190815260200160002060009054906101000a900460ff16806122c55750600160149054906101000a900460ff165b151561235f576040517f08c379a000000000000000000000000000000000000000000000000000000000815260040180806020018281038252603d8152602001807f452d43432d303032202d204f6e6c7920617574686f72697a656420757365727381526020017f2063616e20657865637574652074686973207472616e73616374696f6e00000081525060400191505060405180910390fd5b600160159054906101000a900460ff1615151561240a576040517f08c379a00000000000000000000000000000000000000000000000000000000081526004018080602001828103825260278152602001807f452d4c4f434b2d303031202d20436f6e74726163742074656d706f726172792081526020017f6c6f636b65642e0000000000000000000000000000000000000000000000000081525060400191505060405180910390fd5b600061241584613b22565b9050600060036000838152602001908152602001600020541415156124c8576040517f08c379a00000000000000000000000000000000000000000000000000000000081526004018080602001828103825260408152602001807f452d504f452d303031202d20546865726520697320616c72656164792061206381526020017f657274696669656420646f63756d656e7420776974682074686174206861736881525060400191505060405180910390fd5b6002600081548092919060010191905055506000600254905084600660008381526020019081526020016000209080519060200190612508929190614624565b5083600560008381526020019081526020016000209080519060200190612530929190614624565b50806003600084815260200190815260200160002081905550336004600083815260200190815260200160002060006101000a81548173ffffffffffffffffffffffffffffffffffffffff021916908373ffffffffffffffffffffffffffffffffffffffff160217905550600760003373ffffffffffffffffffffffffffffffffffffffff1673ffffffffffffffffffffffffffffffffffffffff168152602001908152602001600020819080600181540180825580915050906001820390600052602060002001600090919290919091505550809250505092915050565b60008060003373ffffffffffffffffffffffffffffffffffffffff1673ffffffffffffffffffffffffffffffffffffffff16815260200190815260200160002060009054906101000a900460ff16806126745750600160149054906101000a900460ff165b151561270e576040517f08c379a000000000000000000000000000000000000000000000000000000000815260040180806020018281038252603d8152602001807f452d43432d303032202d204f6e6c7920617574686f72697a656420757365727381526020017f2063616e20657865637574652074686973207472616e73616374696f6e00000081525060400191505060405180910390fd5b600160159054906101000a900460ff161515156127b9576040517f08c379a00000000000000000000000000000000000000000000000000000000081526004018080602001828103825260278152602001807f452d4c4f434b2d303031202d20436f6e74726163742074656d706f726172792081526020017f6c6f636b65642e0000000000000000000000000000000000000000000000000081525060400191505060405180910390fd5b6127d483602060405190810160405280600081525084611c23565b905092915050565b60006060806000806127ed866139f3565b90508086600560008481526020019081526020016000206004600085815260200190815260200160002060009054906101000a900473ffffffffffffffffffffffffffffffffffffffff16818054600181600116156101000203166002900480601f0160208091040260200160405190810160405280929190818152602001828054600181600116156101000203166002900480156128cd5780601f106128a2576101008083540402835291602001916128cd565b820191906000526020600020905b8154815290600101906020018083116128b057829003601f168201915b505050505091509450945094509450509193509193565b600060608060008460066000878152602001908152602001600020600560008881526020019081526020016000206004600089815260200190815260200160002060009054906101000a900473ffffffffffffffffffffffffffffffffffffffff16828054600181600116156101000203166002900480601f0160208091040260200160405190810160405280929190818152602001828054600181600116156101000203166002900480156129db5780601f106129b0576101008083540402835291602001916129db565b820191906000526020600020905b8154815290600101906020018083116129be57829003601f168201915b50505050509250818054600181600116156101000203166002900480601f016020809104026020016040519081016040528092919081815260200182805460018160011615610100020316600290048015612a775780601f10612a4c57610100808354040283529160200191612a77565b820191906000526020600020905b815481529060010190602001808311612a5a57829003601f168201915b5050505050915093509350935093509193509193565b60608060006008600086815260200190815260200160002084815481101515612ab257fe5b90600052602060002090600302016000016008600087815260200190815260200160002085815481101515612ae357fe5b90600052602060002090600302016001016008600088815260200190815260200160002086815481101515612b1457fe5b906000526020600020906003020160020154828054600181600116156101000203166002900480601f016020809104026020016040519081016040528092919081815260200182805460018160011615610100020316600290048015612bbb5780601f10612b9057610100808354040283529160200191612bbb565b820191906000526020600020905b815481529060010190602001808311612b9e57829003601f168201915b50505050509250818054600181600116156101000203166002900480601f016020809104026020016040519081016040528092919081815260200182805460018160011615610100020316600290048015612c575780601f10612c2c57610100808354040283529160200191612c57565b820191906000526020600020905b815481529060010190602001808311612c3a57829003601f168201915b505050505091509250925092509250925092565b6000803373ffffffffffffffffffffffffffffffffffffffff1673ffffffffffffffffffffffffffffffffffffffff16815260200190815260200160002060009054906101000a900460ff1680612cce5750600160149054906101000a900460ff165b1515612d68576040517f08c379a000000000000000000000000000000000000000000000000000000000815260040180806020018281038252603d8152602001807f452d43432d303032202d204f6e6c7920617574686f72697a656420757365727381526020017f2063616e20657865637574652074686973207472616e73616374696f6e00000081525060400191505060405180910390fd5b600160159054906101000a900460ff16151515612e13576040517f08c379a00000000000000000000000000000000000000000000000000000000081526004018080602001828103825260278152602001807f452d4c4f434b2d303031202d20436f6e74726163742074656d706f726172792081526020017f6c6f636b65642e0000000000000000000000000000000000000000000000000081525060400191505060405180910390fd5b60008314151515612ed8576040517f08c379a00000000000000000000000000000000000000000000000000000000081526004018080602001828103825260418152602001807f452d504f4c2d3030312d205468657265206973206e6f7420612063657274696681526020017f69656420646f63756d656e7420776974682074686174206964656e746966696581526020017f720000000000000000000000000000000000000000000000000000000000000081525060600191505060405180910390fd5b3373ffffffffffffffffffffffffffffffffffffffff166004600085815260200190815260200160002060009054906101000a900473ffffffffffffffffffffffffffffffffffffffff1673ffffffffffffffffffffffffffffffffffffffff16141515612ffa576040517f08c379a000000000000000000000000000000000000000000000000000000000815260040180806020018281038252604a8152602001807f452d504f4c2d303033202d204f6e6c792074686520646f63756d656e74206f7781526020017f6e65722063616e20617070656e6420617564697420726567697374727920747281526020017f616e73616374696f6e730000000000000000000000000000000000000000000081525060600191505060405180910390fd5b613002614582565b606060405190810160405280848152602001838152602001428152509050600860008581526020019081526020016000208190806001815401808255809150509060018203906000526020600020906003020160009091929091909150600082015181600001908051906020019061307b9291906145a4565b5060208201518160010190805190602001906130989291906145a4565b50604082015181600201555050507f4de4d5b2e05cf7d3139a39b8a6dd01e1fd84ef8e17d821560779dce59186023c84826000015183602001518460400151604051808581526020018060200180602001848152602001838103835286818151815260200191508051906020019080838360005b8381101561312757808201518184015260208101905061310c565b50505050905090810190601f1680156131545780820380516001836020036101000a031916815260200191505b50838103825285818151815260200191508051906020019080838360005b8381101561318d578082015181840152602081019050613172565b50505050905090810190601f1680156131ba5780820380516001836020036101000a031916815260200191505b50965050505050505060405180910390a150505050565b600160149054906101000a900460ff1681565b60036020528060005260406000206000915090505481565b600080613208836139f3565b90506008600082815260200190815260200160002080549050915050919050565b60086020528160005260406000208181548110151561324457fe5b906000526020600020906003020160009150915050806000018054600181600116156101000203166002900480601f0160208091040260200160405190810160405280929190818152602001828054600181600116156101000203166002900480156132f15780601f106132c6576101008083540402835291602001916132f1565b820191906000526020600020905b8154815290600101906020018083116132d457829003601f168201915b505050505090806001018054600181600116156101000203166002900480601f01602080910402602001604051908101604052809291908181526020018280546001816001161561010002031660029004801561338f5780601f106133645761010080835404028352916020019161338f565b820191906000526020600020905b81548152906001019060200180831161337257829003601f168201915b5050505050908060020154905083565b60066020528060005260406000206000915090508054600181600116156101000203166002900480601f0160208091040260200160405190810160405280929190818152602001828054600181600116156101000203166002900480156134475780601f1061341c57610100808354040283529160200191613447565b820191906000526020600020905b81548152906001019060200180831161342a57829003601f168201915b505050505081565b600160159054906101000a900460ff161515156134fa576040517f08c379a00000000000000000000000000000000000000000000000000000000081526004018080602001828103825260278152602001807f452d4c4f434b2d303031202d20436f6e74726163742074656d706f726172792081526020017f6c6f636b65642e0000000000000000000000000000000000000000000000000081525060400191505060405180910390fd5b600160009054906101000a900473ffffffffffffffffffffffffffffffffffffffff1673ffffffffffffffffffffffffffffffffffffffff163373ffffffffffffffffffffffffffffffffffffffff161415156135e5576040517f08c379a000000000000000000000000000000000000000000000000000000000815260040180806020018281038252603f8152602001807f452d43432d303031202d204f6e6c792074686520636f6e7472616374206f776e81526020017f65722061646420657865637574652074686973207472616e73616374696f6e0081525060400191505060405180910390fd5b600160149054906101000a900460ff1615156136b5576040517f08c379a00000000000000000000000000000000000000000000000000000000081526004018080602001828103825260448152602001807f452d43432d303033202d2043657274696669636174696f6e206f70657261746981526020017f6f6e732061726520616c726561647920636c6f73656420746f2065766572792081526020017f757365720000000000000000000000000000000000000000000000000000000081525060600191505060405180910390fd5b6000600160146101000a81548160ff021916908315150217905550565b6060600760008373ffffffffffffffffffffffffffffffffffffffff1673ffffffffffffffffffffffffffffffffffffffff16815260200190815260200160002080548060200260200160405190810160405280929190818152602001828054801561375d57602002820191906000526020600020905b815481526020019060010190808311613749575b50505050509050919050565b60046020528060005260406000206000915054906101000a900473ffffffffffffffffffffffffffffffffffffffff1681565b600060086000838152602001908152602001600020805490509050919050565b600160159054906101000a900460ff1681565b600160159054906101000a900460ff161515613879576040517f08c379a00000000000000000000000000000000000000000000000000000000081526004018080602001828103825260308152602001807f452d4c4f434b2d30303220202d205468697320636f6e7472616374206973206181526020017f6c726561647920756e6c6f636b65642e0000000000000000000000000000000081525060400191505060405180910390fd5b600160009054906101000a900473ffffffffffffffffffffffffffffffffffffffff1673ffffffffffffffffffffffffffffffffffffffff163373ffffffffffffffffffffffffffffffffffffffff16141515613964576040517f08c379a000000000000000000000000000000000000000000000000000000000815260040180806020018281038252603f8152602001807f452d43432d303031202d204f6e6c792074686520636f6e7472616374206f776e81526020017f65722061646420657865637574652074686973207472616e73616374696f6e0081525060400191505060405180910390fd5b6000600160156101000a81548160ff0219169083151502179055507f3e5f4fd66bc9f59f15a9304dbc6394e240a57a1b4eb7ca42a75c5d9b298da45560405160405180910390a1565b6007602052816000526040600020818154811015156139c857fe5b90600052602060002001600091509150505481565b6002600081548092919060010191905055505050565b6000806139ff83613b22565b90506003600082815260200190815260200160002054915050919050565b60025481565b606080600080613a32866139f3565b9050613a3e8186612a8d565b935093509350509250925092565b60056020528060005260406000206000915090508054600181600116156101000203166002900480601f016020809104026020016040519081016040528092919081815260200182805460018160011615610100020316600290048015613af45780601f10613ac957610100808354040283529160200191613af4565b820191906000526020600020905b815481529060010190602001808311613ad757829003601f168201915b505050505081565b600160009054906101000a900473ffffffffffffffffffffffffffffffffffffffff1681565b60006060829050600081511415613b40576000600102915050613b49565b60208301519150505b919050565b60008060003373ffffffffffffffffffffffffffffffffffffffff1673ffffffffffffffffffffffffffffffffffffffff16815260200190815260200160002060009054906101000a900460ff1680613bb35750600160149054906101000a900460ff165b1515613c4d576040517f08c379a000000000000000000000000000000000000000000000000000000000815260040180806020018281038252603d8152602001807f452d43432d303032202d204f6e6c7920617574686f72697a656420757365727381526020017f2063616e20657865637574652074686973207472616e73616374696f6e00000081525060400191505060405180910390fd5b600160159054906101000a900460ff16151515613cf8576040517f08c379a00000000000000000000000000000000000000000000000000000000081526004018080602001828103825260278152602001807f452d4c4f434b2d303031202d20436f6e74726163742074656d706f726172792081526020017f6c6f636b65642e0000000000000000000000000000000000000000000000000081525060400191505060405180910390fd5b613d12826020604051908101604052806000815250612260565b9050919050565b60008060003373ffffffffffffffffffffffffffffffffffffffff1673ffffffffffffffffffffffffffffffffffffffff16815260200190815260200160002060009054906101000a900460ff1680613d7e5750600160149054906101000a900460ff165b1515613e18576040517f08c379a000000000000000000000000000000000000000000000000000000000815260040180806020018281038252603d8152602001807f452d43432d303032202d204f6e6c7920617574686f72697a656420757365727381526020017f2063616e20657865637574652074686973207472616e73616374696f6e00000081525060400191505060405180910390fd5b600160159054906101000a900460ff16151515613ec3576040517f08c379a00000000000000000000000000000000000000000000000000000000081526004018080602001828103825260278152602001807f452d4c4f434b2d303031202d20436f6e74726163742074656d706f726172792081526020017f6c6f636b65642e0000000000000000000000000000000000000000000000000081525060400191505060405180910390fd5b613ece848484611c23565b90509392505050565b600160159054906101000a900460ff16151515613f82576040517f08c379a00000000000000000000000000000000000000000000000000000000081526004018080602001828103825260278152602001807f452d4c4f434b2d303031202d20436f6e74726163742074656d706f726172792081526020017f6c6f636b65642e0000000000000000000000000000000000000000000000000081525060400191505060405180910390fd5b600160009054906101000a900473ffffffffffffffffffffffffffffffffffffffff1673ffffffffffffffffffffffffffffffffffffffff163373ffffffffffffffffffffffffffffffffffffffff1614151561406d576040517f08c379a000000000000000000000000000000000000000000000000000000000815260040180806020018281038252603f8152602001807f452d43432d303031202d204f6e6c792074686520636f6e7472616374206f776e81526020017f65722061646420657865637574652074686973207472616e73616374696f6e0081525060400191505060405180910390fd5b6000808273ffffffffffffffffffffffffffffffffffffffff1673ffffffffffffffffffffffffffffffffffffffff16815260200190815260200160002060006101000a81549060ff02191690557fbebbb6faf74eef3594a83912d2f77145b62aacc4520832f587e2130cdcbf08f081604051808273ffffffffffffffffffffffffffffffffffffffff1673ffffffffffffffffffffffffffffffffffffffff16815260200191505060405180910390a150565b600160159054906101000a900460ff161515156141cc576040517f08c379a00000000000000000000000000000000000000000000000000000000081526004018080602001828103825260278152602001807f452d4c4f434b2d303031202d20436f6e74726163742074656d706f726172792081526020017f6c6f636b65642e0000000000000000000000000000000000000000000000000081525060400191505060405180910390fd5b600160009054906101000a900473ffffffffffffffffffffffffffffffffffffffff1673ffffffffffffffffffffffffffffffffffffffff163373ffffffffffffffffffffffffffffffffffffffff161415156142b7576040517f08c379a000000000000000000000000000000000000000000000000000000000815260040180806020018281038252603f8152602001807f452d43432d303031202d204f6e6c792074686520636f6e7472616374206f776e81526020017f65722061646420657865637574652074686973207472616e73616374696f6e0081525060400191505060405180910390fd5b60018060156101000a81548160ff0219169083151502179055507f6f5ffb7e2a6656882126927a79e460ca27ab657927d593522b90dc28229f7dbc60405160405180910390a1565b600160159054906101000a900460ff161515156143aa576040517f08c379a00000000000000000000000000000000000000000000000000000000081526004018080602001828103825260278152602001807f452d4c4f434b2d303031202d20436f6e74726163742074656d706f726172792081526020017f6c6f636b65642e0000000000000000000000000000000000000000000000000081525060400191505060405180910390fd5b600160009054906101000a900473ffffffffffffffffffffffffffffffffffffffff1673ffffffffffffffffffffffffffffffffffffffff163373ffffffffffffffffffffffffffffffffffffffff16141515614495576040517f08c379a000000000000000000000000000000000000000000000000000000000815260040180806020018281038252603f8152602001807f452d43432d303031202d204f6e6c792074686520636f6e7472616374206f776e81526020017f65722061646420657865637574652074686973207472616e73616374696f6e0081525060400191505060405180910390fd5b600160149054906101000a900460ff16151515614566576040517f08c379a00000000000000000000000000000000000000000000000000000000081526004018080602001828103825260428152602001807f452d43432d303034202d2043657274696669636174696f6e206f70657261746981526020017f6f6e732061726520616c7265616479206f70656e20746f20657665727920757381526020017f657200000000000000000000000000000000000000000000000000000000000081525060600191505060405180910390fd5b60018060146101000a81548160ff021916908315150217905550565b6060604051908101604052806060815260200160608152602001600081525090565b828054600181600116156101000203166002900490600052602060002090601f016020900481019282601f106145e557805160ff1916838001178555614613565b82800160010185558215614613579182015b828111156146125782518255916020019190600101906145f7565b5b50905061462091906146a4565b5090565b828054600181600116156101000203166002900490600052602060002090601f016020900481019282601f1061466557805160ff1916838001178555614693565b82800160010185558215614693579182015b82811115614692578251825591602001919060010190614677565b5b5090506146a091906146a4565b5090565b6146c691905b808211156146c25760008160009055506001016146aa565b5090565b9056fea165627a7a72305820f205bd457e494f4cf7a334f2dfa0f9a8c160b44882abcb77be8803434bd8a7c30029",
  "source": "pragma solidity ^0.5.0;\n\nimport \"./ProofOfExistence.sol\";\nimport \"./HasAuditRegistry.sol\";\n\n\n/* @title Proof of Life */\ncontract ProofOfLife  is ProofOfExistence, HasAuditRegistry {\n    \n    // State\n    mapping(uint256 => AuditRegistry[]) public auditRegistryByDocumentId;\n\n    // Events\n    event DocumentCreation (uint256 id, string description, string timestamp, uint256 blockTimestamp);\n    event NewAuditRegistry (uint256 id, string description, string timestamp, uint256 blockTimestamp);\n      \n    /* @notice Fallback function\n    /* @dev It reverts the transaction for security reasons\n    */\n    function() external {\n        revert();\n    }\n    \n    /* @notice Certify document creation with hash and timestamp\n    * @dev It registers in the blockchain the proof-of-existence of an external document\n    * @param _documentHash - Hash of the document (it should have 32 bytes)\n    * @return id - returns certified document id\n    */\n    function certifyDocumentCreation(string memory _documentHash, string memory _timestamp) \n    public onlyAuthorizedUsers onlyWhenUnlocked returns(uint256) {\n        return certifyDocumentCreation(_documentHash, \"\", _timestamp);\n    }\n    \n    /* @notice Certify document creation with hash and timestamp\n    * @dev It registers in the blockchain the proof-of-existence of an external document\n    * @param _documentHash - Hash of the document (it should have 32 bytes)\n    * @param _ipfsHash - IPFS Hash, if it exists \n    * @return id - returns certified document id\n    */\n    function certifyDocumentCreationWithIPFSHash(string memory _documentHash, string memory _ipfsHash,\n    string memory _timestamp) public onlyAuthorizedUsers onlyWhenUnlocked returns(uint256) {\n        return certifyDocumentCreation(_documentHash, _ipfsHash, _timestamp);\n    }\n\n    /* @notice Certify document creation\n    * @dev It registers in the blockchain the proof-of-existence of an external document\n    * @param _documentHash - MD5 Hash of the document (it should have 32 bytes)\n    * @param _ipfsHash - IPFS Hash, if it exists \n    * @return _id - returns certified document id\n    */\n    function certifyDocumentCreation(string memory _documentHash, string memory _ipfsHash,\n    string memory _timestamp) public onlyAuthorizedUsers onlyWhenUnlocked returns(uint256) {\n        \n        uint256 _id = certifyDocument(_documentHash, _ipfsHash);\n        \n        //Create an AuditRegistry with a description.\n        AuditRegistry memory creationRegistry = AuditRegistry(\n                                              { timestamp: _timestamp, \n                                                blockTimestamp: block.timestamp, \n                                                description: \"{statusChange: 'CERTIFIED'}\" }\n        );\n\n        auditRegistryByDocumentId[_id].push(creationRegistry);\n        \n        emit DocumentCreation(_id, creationRegistry.description, \n        creationRegistry.timestamp, creationRegistry.blockTimestamp);\n        \n        return _id;\n    }  \n    \n    /* @notice Append Audit Registry\n    * @dev A document owner can use this function to append audit information to it\n    * @param _id - Id of the document\n    * @param _description - Content of the audit registry (status change, extra information, etc...)\n    * @param _timestamp - Local timestamp (UNIX Epoch format) from the external\n    * system or the UI which executes the contract\n    */\n    function appendAuditRegistry(uint256 _id, string memory _description, string memory _timestamp) \n    public onlyAuthorizedUsers onlyWhenUnlocked {\n        \n        require(_id != 0, \"E-POL-001- There is not a certified document with that identifier\");\n\n        require(ownerByDocumentId[_id] == msg.sender, \n        \"E-POL-003 - Only the document owner can append audit registry transactions\");\n        \n        AuditRegistry memory auditRegistry = AuditRegistry(\n                                                        { timestamp: _timestamp,\n                                                          blockTimestamp: now,\n                                                          description: _description }\n        );\n                                                    \n        auditRegistryByDocumentId[_id].push(auditRegistry);\n        emit NewAuditRegistry(_id, auditRegistry.description, auditRegistry.timestamp, auditRegistry.blockTimestamp);\n        \n    }\n\n    /* @notice Get auditRegistry by documentHash\n    * @dev Retrieves the audit registry of a document\n    * @param _documentHash - Hash of the document\n    * @param _index - Position of the auditRegistry in the list\n    * @return string description, string timestamp, uint256 blockTimestamp\n    */\n    function getAuditRegistryByDocumentHash(string memory _documentHash, uint256 _index) public view\n    returns (string memory, string memory, uint256) {\n        uint256 _id = getId(_documentHash);\n        return getAuditRegistryByDocumentId(_id, _index);\n    }\n      \n    /* @notice Get auditRegistry by documentId\n    * @dev Retrieves the audit registry of a document\n    * @param _id - Id of the document\n    * @param _index - Position of the auditRegistry in the list\n    * @return string description, string timestamp, uint256 blockTimestamp\n    */\n    function getAuditRegistryByDocumentId(uint256 _id, uint256 _index) public view\n    returns (string memory, string memory, uint256) {\n        return (auditRegistryByDocumentId[_id][_index].description,\n        auditRegistryByDocumentId[_id][_index].timestamp, auditRegistryByDocumentId[_id][_index].blockTimestamp);\n    }\n      \n    /* @notice CountAuditRegistries by hash\n    * @dev Count the number of audit registries of a document\n    * @param _documentHash - Hash of the document\n    * @return uint256 number of elements\n    */\n    function countAuditRegistriesByDocumentHash(string memory _documentHash) public view returns(uint256) {\n        uint256 _id = getId(_documentHash);\n        return auditRegistryByDocumentId[_id].length;\n    }\n\n    /* @notice CountAuditRegistries by id\n    * @dev Count the number of audit registries of a document\n    * @param _id - Id of the document\n    * @return uint256 number of elements\n    */\n    function countAuditRegistriesByDocumentId(uint256 _id) public view returns(uint256) {\n        return auditRegistryByDocumentId[_id].length;\n    }\n\n}\n",
  "sourcePath": "/Users/xmunch/Desktop/Projects/Ethereum Projects/docuten-blockchain-proof/contracts/ProofOfLife.sol",
  "compiler": {
    "name": "solc",
    "version": "0.5.0+commit.1d4f565a.Emscripten.clang"
  },
  "schemaVersion": "3.0.0",
  "updatedAt": "2019-01-16T08:47:52.957Z",
  "devdoc": {
    "methods": {}
  },
  "userdoc": {
    "methods": {}
  }
}