{
  "contractName": "ProofOfExistence",
  "abi": [
    {
      "constant": false,
      "inputs": [
        {
          "name": "user",
          "type": "address"
        }
      ],
      "name": "addAuthorizedUser",
      "outputs": [],
      "payable": false,
      "stateMutability": "nonpayable",
      "type": "function"
    },
    {
      "constant": true,
      "inputs": [
        {
          "name": "",
          "type": "address"
        }
      ],
      "name": "authorizedUsers",
      "outputs": [
        {
          "name": "",
          "type": "bool"
        }
      ],
      "payable": false,
      "stateMutability": "view",
      "type": "function"
    },
    {
      "constant": true,
      "inputs": [],
      "name": "isOpenToEveryUser",
      "outputs": [
        {
          "name": "",
          "type": "bool"
        }
      ],
      "payable": false,
      "stateMutability": "view",
      "type": "function"
    },
    {
      "constant": true,
      "inputs": [
        {
          "name": "",
          "type": "bytes32"
        }
      ],
      "name": "idByDocumentHash",
      "outputs": [
        {
          "name": "",
          "type": "uint256"
        }
      ],
      "payable": false,
      "stateMutability": "view",
      "type": "function"
    },
    {
      "constant": false,
      "inputs": [],
      "name": "closeToAuthorizedUsers",
      "outputs": [],
      "payable": false,
      "stateMutability": "nonpayable",
      "type": "function"
    },
    {
      "constant": true,
      "inputs": [
        {
          "name": "",
          "type": "uint256"
        }
      ],
      "name": "ownerByDocumentId",
      "outputs": [
        {
          "name": "",
          "type": "address"
        }
      ],
      "payable": false,
      "stateMutability": "view",
      "type": "function"
    },
    {
      "constant": true,
      "inputs": [],
      "name": "isLocked",
      "outputs": [
        {
          "name": "",
          "type": "bool"
        }
      ],
      "payable": false,
      "stateMutability": "view",
      "type": "function"
    },
    {
      "constant": false,
      "inputs": [],
      "name": "unlock",
      "outputs": [],
      "payable": false,
      "stateMutability": "nonpayable",
      "type": "function"
    },
    {
      "constant": true,
      "inputs": [],
      "name": "contractOwner",
      "outputs": [
        {
          "name": "",
          "type": "address"
        }
      ],
      "payable": false,
      "stateMutability": "view",
      "type": "function"
    },
    {
      "constant": false,
      "inputs": [
        {
          "name": "user",
          "type": "address"
        }
      ],
      "name": "removeCredentials",
      "outputs": [],
      "payable": false,
      "stateMutability": "nonpayable",
      "type": "function"
    },
    {
      "constant": false,
      "inputs": [],
      "name": "lock",
      "outputs": [],
      "payable": false,
      "stateMutability": "nonpayable",
      "type": "function"
    },
    {
      "constant": false,
      "inputs": [],
      "name": "openToEveryUser",
      "outputs": [],
      "payable": false,
      "stateMutability": "nonpayable",
      "type": "function"
    },
    {
      "payable": false,
      "stateMutability": "nonpayable",
      "type": "fallback"
    },
    {
      "anonymous": false,
      "inputs": [],
      "name": "ContractLocked",
      "type": "event"
    },
    {
      "anonymous": false,
      "inputs": [],
      "name": "ContractUnlocked",
      "type": "event"
    },
    {
      "anonymous": false,
      "inputs": [
        {
          "indexed": false,
          "name": "user",
          "type": "address"
        }
      ],
      "name": "AuthorizedUserAdded",
      "type": "event"
    },
    {
      "anonymous": false,
      "inputs": [
        {
          "indexed": false,
          "name": "user",
          "type": "address"
        }
      ],
      "name": "CredentialsRemoved",
      "type": "event"
    },
    {
      "constant": false,
      "inputs": [
        {
          "name": "_documentHash",
          "type": "string"
        },
        {
          "name": "_ipfsHash",
          "type": "string"
        }
      ],
      "name": "certifyDocument",
      "outputs": [
        {
          "name": "",
          "type": "uint256"
        }
      ],
      "payable": false,
      "stateMutability": "nonpayable",
      "type": "function"
    },
    {
      "constant": false,
      "inputs": [
        {
          "name": "_documentHash",
          "type": "string"
        }
      ],
      "name": "certifyDocument",
      "outputs": [
        {
          "name": "",
          "type": "uint256"
        }
      ],
      "payable": false,
      "stateMutability": "nonpayable",
      "type": "function"
    },
    {
      "constant": true,
      "inputs": [
        {
          "name": "_documentHash",
          "type": "string"
        }
      ],
      "name": "getDocumentDetailsByHash",
      "outputs": [
        {
          "name": "",
          "type": "uint256"
        },
        {
          "name": "",
          "type": "string"
        },
        {
          "name": "",
          "type": "string"
        },
        {
          "name": "",
          "type": "address"
        }
      ],
      "payable": false,
      "stateMutability": "view",
      "type": "function"
    },
    {
      "constant": true,
      "inputs": [
        {
          "name": "_id",
          "type": "uint256"
        }
      ],
      "name": "getDocumentDetailsById",
      "outputs": [
        {
          "name": "",
          "type": "uint256"
        },
        {
          "name": "",
          "type": "string"
        },
        {
          "name": "",
          "type": "string"
        },
        {
          "name": "",
          "type": "address"
        }
      ],
      "payable": false,
      "stateMutability": "view",
      "type": "function"
    },
    {
      "constant": true,
      "inputs": [
        {
          "name": "owner",
          "type": "address"
        }
      ],
      "name": "getDocumentsByOwner",
      "outputs": [
        {
          "name": "",
          "type": "uint256[]"
        }
      ],
      "payable": false,
      "stateMutability": "view",
      "type": "function"
    },
    {
      "constant": true,
      "inputs": [
        {
          "name": "_documentHash",
          "type": "string"
        }
      ],
      "name": "getId",
      "outputs": [
        {
          "name": "",
          "type": "uint256"
        }
      ],
      "payable": false,
      "stateMutability": "view",
      "type": "function"
    },
    {
      "constant": true,
      "inputs": [
        {
          "name": "_stringInput",
          "type": "string"
        }
      ],
      "name": "stringToBytes32",
      "outputs": [
        {
          "name": "result",
          "type": "bytes32"
        }
      ],
      "payable": false,
      "stateMutability": "pure",
      "type": "function"
    }
  ],
  "bytecode": "0x6080604052600060025533600160006101000a81548173ffffffffffffffffffffffffffffffffffffffff021916908373ffffffffffffffffffffffffffffffffffffffff1602179055506001600080600160009054906101000a900473ffffffffffffffffffffffffffffffffffffffff1673ffffffffffffffffffffffffffffffffffffffff1673ffffffffffffffffffffffffffffffffffffffff16815260200190815260200160002060006101000a81548160ff021916908315150217905550612600806100d26000396000f3fe608060405260043610610107576000357c0100000000000000000000000000000000000000000000000000000000900463ffffffff168063177d2a74146101195780631828983a1461016a5780632657caaf146101d35780632ad020e114610346578063304237911461052d5780633e36da4814610687578063435b022f146106b65780637320a287146107055780637ddfc7d41461071c5780638a701ed1146107c2578063a4e2d6341461083d578063a69df4b51461086c578063bee51f3b14610883578063ce606ee01461095f578063cfb51928146109b6578063db9dd76214610a92578063f3c6d71a14610b6e578063f83d08ba14610bbf578063feab077714610bd6575b34801561011357600080fd5b50600080fd5b34801561012557600080fd5b506101686004803603602081101561013c57600080fd5b81019080803573ffffffffffffffffffffffffffffffffffffffff169060200190929190505050610bed565b005b34801561017657600080fd5b506101b96004803603602081101561018d57600080fd5b81019080803573ffffffffffffffffffffffffffffffffffffffff169060200190929190505050610e8c565b604051808215151515815260200191505060405180910390f35b3480156101df57600080fd5b50610330600480360360408110156101f657600080fd5b810190808035906020019064010000000081111561021357600080fd5b82018360208201111561022557600080fd5b8035906020019184600183028401116401000000008311171561024757600080fd5b91908080601f016020809104026020016040519081016040528093929190818152602001838380828437600081840152601f19601f820116905080830192505050505050509192919290803590602001906401000000008111156102aa57600080fd5b8201836020820111156102bc57600080fd5b803590602001918460018302840111640100000000831117156102de57600080fd5b91908080601f016020809104026020016040519081016040528093929190818152602001838380828437600081840152601f19601f820116905080830192505050505050509192919290505050610eac565b6040518082815260200191505060405180910390f35b34801561035257600080fd5b5061040c6004803603602081101561036957600080fd5b810190808035906020019064010000000081111561038657600080fd5b82018360208201111561039857600080fd5b803590602001918460018302840111640100000000831117156103ba57600080fd5b91908080601f016020809104026020016040519081016040528093929190818152602001838380828437600081840152601f19601f8201169050808301925050505050505091929192905050506112a7565b6040518085815260200180602001806020018473ffffffffffffffffffffffffffffffffffffffff1673ffffffffffffffffffffffffffffffffffffffff168152602001838103835286818151815260200191508051906020019080838360005b8381101561048857808201518184015260208101905061046d565b50505050905090810190601f1680156104b55780820380516001836020036101000a031916815260200191505b50838103825285818151815260200191508051906020019080838360005b838110156104ee5780820151818401526020810190506104d3565b50505050905090810190601f16801561051b5780820380516001836020036101000a031916815260200191505b50965050505050505060405180910390f35b34801561053957600080fd5b506105666004803603602081101561055057600080fd5b81019080803590602001909291905050506113af565b6040518085815260200180602001806020018473ffffffffffffffffffffffffffffffffffffffff1673ffffffffffffffffffffffffffffffffffffffff168152602001838103835286818151815260200191508051906020019080838360005b838110156105e25780820151818401526020810190506105c7565b50505050905090810190601f16801561060f5780820380516001836020036101000a031916815260200191505b50838103825285818151815260200191508051906020019080838360005b8381101561064857808201518184015260208101905061062d565b50505050905090810190601f1680156106755780820380516001836020036101000a031916815260200191505b50965050505050505060405180910390f35b34801561069357600080fd5b5061069c611558565b604051808215151515815260200191505060405180910390f35b3480156106c257600080fd5b506106ef600480360360208110156106d957600080fd5b810190808035906020019092919050505061156b565b6040518082815260200191505060405180910390f35b34801561071157600080fd5b5061071a611583565b005b34801561072857600080fd5b5061076b6004803603602081101561073f57600080fd5b81019080803573ffffffffffffffffffffffffffffffffffffffff169060200190929190505050611852565b6040518080602001828103825283818151815260200191508051906020019060200280838360005b838110156107ae578082015181840152602081019050610793565b505050509050019250505060405180910390f35b3480156107ce57600080fd5b506107fb600480360360208110156107e557600080fd5b81019080803590602001909291905050506118e9565b604051808273ffffffffffffffffffffffffffffffffffffffff1673ffffffffffffffffffffffffffffffffffffffff16815260200191505060405180910390f35b34801561084957600080fd5b5061085261191c565b604051808215151515815260200191505060405180910390f35b34801561087857600080fd5b5061088161192f565b005b34801561088f57600080fd5b50610949600480360360208110156108a657600080fd5b81019080803590602001906401000000008111156108c357600080fd5b8201836020820111156108d557600080fd5b803590602001918460018302840111640100000000831117156108f757600080fd5b91908080601f016020809104026020016040519081016040528093929190818152602001838380828437600081840152601f19601f820116905080830192505050505050509192919290505050611b0d565b6040518082815260200191505060405180910390f35b34801561096b57600080fd5b50610974611b37565b604051808273ffffffffffffffffffffffffffffffffffffffff1673ffffffffffffffffffffffffffffffffffffffff16815260200191505060405180910390f35b3480156109c257600080fd5b50610a7c600480360360208110156109d957600080fd5b81019080803590602001906401000000008111156109f657600080fd5b820183602082011115610a0857600080fd5b80359060200191846001830284011164010000000083111715610a2a57600080fd5b91908080601f016020809104026020016040519081016040528093929190818152602001838380828437600081840152601f19601f820116905080830192505050505050509192919290505050611b5d565b6040518082815260200191505060405180910390f35b348015610a9e57600080fd5b50610b5860048036036020811015610ab557600080fd5b8101908080359060200190640100000000811115610ad257600080fd5b820183602082011115610ae457600080fd5b80359060200191846001830284011164010000000083111715610b0657600080fd5b91908080601f016020809104026020016040519081016040528093929190818152602001838380828437600081840152601f19601f820116905080830192505050505050509192919290505050611b89565b6040518082815260200191505060405180910390f35b348015610b7a57600080fd5b50610bbd60048036036020811015610b9157600080fd5b81019080803573ffffffffffffffffffffffffffffffffffffffff169060200190929190505050611da0565b005b348015610bcb57600080fd5b50610bd4612036565b005b348015610be257600080fd5b50610beb612260565b005b600160159054906101000a900460ff16151515610ce4576040517f08c379a00000000000000000000000000000000000000000000000000000000081526004018080602001828103825260768152602001807f452d4c4f434b2d303031202d205468697320636f6e747261637420686173206281526020017f65656e2074656d706f72617279206c6f636b656420666f72207365637572697481526020017f7920726561736f6e732e205468697320616374696f6e2063616e206e6f74206281526020017f6520706572666f726d6564207269676874206e6f772e0000000000000000000081525060800191505060405180910390fd5b600160009054906101000a900473ffffffffffffffffffffffffffffffffffffffff1673ffffffffffffffffffffffffffffffffffffffff163373ffffffffffffffffffffffffffffffffffffffff16141515610dcf576040517f08c379a000000000000000000000000000000000000000000000000000000000815260040180806020018281038252603f8152602001807f452d43432d303031202d204f6e6c792074686520636f6e7472616374206f776e81526020017f65722061646420657865637574652074686973207472616e73616374696f6e0081525060400191505060405180910390fd5b60016000808373ffffffffffffffffffffffffffffffffffffffff1673ffffffffffffffffffffffffffffffffffffffff16815260200190815260200160002060006101000a81548160ff0219169083151502179055507f7e07c71a6d7714652e08d641a843dff01e823c8eeed08945be844015fe33539381604051808273ffffffffffffffffffffffffffffffffffffffff1673ffffffffffffffffffffffffffffffffffffffff16815260200191505060405180910390a150565b60006020528060005260406000206000915054906101000a900460ff1681565b60008060003373ffffffffffffffffffffffffffffffffffffffff1673ffffffffffffffffffffffffffffffffffffffff16815260200190815260200160002060009054906101000a900460ff1680610f115750600160149054906101000a900460ff165b1515610fab576040517f08c379a000000000000000000000000000000000000000000000000000000000815260040180806020018281038252603d8152602001807f452d43432d303032202d204f6e6c7920617574686f72697a656420757365727381526020017f2063616e20657865637574652074686973207472616e73616374696f6e00000081525060400191505060405180910390fd5b600160159054906101000a900460ff161515156110a2576040517f08c379a00000000000000000000000000000000000000000000000000000000081526004018080602001828103825260768152602001807f452d4c4f434b2d303031202d205468697320636f6e747261637420686173206281526020017f65656e2074656d706f72617279206c6f636b656420666f72207365637572697481526020017f7920726561736f6e732e205468697320616374696f6e2063616e206e6f74206281526020017f6520706572666f726d6564207269676874206e6f772e0000000000000000000081525060800191505060405180910390fd5b60006110ad84611b5d565b905060006003600083815260200190815260200160002054141515611160576040517f08c379a00000000000000000000000000000000000000000000000000000000081526004018080602001828103825260408152602001807f452d504f452d303031202d20546865726520697320616c72656164792061206381526020017f657274696669656420646f63756d656e7420776974682074686174206861736881525060400191505060405180910390fd5b60026000815480929190600101919050555060006002549050846006600083815260200190815260200160002090805190602001906111a092919061252f565b50836005600083815260200190815260200160002090805190602001906111c892919061252f565b50806003600084815260200190815260200160002081905550336004600083815260200190815260200160002060006101000a81548173ffffffffffffffffffffffffffffffffffffffff021916908373ffffffffffffffffffffffffffffffffffffffff160217905550600760003373ffffffffffffffffffffffffffffffffffffffff1673ffffffffffffffffffffffffffffffffffffffff168152602001908152602001600020819080600181540180825580915050906001820390600052602060002001600090919290919091505550809250505092915050565b60006060806000806112b886611b0d565b90508086600560008481526020019081526020016000206004600085815260200190815260200160002060009054906101000a900473ffffffffffffffffffffffffffffffffffffffff16818054600181600116156101000203166002900480601f0160208091040260200160405190810160405280929190818152602001828054600181600116156101000203166002900480156113985780601f1061136d57610100808354040283529160200191611398565b820191906000526020600020905b81548152906001019060200180831161137b57829003601f168201915b505050505091509450945094509450509193509193565b600060608060008460066000878152602001908152602001600020600560008881526020019081526020016000206004600089815260200190815260200160002060009054906101000a900473ffffffffffffffffffffffffffffffffffffffff16828054600181600116156101000203166002900480601f0160208091040260200160405190810160405280929190818152602001828054600181600116156101000203166002900480156114a65780601f1061147b576101008083540402835291602001916114a6565b820191906000526020600020905b81548152906001019060200180831161148957829003601f168201915b50505050509250818054600181600116156101000203166002900480601f0160208091040260200160405190810160405280929190818152602001828054600181600116156101000203166002900480156115425780601f1061151757610100808354040283529160200191611542565b820191906000526020600020905b81548152906001019060200180831161152557829003601f168201915b5050505050915093509350935093509193509193565b600160149054906101000a900460ff1681565b60036020528060005260406000206000915090505481565b600160159054906101000a900460ff1615151561167a576040517f08c379a00000000000000000000000000000000000000000000000000000000081526004018080602001828103825260768152602001807f452d4c4f434b2d303031202d205468697320636f6e747261637420686173206281526020017f65656e2074656d706f72617279206c6f636b656420666f72207365637572697481526020017f7920726561736f6e732e205468697320616374696f6e2063616e206e6f74206281526020017f6520706572666f726d6564207269676874206e6f772e0000000000000000000081525060800191505060405180910390fd5b600160009054906101000a900473ffffffffffffffffffffffffffffffffffffffff1673ffffffffffffffffffffffffffffffffffffffff163373ffffffffffffffffffffffffffffffffffffffff16141515611765576040517f08c379a000000000000000000000000000000000000000000000000000000000815260040180806020018281038252603f8152602001807f452d43432d303031202d204f6e6c792074686520636f6e7472616374206f776e81526020017f65722061646420657865637574652074686973207472616e73616374696f6e0081525060400191505060405180910390fd5b600160149054906101000a900460ff161515611835576040517f08c379a00000000000000000000000000000000000000000000000000000000081526004018080602001828103825260448152602001807f452d43432d303033202d2043657274696669636174696f6e206f70657261746981526020017f6f6e732061726520616c726561647920636c6f73656420746f2065766572792081526020017f757365720000000000000000000000000000000000000000000000000000000081525060600191505060405180910390fd5b6000600160146101000a81548160ff021916908315150217905550565b6060600760008373ffffffffffffffffffffffffffffffffffffffff1673ffffffffffffffffffffffffffffffffffffffff1681526020019081526020016000208054806020026020016040519081016040528092919081815260200182805480156118dd57602002820191906000526020600020905b8154815260200190600101908083116118c9575b50505050509050919050565b60046020528060005260406000206000915054906101000a900473ffffffffffffffffffffffffffffffffffffffff1681565b600160159054906101000a900460ff1681565b600160159054906101000a900460ff1615156119d9576040517f08c379a00000000000000000000000000000000000000000000000000000000081526004018080602001828103825260308152602001807f452d4c4f434b2d30303220202d205468697320636f6e7472616374206973206181526020017f6c726561647920756e6c6f636b65642e0000000000000000000000000000000081525060400191505060405180910390fd5b600160009054906101000a900473ffffffffffffffffffffffffffffffffffffffff1673ffffffffffffffffffffffffffffffffffffffff163373ffffffffffffffffffffffffffffffffffffffff16141515611ac4576040517f08c379a000000000000000000000000000000000000000000000000000000000815260040180806020018281038252603f8152602001807f452d43432d303031202d204f6e6c792074686520636f6e7472616374206f776e81526020017f65722061646420657865637574652074686973207472616e73616374696f6e0081525060400191505060405180910390fd5b6000600160156101000a81548160ff0219169083151502179055507f3e5f4fd66bc9f59f15a9304dbc6394e240a57a1b4eb7ca42a75c5d9b298da45560405160405180910390a1565b600080611b1983611b5d565b90506003600082815260200190815260200160002054915050919050565b600160009054906101000a900473ffffffffffffffffffffffffffffffffffffffff1681565b60006060829050600081511415611b7b576000600102915050611b84565b60208301519150505b919050565b60008060003373ffffffffffffffffffffffffffffffffffffffff1673ffffffffffffffffffffffffffffffffffffffff16815260200190815260200160002060009054906101000a900460ff1680611bee5750600160149054906101000a900460ff165b1515611c88576040517f08c379a000000000000000000000000000000000000000000000000000000000815260040180806020018281038252603d8152602001807f452d43432d303032202d204f6e6c7920617574686f72697a656420757365727381526020017f2063616e20657865637574652074686973207472616e73616374696f6e00000081525060400191505060405180910390fd5b600160159054906101000a900460ff16151515611d7f576040517f08c379a00000000000000000000000000000000000000000000000000000000081526004018080602001828103825260768152602001807f452d4c4f434b2d303031202d205468697320636f6e747261637420686173206281526020017f65656e2074656d706f72617279206c6f636b656420666f72207365637572697481526020017f7920726561736f6e732e205468697320616374696f6e2063616e206e6f74206281526020017f6520706572666f726d6564207269676874206e6f772e0000000000000000000081525060800191505060405180910390fd5b611d99826020604051908101604052806000815250610eac565b9050919050565b600160159054906101000a900460ff16151515611e97576040517f08c379a00000000000000000000000000000000000000000000000000000000081526004018080602001828103825260768152602001807f452d4c4f434b2d303031202d205468697320636f6e747261637420686173206281526020017f65656e2074656d706f72617279206c6f636b656420666f72207365637572697481526020017f7920726561736f6e732e205468697320616374696f6e2063616e206e6f74206281526020017f6520706572666f726d6564207269676874206e6f772e0000000000000000000081525060800191505060405180910390fd5b600160009054906101000a900473ffffffffffffffffffffffffffffffffffffffff1673ffffffffffffffffffffffffffffffffffffffff163373ffffffffffffffffffffffffffffffffffffffff16141515611f82576040517f08c379a000000000000000000000000000000000000000000000000000000000815260040180806020018281038252603f8152602001807f452d43432d303031202d204f6e6c792074686520636f6e7472616374206f776e81526020017f65722061646420657865637574652074686973207472616e73616374696f6e0081525060400191505060405180910390fd5b6000808273ffffffffffffffffffffffffffffffffffffffff1673ffffffffffffffffffffffffffffffffffffffff16815260200190815260200160002060006101000a81549060ff02191690557fbebbb6faf74eef3594a83912d2f77145b62aacc4520832f587e2130cdcbf08f081604051808273ffffffffffffffffffffffffffffffffffffffff1673ffffffffffffffffffffffffffffffffffffffff16815260200191505060405180910390a150565b600160009054906101000a900473ffffffffffffffffffffffffffffffffffffffff1673ffffffffffffffffffffffffffffffffffffffff163373ffffffffffffffffffffffffffffffffffffffff16141515612121576040517f08c379a000000000000000000000000000000000000000000000000000000000815260040180806020018281038252603f8152602001807f452d43432d303031202d204f6e6c792074686520636f6e7472616374206f776e81526020017f65722061646420657865637574652074686973207472616e73616374696f6e0081525060400191505060405180910390fd5b600160159054906101000a900460ff16151515612218576040517f08c379a00000000000000000000000000000000000000000000000000000000081526004018080602001828103825260768152602001807f452d4c4f434b2d303031202d205468697320636f6e747261637420686173206281526020017f65656e2074656d706f72617279206c6f636b656420666f72207365637572697481526020017f7920726561736f6e732e205468697320616374696f6e2063616e206e6f74206281526020017f6520706572666f726d6564207269676874206e6f772e0000000000000000000081525060800191505060405180910390fd5b60018060156101000a81548160ff0219169083151502179055507f6f5ffb7e2a6656882126927a79e460ca27ab657927d593522b90dc28229f7dbc60405160405180910390a1565b600160159054906101000a900460ff16151515612357576040517f08c379a00000000000000000000000000000000000000000000000000000000081526004018080602001828103825260768152602001807f452d4c4f434b2d303031202d205468697320636f6e747261637420686173206281526020017f65656e2074656d706f72617279206c6f636b656420666f72207365637572697481526020017f7920726561736f6e732e205468697320616374696f6e2063616e206e6f74206281526020017f6520706572666f726d6564207269676874206e6f772e0000000000000000000081525060800191505060405180910390fd5b600160009054906101000a900473ffffffffffffffffffffffffffffffffffffffff1673ffffffffffffffffffffffffffffffffffffffff163373ffffffffffffffffffffffffffffffffffffffff16141515612442576040517f08c379a000000000000000000000000000000000000000000000000000000000815260040180806020018281038252603f8152602001807f452d43432d303031202d204f6e6c792074686520636f6e7472616374206f776e81526020017f65722061646420657865637574652074686973207472616e73616374696f6e0081525060400191505060405180910390fd5b600160149054906101000a900460ff16151515612513576040517f08c379a00000000000000000000000000000000000000000000000000000000081526004018080602001828103825260428152602001807f452d43432d303034202d2043657274696669636174696f6e206f70657261746981526020017f6f6e732061726520616c7265616479206f70656e20746f20657665727920757381526020017f657200000000000000000000000000000000000000000000000000000000000081525060600191505060405180910390fd5b60018060146101000a81548160ff021916908315150217905550565b828054600181600116156101000203166002900490600052602060002090601f016020900481019282601f1061257057805160ff191683800117855561259e565b8280016001018555821561259e579182015b8281111561259d578251825591602001919060010190612582565b5b5090506125ab91906125af565b5090565b6125d191905b808211156125cd5760008160009055506001016125b5565b5090565b9056fea165627a7a723058205ac406d08a05086e897865e3d6d02e5607d3c8dbc746e52477beb9c721db13710029",
  "source": "pragma solidity ^0.5.0;\n\nimport \"./Lockable.sol\";\n\n/* @title Proof of Existence */\ncontract ProofOfExistence is Lockable {\n  \n  // State\n  uint256 private lastId = 0;\n  mapping(bytes32  => uint256) public idByDocumentHash;\n  mapping(uint256  => address) public ownerByDocumentId;\n  mapping(uint256  => string) private ipfsHashByDocumentId;\n  mapping(uint256  => string) private hashByDocumentId;\n  mapping(address  => uint256[]) private documentsByOwnerAddress;\n  \n   /* @notice Certify document with hash\n   * @dev It registers in the blockchain the proof-of-existence of an external document\n   * @param _documentHash - Hash of the document (it should have 32 bytes)\n   * @return id - returns certified document id\n   */\n  function certifyDocument(string memory _documentHash) public onlyAuthorizedUsers onlyWhenUnlocked returns(uint256) {\n    return certifyDocument(_documentHash, \"\");\n  }\n  \n   /* @notice Certify document with hash and IPFS hash\n   * @dev It registers in the blockchain the proof-of-existence of an external document\n   * @param _documentHash - Hash of the document (it should have 32 bytes)\n   * @param _ipfsHash - IPFS Hash, if it exists \n   * @return id - returns certified document id\n   */\n  function certifyDocument(string memory _documentHash, string memory _ipfsHash) public onlyAuthorizedUsers onlyWhenUnlocked returns(uint256) {\n    \n      bytes32 _docHash = stringToBytes32(_documentHash);\n      require(idByDocumentHash[_docHash] == 0, \"E-POE-001 - There is already a certified document with that hash\");\n   \n      //An auto-incremental identifier will be generated by this method\n      lastId++;\n      uint256 _id = lastId;\n     \n      hashByDocumentId[_id] = _documentHash; //Add to list of document hashes\n      ipfsHashByDocumentId[_id] = _ipfsHash; //Add to list of ipfs hashes\n      idByDocumentHash[_docHash] = _id; //Add hash-id mapping information\n      ownerByDocumentId[_id] = msg.sender; //Link document to owner      \n      documentsByOwnerAddress[msg.sender].push(_id); //Add hash to owner's documents list\n     \n      return _id;\n  }  \n  \n  /* @notice Get Document Details\n   * @dev Retrieves all the information of a document\n   * @param _documentHash - Hash of the document\n   * @return uint256 id, string docHash, address documentOwner\n   */\n  function getDocumentDetailsByHash(string memory _documentHash) public view\n        returns (uint256, string memory, string memory, address)\n    {\n       uint256 _id = getId(_documentHash);\n       return (_id, _documentHash, ipfsHashByDocumentId[_id], ownerByDocumentId[_id]);\n    }\n   \n    \n  /* @notice Get Document Details\n   * @dev Retrieves all the information of a document\n   * @param _id - Id of the document\n   * @return uint256 id, string docHash, address documentOwner\n   */\n  function getDocumentDetailsById(uint256 _id) public view\n        returns (uint256, string memory, string memory, address)\n    {\n       return (_id, hashByDocumentId[_id], ipfsHashByDocumentId[_id], ownerByDocumentId[_id]);\n    }\n   \n   /* @notice Get documents by owner\n   * @dev Retrieves a list with all the documents hashes of one owner\n   * @return bytes32[] documentsByOwnerAddress\n   */\n   function getDocumentsByOwner(address owner) public view \n        returns(uint256[] memory){\n       return documentsByOwnerAddress[owner];\n   }\n   \n   /* @notice Get document id from hash\n   * @dev Retrieves a document id from a string with the hash\n   * @param _documentHash - Hash of the document\n   * @return uint256\n   */\n   function getId(string memory _documentHash) public view \n        returns(uint256){ \n            \n      bytes32 _docHash = stringToBytes32(_documentHash);\n      return idByDocumentHash[_docHash];\n    }\n      \n   /* @notice StringToBytes32 (based on Grzegorz Kapkowski's method)\n   * @ref https://ethereum.stackexchange.com/questions/9142/how-to-convert-a-string-to-bytes32\n   * @dev Transforms a string in bytes32\n   * @param _documentHash - Hash of the document\n   * @return bytes32\n   */\n   function stringToBytes32(string memory _stringInput) public pure returns (bytes32 result) {\n        bytes memory tempEmptyStringTest = bytes(_stringInput);\n        if (tempEmptyStringTest.length == 0) {\n            return 0x0;\n        }\n    \n        assembly {\n            result := mload(add(_stringInput, 32))\n        }\n    }\n   \n    /* @notice Fallback function\n    /* @dev It reverts the transaction for security reasons\n    */\n    function() external {\n      revert();\n    }\n  \n}",
  "sourcePath": "/Users/xmunch/Desktop/Projects/Ethereum Projects/docuten-blockchain-proof/contracts/ProofOfExistence.sol",
  "compiler": {
    "name": "solc",
    "version": "0.5.0+commit.1d4f565a.Emscripten.clang"
  },
  "schemaVersion": "3.0.0",
  "updatedAt": "2018-12-26T07:32:53.742Z",
  "devdoc": {
    "methods": {}
  },
  "userdoc": {
    "methods": {}
  }
}