{
  "contractName": "ProofOfLifeProxy",
  "abi": [
    {
      "constant": true,
      "inputs": [
        {
          "name": "",
          "type": "address"
        }
      ],
      "name": "authorizedUsers",
      "outputs": [
        {
          "name": "",
          "type": "bool"
        }
      ],
      "payable": false,
      "stateMutability": "view",
      "type": "function",
      "signature": "0x1828983a"
    },
    {
      "constant": true,
      "inputs": [],
      "name": "isOpenToEveryUser",
      "outputs": [
        {
          "name": "",
          "type": "bool"
        }
      ],
      "payable": false,
      "stateMutability": "view",
      "type": "function",
      "signature": "0x3e36da48"
    },
    {
      "constant": true,
      "inputs": [
        {
          "name": "",
          "type": "bytes32"
        }
      ],
      "name": "idByDocumentHash",
      "outputs": [
        {
          "name": "",
          "type": "uint256"
        }
      ],
      "payable": false,
      "stateMutability": "view",
      "type": "function",
      "signature": "0x435b022f"
    },
    {
      "constant": true,
      "inputs": [
        {
          "name": "",
          "type": "uint256"
        },
        {
          "name": "",
          "type": "uint256"
        }
      ],
      "name": "auditRegistryByDocumentId",
      "outputs": [
        {
          "name": "description",
          "type": "string"
        },
        {
          "name": "timestamp",
          "type": "string"
        },
        {
          "name": "blockTimestamp",
          "type": "uint256"
        }
      ],
      "payable": false,
      "stateMutability": "view",
      "type": "function",
      "signature": "0x6e8cc87f"
    },
    {
      "constant": true,
      "inputs": [
        {
          "name": "",
          "type": "uint256"
        }
      ],
      "name": "hashByDocumentId",
      "outputs": [
        {
          "name": "",
          "type": "string"
        }
      ],
      "payable": false,
      "stateMutability": "view",
      "type": "function",
      "signature": "0x71f94e83"
    },
    {
      "constant": true,
      "inputs": [
        {
          "name": "",
          "type": "uint256"
        }
      ],
      "name": "ownerByDocumentId",
      "outputs": [
        {
          "name": "",
          "type": "address"
        }
      ],
      "payable": false,
      "stateMutability": "view",
      "type": "function",
      "signature": "0x8a701ed1"
    },
    {
      "constant": true,
      "inputs": [],
      "name": "delegateCallAddress",
      "outputs": [
        {
          "name": "",
          "type": "address"
        }
      ],
      "payable": false,
      "stateMutability": "view",
      "type": "function",
      "signature": "0xa362390a"
    },
    {
      "constant": true,
      "inputs": [],
      "name": "isLocked",
      "outputs": [
        {
          "name": "",
          "type": "bool"
        }
      ],
      "payable": false,
      "stateMutability": "view",
      "type": "function",
      "signature": "0xa4e2d634"
    },
    {
      "constant": true,
      "inputs": [
        {
          "name": "",
          "type": "address"
        },
        {
          "name": "",
          "type": "uint256"
        }
      ],
      "name": "documentsByOwnerAddress",
      "outputs": [
        {
          "name": "",
          "type": "uint256"
        }
      ],
      "payable": false,
      "stateMutability": "view",
      "type": "function",
      "signature": "0xad0eafec"
    },
    {
      "constant": true,
      "inputs": [],
      "name": "lastId",
      "outputs": [
        {
          "name": "",
          "type": "uint256"
        }
      ],
      "payable": false,
      "stateMutability": "view",
      "type": "function",
      "signature": "0xc1292cc3"
    },
    {
      "constant": true,
      "inputs": [
        {
          "name": "",
          "type": "uint256"
        }
      ],
      "name": "ipfsHashByDocumentId",
      "outputs": [
        {
          "name": "",
          "type": "string"
        }
      ],
      "payable": false,
      "stateMutability": "view",
      "type": "function",
      "signature": "0xc85eb047"
    },
    {
      "constant": true,
      "inputs": [],
      "name": "contractOwner",
      "outputs": [
        {
          "name": "",
          "type": "address"
        }
      ],
      "payable": false,
      "stateMutability": "view",
      "type": "function",
      "signature": "0xce606ee0"
    },
    {
      "inputs": [
        {
          "name": "existingContractAddress",
          "type": "address"
        }
      ],
      "payable": false,
      "stateMutability": "nonpayable",
      "type": "constructor",
      "signature": "constructor"
    },
    {
      "anonymous": false,
      "inputs": [
        {
          "indexed": false,
          "name": "call",
          "type": "string"
        },
        {
          "indexed": false,
          "name": "result",
          "type": "bool"
        }
      ],
      "name": "DelegateCallEvent",
      "type": "event",
      "signature": "0x1be77fb289cfaf0382d7113e77bb87b4ce9ff776ce290a27e92991246140bd7b"
    },
    {
      "constant": false,
      "inputs": [
        {
          "name": "existingContractAddress",
          "type": "address"
        }
      ],
      "name": "updateDelegateCallAddress",
      "outputs": [],
      "payable": false,
      "stateMutability": "nonpayable",
      "type": "function",
      "signature": "0xbba9a352"
    },
    {
      "constant": false,
      "inputs": [],
      "name": "lock",
      "outputs": [],
      "payable": false,
      "stateMutability": "nonpayable",
      "type": "function",
      "signature": "0xf83d08ba"
    },
    {
      "constant": false,
      "inputs": [],
      "name": "unlock",
      "outputs": [],
      "payable": false,
      "stateMutability": "nonpayable",
      "type": "function",
      "signature": "0xa69df4b5"
    },
    {
      "constant": false,
      "inputs": [
        {
          "name": "_documentHash",
          "type": "string"
        },
        {
          "name": "_ipfsHash",
          "type": "string"
        },
        {
          "name": "_timestamp",
          "type": "string"
        }
      ],
      "name": "certifyDocumentCreationWithIPFSHash",
      "outputs": [],
      "payable": false,
      "stateMutability": "nonpayable",
      "type": "function",
      "signature": "0xdef63c05"
    },
    {
      "constant": false,
      "inputs": [
        {
          "name": "_id",
          "type": "uint256"
        },
        {
          "name": "_description",
          "type": "string"
        },
        {
          "name": "_timestamp",
          "type": "string"
        }
      ],
      "name": "appendAuditRegistry",
      "outputs": [],
      "payable": false,
      "stateMutability": "nonpayable",
      "type": "function",
      "signature": "0x39f7b69d"
    },
    {
      "constant": true,
      "inputs": [
        {
          "name": "owner",
          "type": "address"
        }
      ],
      "name": "getDocumentsByOwner",
      "outputs": [
        {
          "name": "",
          "type": "uint256[]"
        }
      ],
      "payable": false,
      "stateMutability": "view",
      "type": "function",
      "signature": "0x7ddfc7d4"
    },
    {
      "constant": true,
      "inputs": [
        {
          "name": "_documentHash",
          "type": "string"
        }
      ],
      "name": "getDocumentDetailsByHash",
      "outputs": [
        {
          "name": "",
          "type": "uint256"
        },
        {
          "name": "",
          "type": "string"
        },
        {
          "name": "",
          "type": "string"
        },
        {
          "name": "",
          "type": "address"
        }
      ],
      "payable": false,
      "stateMutability": "view",
      "type": "function",
      "signature": "0x2ad020e1"
    },
    {
      "constant": true,
      "inputs": [
        {
          "name": "_documentHash",
          "type": "string"
        },
        {
          "name": "_index",
          "type": "uint256"
        }
      ],
      "name": "getAuditRegistryByDocumentHash",
      "outputs": [
        {
          "name": "",
          "type": "string"
        },
        {
          "name": "",
          "type": "string"
        },
        {
          "name": "",
          "type": "uint256"
        }
      ],
      "payable": false,
      "stateMutability": "view",
      "type": "function",
      "signature": "0xc2ef00be"
    },
    {
      "constant": true,
      "inputs": [
        {
          "name": "_documentHash",
          "type": "string"
        }
      ],
      "name": "countAuditRegistriesByDocumentHash",
      "outputs": [
        {
          "name": "",
          "type": "uint256"
        }
      ],
      "payable": false,
      "stateMutability": "view",
      "type": "function",
      "signature": "0x5be19337"
    },
    {
      "constant": true,
      "inputs": [
        {
          "name": "_id",
          "type": "uint256"
        }
      ],
      "name": "getDocumentDetailsById",
      "outputs": [
        {
          "name": "",
          "type": "uint256"
        },
        {
          "name": "",
          "type": "string"
        },
        {
          "name": "",
          "type": "string"
        },
        {
          "name": "",
          "type": "address"
        }
      ],
      "payable": false,
      "stateMutability": "view",
      "type": "function",
      "signature": "0x30423791"
    },
    {
      "constant": true,
      "inputs": [
        {
          "name": "_id",
          "type": "uint256"
        },
        {
          "name": "_index",
          "type": "uint256"
        }
      ],
      "name": "getAuditRegistryByDocumentId",
      "outputs": [
        {
          "name": "",
          "type": "string"
        },
        {
          "name": "",
          "type": "string"
        },
        {
          "name": "",
          "type": "uint256"
        }
      ],
      "payable": false,
      "stateMutability": "view",
      "type": "function",
      "signature": "0x385e0210"
    },
    {
      "constant": true,
      "inputs": [
        {
          "name": "_documentHash",
          "type": "string"
        }
      ],
      "name": "getId",
      "outputs": [
        {
          "name": "",
          "type": "uint256"
        }
      ],
      "payable": false,
      "stateMutability": "view",
      "type": "function",
      "signature": "0xbee51f3b"
    },
    {
      "constant": true,
      "inputs": [
        {
          "name": "_stringInput",
          "type": "string"
        }
      ],
      "name": "stringToBytes32",
      "outputs": [
        {
          "name": "result",
          "type": "bytes32"
        }
      ],
      "payable": false,
      "stateMutability": "pure",
      "type": "function",
      "signature": "0xcfb51928"
    }
  ],
  "bytecode": "0x6080604052600060025534801561001557600080fd5b50604051602080612c8e8339810180604052602081101561003557600080fd5b810190808051906020019092919050505080600960006101000a81548173ffffffffffffffffffffffffffffffffffffffff021916908373ffffffffffffffffffffffffffffffffffffffff16021790555033600160006101000a81548173ffffffffffffffffffffffffffffffffffffffff021916908373ffffffffffffffffffffffffffffffffffffffff1602179055506001600080600160009054906101000a900473ffffffffffffffffffffffffffffffffffffffff1673ffffffffffffffffffffffffffffffffffffffff1673ffffffffffffffffffffffffffffffffffffffff16815260200190815260200160002060006101000a81548160ff02191690831515021790555050612b3d806101516000396000f3fe608060405260043610610149576000357c0100000000000000000000000000000000000000000000000000000000900463ffffffff1680631828983a1461014e5780632ad020e1146101b7578063304237911461039e578063385e0210146104f857806339f7b69d146106295780633e36da4814610792578063435b022f146107c15780635be19337146108105780636e8cc87f146108ec57806371f94e8314610a1d5780637ddfc7d414610ad15780638a701ed114610b77578063a362390a14610bf2578063a4e2d63414610c49578063a69df4b514610c78578063ad0eafec14610c8f578063bba9a35214610cfe578063bee51f3b14610d4f578063c1292cc314610e2b578063c2ef00be14610e56578063c85eb04714611014578063ce606ee0146110c8578063cfb519281461111f578063def63c05146111fb578063f83d08ba146113f1575b600080fd5b34801561015a57600080fd5b5061019d6004803603602081101561017157600080fd5b81019080803573ffffffffffffffffffffffffffffffffffffffff169060200190929190505050611408565b604051808215151515815260200191505060405180910390f35b3480156101c357600080fd5b5061027d600480360360208110156101da57600080fd5b81019080803590602001906401000000008111156101f757600080fd5b82018360208201111561020957600080fd5b8035906020019184600183028401116401000000008311171561022b57600080fd5b91908080601f016020809104026020016040519081016040528093929190818152602001838380828437600081840152601f19601f820116905080830192505050505050509192919290505050611428565b6040518085815260200180602001806020018473ffffffffffffffffffffffffffffffffffffffff1673ffffffffffffffffffffffffffffffffffffffff168152602001838103835286818151815260200191508051906020019080838360005b838110156102f95780820151818401526020810190506102de565b50505050905090810190601f1680156103265780820380516001836020036101000a031916815260200191505b50838103825285818151815260200191508051906020019080838360005b8381101561035f578082015181840152602081019050610344565b50505050905090810190601f16801561038c5780820380516001836020036101000a031916815260200191505b50965050505050505060405180910390f35b3480156103aa57600080fd5b506103d7600480360360208110156103c157600080fd5b8101908080359060200190929190505050611530565b6040518085815260200180602001806020018473ffffffffffffffffffffffffffffffffffffffff1673ffffffffffffffffffffffffffffffffffffffff168152602001838103835286818151815260200191508051906020019080838360005b83811015610453578082015181840152602081019050610438565b50505050905090810190601f1680156104805780820380516001836020036101000a031916815260200191505b50838103825285818151815260200191508051906020019080838360005b838110156104b957808201518184015260208101905061049e565b50505050905090810190601f1680156104e65780820380516001836020036101000a031916815260200191505b50965050505050505060405180910390f35b34801561050457600080fd5b5061053b6004803603604081101561051b57600080fd5b8101908080359060200190929190803590602001909291905050506116d9565b604051808060200180602001848152602001838103835286818151815260200191508051906020019080838360005b8381101561058557808201518184015260208101905061056a565b50505050905090810190601f1680156105b25780820380516001836020036101000a031916815260200191505b50838103825285818151815260200191508051906020019080838360005b838110156105eb5780820151818401526020810190506105d0565b50505050905090810190601f1680156106185780820380516001836020036101000a031916815260200191505b509550505050505060405180910390f35b34801561063557600080fd5b506107906004803603606081101561064c57600080fd5b81019080803590602001909291908035906020019064010000000081111561067357600080fd5b82018360208201111561068557600080fd5b803590602001918460018302840111640100000000831117156106a757600080fd5b91908080601f016020809104026020016040519081016040528093929190818152602001838380828437600081840152601f19601f8201169050808301925050505050505091929192908035906020019064010000000081111561070a57600080fd5b82018360208201111561071c57600080fd5b8035906020019184600183028401116401000000008311171561073e57600080fd5b91908080601f016020809104026020016040519081016040528093929190818152602001838380828437600081840152601f19601f8201169050808301925050505050505091929192905050506118b7565b005b34801561079e57600080fd5b506107a7611b76565b604051808215151515815260200191505060405180910390f35b3480156107cd57600080fd5b506107fa600480360360208110156107e457600080fd5b8101908080359060200190929190505050611b89565b6040518082815260200191505060405180910390f35b34801561081c57600080fd5b506108d66004803603602081101561083357600080fd5b810190808035906020019064010000000081111561085057600080fd5b82018360208201111561086257600080fd5b8035906020019184600183028401116401000000008311171561088457600080fd5b91908080601f016020809104026020016040519081016040528093929190818152602001838380828437600081840152601f19601f820116905080830192505050505050509192919290505050611ba1565b6040518082815260200191505060405180910390f35b3480156108f857600080fd5b5061092f6004803603604081101561090f57600080fd5b810190808035906020019092919080359060200190929190505050611bce565b604051808060200180602001848152602001838103835286818151815260200191508051906020019080838360005b8381101561097957808201518184015260208101905061095e565b50505050905090810190601f1680156109a65780820380516001836020036101000a031916815260200191505b50838103825285818151815260200191508051906020019080838360005b838110156109df5780820151818401526020810190506109c4565b50505050905090810190601f168015610a0c5780820380516001836020036101000a031916815260200191505b509550505050505060405180910390f35b348015610a2957600080fd5b50610a5660048036036020811015610a4057600080fd5b8101908080359060200190929190505050611d44565b6040518080602001828103825283818151815260200191508051906020019080838360005b83811015610a96578082015181840152602081019050610a7b565b50505050905090810190601f168015610ac35780820380516001836020036101000a031916815260200191505b509250505060405180910390f35b348015610add57600080fd5b50610b2060048036036020811015610af457600080fd5b81019080803573ffffffffffffffffffffffffffffffffffffffff169060200190929190505050611df4565b6040518080602001828103825283818151815260200191508051906020019060200280838360005b83811015610b63578082015181840152602081019050610b48565b505050509050019250505060405180910390f35b348015610b8357600080fd5b50610bb060048036036020811015610b9a57600080fd5b8101908080359060200190929190505050611e8b565b604051808273ffffffffffffffffffffffffffffffffffffffff1673ffffffffffffffffffffffffffffffffffffffff16815260200191505060405180910390f35b348015610bfe57600080fd5b50610c07611ebe565b604051808273ffffffffffffffffffffffffffffffffffffffff1673ffffffffffffffffffffffffffffffffffffffff16815260200191505060405180910390f35b348015610c5557600080fd5b50610c5e611ee4565b604051808215151515815260200191505060405180910390f35b348015610c8457600080fd5b50610c8d611ef7565b005b348015610c9b57600080fd5b50610ce860048036036040811015610cb257600080fd5b81019080803573ffffffffffffffffffffffffffffffffffffffff169060200190929190803590602001909291905050506121ef565b6040518082815260200191505060405180910390f35b348015610d0a57600080fd5b50610d4d60048036036020811015610d2157600080fd5b81019080803573ffffffffffffffffffffffffffffffffffffffff16906020019092919050505061221f565b005b348015610d5b57600080fd5b50610e1560048036036020811015610d7257600080fd5b8101908080359060200190640100000000811115610d8f57600080fd5b820183602082011115610da157600080fd5b80359060200191846001830284011164010000000083111715610dc357600080fd5b91908080601f016020809104026020016040519081016040528093929190818152602001838380828437600081840152601f19601f820116905080830192505050505050509192919290505050612374565b6040518082815260200191505060405180910390f35b348015610e3757600080fd5b50610e4061239e565b6040518082815260200191505060405180910390f35b348015610e6257600080fd5b50610f2660048036036040811015610e7957600080fd5b8101908080359060200190640100000000811115610e9657600080fd5b820183602082011115610ea857600080fd5b80359060200191846001830284011164010000000083111715610eca57600080fd5b91908080601f016020809104026020016040519081016040528093929190818152602001838380828437600081840152601f19601f820116905080830192505050505050509192919290803590602001909291905050506123a4565b604051808060200180602001848152602001838103835286818151815260200191508051906020019080838360005b83811015610f70578082015181840152602081019050610f55565b50505050905090810190601f168015610f9d5780820380516001836020036101000a031916815260200191505b50838103825285818151815260200191508051906020019080838360005b83811015610fd6578082015181840152602081019050610fbb565b50505050905090810190601f1680156110035780820380516001836020036101000a031916815260200191505b509550505050505060405180910390f35b34801561102057600080fd5b5061104d6004803603602081101561103757600080fd5b81019080803590602001909291905050506123cd565b6040518080602001828103825283818151815260200191508051906020019080838360005b8381101561108d578082015181840152602081019050611072565b50505050905090810190601f1680156110ba5780820380516001836020036101000a031916815260200191505b509250505060405180910390f35b3480156110d457600080fd5b506110dd61247d565b604051808273ffffffffffffffffffffffffffffffffffffffff1673ffffffffffffffffffffffffffffffffffffffff16815260200191505060405180910390f35b34801561112b57600080fd5b506111e56004803603602081101561114257600080fd5b810190808035906020019064010000000081111561115f57600080fd5b82018360208201111561117157600080fd5b8035906020019184600183028401116401000000008311171561119357600080fd5b91908080601f016020809104026020016040519081016040528093929190818152602001838380828437600081840152601f19601f8201169050808301925050505050505091929192905050506124a3565b6040518082815260200191505060405180910390f35b34801561120757600080fd5b506113ef6004803603606081101561121e57600080fd5b810190808035906020019064010000000081111561123b57600080fd5b82018360208201111561124d57600080fd5b8035906020019184600183028401116401000000008311171561126f57600080fd5b91908080601f016020809104026020016040519081016040528093929190818152602001838380828437600081840152601f19601f820116905080830192505050505050509192919290803590602001906401000000008111156112d257600080fd5b8201836020820111156112e457600080fd5b8035906020019184600183028401116401000000008311171561130657600080fd5b91908080601f016020809104026020016040519081016040528093929190818152602001838380828437600081840152601f19601f8201169050808301925050505050505091929192908035906020019064010000000081111561136957600080fd5b82018360208201111561137b57600080fd5b8035906020019184600183028401116401000000008311171561139d57600080fd5b91908080601f016020809104026020016040519081016040528093929190818152602001838380828437600081840152601f19601f8201169050808301925050505050505091929192905050506124cf565b005b3480156113fd57600080fd5b50611406612819565b005b60006020528060005260406000206000915054906101000a900460ff1681565b600060608060008061143986612374565b90508086600560008481526020019081526020016000206004600085815260200190815260200160002060009054906101000a900473ffffffffffffffffffffffffffffffffffffffff16818054600181600116156101000203166002900480601f0160208091040260200160405190810160405280929190818152602001828054600181600116156101000203166002900480156115195780601f106114ee57610100808354040283529160200191611519565b820191906000526020600020905b8154815290600101906020018083116114fc57829003601f168201915b505050505091509450945094509450509193509193565b600060608060008460066000878152602001908152602001600020600560008881526020019081526020016000206004600089815260200190815260200160002060009054906101000a900473ffffffffffffffffffffffffffffffffffffffff16828054600181600116156101000203166002900480601f0160208091040260200160405190810160405280929190818152602001828054600181600116156101000203166002900480156116275780601f106115fc57610100808354040283529160200191611627565b820191906000526020600020905b81548152906001019060200180831161160a57829003601f168201915b50505050509250818054600181600116156101000203166002900480601f0160208091040260200160405190810160405280929190818152602001828054600181600116156101000203166002900480156116c35780601f10611698576101008083540402835291602001916116c3565b820191906000526020600020905b8154815290600101906020018083116116a657829003601f168201915b5050505050915093509350935093509193509193565b606080600060086000868152602001908152602001600020848154811015156116fe57fe5b9060005260206000209060030201600001600860008781526020019081526020016000208581548110151561172f57fe5b9060005260206000209060030201600101600860008881526020019081526020016000208681548110151561176057fe5b906000526020600020906003020160020154828054600181600116156101000203166002900480601f0160208091040260200160405190810160405280929190818152602001828054600181600116156101000203166002900480156118075780601f106117dc57610100808354040283529160200191611807565b820191906000526020600020905b8154815290600101906020018083116117ea57829003601f168201915b50505050509250818054600181600116156101000203166002900480601f0160208091040260200160405190810160405280929190818152602001828054600181600116156101000203166002900480156118a35780601f10611878576101008083540402835291602001916118a3565b820191906000526020600020905b81548152906001019060200180831161188657829003601f168201915b505050505091509250925092509250925092565b60006060600960009054906101000a900473ffffffffffffffffffffffffffffffffffffffff1673ffffffffffffffffffffffffffffffffffffffff16858585604051602401808481526020018060200180602001838103835285818151815260200191508051906020019080838360005b83811015611944578082015181840152602081019050611929565b50505050905090810190601f1680156119715780820380516001836020036101000a031916815260200191505b50838103825284818151815260200191508051906020019080838360005b838110156119aa57808201518184015260208101905061198f565b50505050905090810190601f1680156119d75780820380516001836020036101000a031916815260200191505b50955050505050506040516020818303038152906040527f39f7b69d000000000000000000000000000000000000000000000000000000007bffffffffffffffffffffffffffffffffffffffffffffffffffffffff19166020820180517bffffffffffffffffffffffffffffffffffffffffffffffffffffffff83818316178352505050506040518082805190602001908083835b602083101515611a915780518252602082019150602081019050602083039250611a6c565b6001836020036101000a038019825116818451168082178552505050505050905001915050600060405180830381855af49150503d8060008114611af1576040519150601f19603f3d011682016040523d82523d6000602084013e611af6565b606091505b50915091507f1be77fb289cfaf0382d7113e77bb87b4ce9ff776ce290a27e92991246140bd7b82604051808060200183151515158152602001828103825260138152602001807f617070656e6441756469745265676973747279000000000000000000000000008152506020019250505060405180910390a15050505050565b600160149054906101000a900460ff1681565b60036020528060005260406000206000915090505481565b600080611bad83612374565b90506008600082815260200190815260200160002080549050915050919050565b600860205281600052604060002081815481101515611be957fe5b906000526020600020906003020160009150915050806000018054600181600116156101000203166002900480601f016020809104026020016040519081016040528092919081815260200182805460018160011615610100020316600290048015611c965780601f10611c6b57610100808354040283529160200191611c96565b820191906000526020600020905b815481529060010190602001808311611c7957829003601f168201915b505050505090806001018054600181600116156101000203166002900480601f016020809104026020016040519081016040528092919081815260200182805460018160011615610100020316600290048015611d345780601f10611d0957610100808354040283529160200191611d34565b820191906000526020600020905b815481529060010190602001808311611d1757829003601f168201915b5050505050908060020154905083565b60066020528060005260406000206000915090508054600181600116156101000203166002900480601f016020809104026020016040519081016040528092919081815260200182805460018160011615610100020316600290048015611dec5780601f10611dc157610100808354040283529160200191611dec565b820191906000526020600020905b815481529060010190602001808311611dcf57829003601f168201915b505050505081565b6060600760008373ffffffffffffffffffffffffffffffffffffffff1673ffffffffffffffffffffffffffffffffffffffff168152602001908152602001600020805480602002602001604051908101604052809291908181526020018280548015611e7f57602002820191906000526020600020905b815481526020019060010190808311611e6b575b50505050509050919050565b60046020528060005260406000206000915054906101000a900473ffffffffffffffffffffffffffffffffffffffff1681565b600960009054906101000a900473ffffffffffffffffffffffffffffffffffffffff1681565b600160159054906101000a900460ff1681565b600160009054906101000a900473ffffffffffffffffffffffffffffffffffffffff1673ffffffffffffffffffffffffffffffffffffffff163373ffffffffffffffffffffffffffffffffffffffff16141515612008576040517f08c379a00000000000000000000000000000000000000000000000000000000081526004018080602001828103825260478152602001807f452d504f4c502d303031202d204f6e6c79207468652070726f787920636f6e7481526020017f72616374206f776e65722061646420657865637574652074686973207472616e81526020017f73616374696f6e0000000000000000000000000000000000000000000000000081525060600191505060405180910390fd5b60006060600960009054906101000a900473ffffffffffffffffffffffffffffffffffffffff1673ffffffffffffffffffffffffffffffffffffffff1660405180807f756e6c6f636b28290000000000000000000000000000000000000000000000008152506008019050604051809103902060405160200180827bffffffffffffffffffffffffffffffffffffffffffffffffffffffff19167bffffffffffffffffffffffffffffffffffffffffffffffffffffffff191681526004019150506040516020818303038152906040526040518082805190602001908083835b60208310151561210d57805182526020820191506020810190506020830392506120e8565b6001836020036101000a038019825116818451168082178552505050505050905001915050600060405180830381855af49150503d806000811461216d576040519150601f19603f3d011682016040523d82523d6000602084013e612172565b606091505b50915091507f1be77fb289cfaf0382d7113e77bb87b4ce9ff776ce290a27e92991246140bd7b82604051808060200183151515158152602001828103825260068152602001807f756e6c6f636b00000000000000000000000000000000000000000000000000008152506020019250505060405180910390a15050565b60076020528160005260406000208181548110151561220a57fe5b90600052602060002001600091509150505481565b600160009054906101000a900473ffffffffffffffffffffffffffffffffffffffff1673ffffffffffffffffffffffffffffffffffffffff163373ffffffffffffffffffffffffffffffffffffffff16141515612330576040517f08c379a00000000000000000000000000000000000000000000000000000000081526004018080602001828103825260478152602001807f452d504f4c502d303031202d204f6e6c79207468652070726f787920636f6e7481526020017f72616374206f776e65722061646420657865637574652074686973207472616e81526020017f73616374696f6e0000000000000000000000000000000000000000000000000081525060600191505060405180910390fd5b80600960006101000a81548173ffffffffffffffffffffffffffffffffffffffff021916908373ffffffffffffffffffffffffffffffffffffffff16021790555050565b600080612380836124a3565b90506003600082815260200190815260200160002054915050919050565b60025481565b6060806000806123b386612374565b90506123bf81866116d9565b935093509350509250925092565b60056020528060005260406000206000915090508054600181600116156101000203166002900480601f0160208091040260200160405190810160405280929190818152602001828054600181600116156101000203166002900480156124755780601f1061244a57610100808354040283529160200191612475565b820191906000526020600020905b81548152906001019060200180831161245857829003601f168201915b505050505081565b600160009054906101000a900473ffffffffffffffffffffffffffffffffffffffff1681565b600060608290506000815114156124c15760006001029150506124ca565b60208301519150505b919050565b60006060600960009054906101000a900473ffffffffffffffffffffffffffffffffffffffff1673ffffffffffffffffffffffffffffffffffffffff1685858560405160240180806020018060200180602001848103845287818151815260200191508051906020019080838360005b8381101561255a57808201518184015260208101905061253f565b50505050905090810190601f1680156125875780820380516001836020036101000a031916815260200191505b50848103835286818151815260200191508051906020019080838360005b838110156125c05780820151818401526020810190506125a5565b50505050905090810190601f1680156125ed5780820380516001836020036101000a031916815260200191505b50848103825285818151815260200191508051906020019080838360005b8381101561262657808201518184015260208101905061260b565b50505050905090810190601f1680156126535780820380516001836020036101000a031916815260200191505b5096505050505050506040516020818303038152906040527fdef63c05000000000000000000000000000000000000000000000000000000007bffffffffffffffffffffffffffffffffffffffffffffffffffffffff19166020820180517bffffffffffffffffffffffffffffffffffffffffffffffffffffffff83818316178352505050506040518082805190602001908083835b60208310151561270e57805182526020820191506020810190506020830392506126e9565b6001836020036101000a038019825116818451168082178552505050505050905001915050600060405180830381855af49150503d806000811461276e576040519150601f19603f3d011682016040523d82523d6000602084013e612773565b606091505b50915091507f1be77fb289cfaf0382d7113e77bb87b4ce9ff776ce290a27e92991246140bd7b82604051808060200183151515158152602001828103825260238152602001807f63657274696679446f63756d656e744372656174696f6e57697468495046534881526020017f61736800000000000000000000000000000000000000000000000000000000008152506040019250505060405180910390a15050505050565b600160009054906101000a900473ffffffffffffffffffffffffffffffffffffffff1673ffffffffffffffffffffffffffffffffffffffff163373ffffffffffffffffffffffffffffffffffffffff1614151561292a576040517f08c379a00000000000000000000000000000000000000000000000000000000081526004018080602001828103825260478152602001807f452d504f4c502d303031202d204f6e6c79207468652070726f787920636f6e7481526020017f72616374206f776e65722061646420657865637574652074686973207472616e81526020017f73616374696f6e0000000000000000000000000000000000000000000000000081525060600191505060405180910390fd5b60006060600960009054906101000a900473ffffffffffffffffffffffffffffffffffffffff1673ffffffffffffffffffffffffffffffffffffffff1660405180807f6c6f636b282900000000000000000000000000000000000000000000000000008152506006019050604051809103902060405160200180827bffffffffffffffffffffffffffffffffffffffffffffffffffffffff19167bffffffffffffffffffffffffffffffffffffffffffffffffffffffff191681526004019150506040516020818303038152906040526040518082805190602001908083835b602083101515612a2f5780518252602082019150602081019050602083039250612a0a565b6001836020036101000a038019825116818451168082178552505050505050905001915050600060405180830381855af49150503d8060008114612a8f576040519150601f19603f3d011682016040523d82523d6000602084013e612a94565b606091505b50915091507f1be77fb289cfaf0382d7113e77bb87b4ce9ff776ce290a27e92991246140bd7b82604051808060200183151515158152602001828103825260048152602001807f6c6f636b000000000000000000000000000000000000000000000000000000008152506020019250505060405180910390a1505056fea165627a7a72305820ae428081b3b5ebeb84f73d351ad2a46a050090df9f26051ce9413671e140aa990029",
  "source": "pragma solidity ^0.5.0;\n\nimport \"./HasAuditRegistry.sol\";\n\n\n/* @title Proof of Life Proxy with delegateCall */\ncontract ProofOfLifeProxy is HasAuditRegistry {\n \n    // State variables (to be updated by delegateCalls)\n    mapping(address  => bool) public authorizedUsers;\n    address public contractOwner; //used to override the delegate contractOwner value with the proxy contract's address\n    bool public isOpenToEveryUser;\n    bool public isLocked;\n    uint256 public lastId = 0;\n    mapping(bytes32  => uint256) public idByDocumentHash;\n    mapping(uint256  => address) public ownerByDocumentId;\n    mapping(uint256  => string) public ipfsHashByDocumentId;\n    mapping(uint256  => string) public hashByDocumentId;\n    mapping(address  => uint256[]) public documentsByOwnerAddress;\n    mapping(uint256 => AuditRegistry[]) public auditRegistryByDocumentId;\n    \n    // Delegate call address \n    address public delegateCallAddress;\n    \n    // Events\n    event DelegateCallEvent (string call, bool result);\n\n    // Modifiers\n    modifier onlyContractOwner(){\n        require(msg.sender == contractOwner, \"E-POLP-001 - Only the proxy contract owner add execute this transaction\"); \n        _; \n    }\n    \n    // ------ Local functions to update proxy configuration -------\n    \n    /* @notice Proxy constructor\n    * @dev It creates a proxy instance\n    * @param _existingContractAddress - the new delegated contract address\n    */\n    constructor (address existingContractAddress) public {\n        delegateCallAddress = existingContractAddress;\n        contractOwner = msg.sender;\n        authorizedUsers[contractOwner] = true;\n    }\n\n    /* @notice Update Delegate Call Address\n    * @dev It allows the owner to update the address of the delegate contract\n    * @param _existingContractAddress - the new delegated contract address\n    */\n    function updateDelegateCallAddress(address existingContractAddress) public onlyContractOwner {\n        delegateCallAddress = existingContractAddress;\n    }\n\n    //  ---- Functions with delegateCall -----\n\n    /* @notice Lock contract\n    * @dev Maintenance and security circuit locker\n    */\n    function lock() public onlyContractOwner {\n        (bool success, bytes memory data)  = delegateCallAddress.delegatecall(abi.encodePacked(bytes4(keccak256(\"lock()\"))));\n        emit DelegateCallEvent(\"lock\", success);\n    }\n    \n      /* @notice Unlock contract\n    * @dev Maintenance and security circuit locker\n    */\n    function unlock() public onlyContractOwner {\n        (bool success, bytes memory data)  = delegateCallAddress.delegatecall(abi.encodePacked(bytes4(keccak256(\"unlock()\"))));\n        emit DelegateCallEvent(\"unlock\", success);\n    }\n\n    /* @notice Certify document creation with hash and timestamp\n    * @dev It registers in the blockchain the proof-of-existence of an external document\n    * @param _documentHash - Hash of the document (it should have 32 bytes)\n    * @param _ipfsHash - IPFS Hash, if it exists \n    * @return id - returns certified document id\n    */\n    function certifyDocumentCreationWithIPFSHash(string memory _documentHash, string memory _ipfsHash,\n    string memory _timestamp) public {\n       \n        (bool success, bytes memory data)  = delegateCallAddress.delegatecall(abi.encodeWithSignature(\"certifyDocumentCreationWithIPFSHash(string,string,string)\", _documentHash, _ipfsHash, _timestamp));\n        emit DelegateCallEvent(\"certifyDocumentCreationWithIPFSHash\", success);\n    }\n\n     /* @notice Append Audit Registry\n    * @dev A document owner can use this function to append audit information to it\n    * @param _id - Id of the document\n    * @param _description - Content of the audit registry (status change, extra information, etc...)\n    * @param _timestamp - Local timestamp (UNIX Epoch format) from the external\n    * system or the UI which executes the contract\n    */\n    function appendAuditRegistry(uint256 _id, string memory _description, string memory _timestamp) \n    public {\n        (bool success, bytes memory data)  = delegateCallAddress.delegatecall(abi.encodeWithSignature(\"appendAuditRegistry(uint256,string,string)\", _id, _description, _timestamp));\n        emit DelegateCallEvent(\"appendAuditRegistry\", success);\n    }\n    \n    // ------ Query functions to request information about the contract state -------\n    \n    /* @notice Get documents by owner\n    * @dev Retrieves a list with all the documents hashes of one owner\n    * @return bytes32[] documentsByOwnerAddress\n    */\n    function getDocumentsByOwner(address owner) public view \n    returns(uint256[] memory) {\n        return documentsByOwnerAddress[owner];\n    }\n    \n     /* @notice Get Document Details\n    * @dev Retrieves all the information of a document\n    * @param _documentHash - Hash of the document\n    * @return uint256 id, string docHash, string ipfsHash, address documentOwner\n    */\n    function getDocumentDetailsByHash(string memory _documentHash) public view\n    returns (uint256, string memory, string memory, address) {\n\n        uint256 _id = getId(_documentHash);\n        return (_id, _documentHash, ipfsHashByDocumentId[_id], ownerByDocumentId[_id]);\n    }\n    \n    \n    /* @notice Get auditRegistry by documentHash\n    * @dev Retrieves the audit registry of a document\n    * @param _documentHash - Hash of the document\n    * @param _index - Position of the auditRegistry in the list\n    * @return string description, string timestamp, uint256 blockTimestamp\n    */\n    function getAuditRegistryByDocumentHash(string memory _documentHash, uint256 _index) public view\n    returns (string memory, string memory, uint256) {\n        uint256 _id = getId(_documentHash);\n        return getAuditRegistryByDocumentId(_id, _index);\n    }\n      \n    /* @notice CountAuditRegistries by hash\n    * @dev Count the number of audit registries of a document\n    * @param _documentHash - Hash of the document\n    * @return uint256 number of elements\n    */\n    function countAuditRegistriesByDocumentHash(string memory _documentHash) public view returns(uint256) {\n        uint256 _id = getId(_documentHash);\n        return auditRegistryByDocumentId[_id].length;\n    }\n  \n    /* @notice Get Document Details\n    * @dev Retrieves all the information of a document\n    * @param _id - Id of the document\n    * @return uint256 id, string docHash, address documentOwner\n    */\n    function getDocumentDetailsById(uint256 _id) public view\n    returns (uint256, string memory, string memory, address) {\n        return (_id, hashByDocumentId[_id], ipfsHashByDocumentId[_id], ownerByDocumentId[_id]);\n    }\n         \n    /* @notice Get auditRegistry by documentId\n    * @dev Retrieves the audit registry of a document\n    * @param _id - Id of the document\n    * @param _index - Position of the auditRegistry in the list\n    * @return string description, string timestamp, uint256 blockTimestamp\n    */\n    function getAuditRegistryByDocumentId(uint256 _id, uint256 _index) public view\n    returns (string memory, string memory, uint256) {\n        return (auditRegistryByDocumentId[_id][_index].description,\n        auditRegistryByDocumentId[_id][_index].timestamp, auditRegistryByDocumentId[_id][_index].blockTimestamp);\n    }\n    \n    //Aux Functions\n        \n    /* @notice Get document id from hash\n    * @dev Retrieves a document id from a string with the hash\n    * @param _documentHash - Hash of the document\n    * @return uint256\n    */\n    function getId(string memory _documentHash) public view \n    returns(uint256) { \n              \n        bytes32 _docHash = stringToBytes32(_documentHash);\n        return idByDocumentHash[_docHash];\n    }\n              \n    /* @notice StringToBytes32 (based on Grzegorz Kapkowski's method)\n    * @ref https://ethereum.stackexchange.com/questions/9142/how-to-convert-a-string-to-bytes32\n    * @dev Transforms a string in bytes32\n    * @param _documentHash - Hash of the document\n    * @return bytes32\n    */\n    function stringToBytes32(string memory _stringInput) public pure returns (bytes32 result) {\n        bytes memory tempEmptyStringTest = bytes(_stringInput);\n        if (tempEmptyStringTest.length == 0) {\n            return 0x0;\n        }\n    \n        assembly {\n            result := mload(add(_stringInput, 32))\n        }\n    } \n\n\n      \n}",
  "sourcePath": "/Users/xmunch/Desktop/Projects/Ethereum Projects/docuten-blockchain-proof/contracts/ProofOfLifeProxy.sol",
  "compiler": {
    "name": "solc",
    "version": "0.5.0+commit.1d4f565a.Emscripten.clang"
  },
  "schemaVersion": "3.0.0",
  "updatedAt": "2019-01-16T08:47:52.964Z",
  "devdoc": {
    "methods": {}
  },
  "userdoc": {
    "methods": {}
  }
}