{
  "contractName": "ProofOfLifeProxy",
  "abi": [
    {
      "constant": true,
      "inputs": [
        {
          "name": "",
          "type": "address"
        }
      ],
      "name": "authorizedUsers",
      "outputs": [
        {
          "name": "",
          "type": "bool"
        }
      ],
      "payable": false,
      "stateMutability": "view",
      "type": "function",
      "signature": "0x1828983a"
    },
    {
      "constant": true,
      "inputs": [],
      "name": "isOpenToEveryUser",
      "outputs": [
        {
          "name": "",
          "type": "bool"
        }
      ],
      "payable": false,
      "stateMutability": "view",
      "type": "function",
      "signature": "0x3e36da48"
    },
    {
      "constant": true,
      "inputs": [
        {
          "name": "",
          "type": "bytes32"
        }
      ],
      "name": "idByDocumentHash",
      "outputs": [
        {
          "name": "",
          "type": "uint256"
        }
      ],
      "payable": false,
      "stateMutability": "view",
      "type": "function",
      "signature": "0x435b022f"
    },
    {
      "constant": true,
      "inputs": [
        {
          "name": "",
          "type": "uint256"
        },
        {
          "name": "",
          "type": "uint256"
        }
      ],
      "name": "auditRegistryByDocumentId",
      "outputs": [
        {
          "name": "description",
          "type": "string"
        },
        {
          "name": "timestamp",
          "type": "string"
        },
        {
          "name": "blockTimestamp",
          "type": "uint256"
        }
      ],
      "payable": false,
      "stateMutability": "view",
      "type": "function",
      "signature": "0x6e8cc87f"
    },
    {
      "constant": true,
      "inputs": [
        {
          "name": "",
          "type": "uint256"
        }
      ],
      "name": "hashByDocumentId",
      "outputs": [
        {
          "name": "",
          "type": "string"
        }
      ],
      "payable": false,
      "stateMutability": "view",
      "type": "function",
      "signature": "0x71f94e83"
    },
    {
      "constant": true,
      "inputs": [
        {
          "name": "",
          "type": "uint256"
        }
      ],
      "name": "ownerByDocumentId",
      "outputs": [
        {
          "name": "",
          "type": "address"
        }
      ],
      "payable": false,
      "stateMutability": "view",
      "type": "function",
      "signature": "0x8a701ed1"
    },
    {
      "constant": true,
      "inputs": [],
      "name": "delegateCallAddress",
      "outputs": [
        {
          "name": "",
          "type": "address"
        }
      ],
      "payable": false,
      "stateMutability": "view",
      "type": "function",
      "signature": "0xa362390a"
    },
    {
      "constant": true,
      "inputs": [],
      "name": "isLocked",
      "outputs": [
        {
          "name": "",
          "type": "bool"
        }
      ],
      "payable": false,
      "stateMutability": "view",
      "type": "function",
      "signature": "0xa4e2d634"
    },
    {
      "constant": true,
      "inputs": [
        {
          "name": "",
          "type": "address"
        },
        {
          "name": "",
          "type": "uint256"
        }
      ],
      "name": "documentsByOwnerAddress",
      "outputs": [
        {
          "name": "",
          "type": "uint256"
        }
      ],
      "payable": false,
      "stateMutability": "view",
      "type": "function",
      "signature": "0xad0eafec"
    },
    {
      "constant": true,
      "inputs": [],
      "name": "lastId",
      "outputs": [
        {
          "name": "",
          "type": "uint256"
        }
      ],
      "payable": false,
      "stateMutability": "view",
      "type": "function",
      "signature": "0xc1292cc3"
    },
    {
      "constant": true,
      "inputs": [
        {
          "name": "",
          "type": "uint256"
        }
      ],
      "name": "ipfsHashByDocumentId",
      "outputs": [
        {
          "name": "",
          "type": "string"
        }
      ],
      "payable": false,
      "stateMutability": "view",
      "type": "function",
      "signature": "0xc85eb047"
    },
    {
      "constant": true,
      "inputs": [],
      "name": "contractOwner",
      "outputs": [
        {
          "name": "",
          "type": "address"
        }
      ],
      "payable": false,
      "stateMutability": "view",
      "type": "function",
      "signature": "0xce606ee0"
    },
    {
      "inputs": [
        {
          "name": "existingContractAddress",
          "type": "address"
        }
      ],
      "payable": false,
      "stateMutability": "nonpayable",
      "type": "constructor",
      "signature": "constructor"
    },
    {
      "anonymous": false,
      "inputs": [
        {
          "indexed": false,
          "name": "call",
          "type": "string"
        },
        {
          "indexed": false,
          "name": "result",
          "type": "bool"
        }
      ],
      "name": "DelegateCallEvent",
      "type": "event",
      "signature": "0x1be77fb289cfaf0382d7113e77bb87b4ce9ff776ce290a27e92991246140bd7b"
    },
    {
      "constant": false,
      "inputs": [
        {
          "name": "existingContractAddress",
          "type": "address"
        }
      ],
      "name": "updateDelegateCallAddress",
      "outputs": [],
      "payable": false,
      "stateMutability": "nonpayable",
      "type": "function",
      "signature": "0xbba9a352"
    },
    {
      "constant": false,
      "inputs": [],
      "name": "lock",
      "outputs": [],
      "payable": false,
      "stateMutability": "nonpayable",
      "type": "function",
      "signature": "0xf83d08ba"
    },
    {
      "constant": false,
      "inputs": [],
      "name": "unlock",
      "outputs": [],
      "payable": false,
      "stateMutability": "nonpayable",
      "type": "function",
      "signature": "0xa69df4b5"
    },
    {
      "constant": false,
      "inputs": [
        {
          "name": "user",
          "type": "address"
        }
      ],
      "name": "addAuthorizedUser",
      "outputs": [],
      "payable": false,
      "stateMutability": "nonpayable",
      "type": "function",
      "signature": "0x177d2a74"
    },
    {
      "constant": false,
      "inputs": [
        {
          "name": "user",
          "type": "address"
        }
      ],
      "name": "removeCredentials",
      "outputs": [],
      "payable": false,
      "stateMutability": "nonpayable",
      "type": "function",
      "signature": "0xf3c6d71a"
    },
    {
      "constant": false,
      "inputs": [],
      "name": "openToEveryUser",
      "outputs": [],
      "payable": false,
      "stateMutability": "nonpayable",
      "type": "function",
      "signature": "0xfeab0777"
    },
    {
      "constant": false,
      "inputs": [],
      "name": "closeToAuthorizedUsers",
      "outputs": [],
      "payable": false,
      "stateMutability": "nonpayable",
      "type": "function",
      "signature": "0x7320a287"
    },
    {
      "constant": false,
      "inputs": [
        {
          "name": "_documentHash",
          "type": "string"
        },
        {
          "name": "_ipfsHash",
          "type": "string"
        },
        {
          "name": "_timestamp",
          "type": "string"
        }
      ],
      "name": "certifyDocumentCreationWithIPFSHash",
      "outputs": [],
      "payable": false,
      "stateMutability": "nonpayable",
      "type": "function",
      "signature": "0xdef63c05"
    },
    {
      "constant": false,
      "inputs": [
        {
          "name": "_id",
          "type": "uint256"
        },
        {
          "name": "_description",
          "type": "string"
        },
        {
          "name": "_timestamp",
          "type": "string"
        }
      ],
      "name": "appendAuditRegistry",
      "outputs": [],
      "payable": false,
      "stateMutability": "nonpayable",
      "type": "function",
      "signature": "0x39f7b69d"
    },
    {
      "constant": true,
      "inputs": [
        {
          "name": "owner",
          "type": "address"
        }
      ],
      "name": "getDocumentsByOwner",
      "outputs": [
        {
          "name": "",
          "type": "uint256[]"
        }
      ],
      "payable": false,
      "stateMutability": "view",
      "type": "function",
      "signature": "0x7ddfc7d4"
    },
    {
      "constant": true,
      "inputs": [
        {
          "name": "_documentHash",
          "type": "string"
        }
      ],
      "name": "getDocumentDetailsByHash",
      "outputs": [
        {
          "name": "",
          "type": "uint256"
        },
        {
          "name": "",
          "type": "string"
        },
        {
          "name": "",
          "type": "string"
        },
        {
          "name": "",
          "type": "address"
        }
      ],
      "payable": false,
      "stateMutability": "view",
      "type": "function",
      "signature": "0x2ad020e1"
    },
    {
      "constant": true,
      "inputs": [
        {
          "name": "_documentHash",
          "type": "string"
        },
        {
          "name": "_index",
          "type": "uint256"
        }
      ],
      "name": "getAuditRegistryByDocumentHash",
      "outputs": [
        {
          "name": "",
          "type": "string"
        },
        {
          "name": "",
          "type": "string"
        },
        {
          "name": "",
          "type": "uint256"
        }
      ],
      "payable": false,
      "stateMutability": "view",
      "type": "function",
      "signature": "0xc2ef00be"
    },
    {
      "constant": true,
      "inputs": [
        {
          "name": "_documentHash",
          "type": "string"
        }
      ],
      "name": "countAuditRegistriesByDocumentHash",
      "outputs": [
        {
          "name": "",
          "type": "uint256"
        }
      ],
      "payable": false,
      "stateMutability": "view",
      "type": "function",
      "signature": "0x5be19337"
    },
    {
      "constant": true,
      "inputs": [
        {
          "name": "_id",
          "type": "uint256"
        }
      ],
      "name": "getDocumentDetailsById",
      "outputs": [
        {
          "name": "",
          "type": "uint256"
        },
        {
          "name": "",
          "type": "string"
        },
        {
          "name": "",
          "type": "string"
        },
        {
          "name": "",
          "type": "address"
        }
      ],
      "payable": false,
      "stateMutability": "view",
      "type": "function",
      "signature": "0x30423791"
    },
    {
      "constant": true,
      "inputs": [
        {
          "name": "_id",
          "type": "uint256"
        },
        {
          "name": "_index",
          "type": "uint256"
        }
      ],
      "name": "getAuditRegistryByDocumentId",
      "outputs": [
        {
          "name": "",
          "type": "string"
        },
        {
          "name": "",
          "type": "string"
        },
        {
          "name": "",
          "type": "uint256"
        }
      ],
      "payable": false,
      "stateMutability": "view",
      "type": "function",
      "signature": "0x385e0210"
    },
    {
      "constant": true,
      "inputs": [
        {
          "name": "_documentHash",
          "type": "string"
        }
      ],
      "name": "getId",
      "outputs": [
        {
          "name": "",
          "type": "uint256"
        }
      ],
      "payable": false,
      "stateMutability": "view",
      "type": "function",
      "signature": "0xbee51f3b"
    },
    {
      "constant": true,
      "inputs": [
        {
          "name": "_stringInput",
          "type": "string"
        }
      ],
      "name": "stringToBytes32",
      "outputs": [
        {
          "name": "result",
          "type": "bytes32"
        }
      ],
      "payable": false,
      "stateMutability": "pure",
      "type": "function",
      "signature": "0xcfb51928"
    }
  ],
  "bytecode": "0x6080604052600060025534801561001557600080fd5b506040516020806139fa8339810180604052602081101561003557600080fd5b810190808051906020019092919050505080600960006101000a81548173ffffffffffffffffffffffffffffffffffffffff021916908373ffffffffffffffffffffffffffffffffffffffff16021790555033600160006101000a81548173ffffffffffffffffffffffffffffffffffffffff021916908373ffffffffffffffffffffffffffffffffffffffff1602179055506001600080600160009054906101000a900473ffffffffffffffffffffffffffffffffffffffff1673ffffffffffffffffffffffffffffffffffffffff1673ffffffffffffffffffffffffffffffffffffffff16815260200190815260200160002060006101000a81548160ff021916908315150217905550506138a9806101516000396000f3fe608060405260043610610175576000357c0100000000000000000000000000000000000000000000000000000000900463ffffffff168063177d2a741461017a5780631828983a146101cb5780632ad020e114610234578063304237911461041b578063385e02101461057557806339f7b69d146106a65780633e36da481461080f578063435b022f1461083e5780635be193371461088d5780636e8cc87f1461096957806371f94e8314610a9a5780637320a28714610b4e5780637ddfc7d414610b655780638a701ed114610c0b578063a362390a14610c86578063a4e2d63414610cdd578063a69df4b514610d0c578063ad0eafec14610d23578063bba9a35214610d92578063bee51f3b14610de3578063c1292cc314610ebf578063c2ef00be14610eea578063c85eb047146110a8578063ce606ee01461115c578063cfb51928146111b3578063def63c051461128f578063f3c6d71a14611485578063f83d08ba146114d6578063feab0777146114ed575b600080fd5b34801561018657600080fd5b506101c96004803603602081101561019d57600080fd5b81019080803573ffffffffffffffffffffffffffffffffffffffff169060200190929190505050611504565b005b3480156101d757600080fd5b5061021a600480360360208110156101ee57600080fd5b81019080803573ffffffffffffffffffffffffffffffffffffffff169060200190929190505050611834565b604051808215151515815260200191505060405180910390f35b34801561024057600080fd5b506102fa6004803603602081101561025757600080fd5b810190808035906020019064010000000081111561027457600080fd5b82018360208201111561028657600080fd5b803590602001918460018302840111640100000000831117156102a857600080fd5b91908080601f016020809104026020016040519081016040528093929190818152602001838380828437600081840152601f19601f820116905080830192505050505050509192919290505050611854565b6040518085815260200180602001806020018473ffffffffffffffffffffffffffffffffffffffff1673ffffffffffffffffffffffffffffffffffffffff168152602001838103835286818151815260200191508051906020019080838360005b8381101561037657808201518184015260208101905061035b565b50505050905090810190601f1680156103a35780820380516001836020036101000a031916815260200191505b50838103825285818151815260200191508051906020019080838360005b838110156103dc5780820151818401526020810190506103c1565b50505050905090810190601f1680156104095780820380516001836020036101000a031916815260200191505b50965050505050505060405180910390f35b34801561042757600080fd5b506104546004803603602081101561043e57600080fd5b810190808035906020019092919050505061195c565b6040518085815260200180602001806020018473ffffffffffffffffffffffffffffffffffffffff1673ffffffffffffffffffffffffffffffffffffffff168152602001838103835286818151815260200191508051906020019080838360005b838110156104d05780820151818401526020810190506104b5565b50505050905090810190601f1680156104fd5780820380516001836020036101000a031916815260200191505b50838103825285818151815260200191508051906020019080838360005b8381101561053657808201518184015260208101905061051b565b50505050905090810190601f1680156105635780820380516001836020036101000a031916815260200191505b50965050505050505060405180910390f35b34801561058157600080fd5b506105b86004803603604081101561059857600080fd5b810190808035906020019092919080359060200190929190505050611b05565b604051808060200180602001848152602001838103835286818151815260200191508051906020019080838360005b838110156106025780820151818401526020810190506105e7565b50505050905090810190601f16801561062f5780820380516001836020036101000a031916815260200191505b50838103825285818151815260200191508051906020019080838360005b8381101561066857808201518184015260208101905061064d565b50505050905090810190601f1680156106955780820380516001836020036101000a031916815260200191505b509550505050505060405180910390f35b3480156106b257600080fd5b5061080d600480360360608110156106c957600080fd5b8101908080359060200190929190803590602001906401000000008111156106f057600080fd5b82018360208201111561070257600080fd5b8035906020019184600183028401116401000000008311171561072457600080fd5b91908080601f016020809104026020016040519081016040528093929190818152602001838380828437600081840152601f19601f8201169050808301925050505050505091929192908035906020019064010000000081111561078757600080fd5b82018360208201111561079957600080fd5b803590602001918460018302840111640100000000831117156107bb57600080fd5b91908080601f016020809104026020016040519081016040528093929190818152602001838380828437600081840152601f19601f820116905080830192505050505050509192919290505050611ce3565b005b34801561081b57600080fd5b50610824611fb2565b604051808215151515815260200191505060405180910390f35b34801561084a57600080fd5b506108776004803603602081101561086157600080fd5b8101908080359060200190929190505050611fc5565b6040518082815260200191505060405180910390f35b34801561089957600080fd5b50610953600480360360208110156108b057600080fd5b81019080803590602001906401000000008111156108cd57600080fd5b8201836020820111156108df57600080fd5b8035906020019184600183028401116401000000008311171561090157600080fd5b91908080601f016020809104026020016040519081016040528093929190818152602001838380828437600081840152601f19601f820116905080830192505050505050509192919290505050611fdd565b6040518082815260200191505060405180910390f35b34801561097557600080fd5b506109ac6004803603604081101561098c57600080fd5b81019080803590602001909291908035906020019092919050505061200a565b604051808060200180602001848152602001838103835286818151815260200191508051906020019080838360005b838110156109f65780820151818401526020810190506109db565b50505050905090810190601f168015610a235780820380516001836020036101000a031916815260200191505b50838103825285818151815260200191508051906020019080838360005b83811015610a5c578082015181840152602081019050610a41565b50505050905090810190601f168015610a895780820380516001836020036101000a031916815260200191505b509550505050505060405180910390f35b348015610aa657600080fd5b50610ad360048036036020811015610abd57600080fd5b8101908080359060200190929190505050612180565b6040518080602001828103825283818151815260200191508051906020019080838360005b83811015610b13578082015181840152602081019050610af8565b50505050905090810190601f168015610b405780820380516001836020036101000a031916815260200191505b509250505060405180910390f35b348015610b5a57600080fd5b50610b63612230565b005b348015610b7157600080fd5b50610bb460048036036020811015610b8857600080fd5b81019080803573ffffffffffffffffffffffffffffffffffffffff169060200190929190505050612528565b6040518080602001828103825283818151815260200191508051906020019060200280838360005b83811015610bf7578082015181840152602081019050610bdc565b505050509050019250505060405180910390f35b348015610c1757600080fd5b50610c4460048036036020811015610c2e57600080fd5b81019080803590602001909291905050506125bf565b604051808273ffffffffffffffffffffffffffffffffffffffff1673ffffffffffffffffffffffffffffffffffffffff16815260200191505060405180910390f35b348015610c9257600080fd5b50610c9b6125f2565b604051808273ffffffffffffffffffffffffffffffffffffffff1673ffffffffffffffffffffffffffffffffffffffff16815260200191505060405180910390f35b348015610ce957600080fd5b50610cf2612618565b604051808215151515815260200191505060405180910390f35b348015610d1857600080fd5b50610d2161262b565b005b348015610d2f57600080fd5b50610d7c60048036036040811015610d4657600080fd5b81019080803573ffffffffffffffffffffffffffffffffffffffff16906020019092919080359060200190929190505050612923565b6040518082815260200191505060405180910390f35b348015610d9e57600080fd5b50610de160048036036020811015610db557600080fd5b81019080803573ffffffffffffffffffffffffffffffffffffffff169060200190929190505050612953565b005b348015610def57600080fd5b50610ea960048036036020811015610e0657600080fd5b8101908080359060200190640100000000811115610e2357600080fd5b820183602082011115610e3557600080fd5b80359060200191846001830284011164010000000083111715610e5757600080fd5b91908080601f016020809104026020016040519081016040528093929190818152602001838380828437600081840152601f19601f820116905080830192505050505050509192919290505050612aa8565b6040518082815260200191505060405180910390f35b348015610ecb57600080fd5b50610ed4612ad2565b6040518082815260200191505060405180910390f35b348015610ef657600080fd5b50610fba60048036036040811015610f0d57600080fd5b8101908080359060200190640100000000811115610f2a57600080fd5b820183602082011115610f3c57600080fd5b80359060200191846001830284011164010000000083111715610f5e57600080fd5b91908080601f016020809104026020016040519081016040528093929190818152602001838380828437600081840152601f19601f82011690508083019250505050505050919291929080359060200190929190505050612ad8565b604051808060200180602001848152602001838103835286818151815260200191508051906020019080838360005b83811015611004578082015181840152602081019050610fe9565b50505050905090810190601f1680156110315780820380516001836020036101000a031916815260200191505b50838103825285818151815260200191508051906020019080838360005b8381101561106a57808201518184015260208101905061104f565b50505050905090810190601f1680156110975780820380516001836020036101000a031916815260200191505b509550505050505060405180910390f35b3480156110b457600080fd5b506110e1600480360360208110156110cb57600080fd5b8101908080359060200190929190505050612b01565b6040518080602001828103825283818151815260200191508051906020019080838360005b83811015611121578082015181840152602081019050611106565b50505050905090810190601f16801561114e5780820380516001836020036101000a031916815260200191505b509250505060405180910390f35b34801561116857600080fd5b50611171612bb1565b604051808273ffffffffffffffffffffffffffffffffffffffff1673ffffffffffffffffffffffffffffffffffffffff16815260200191505060405180910390f35b3480156111bf57600080fd5b50611279600480360360208110156111d657600080fd5b81019080803590602001906401000000008111156111f357600080fd5b82018360208201111561120557600080fd5b8035906020019184600183028401116401000000008311171561122757600080fd5b91908080601f016020809104026020016040519081016040528093929190818152602001838380828437600081840152601f19601f820116905080830192505050505050509192919290505050612bd7565b6040518082815260200191505060405180910390f35b34801561129b57600080fd5b50611483600480360360608110156112b257600080fd5b81019080803590602001906401000000008111156112cf57600080fd5b8201836020820111156112e157600080fd5b8035906020019184600183028401116401000000008311171561130357600080fd5b91908080601f016020809104026020016040519081016040528093929190818152602001838380828437600081840152601f19601f8201169050808301925050505050505091929192908035906020019064010000000081111561136657600080fd5b82018360208201111561137857600080fd5b8035906020019184600183028401116401000000008311171561139a57600080fd5b91908080601f016020809104026020016040519081016040528093929190818152602001838380828437600081840152601f19601f820116905080830192505050505050509192919290803590602001906401000000008111156113fd57600080fd5b82018360208201111561140f57600080fd5b8035906020019184600183028401116401000000008311171561143157600080fd5b91908080601f016020809104026020016040519081016040528093929190818152602001838380828437600081840152601f19601f820116905080830192505050505050509192919290505050612c03565b005b34801561149157600080fd5b506114d4600480360360208110156114a857600080fd5b81019080803573ffffffffffffffffffffffffffffffffffffffff169060200190929190505050612f5d565b005b3480156114e257600080fd5b506114eb61328d565b005b3480156114f957600080fd5b50611502613585565b005b600160009054906101000a900473ffffffffffffffffffffffffffffffffffffffff1673ffffffffffffffffffffffffffffffffffffffff163373ffffffffffffffffffffffffffffffffffffffff16141515611615576040517f08c379a00000000000000000000000000000000000000000000000000000000081526004018080602001828103825260478152602001807f452d504f4c502d303031202d204f6e6c79207468652070726f787920636f6e7481526020017f72616374206f776e65722061646420657865637574652074686973207472616e81526020017f73616374696f6e0000000000000000000000000000000000000000000000000081525060600191505060405180910390fd5b60006060600960009054906101000a900473ffffffffffffffffffffffffffffffffffffffff1673ffffffffffffffffffffffffffffffffffffffff1683604051602401808273ffffffffffffffffffffffffffffffffffffffff1673ffffffffffffffffffffffffffffffffffffffff1681526020019150506040516020818303038152906040527f177d2a74000000000000000000000000000000000000000000000000000000007bffffffffffffffffffffffffffffffffffffffffffffffffffffffff19166020820180517bffffffffffffffffffffffffffffffffffffffffffffffffffffffff83818316178352505050506040518082805190602001908083835b602083101515611741578051825260208201915060208101905060208303925061171c565b6001836020036101000a038019825116818451168082178552505050505050905001915050600060405180830381855af49150503d80600081146117a1576040519150601f19603f3d011682016040523d82523d6000602084013e6117a6565b606091505b5091509150811561182a577f1be77fb289cfaf0382d7113e77bb87b4ce9ff776ce290a27e92991246140bd7b82604051808060200183151515158152602001828103825260118152602001807f616464417574686f72697a6564557365720000000000000000000000000000008152506020019250505060405180910390a161182f565b600080fd5b505050565b60006020528060005260406000206000915054906101000a900460ff1681565b600060608060008061186586612aa8565b90508086600560008481526020019081526020016000206004600085815260200190815260200160002060009054906101000a900473ffffffffffffffffffffffffffffffffffffffff16818054600181600116156101000203166002900480601f0160208091040260200160405190810160405280929190818152602001828054600181600116156101000203166002900480156119455780601f1061191a57610100808354040283529160200191611945565b820191906000526020600020905b81548152906001019060200180831161192857829003601f168201915b505050505091509450945094509450509193509193565b600060608060008460066000878152602001908152602001600020600560008881526020019081526020016000206004600089815260200190815260200160002060009054906101000a900473ffffffffffffffffffffffffffffffffffffffff16828054600181600116156101000203166002900480601f016020809104026020016040519081016040528092919081815260200182805460018160011615610100020316600290048015611a535780601f10611a2857610100808354040283529160200191611a53565b820191906000526020600020905b815481529060010190602001808311611a3657829003601f168201915b50505050509250818054600181600116156101000203166002900480601f016020809104026020016040519081016040528092919081815260200182805460018160011615610100020316600290048015611aef5780601f10611ac457610100808354040283529160200191611aef565b820191906000526020600020905b815481529060010190602001808311611ad257829003601f168201915b5050505050915093509350935093509193509193565b60608060006008600086815260200190815260200160002084815481101515611b2a57fe5b90600052602060002090600302016000016008600087815260200190815260200160002085815481101515611b5b57fe5b90600052602060002090600302016001016008600088815260200190815260200160002086815481101515611b8c57fe5b906000526020600020906003020160020154828054600181600116156101000203166002900480601f016020809104026020016040519081016040528092919081815260200182805460018160011615610100020316600290048015611c335780601f10611c0857610100808354040283529160200191611c33565b820191906000526020600020905b815481529060010190602001808311611c1657829003601f168201915b50505050509250818054600181600116156101000203166002900480601f016020809104026020016040519081016040528092919081815260200182805460018160011615610100020316600290048015611ccf5780601f10611ca457610100808354040283529160200191611ccf565b820191906000526020600020905b815481529060010190602001808311611cb257829003601f168201915b505050505091509250925092509250925092565b60006060600960009054906101000a900473ffffffffffffffffffffffffffffffffffffffff1673ffffffffffffffffffffffffffffffffffffffff16858585604051602401808481526020018060200180602001838103835285818151815260200191508051906020019080838360005b83811015611d70578082015181840152602081019050611d55565b50505050905090810190601f168015611d9d5780820380516001836020036101000a031916815260200191505b50838103825284818151815260200191508051906020019080838360005b83811015611dd6578082015181840152602081019050611dbb565b50505050905090810190601f168015611e035780820380516001836020036101000a031916815260200191505b50955050505050506040516020818303038152906040527f39f7b69d000000000000000000000000000000000000000000000000000000007bffffffffffffffffffffffffffffffffffffffffffffffffffffffff19166020820180517bffffffffffffffffffffffffffffffffffffffffffffffffffffffff83818316178352505050506040518082805190602001908083835b602083101515611ebd5780518252602082019150602081019050602083039250611e98565b6001836020036101000a038019825116818451168082178552505050505050905001915050600060405180830381855af49150503d8060008114611f1d576040519150601f19603f3d011682016040523d82523d6000602084013e611f22565b606091505b50915091508115611fa6577f1be77fb289cfaf0382d7113e77bb87b4ce9ff776ce290a27e92991246140bd7b82604051808060200183151515158152602001828103825260138152602001807f617070656e6441756469745265676973747279000000000000000000000000008152506020019250505060405180910390a1611fab565b600080fd5b5050505050565b600160149054906101000a900460ff1681565b60036020528060005260406000206000915090505481565b600080611fe983612aa8565b90506008600082815260200190815260200160002080549050915050919050565b60086020528160005260406000208181548110151561202557fe5b906000526020600020906003020160009150915050806000018054600181600116156101000203166002900480601f0160208091040260200160405190810160405280929190818152602001828054600181600116156101000203166002900480156120d25780601f106120a7576101008083540402835291602001916120d2565b820191906000526020600020905b8154815290600101906020018083116120b557829003601f168201915b505050505090806001018054600181600116156101000203166002900480601f0160208091040260200160405190810160405280929190818152602001828054600181600116156101000203166002900480156121705780601f1061214557610100808354040283529160200191612170565b820191906000526020600020905b81548152906001019060200180831161215357829003601f168201915b5050505050908060020154905083565b60066020528060005260406000206000915090508054600181600116156101000203166002900480601f0160208091040260200160405190810160405280929190818152602001828054600181600116156101000203166002900480156122285780601f106121fd57610100808354040283529160200191612228565b820191906000526020600020905b81548152906001019060200180831161220b57829003601f168201915b505050505081565b600160009054906101000a900473ffffffffffffffffffffffffffffffffffffffff1673ffffffffffffffffffffffffffffffffffffffff163373ffffffffffffffffffffffffffffffffffffffff16141515612341576040517f08c379a00000000000000000000000000000000000000000000000000000000081526004018080602001828103825260478152602001807f452d504f4c502d303031202d204f6e6c79207468652070726f787920636f6e7481526020017f72616374206f776e65722061646420657865637574652074686973207472616e81526020017f73616374696f6e0000000000000000000000000000000000000000000000000081525060600191505060405180910390fd5b60006060600960009054906101000a900473ffffffffffffffffffffffffffffffffffffffff1673ffffffffffffffffffffffffffffffffffffffff166040516024016040516020818303038152906040527f7320a287000000000000000000000000000000000000000000000000000000007bffffffffffffffffffffffffffffffffffffffffffffffffffffffff19166020820180517bffffffffffffffffffffffffffffffffffffffffffffffffffffffff83818316178352505050506040518082805190602001908083835b6020831015156124365780518252602082019150602081019050602083039250612411565b6001836020036101000a038019825116818451168082178552505050505050905001915050600060405180830381855af49150503d8060008114612496576040519150601f19603f3d011682016040523d82523d6000602084013e61249b565b606091505b5091509150811561251f577f1be77fb289cfaf0382d7113e77bb87b4ce9ff776ce290a27e92991246140bd7b82604051808060200183151515158152602001828103825260168152602001807f636c6f7365546f417574686f72697a65645573657273000000000000000000008152506020019250505060405180910390a1612524565b600080fd5b5050565b6060600760008373ffffffffffffffffffffffffffffffffffffffff1673ffffffffffffffffffffffffffffffffffffffff1681526020019081526020016000208054806020026020016040519081016040528092919081815260200182805480156125b357602002820191906000526020600020905b81548152602001906001019080831161259f575b50505050509050919050565b60046020528060005260406000206000915054906101000a900473ffffffffffffffffffffffffffffffffffffffff1681565b600960009054906101000a900473ffffffffffffffffffffffffffffffffffffffff1681565b600160159054906101000a900460ff1681565b600160009054906101000a900473ffffffffffffffffffffffffffffffffffffffff1673ffffffffffffffffffffffffffffffffffffffff163373ffffffffffffffffffffffffffffffffffffffff1614151561273c576040517f08c379a00000000000000000000000000000000000000000000000000000000081526004018080602001828103825260478152602001807f452d504f4c502d303031202d204f6e6c79207468652070726f787920636f6e7481526020017f72616374206f776e65722061646420657865637574652074686973207472616e81526020017f73616374696f6e0000000000000000000000000000000000000000000000000081525060600191505060405180910390fd5b60006060600960009054906101000a900473ffffffffffffffffffffffffffffffffffffffff1673ffffffffffffffffffffffffffffffffffffffff1660405180807f756e6c6f636b28290000000000000000000000000000000000000000000000008152506008019050604051809103902060405160200180827bffffffffffffffffffffffffffffffffffffffffffffffffffffffff19167bffffffffffffffffffffffffffffffffffffffffffffffffffffffff191681526004019150506040516020818303038152906040526040518082805190602001908083835b602083101515612841578051825260208201915060208101905060208303925061281c565b6001836020036101000a038019825116818451168082178552505050505050905001915050600060405180830381855af49150503d80600081146128a1576040519150601f19603f3d011682016040523d82523d6000602084013e6128a6565b606091505b50915091507f1be77fb289cfaf0382d7113e77bb87b4ce9ff776ce290a27e92991246140bd7b82604051808060200183151515158152602001828103825260068152602001807f756e6c6f636b00000000000000000000000000000000000000000000000000008152506020019250505060405180910390a15050565b60076020528160005260406000208181548110151561293e57fe5b90600052602060002001600091509150505481565b600160009054906101000a900473ffffffffffffffffffffffffffffffffffffffff1673ffffffffffffffffffffffffffffffffffffffff163373ffffffffffffffffffffffffffffffffffffffff16141515612a64576040517f08c379a00000000000000000000000000000000000000000000000000000000081526004018080602001828103825260478152602001807f452d504f4c502d303031202d204f6e6c79207468652070726f787920636f6e7481526020017f72616374206f776e65722061646420657865637574652074686973207472616e81526020017f73616374696f6e0000000000000000000000000000000000000000000000000081525060600191505060405180910390fd5b80600960006101000a81548173ffffffffffffffffffffffffffffffffffffffff021916908373ffffffffffffffffffffffffffffffffffffffff16021790555050565b600080612ab483612bd7565b90506003600082815260200190815260200160002054915050919050565b60025481565b606080600080612ae786612aa8565b9050612af38186611b05565b935093509350509250925092565b60056020528060005260406000206000915090508054600181600116156101000203166002900480601f016020809104026020016040519081016040528092919081815260200182805460018160011615610100020316600290048015612ba95780601f10612b7e57610100808354040283529160200191612ba9565b820191906000526020600020905b815481529060010190602001808311612b8c57829003601f168201915b505050505081565b600160009054906101000a900473ffffffffffffffffffffffffffffffffffffffff1681565b60006060829050600081511415612bf5576000600102915050612bfe565b60208301519150505b919050565b60006060600960009054906101000a900473ffffffffffffffffffffffffffffffffffffffff1673ffffffffffffffffffffffffffffffffffffffff1685858560405160240180806020018060200180602001848103845287818151815260200191508051906020019080838360005b83811015612c8e578082015181840152602081019050612c73565b50505050905090810190601f168015612cbb5780820380516001836020036101000a031916815260200191505b50848103835286818151815260200191508051906020019080838360005b83811015612cf4578082015181840152602081019050612cd9565b50505050905090810190601f168015612d215780820380516001836020036101000a031916815260200191505b50848103825285818151815260200191508051906020019080838360005b83811015612d5a578082015181840152602081019050612d3f565b50505050905090810190601f168015612d875780820380516001836020036101000a031916815260200191505b5096505050505050506040516020818303038152906040527fdef63c05000000000000000000000000000000000000000000000000000000007bffffffffffffffffffffffffffffffffffffffffffffffffffffffff19166020820180517bffffffffffffffffffffffffffffffffffffffffffffffffffffffff83818316178352505050506040518082805190602001908083835b602083101515612e425780518252602082019150602081019050602083039250612e1d565b6001836020036101000a038019825116818451168082178552505050505050905001915050600060405180830381855af49150503d8060008114612ea2576040519150601f19603f3d011682016040523d82523d6000602084013e612ea7565b606091505b50915091508115612f51577f1be77fb289cfaf0382d7113e77bb87b4ce9ff776ce290a27e92991246140bd7b82604051808060200183151515158152602001828103825260238152602001807f63657274696679446f63756d656e744372656174696f6e57697468495046534881526020017f61736800000000000000000000000000000000000000000000000000000000008152506040019250505060405180910390a1612f56565b600080fd5b5050505050565b600160009054906101000a900473ffffffffffffffffffffffffffffffffffffffff1673ffffffffffffffffffffffffffffffffffffffff163373ffffffffffffffffffffffffffffffffffffffff1614151561306e576040517f08c379a00000000000000000000000000000000000000000000000000000000081526004018080602001828103825260478152602001807f452d504f4c502d303031202d204f6e6c79207468652070726f787920636f6e7481526020017f72616374206f776e65722061646420657865637574652074686973207472616e81526020017f73616374696f6e0000000000000000000000000000000000000000000000000081525060600191505060405180910390fd5b60006060600960009054906101000a900473ffffffffffffffffffffffffffffffffffffffff1673ffffffffffffffffffffffffffffffffffffffff1683604051602401808273ffffffffffffffffffffffffffffffffffffffff1673ffffffffffffffffffffffffffffffffffffffff1681526020019150506040516020818303038152906040527ff3c6d71a000000000000000000000000000000000000000000000000000000007bffffffffffffffffffffffffffffffffffffffffffffffffffffffff19166020820180517bffffffffffffffffffffffffffffffffffffffffffffffffffffffff83818316178352505050506040518082805190602001908083835b60208310151561319a5780518252602082019150602081019050602083039250613175565b6001836020036101000a038019825116818451168082178552505050505050905001915050600060405180830381855af49150503d80600081146131fa576040519150601f19603f3d011682016040523d82523d6000602084013e6131ff565b606091505b50915091508115613283577f1be77fb289cfaf0382d7113e77bb87b4ce9ff776ce290a27e92991246140bd7b82604051808060200183151515158152602001828103825260118152602001807f72656d6f766543726564656e7469616c730000000000000000000000000000008152506020019250505060405180910390a1613288565b600080fd5b505050565b600160009054906101000a900473ffffffffffffffffffffffffffffffffffffffff1673ffffffffffffffffffffffffffffffffffffffff163373ffffffffffffffffffffffffffffffffffffffff1614151561339e576040517f08c379a00000000000000000000000000000000000000000000000000000000081526004018080602001828103825260478152602001807f452d504f4c502d303031202d204f6e6c79207468652070726f787920636f6e7481526020017f72616374206f776e65722061646420657865637574652074686973207472616e81526020017f73616374696f6e0000000000000000000000000000000000000000000000000081525060600191505060405180910390fd5b60006060600960009054906101000a900473ffffffffffffffffffffffffffffffffffffffff1673ffffffffffffffffffffffffffffffffffffffff1660405180807f6c6f636b282900000000000000000000000000000000000000000000000000008152506006019050604051809103902060405160200180827bffffffffffffffffffffffffffffffffffffffffffffffffffffffff19167bffffffffffffffffffffffffffffffffffffffffffffffffffffffff191681526004019150506040516020818303038152906040526040518082805190602001908083835b6020831015156134a3578051825260208201915060208101905060208303925061347e565b6001836020036101000a038019825116818451168082178552505050505050905001915050600060405180830381855af49150503d8060008114613503576040519150601f19603f3d011682016040523d82523d6000602084013e613508565b606091505b50915091507f1be77fb289cfaf0382d7113e77bb87b4ce9ff776ce290a27e92991246140bd7b82604051808060200183151515158152602001828103825260048152602001807f6c6f636b000000000000000000000000000000000000000000000000000000008152506020019250505060405180910390a15050565b600160009054906101000a900473ffffffffffffffffffffffffffffffffffffffff1673ffffffffffffffffffffffffffffffffffffffff163373ffffffffffffffffffffffffffffffffffffffff16141515613696576040517f08c379a00000000000000000000000000000000000000000000000000000000081526004018080602001828103825260478152602001807f452d504f4c502d303031202d204f6e6c79207468652070726f787920636f6e7481526020017f72616374206f776e65722061646420657865637574652074686973207472616e81526020017f73616374696f6e0000000000000000000000000000000000000000000000000081525060600191505060405180910390fd5b60006060600960009054906101000a900473ffffffffffffffffffffffffffffffffffffffff1673ffffffffffffffffffffffffffffffffffffffff166040516024016040516020818303038152906040527ffeab0777000000000000000000000000000000000000000000000000000000007bffffffffffffffffffffffffffffffffffffffffffffffffffffffff19166020820180517bffffffffffffffffffffffffffffffffffffffffffffffffffffffff83818316178352505050506040518082805190602001908083835b60208310151561378b5780518252602082019150602081019050602083039250613766565b6001836020036101000a038019825116818451168082178552505050505050905001915050600060405180830381855af49150503d80600081146137eb576040519150601f19603f3d011682016040523d82523d6000602084013e6137f0565b606091505b50915091508115613874577f1be77fb289cfaf0382d7113e77bb87b4ce9ff776ce290a27e92991246140bd7b826040518080602001831515151581526020018281038252600f8152602001807f6f70656e546f45766572795573657200000000000000000000000000000000008152506020019250505060405180910390a1613879565b600080fd5b505056fea165627a7a72305820decbeadabf77c83834c0349cce41a47a64e9c3a554f2f5eb3730c40a56ce5e1c0029",
  "source": "pragma solidity ^0.5.0;\n\nimport \"./HasAuditRegistry.sol\";\n\n\n/* @title Proof of Life Proxy with delegateCall */\ncontract ProofOfLifeProxy is HasAuditRegistry {\n \n    // State variables\n    mapping(address  => bool) public authorizedUsers;\n    address public contractOwner;\n    bool public isOpenToEveryUser;\n    bool public isLocked;\n    uint256 public lastId = 0;\n    mapping(bytes32  => uint256) public idByDocumentHash;\n    mapping(uint256  => address) public ownerByDocumentId;\n    mapping(uint256  => string) public ipfsHashByDocumentId;\n    mapping(uint256  => string) public hashByDocumentId;\n    mapping(address  => uint256[]) public documentsByOwnerAddress;\n    mapping(uint256 => AuditRegistry[]) public auditRegistryByDocumentId;\n    \n    // Delegate call address \n    address public delegateCallAddress;\n    \n    // Events\n    event DelegateCallEvent (string call, bool result);\n\n    // Modifiers\n    modifier onlyContractOwner(){\n        require(msg.sender == contractOwner, \"E-POLP-001 - Only the proxy contract owner add execute this transaction\"); \n        _; \n    }\n    \n    // ------ Local functions to update proxy configuration -------\n    \n    /* @notice Proxy constructor\n    * @dev It creates a proxy instance\n    * @param _existingContractAddress - the new delegated contract address\n    */\n    constructor (address existingContractAddress) public {\n        delegateCallAddress = existingContractAddress;\n        contractOwner = msg.sender;\n        authorizedUsers[contractOwner] = true;\n    }\n\n    /* @notice Update Delegate Call Address\n    * @dev It allows the owner to update the address of the delegate contract\n    * @param _existingContractAddress - the new delegated contract address\n    */\n    function updateDelegateCallAddress(address existingContractAddress) public onlyContractOwner {\n        delegateCallAddress = existingContractAddress;\n    }\n\n\n    //  ---- Functions with delegateCall -----\n\n    /* @notice Lock contract\n    * @dev Maintenance and security circuit locker\n    */\n    function lock() public onlyContractOwner {\n        (bool success, bytes memory data)  = delegateCallAddress.delegatecall(abi.encodePacked(bytes4(keccak256(\"lock()\"))));\n        emit DelegateCallEvent(\"lock\", success);\n    }\n    \n    /* @notice Unlock contract\n    * @dev Maintenance and security circuit locker\n    */\n    function unlock() public onlyContractOwner {\n        (bool success, bytes memory data)  = delegateCallAddress.delegatecall(abi.encodePacked(bytes4(keccak256(\"unlock()\"))));\n        emit DelegateCallEvent(\"unlock\", success);\n    }\n\n    /* @notice Add authorized user\n    * @dev Includes a new user in the authorized users list\n    * @param user - the address you want to authorize\n    */\n    function addAuthorizedUser(address user) public onlyContractOwner {\n      \n        (bool success, bytes memory data)  = delegateCallAddress.delegatecall(abi.encodeWithSignature(\"addAuthorizedUser(address)\", user));\n        \n        if (success) {\n            emit DelegateCallEvent(\"addAuthorizedUser\", success);\n        } else {\n            revert();\n        }\n    }\n    \n    /* @notice Remove credentials\n    * @dev Remove credentials of an authorized user\n    * @param user - the authorized address to be removed\n    */\n    function removeCredentials(address user) public onlyContractOwner {\n        (bool success, bytes memory data)  = delegateCallAddress.delegatecall(abi.encodeWithSignature(\"removeCredentials(address)\", user));\n        \n        if (success) {\n            emit DelegateCallEvent(\"removeCredentials\", success);\n        } else {\n            revert();\n        }\n    }\n    \n    /* @notice Open to every user\n    * @dev Allows every address to certify documents in the contract\n    */\n    function openToEveryUser() public onlyContractOwner {\n        (bool success, bytes memory data)  = delegateCallAddress.delegatecall(abi.encodeWithSignature(\"openToEveryUser()\"));\n        \n        if (success) {\n            emit DelegateCallEvent(\"openToEveryUser\", success);\n        } else {\n            revert();\n        }\n    }\n    \n    /* @notice Close to authorized users\n    * @dev Only allows document certification to authorized users\n    */\n    function closeToAuthorizedUsers() public onlyContractOwner {\n        (bool success, bytes memory data)  = delegateCallAddress.delegatecall(abi.encodeWithSignature(\"closeToAuthorizedUsers()\"));\n        \n        if (success) {\n            emit DelegateCallEvent(\"closeToAuthorizedUsers\", success);\n        } else {\n            revert();\n        }\n    }\n\n    /* @notice Certify document creation with hash and timestamp\n    * @dev It registers in the blockchain the proof-of-existence of an external document\n    * @param _documentHash - Hash of the document (it should have 32 bytes)\n    * @param _ipfsHash - IPFS Hash, if it exists \n    * @return id - returns certified document id\n    */\n    function certifyDocumentCreationWithIPFSHash(string memory _documentHash, string memory _ipfsHash,\n    string memory _timestamp) public {\n       \n        (bool success, bytes memory data)  = delegateCallAddress.delegatecall(abi.encodeWithSignature(\"certifyDocumentCreationWithIPFSHash(string,string,string)\", _documentHash, _ipfsHash, _timestamp));\n        \n        if (success) {\n            emit DelegateCallEvent(\"certifyDocumentCreationWithIPFSHash\", success);\n        } else {\n            revert();\n        }\n    }\n\n     /* @notice Append Audit Registry\n    * @dev A document owner can use this function to append audit information to it\n    * @param _id - Id of the document\n    * @param _description - Content of the audit registry (status change, extra information, etc...)\n    * @param _timestamp - Local timestamp (UNIX Epoch format) from the external\n    * system or the UI which executes the contract\n    */\n    function appendAuditRegistry(uint256 _id, string memory _description, string memory _timestamp) \n    public {\n        (bool success, bytes memory data)  = delegateCallAddress.delegatecall(abi.encodeWithSignature(\"appendAuditRegistry(uint256,string,string)\", _id, _description, _timestamp));\n        \n        if (success) {\n            emit DelegateCallEvent(\"appendAuditRegistry\", success);\n        } else {\n            revert();\n        }\n    }\n    \n    // ------ Query functions to request information about the contract state -------\n    \n    /* @notice Get documents by owner\n    * @dev Retrieves a list with all the documents ids of one owner\n    * @return bytes32[] documentsByOwnerAddress\n    */\n    function getDocumentsByOwner(address owner) public view \n    returns(uint256[] memory) {\n        return documentsByOwnerAddress[owner];\n    }\n    \n     /* @notice Get Document Details\n    * @dev Retrieves all the information of a document\n    * @param _documentHash - Hash of the document\n    * @return uint256 id, string docHash, string ipfsHash, address documentOwner\n    */\n    function getDocumentDetailsByHash(string memory _documentHash) public view\n    returns (uint256, string memory, string memory, address) {\n\n        uint256 _id = getId(_documentHash);\n        return (_id, _documentHash, ipfsHashByDocumentId[_id], ownerByDocumentId[_id]);\n    }\n    \n    /* @notice Get auditRegistry by documentHash\n    * @dev Retrieves the audit registry of a document\n    * @param _documentHash - Hash of the document\n    * @param _index - Position of the auditRegistry in the list\n    * @return string description, string timestamp, uint256 blockTimestamp\n    */\n    function getAuditRegistryByDocumentHash(string memory _documentHash, uint256 _index) public view\n    returns (string memory, string memory, uint256) {\n        uint256 _id = getId(_documentHash);\n        return getAuditRegistryByDocumentId(_id, _index);\n    }\n      \n    /* @notice CountAuditRegistries by hash\n    * @dev Count the number of audit registries of a document\n    * @param _documentHash - Hash of the document\n    * @return uint256 number of elements\n    */\n    function countAuditRegistriesByDocumentHash(string memory _documentHash) public view returns(uint256) {\n        uint256 _id = getId(_documentHash);\n        return auditRegistryByDocumentId[_id].length;\n    }\n  \n    /* @notice Get Document Details\n    * @dev Retrieves all the information of a document\n    * @param _id - Id of the document\n    * @return uint256 id, string docHash, address documentOwner\n    */\n    function getDocumentDetailsById(uint256 _id) public view\n    returns (uint256, string memory, string memory, address) {\n        return (_id, hashByDocumentId[_id], ipfsHashByDocumentId[_id], ownerByDocumentId[_id]);\n    }\n         \n    /* @notice Get auditRegistry by documentId\n    * @dev Retrieves the audit registry of a document\n    * @param _id - Id of the document\n    * @param _index - Position of the auditRegistry in the list\n    * @return string description, string timestamp, uint256 blockTimestamp\n    */\n    function getAuditRegistryByDocumentId(uint256 _id, uint256 _index) public view\n    returns (string memory, string memory, uint256) {\n        return (auditRegistryByDocumentId[_id][_index].description,\n        auditRegistryByDocumentId[_id][_index].timestamp, auditRegistryByDocumentId[_id][_index].blockTimestamp);\n    }\n    \n    /* @notice Get document id from hash\n    * @dev Retrieves a document id from a string with the hash\n    * @param _documentHash - Hash of the document\n    * @return uint256\n    */\n    function getId(string memory _documentHash) public view \n    returns(uint256) { \n              \n        bytes32 _docHash = stringToBytes32(_documentHash);\n        return idByDocumentHash[_docHash];\n    }\n      \n    \n    //  ------ Aux Functions  ------ \n        \n    /* @notice StringToBytes32 (based on Grzegorz Kapkowski's method)\n    * @ref https://ethereum.stackexchange.com/questions/9142/how-to-convert-a-string-to-bytes32\n    * @dev Transforms a string in bytes32\n    * @param _documentHash - Hash of the document\n    * @return bytes32\n    */\n    function stringToBytes32(string memory _stringInput) public pure returns (bytes32 result) {\n        bytes memory tempEmptyStringTest = bytes(_stringInput);\n        if (tempEmptyStringTest.length == 0) {\n            return 0x0;\n        }\n    \n        assembly {\n            result := mload(add(_stringInput, 32))\n        }\n    }\n      \n}",
  "sourcePath": "/Users/xmunch/Desktop/Projects/Ethereum Projects/docuten-blockchain-proof/contracts/ProofOfLifeProxy.sol",
  "compiler": {
    "name": "solc",
    "version": "0.5.0+commit.1d4f565a.Emscripten.clang"
  },
  "schemaVersion": "3.0.0",
  "updatedAt": "2019-01-18T09:22:36.157Z",
  "devdoc": {
    "methods": {}
  },
  "userdoc": {
    "methods": {}
  }
}