{
  "contractName": "ProofOfLife",
  "abi": [
    {
      "constant": false,
      "inputs": [
        {
          "name": "user",
          "type": "address"
        }
      ],
      "name": "addAuthorizedUser",
      "outputs": [],
      "payable": false,
      "stateMutability": "nonpayable",
      "type": "function",
      "signature": "0x177d2a74"
    },
    {
      "constant": true,
      "inputs": [
        {
          "name": "",
          "type": "address"
        }
      ],
      "name": "authorizedUsers",
      "outputs": [
        {
          "name": "",
          "type": "bool"
        }
      ],
      "payable": false,
      "stateMutability": "view",
      "type": "function",
      "signature": "0x1828983a"
    },
    {
      "constant": false,
      "inputs": [
        {
          "name": "_documentHash",
          "type": "string"
        },
        {
          "name": "_ipfsHash",
          "type": "string"
        }
      ],
      "name": "certifyDocument",
      "outputs": [
        {
          "name": "",
          "type": "uint256"
        }
      ],
      "payable": false,
      "stateMutability": "nonpayable",
      "type": "function",
      "signature": "0x2657caaf"
    },
    {
      "constant": true,
      "inputs": [
        {
          "name": "_documentHash",
          "type": "string"
        }
      ],
      "name": "getDocumentDetailsByHash",
      "outputs": [
        {
          "name": "",
          "type": "uint256"
        },
        {
          "name": "",
          "type": "string"
        },
        {
          "name": "",
          "type": "string"
        },
        {
          "name": "",
          "type": "address"
        }
      ],
      "payable": false,
      "stateMutability": "view",
      "type": "function",
      "signature": "0x2ad020e1"
    },
    {
      "constant": true,
      "inputs": [
        {
          "name": "_id",
          "type": "uint256"
        }
      ],
      "name": "getDocumentDetailsById",
      "outputs": [
        {
          "name": "",
          "type": "uint256"
        },
        {
          "name": "",
          "type": "string"
        },
        {
          "name": "",
          "type": "string"
        },
        {
          "name": "",
          "type": "address"
        }
      ],
      "payable": false,
      "stateMutability": "view",
      "type": "function",
      "signature": "0x30423791"
    },
    {
      "constant": true,
      "inputs": [],
      "name": "isOpenToEveryUser",
      "outputs": [
        {
          "name": "",
          "type": "bool"
        }
      ],
      "payable": false,
      "stateMutability": "view",
      "type": "function",
      "signature": "0x3e36da48"
    },
    {
      "constant": true,
      "inputs": [
        {
          "name": "",
          "type": "bytes32"
        }
      ],
      "name": "idByDocumentHash",
      "outputs": [
        {
          "name": "",
          "type": "uint256"
        }
      ],
      "payable": false,
      "stateMutability": "view",
      "type": "function",
      "signature": "0x435b022f"
    },
    {
      "constant": true,
      "inputs": [
        {
          "name": "",
          "type": "uint256"
        },
        {
          "name": "",
          "type": "uint256"
        }
      ],
      "name": "auditRegistryByDocumentId",
      "outputs": [
        {
          "name": "description",
          "type": "string"
        },
        {
          "name": "timestamp",
          "type": "string"
        },
        {
          "name": "blockTimestamp",
          "type": "uint256"
        }
      ],
      "payable": false,
      "stateMutability": "view",
      "type": "function",
      "signature": "0x6e8cc87f"
    },
    {
      "constant": false,
      "inputs": [],
      "name": "closeToAuthorizedUsers",
      "outputs": [],
      "payable": false,
      "stateMutability": "nonpayable",
      "type": "function",
      "signature": "0x7320a287"
    },
    {
      "constant": true,
      "inputs": [
        {
          "name": "owner",
          "type": "address"
        }
      ],
      "name": "getDocumentsByOwner",
      "outputs": [
        {
          "name": "",
          "type": "uint256[]"
        }
      ],
      "payable": false,
      "stateMutability": "view",
      "type": "function",
      "signature": "0x7ddfc7d4"
    },
    {
      "constant": true,
      "inputs": [
        {
          "name": "",
          "type": "uint256"
        }
      ],
      "name": "ownerByDocumentId",
      "outputs": [
        {
          "name": "",
          "type": "address"
        }
      ],
      "payable": false,
      "stateMutability": "view",
      "type": "function",
      "signature": "0x8a701ed1"
    },
    {
      "constant": true,
      "inputs": [],
      "name": "isLocked",
      "outputs": [
        {
          "name": "",
          "type": "bool"
        }
      ],
      "payable": false,
      "stateMutability": "view",
      "type": "function",
      "signature": "0xa4e2d634"
    },
    {
      "constant": false,
      "inputs": [],
      "name": "unlock",
      "outputs": [],
      "payable": false,
      "stateMutability": "nonpayable",
      "type": "function",
      "signature": "0xa69df4b5"
    },
    {
      "constant": true,
      "inputs": [
        {
          "name": "_documentHash",
          "type": "string"
        }
      ],
      "name": "getId",
      "outputs": [
        {
          "name": "",
          "type": "uint256"
        }
      ],
      "payable": false,
      "stateMutability": "view",
      "type": "function",
      "signature": "0xbee51f3b"
    },
    {
      "constant": true,
      "inputs": [],
      "name": "contractOwner",
      "outputs": [
        {
          "name": "",
          "type": "address"
        }
      ],
      "payable": false,
      "stateMutability": "view",
      "type": "function",
      "signature": "0xce606ee0"
    },
    {
      "constant": true,
      "inputs": [
        {
          "name": "_stringInput",
          "type": "string"
        }
      ],
      "name": "stringToBytes32",
      "outputs": [
        {
          "name": "result",
          "type": "bytes32"
        }
      ],
      "payable": false,
      "stateMutability": "pure",
      "type": "function",
      "signature": "0xcfb51928"
    },
    {
      "constant": false,
      "inputs": [
        {
          "name": "_documentHash",
          "type": "string"
        }
      ],
      "name": "certifyDocument",
      "outputs": [
        {
          "name": "",
          "type": "uint256"
        }
      ],
      "payable": false,
      "stateMutability": "nonpayable",
      "type": "function",
      "signature": "0xdb9dd762"
    },
    {
      "constant": false,
      "inputs": [
        {
          "name": "user",
          "type": "address"
        }
      ],
      "name": "removeCredentials",
      "outputs": [],
      "payable": false,
      "stateMutability": "nonpayable",
      "type": "function",
      "signature": "0xf3c6d71a"
    },
    {
      "constant": false,
      "inputs": [],
      "name": "lock",
      "outputs": [],
      "payable": false,
      "stateMutability": "nonpayable",
      "type": "function",
      "signature": "0xf83d08ba"
    },
    {
      "constant": false,
      "inputs": [],
      "name": "openToEveryUser",
      "outputs": [],
      "payable": false,
      "stateMutability": "nonpayable",
      "type": "function",
      "signature": "0xfeab0777"
    },
    {
      "payable": false,
      "stateMutability": "nonpayable",
      "type": "fallback"
    },
    {
      "anonymous": false,
      "inputs": [
        {
          "indexed": false,
          "name": "id",
          "type": "uint256"
        },
        {
          "indexed": false,
          "name": "description",
          "type": "string"
        },
        {
          "indexed": false,
          "name": "timestamp",
          "type": "string"
        },
        {
          "indexed": false,
          "name": "blockTimestamp",
          "type": "uint256"
        }
      ],
      "name": "DocumentCreation",
      "type": "event",
      "signature": "0xfdcfed0cfff2a60f310626a01c493f3fafef4fe7410c8d634d22ef8db8b6740b"
    },
    {
      "anonymous": false,
      "inputs": [
        {
          "indexed": false,
          "name": "id",
          "type": "uint256"
        },
        {
          "indexed": false,
          "name": "description",
          "type": "string"
        },
        {
          "indexed": false,
          "name": "timestamp",
          "type": "string"
        },
        {
          "indexed": false,
          "name": "blockTimestamp",
          "type": "uint256"
        }
      ],
      "name": "NewAuditRegistry",
      "type": "event",
      "signature": "0x4de4d5b2e05cf7d3139a39b8a6dd01e1fd84ef8e17d821560779dce59186023c"
    },
    {
      "anonymous": false,
      "inputs": [],
      "name": "ContractLocked",
      "type": "event",
      "signature": "0x6f5ffb7e2a6656882126927a79e460ca27ab657927d593522b90dc28229f7dbc"
    },
    {
      "anonymous": false,
      "inputs": [],
      "name": "ContractUnlocked",
      "type": "event",
      "signature": "0x3e5f4fd66bc9f59f15a9304dbc6394e240a57a1b4eb7ca42a75c5d9b298da455"
    },
    {
      "anonymous": false,
      "inputs": [
        {
          "indexed": false,
          "name": "user",
          "type": "address"
        }
      ],
      "name": "AuthorizedUserAdded",
      "type": "event",
      "signature": "0x7e07c71a6d7714652e08d641a843dff01e823c8eeed08945be844015fe335393"
    },
    {
      "anonymous": false,
      "inputs": [
        {
          "indexed": false,
          "name": "user",
          "type": "address"
        }
      ],
      "name": "CredentialsRemoved",
      "type": "event",
      "signature": "0xbebbb6faf74eef3594a83912d2f77145b62aacc4520832f587e2130cdcbf08f0"
    },
    {
      "constant": false,
      "inputs": [
        {
          "name": "_documentHash",
          "type": "string"
        },
        {
          "name": "_ipfsHash",
          "type": "string"
        },
        {
          "name": "_timestamp",
          "type": "string"
        }
      ],
      "name": "certifyDocumentCreationWithIPFSHash",
      "outputs": [
        {
          "name": "",
          "type": "uint256"
        }
      ],
      "payable": false,
      "stateMutability": "nonpayable",
      "type": "function",
      "signature": "0xdef63c05"
    },
    {
      "constant": false,
      "inputs": [
        {
          "name": "_documentHash",
          "type": "string"
        },
        {
          "name": "_ipfsHash",
          "type": "string"
        },
        {
          "name": "_timestamp",
          "type": "string"
        }
      ],
      "name": "certifyDocumentCreation",
      "outputs": [
        {
          "name": "",
          "type": "uint256"
        }
      ],
      "payable": false,
      "stateMutability": "nonpayable",
      "type": "function",
      "signature": "0x05ce5c03"
    },
    {
      "constant": false,
      "inputs": [
        {
          "name": "_documentHash",
          "type": "string"
        },
        {
          "name": "_timestamp",
          "type": "string"
        }
      ],
      "name": "certifyDocumentCreation",
      "outputs": [
        {
          "name": "",
          "type": "uint256"
        }
      ],
      "payable": false,
      "stateMutability": "nonpayable",
      "type": "function",
      "signature": "0x2a23f99b"
    },
    {
      "constant": false,
      "inputs": [
        {
          "name": "_id",
          "type": "uint256"
        },
        {
          "name": "_description",
          "type": "string"
        },
        {
          "name": "_timestamp",
          "type": "string"
        }
      ],
      "name": "appendAuditRegistry",
      "outputs": [],
      "payable": false,
      "stateMutability": "nonpayable",
      "type": "function",
      "signature": "0x39f7b69d"
    },
    {
      "constant": true,
      "inputs": [
        {
          "name": "_documentHash",
          "type": "string"
        },
        {
          "name": "_index",
          "type": "uint256"
        }
      ],
      "name": "getAuditRegistryByDocumentHash",
      "outputs": [
        {
          "name": "",
          "type": "string"
        },
        {
          "name": "",
          "type": "string"
        },
        {
          "name": "",
          "type": "uint256"
        }
      ],
      "payable": false,
      "stateMutability": "view",
      "type": "function",
      "signature": "0xc2ef00be"
    },
    {
      "constant": true,
      "inputs": [
        {
          "name": "_id",
          "type": "uint256"
        },
        {
          "name": "_index",
          "type": "uint256"
        }
      ],
      "name": "getAuditRegistryByDocumentId",
      "outputs": [
        {
          "name": "",
          "type": "string"
        },
        {
          "name": "",
          "type": "string"
        },
        {
          "name": "",
          "type": "uint256"
        }
      ],
      "payable": false,
      "stateMutability": "view",
      "type": "function",
      "signature": "0x385e0210"
    },
    {
      "constant": true,
      "inputs": [
        {
          "name": "_documentHash",
          "type": "string"
        }
      ],
      "name": "countAuditRegistriesByDocumentHash",
      "outputs": [
        {
          "name": "",
          "type": "uint256"
        }
      ],
      "payable": false,
      "stateMutability": "view",
      "type": "function",
      "signature": "0x5be19337"
    },
    {
      "constant": true,
      "inputs": [
        {
          "name": "_id",
          "type": "uint256"
        }
      ],
      "name": "countAuditRegistriesByDocumentId",
      "outputs": [
        {
          "name": "",
          "type": "uint256"
        }
      ],
      "payable": false,
      "stateMutability": "view",
      "type": "function",
      "signature": "0x9e3caca7"
    }
  ],
  "bytecode": "0x6080604052600060025533600160006101000a81548173ffffffffffffffffffffffffffffffffffffffff021916908373ffffffffffffffffffffffffffffffffffffffff1602179055506001600080600160009054906101000a900473ffffffffffffffffffffffffffffffffffffffff1673ffffffffffffffffffffffffffffffffffffffff1673ffffffffffffffffffffffffffffffffffffffff16815260200190815260200160002060006101000a81548160ff0219169083151502179055506144f5806100d26000396000f3fe60806040526004361061016a576000357c0100000000000000000000000000000000000000000000000000000000900463ffffffff16806305ce5c031461017c578063177d2a74146103865780631828983a146103d75780632657caaf146104405780632a23f99b146105b35780632ad020e114610726578063304237911461090d578063385e021014610a6757806339f7b69d14610b985780633e36da4814610d01578063435b022f14610d305780635be1933714610d7f5780636e8cc87f14610e5b5780637320a28714610f8c5780637ddfc7d414610fa35780638a701ed1146110495780639e3caca7146110c4578063a4e2d63414611113578063a69df4b514611142578063bee51f3b14611159578063c2ef00be14611235578063ce606ee0146113f3578063cfb519281461144a578063db9dd76214611526578063def63c0514611602578063f3c6d71a1461180c578063f83d08ba1461185d578063feab077714611874575b34801561017657600080fd5b50600080fd5b34801561018857600080fd5b506103706004803603606081101561019f57600080fd5b81019080803590602001906401000000008111156101bc57600080fd5b8201836020820111156101ce57600080fd5b803590602001918460018302840111640100000000831117156101f057600080fd5b91908080601f016020809104026020016040519081016040528093929190818152602001838380828437600081840152601f19601f8201169050808301925050505050505091929192908035906020019064010000000081111561025357600080fd5b82018360208201111561026557600080fd5b8035906020019184600183028401116401000000008311171561028757600080fd5b91908080601f016020809104026020016040519081016040528093929190818152602001838380828437600081840152601f19601f820116905080830192505050505050509192919290803590602001906401000000008111156102ea57600080fd5b8201836020820111156102fc57600080fd5b8035906020019184600183028401116401000000008311171561031e57600080fd5b91908080601f016020809104026020016040519081016040528093929190818152602001838380828437600081840152601f19601f82011690508083019250505050505050919291929050505061188b565b6040518082815260200191505060405180910390f35b34801561039257600080fd5b506103d5600480360360208110156103a957600080fd5b81019080803573ffffffffffffffffffffffffffffffffffffffff169060200190929190505050611ca1565b005b3480156103e357600080fd5b50610426600480360360208110156103fa57600080fd5b81019080803573ffffffffffffffffffffffffffffffffffffffff169060200190929190505050611f40565b604051808215151515815260200191505060405180910390f35b34801561044c57600080fd5b5061059d6004803603604081101561046357600080fd5b810190808035906020019064010000000081111561048057600080fd5b82018360208201111561049257600080fd5b803590602001918460018302840111640100000000831117156104b457600080fd5b91908080601f016020809104026020016040519081016040528093929190818152602001838380828437600081840152601f19601f8201169050808301925050505050505091929192908035906020019064010000000081111561051757600080fd5b82018360208201111561052957600080fd5b8035906020019184600183028401116401000000008311171561054b57600080fd5b91908080601f016020809104026020016040519081016040528093929190818152602001838380828437600081840152601f19601f820116905080830192505050505050509192919290505050611f60565b6040518082815260200191505060405180910390f35b3480156105bf57600080fd5b50610710600480360360408110156105d657600080fd5b81019080803590602001906401000000008111156105f357600080fd5b82018360208201111561060557600080fd5b8035906020019184600183028401116401000000008311171561062757600080fd5b91908080601f016020809104026020016040519081016040528093929190818152602001838380828437600081840152601f19601f8201169050808301925050505050505091929192908035906020019064010000000081111561068a57600080fd5b82018360208201111561069c57600080fd5b803590602001918460018302840111640100000000831117156106be57600080fd5b91908080601f016020809104026020016040519081016040528093929190818152602001838380828437600081840152601f19601f82011690508083019250505050505050919291929050505061235b565b6040518082815260200191505060405180910390f35b34801561073257600080fd5b506107ec6004803603602081101561074957600080fd5b810190808035906020019064010000000081111561076657600080fd5b82018360208201111561077857600080fd5b8035906020019184600183028401116401000000008311171561079a57600080fd5b91908080601f016020809104026020016040519081016040528093929190818152602001838380828437600081840152601f19601f820116905080830192505050505050509192919290505050612574565b6040518085815260200180602001806020018473ffffffffffffffffffffffffffffffffffffffff1673ffffffffffffffffffffffffffffffffffffffff168152602001838103835286818151815260200191508051906020019080838360005b8381101561086857808201518184015260208101905061084d565b50505050905090810190601f1680156108955780820380516001836020036101000a031916815260200191505b50838103825285818151815260200191508051906020019080838360005b838110156108ce5780820151818401526020810190506108b3565b50505050905090810190601f1680156108fb5780820380516001836020036101000a031916815260200191505b50965050505050505060405180910390f35b34801561091957600080fd5b506109466004803603602081101561093057600080fd5b810190808035906020019092919050505061267c565b6040518085815260200180602001806020018473ffffffffffffffffffffffffffffffffffffffff1673ffffffffffffffffffffffffffffffffffffffff168152602001838103835286818151815260200191508051906020019080838360005b838110156109c25780820151818401526020810190506109a7565b50505050905090810190601f1680156109ef5780820380516001836020036101000a031916815260200191505b50838103825285818151815260200191508051906020019080838360005b83811015610a28578082015181840152602081019050610a0d565b50505050905090810190601f168015610a555780820380516001836020036101000a031916815260200191505b50965050505050505060405180910390f35b348015610a7357600080fd5b50610aaa60048036036040811015610a8a57600080fd5b810190808035906020019092919080359060200190929190505050612825565b604051808060200180602001848152602001838103835286818151815260200191508051906020019080838360005b83811015610af4578082015181840152602081019050610ad9565b50505050905090810190601f168015610b215780820380516001836020036101000a031916815260200191505b50838103825285818151815260200191508051906020019080838360005b83811015610b5a578082015181840152602081019050610b3f565b50505050905090810190601f168015610b875780820380516001836020036101000a031916815260200191505b509550505050505060405180910390f35b348015610ba457600080fd5b50610cff60048036036060811015610bbb57600080fd5b810190808035906020019092919080359060200190640100000000811115610be257600080fd5b820183602082011115610bf457600080fd5b80359060200191846001830284011164010000000083111715610c1657600080fd5b91908080601f016020809104026020016040519081016040528093929190818152602001838380828437600081840152601f19601f82011690508083019250505050505050919291929080359060200190640100000000811115610c7957600080fd5b820183602082011115610c8b57600080fd5b80359060200191846001830284011164010000000083111715610cad57600080fd5b91908080601f016020809104026020016040519081016040528093929190818152602001838380828437600081840152601f19601f820116905080830192505050505050509192919290505050612a03565b005b348015610d0d57600080fd5b50610d16612fb5565b604051808215151515815260200191505060405180910390f35b348015610d3c57600080fd5b50610d6960048036036020811015610d5357600080fd5b8101908080359060200190929190505050612fc8565b6040518082815260200191505060405180910390f35b348015610d8b57600080fd5b50610e4560048036036020811015610da257600080fd5b8101908080359060200190640100000000811115610dbf57600080fd5b820183602082011115610dd157600080fd5b80359060200191846001830284011164010000000083111715610df357600080fd5b91908080601f016020809104026020016040519081016040528093929190818152602001838380828437600081840152601f19601f820116905080830192505050505050509192919290505050612fe0565b6040518082815260200191505060405180910390f35b348015610e6757600080fd5b50610e9e60048036036040811015610e7e57600080fd5b81019080803590602001909291908035906020019092919050505061300d565b604051808060200180602001848152602001838103835286818151815260200191508051906020019080838360005b83811015610ee8578082015181840152602081019050610ecd565b50505050905090810190601f168015610f155780820380516001836020036101000a031916815260200191505b50838103825285818151815260200191508051906020019080838360005b83811015610f4e578082015181840152602081019050610f33565b50505050905090810190601f168015610f7b5780820380516001836020036101000a031916815260200191505b509550505050505060405180910390f35b348015610f9857600080fd5b50610fa1613183565b005b348015610faf57600080fd5b50610ff260048036036020811015610fc657600080fd5b81019080803573ffffffffffffffffffffffffffffffffffffffff169060200190929190505050613452565b6040518080602001828103825283818151815260200191508051906020019060200280838360005b8381101561103557808201518184015260208101905061101a565b505050509050019250505060405180910390f35b34801561105557600080fd5b506110826004803603602081101561106c57600080fd5b81019080803590602001909291905050506134e9565b604051808273ffffffffffffffffffffffffffffffffffffffff1673ffffffffffffffffffffffffffffffffffffffff16815260200191505060405180910390f35b3480156110d057600080fd5b506110fd600480360360208110156110e757600080fd5b810190808035906020019092919050505061351c565b6040518082815260200191505060405180910390f35b34801561111f57600080fd5b5061112861353c565b604051808215151515815260200191505060405180910390f35b34801561114e57600080fd5b5061115761354f565b005b34801561116557600080fd5b5061121f6004803603602081101561117c57600080fd5b810190808035906020019064010000000081111561119957600080fd5b8201836020820111156111ab57600080fd5b803590602001918460018302840111640100000000831117156111cd57600080fd5b91908080601f016020809104026020016040519081016040528093929190818152602001838380828437600081840152601f19601f82011690508083019250505050505050919291929050505061372d565b6040518082815260200191505060405180910390f35b34801561124157600080fd5b506113056004803603604081101561125857600080fd5b810190808035906020019064010000000081111561127557600080fd5b82018360208201111561128757600080fd5b803590602001918460018302840111640100000000831117156112a957600080fd5b91908080601f016020809104026020016040519081016040528093929190818152602001838380828437600081840152601f19601f82011690508083019250505050505050919291929080359060200190929190505050613757565b604051808060200180602001848152602001838103835286818151815260200191508051906020019080838360005b8381101561134f578082015181840152602081019050611334565b50505050905090810190601f16801561137c5780820380516001836020036101000a031916815260200191505b50838103825285818151815260200191508051906020019080838360005b838110156113b557808201518184015260208101905061139a565b50505050905090810190601f1680156113e25780820380516001836020036101000a031916815260200191505b509550505050505060405180910390f35b3480156113ff57600080fd5b50611408613780565b604051808273ffffffffffffffffffffffffffffffffffffffff1673ffffffffffffffffffffffffffffffffffffffff16815260200191505060405180910390f35b34801561145657600080fd5b506115106004803603602081101561146d57600080fd5b810190808035906020019064010000000081111561148a57600080fd5b82018360208201111561149c57600080fd5b803590602001918460018302840111640100000000831117156114be57600080fd5b91908080601f016020809104026020016040519081016040528093929190818152602001838380828437600081840152601f19601f8201169050808301925050505050505091929192905050506137a6565b6040518082815260200191505060405180910390f35b34801561153257600080fd5b506115ec6004803603602081101561154957600080fd5b810190808035906020019064010000000081111561156657600080fd5b82018360208201111561157857600080fd5b8035906020019184600183028401116401000000008311171561159a57600080fd5b91908080601f016020809104026020016040519081016040528093929190818152602001838380828437600081840152601f19601f8201169050808301925050505050505091929192905050506137d2565b6040518082815260200191505060405180910390f35b34801561160e57600080fd5b506117f66004803603606081101561162557600080fd5b810190808035906020019064010000000081111561164257600080fd5b82018360208201111561165457600080fd5b8035906020019184600183028401116401000000008311171561167657600080fd5b91908080601f016020809104026020016040519081016040528093929190818152602001838380828437600081840152601f19601f820116905080830192505050505050509192919290803590602001906401000000008111156116d957600080fd5b8201836020820111156116eb57600080fd5b8035906020019184600183028401116401000000008311171561170d57600080fd5b91908080601f016020809104026020016040519081016040528093929190818152602001838380828437600081840152601f19601f8201169050808301925050505050505091929192908035906020019064010000000081111561177057600080fd5b82018360208201111561178257600080fd5b803590602001918460018302840111640100000000831117156117a457600080fd5b91908080601f016020809104026020016040519081016040528093929190818152602001838380828437600081840152601f19601f8201169050808301925050505050505091929192905050506139e9565b6040518082815260200191505060405180910390f35b34801561181857600080fd5b5061185b6004803603602081101561182f57600080fd5b81019080803573ffffffffffffffffffffffffffffffffffffffff169060200190929190505050613bf3565b005b34801561186957600080fd5b50611872613e89565b005b34801561188057600080fd5b506118896140b3565b005b60008060003373ffffffffffffffffffffffffffffffffffffffff1673ffffffffffffffffffffffffffffffffffffffff16815260200190815260200160002060009054906101000a900460ff16806118f05750600160149054906101000a900460ff165b151561198a576040517f08c379a000000000000000000000000000000000000000000000000000000000815260040180806020018281038252603d8152602001807f452d43432d303032202d204f6e6c7920617574686f72697a656420757365727381526020017f2063616e20657865637574652074686973207472616e73616374696f6e00000081525060400191505060405180910390fd5b600160159054906101000a900460ff16151515611a81576040517f08c379a00000000000000000000000000000000000000000000000000000000081526004018080602001828103825260768152602001807f452d4c4f434b2d303031202d205468697320636f6e747261637420686173206281526020017f65656e2074656d706f72617279206c6f636b656420666f72207365637572697481526020017f7920726561736f6e732e205468697320616374696f6e2063616e206e6f74206281526020017f6520706572666f726d6564207269676874206e6f772e0000000000000000000081525060800191505060405180910390fd5b6000611a8d8585611f60565b9050611a97614382565b6060604051908101604052806040805190810160405280601b81526020017f7b7374617475734368616e67653a2027434552544946494544277d000000000081525081526020018581526020014281525090506008600083815260200190815260200160002081908060018154018082558091505090600182039060005260206000209060030201600090919290919091506000820151816000019080519060200190611b459291906143a4565b506020820151816001019080519060200190611b629291906143a4565b50604082015181600201555050507ffdcfed0cfff2a60f310626a01c493f3fafef4fe7410c8d634d22ef8db8b6740b82826000015183602001518460400151604051808581526020018060200180602001848152602001838103835286818151815260200191508051906020019080838360005b83811015611bf1578082015181840152602081019050611bd6565b50505050905090810190601f168015611c1e5780820380516001836020036101000a031916815260200191505b50838103825285818151815260200191508051906020019080838360005b83811015611c57578082015181840152602081019050611c3c565b50505050905090810190601f168015611c845780820380516001836020036101000a031916815260200191505b50965050505050505060405180910390a181925050509392505050565b600160159054906101000a900460ff16151515611d98576040517f08c379a00000000000000000000000000000000000000000000000000000000081526004018080602001828103825260768152602001807f452d4c4f434b2d303031202d205468697320636f6e747261637420686173206281526020017f65656e2074656d706f72617279206c6f636b656420666f72207365637572697481526020017f7920726561736f6e732e205468697320616374696f6e2063616e206e6f74206281526020017f6520706572666f726d6564207269676874206e6f772e0000000000000000000081525060800191505060405180910390fd5b600160009054906101000a900473ffffffffffffffffffffffffffffffffffffffff1673ffffffffffffffffffffffffffffffffffffffff163373ffffffffffffffffffffffffffffffffffffffff16141515611e83576040517f08c379a000000000000000000000000000000000000000000000000000000000815260040180806020018281038252603f8152602001807f452d43432d303031202d204f6e6c792074686520636f6e7472616374206f776e81526020017f65722061646420657865637574652074686973207472616e73616374696f6e0081525060400191505060405180910390fd5b60016000808373ffffffffffffffffffffffffffffffffffffffff1673ffffffffffffffffffffffffffffffffffffffff16815260200190815260200160002060006101000a81548160ff0219169083151502179055507f7e07c71a6d7714652e08d641a843dff01e823c8eeed08945be844015fe33539381604051808273ffffffffffffffffffffffffffffffffffffffff1673ffffffffffffffffffffffffffffffffffffffff16815260200191505060405180910390a150565b60006020528060005260406000206000915054906101000a900460ff1681565b60008060003373ffffffffffffffffffffffffffffffffffffffff1673ffffffffffffffffffffffffffffffffffffffff16815260200190815260200160002060009054906101000a900460ff1680611fc55750600160149054906101000a900460ff165b151561205f576040517f08c379a000000000000000000000000000000000000000000000000000000000815260040180806020018281038252603d8152602001807f452d43432d303032202d204f6e6c7920617574686f72697a656420757365727381526020017f2063616e20657865637574652074686973207472616e73616374696f6e00000081525060400191505060405180910390fd5b600160159054906101000a900460ff16151515612156576040517f08c379a00000000000000000000000000000000000000000000000000000000081526004018080602001828103825260768152602001807f452d4c4f434b2d303031202d205468697320636f6e747261637420686173206281526020017f65656e2074656d706f72617279206c6f636b656420666f72207365637572697481526020017f7920726561736f6e732e205468697320616374696f6e2063616e206e6f74206281526020017f6520706572666f726d6564207269676874206e6f772e0000000000000000000081525060800191505060405180910390fd5b6000612161846137a6565b905060006003600083815260200190815260200160002054141515612214576040517f08c379a00000000000000000000000000000000000000000000000000000000081526004018080602001828103825260408152602001807f452d504f452d303031202d20546865726520697320616c72656164792061206381526020017f657274696669656420646f63756d656e7420776974682074686174206861736881525060400191505060405180910390fd5b6002600081548092919060010191905055506000600254905084600660008381526020019081526020016000209080519060200190612254929190614424565b508360056000838152602001908152602001600020908051906020019061227c929190614424565b50806003600084815260200190815260200160002081905550336004600083815260200190815260200160002060006101000a81548173ffffffffffffffffffffffffffffffffffffffff021916908373ffffffffffffffffffffffffffffffffffffffff160217905550600760003373ffffffffffffffffffffffffffffffffffffffff1673ffffffffffffffffffffffffffffffffffffffff168152602001908152602001600020819080600181540180825580915050906001820390600052602060002001600090919290919091505550809250505092915050565b60008060003373ffffffffffffffffffffffffffffffffffffffff1673ffffffffffffffffffffffffffffffffffffffff16815260200190815260200160002060009054906101000a900460ff16806123c05750600160149054906101000a900460ff165b151561245a576040517f08c379a000000000000000000000000000000000000000000000000000000000815260040180806020018281038252603d8152602001807f452d43432d303032202d204f6e6c7920617574686f72697a656420757365727381526020017f2063616e20657865637574652074686973207472616e73616374696f6e00000081525060400191505060405180910390fd5b600160159054906101000a900460ff16151515612551576040517f08c379a00000000000000000000000000000000000000000000000000000000081526004018080602001828103825260768152602001807f452d4c4f434b2d303031202d205468697320636f6e747261637420686173206281526020017f65656e2074656d706f72617279206c6f636b656420666f72207365637572697481526020017f7920726561736f6e732e205468697320616374696f6e2063616e206e6f74206281526020017f6520706572666f726d6564207269676874206e6f772e0000000000000000000081525060800191505060405180910390fd5b61256c8360206040519081016040528060008152508461188b565b905092915050565b60006060806000806125858661372d565b90508086600560008481526020019081526020016000206004600085815260200190815260200160002060009054906101000a900473ffffffffffffffffffffffffffffffffffffffff16818054600181600116156101000203166002900480601f0160208091040260200160405190810160405280929190818152602001828054600181600116156101000203166002900480156126655780601f1061263a57610100808354040283529160200191612665565b820191906000526020600020905b81548152906001019060200180831161264857829003601f168201915b505050505091509450945094509450509193509193565b600060608060008460066000878152602001908152602001600020600560008881526020019081526020016000206004600089815260200190815260200160002060009054906101000a900473ffffffffffffffffffffffffffffffffffffffff16828054600181600116156101000203166002900480601f0160208091040260200160405190810160405280929190818152602001828054600181600116156101000203166002900480156127735780601f1061274857610100808354040283529160200191612773565b820191906000526020600020905b81548152906001019060200180831161275657829003601f168201915b50505050509250818054600181600116156101000203166002900480601f01602080910402602001604051908101604052809291908181526020018280546001816001161561010002031660029004801561280f5780601f106127e45761010080835404028352916020019161280f565b820191906000526020600020905b8154815290600101906020018083116127f257829003601f168201915b5050505050915093509350935093509193509193565b6060806000600860008681526020019081526020016000208481548110151561284a57fe5b9060005260206000209060030201600001600860008781526020019081526020016000208581548110151561287b57fe5b906000526020600020906003020160010160086000888152602001908152602001600020868154811015156128ac57fe5b906000526020600020906003020160020154828054600181600116156101000203166002900480601f0160208091040260200160405190810160405280929190818152602001828054600181600116156101000203166002900480156129535780601f1061292857610100808354040283529160200191612953565b820191906000526020600020905b81548152906001019060200180831161293657829003601f168201915b50505050509250818054600181600116156101000203166002900480601f0160208091040260200160405190810160405280929190818152602001828054600181600116156101000203166002900480156129ef5780601f106129c4576101008083540402835291602001916129ef565b820191906000526020600020905b8154815290600101906020018083116129d257829003601f168201915b505050505091509250925092509250925092565b6000803373ffffffffffffffffffffffffffffffffffffffff1673ffffffffffffffffffffffffffffffffffffffff16815260200190815260200160002060009054906101000a900460ff1680612a665750600160149054906101000a900460ff165b1515612b00576040517f08c379a000000000000000000000000000000000000000000000000000000000815260040180806020018281038252603d8152602001807f452d43432d303032202d204f6e6c7920617574686f72697a656420757365727381526020017f2063616e20657865637574652074686973207472616e73616374696f6e00000081525060400191505060405180910390fd5b600160159054906101000a900460ff16151515612bf7576040517f08c379a00000000000000000000000000000000000000000000000000000000081526004018080602001828103825260768152602001807f452d4c4f434b2d303031202d205468697320636f6e747261637420686173206281526020017f65656e2074656d706f72617279206c6f636b656420666f72207365637572697481526020017f7920726561736f6e732e205468697320616374696f6e2063616e206e6f74206281526020017f6520706572666f726d6564207269676874206e6f772e0000000000000000000081525060800191505060405180910390fd5b60008314151515612cbc576040517f08c379a00000000000000000000000000000000000000000000000000000000081526004018080602001828103825260418152602001807f452d504f4c2d3030312d205468657265206973206e6f7420612063657274696681526020017f69656420646f63756d656e7420776974682074686174206964656e746966696581526020017f720000000000000000000000000000000000000000000000000000000000000081525060600191505060405180910390fd5b3373ffffffffffffffffffffffffffffffffffffffff166004600085815260200190815260200160002060009054906101000a900473ffffffffffffffffffffffffffffffffffffffff1673ffffffffffffffffffffffffffffffffffffffff16141515612dde576040517f08c379a000000000000000000000000000000000000000000000000000000000815260040180806020018281038252604a8152602001807f452d504f4c2d303033202d204f6e6c792074686520646f63756d656e74206f7781526020017f6e65722063616e20617070656e6420617564697420726567697374727920747281526020017f616e73616374696f6e730000000000000000000000000000000000000000000081525060600191505060405180910390fd5b612de6614382565b6060604051908101604052808481526020018381526020014281525090506008600085815260200190815260200160002081908060018154018082558091505090600182039060005260206000209060030201600090919290919091506000820151816000019080519060200190612e5f9291906143a4565b506020820151816001019080519060200190612e7c9291906143a4565b50604082015181600201555050507f4de4d5b2e05cf7d3139a39b8a6dd01e1fd84ef8e17d821560779dce59186023c84826000015183602001518460400151604051808581526020018060200180602001848152602001838103835286818151815260200191508051906020019080838360005b83811015612f0b578082015181840152602081019050612ef0565b50505050905090810190601f168015612f385780820380516001836020036101000a031916815260200191505b50838103825285818151815260200191508051906020019080838360005b83811015612f71578082015181840152602081019050612f56565b50505050905090810190601f168015612f9e5780820380516001836020036101000a031916815260200191505b50965050505050505060405180910390a150505050565b600160149054906101000a900460ff1681565b60036020528060005260406000206000915090505481565b600080612fec8361372d565b90506008600082815260200190815260200160002080549050915050919050565b60086020528160005260406000208181548110151561302857fe5b906000526020600020906003020160009150915050806000018054600181600116156101000203166002900480601f0160208091040260200160405190810160405280929190818152602001828054600181600116156101000203166002900480156130d55780601f106130aa576101008083540402835291602001916130d5565b820191906000526020600020905b8154815290600101906020018083116130b857829003601f168201915b505050505090806001018054600181600116156101000203166002900480601f0160208091040260200160405190810160405280929190818152602001828054600181600116156101000203166002900480156131735780601f1061314857610100808354040283529160200191613173565b820191906000526020600020905b81548152906001019060200180831161315657829003601f168201915b5050505050908060020154905083565b600160159054906101000a900460ff1615151561327a576040517f08c379a00000000000000000000000000000000000000000000000000000000081526004018080602001828103825260768152602001807f452d4c4f434b2d303031202d205468697320636f6e747261637420686173206281526020017f65656e2074656d706f72617279206c6f636b656420666f72207365637572697481526020017f7920726561736f6e732e205468697320616374696f6e2063616e206e6f74206281526020017f6520706572666f726d6564207269676874206e6f772e0000000000000000000081525060800191505060405180910390fd5b600160009054906101000a900473ffffffffffffffffffffffffffffffffffffffff1673ffffffffffffffffffffffffffffffffffffffff163373ffffffffffffffffffffffffffffffffffffffff16141515613365576040517f08c379a000000000000000000000000000000000000000000000000000000000815260040180806020018281038252603f8152602001807f452d43432d303031202d204f6e6c792074686520636f6e7472616374206f776e81526020017f65722061646420657865637574652074686973207472616e73616374696f6e0081525060400191505060405180910390fd5b600160149054906101000a900460ff161515613435576040517f08c379a00000000000000000000000000000000000000000000000000000000081526004018080602001828103825260448152602001807f452d43432d303033202d2043657274696669636174696f6e206f70657261746981526020017f6f6e732061726520616c726561647920636c6f73656420746f2065766572792081526020017f757365720000000000000000000000000000000000000000000000000000000081525060600191505060405180910390fd5b6000600160146101000a81548160ff021916908315150217905550565b6060600760008373ffffffffffffffffffffffffffffffffffffffff1673ffffffffffffffffffffffffffffffffffffffff1681526020019081526020016000208054806020026020016040519081016040528092919081815260200182805480156134dd57602002820191906000526020600020905b8154815260200190600101908083116134c9575b50505050509050919050565b60046020528060005260406000206000915054906101000a900473ffffffffffffffffffffffffffffffffffffffff1681565b600060086000838152602001908152602001600020805490509050919050565b600160159054906101000a900460ff1681565b600160159054906101000a900460ff1615156135f9576040517f08c379a00000000000000000000000000000000000000000000000000000000081526004018080602001828103825260308152602001807f452d4c4f434b2d30303220202d205468697320636f6e7472616374206973206181526020017f6c726561647920756e6c6f636b65642e0000000000000000000000000000000081525060400191505060405180910390fd5b600160009054906101000a900473ffffffffffffffffffffffffffffffffffffffff1673ffffffffffffffffffffffffffffffffffffffff163373ffffffffffffffffffffffffffffffffffffffff161415156136e4576040517f08c379a000000000000000000000000000000000000000000000000000000000815260040180806020018281038252603f8152602001807f452d43432d303031202d204f6e6c792074686520636f6e7472616374206f776e81526020017f65722061646420657865637574652074686973207472616e73616374696f6e0081525060400191505060405180910390fd5b6000600160156101000a81548160ff0219169083151502179055507f3e5f4fd66bc9f59f15a9304dbc6394e240a57a1b4eb7ca42a75c5d9b298da45560405160405180910390a1565b600080613739836137a6565b90506003600082815260200190815260200160002054915050919050565b6060806000806137668661372d565b90506137728186612825565b935093509350509250925092565b600160009054906101000a900473ffffffffffffffffffffffffffffffffffffffff1681565b600060608290506000815114156137c45760006001029150506137cd565b60208301519150505b919050565b60008060003373ffffffffffffffffffffffffffffffffffffffff1673ffffffffffffffffffffffffffffffffffffffff16815260200190815260200160002060009054906101000a900460ff16806138375750600160149054906101000a900460ff165b15156138d1576040517f08c379a000000000000000000000000000000000000000000000000000000000815260040180806020018281038252603d8152602001807f452d43432d303032202d204f6e6c7920617574686f72697a656420757365727381526020017f2063616e20657865637574652074686973207472616e73616374696f6e00000081525060400191505060405180910390fd5b600160159054906101000a900460ff161515156139c8576040517f08c379a00000000000000000000000000000000000000000000000000000000081526004018080602001828103825260768152602001807f452d4c4f434b2d303031202d205468697320636f6e747261637420686173206281526020017f65656e2074656d706f72617279206c6f636b656420666f72207365637572697481526020017f7920726561736f6e732e205468697320616374696f6e2063616e206e6f74206281526020017f6520706572666f726d6564207269676874206e6f772e0000000000000000000081525060800191505060405180910390fd5b6139e2826020604051908101604052806000815250611f60565b9050919050565b60008060003373ffffffffffffffffffffffffffffffffffffffff1673ffffffffffffffffffffffffffffffffffffffff16815260200190815260200160002060009054906101000a900460ff1680613a4e5750600160149054906101000a900460ff165b1515613ae8576040517f08c379a000000000000000000000000000000000000000000000000000000000815260040180806020018281038252603d8152602001807f452d43432d303032202d204f6e6c7920617574686f72697a656420757365727381526020017f2063616e20657865637574652074686973207472616e73616374696f6e00000081525060400191505060405180910390fd5b600160159054906101000a900460ff16151515613bdf576040517f08c379a00000000000000000000000000000000000000000000000000000000081526004018080602001828103825260768152602001807f452d4c4f434b2d303031202d205468697320636f6e747261637420686173206281526020017f65656e2074656d706f72617279206c6f636b656420666f72207365637572697481526020017f7920726561736f6e732e205468697320616374696f6e2063616e206e6f74206281526020017f6520706572666f726d6564207269676874206e6f772e0000000000000000000081525060800191505060405180910390fd5b613bea84848461188b565b90509392505050565b600160159054906101000a900460ff16151515613cea576040517f08c379a00000000000000000000000000000000000000000000000000000000081526004018080602001828103825260768152602001807f452d4c4f434b2d303031202d205468697320636f6e747261637420686173206281526020017f65656e2074656d706f72617279206c6f636b656420666f72207365637572697481526020017f7920726561736f6e732e205468697320616374696f6e2063616e206e6f74206281526020017f6520706572666f726d6564207269676874206e6f772e0000000000000000000081525060800191505060405180910390fd5b600160009054906101000a900473ffffffffffffffffffffffffffffffffffffffff1673ffffffffffffffffffffffffffffffffffffffff163373ffffffffffffffffffffffffffffffffffffffff16141515613dd5576040517f08c379a000000000000000000000000000000000000000000000000000000000815260040180806020018281038252603f8152602001807f452d43432d303031202d204f6e6c792074686520636f6e7472616374206f776e81526020017f65722061646420657865637574652074686973207472616e73616374696f6e0081525060400191505060405180910390fd5b6000808273ffffffffffffffffffffffffffffffffffffffff1673ffffffffffffffffffffffffffffffffffffffff16815260200190815260200160002060006101000a81549060ff02191690557fbebbb6faf74eef3594a83912d2f77145b62aacc4520832f587e2130cdcbf08f081604051808273ffffffffffffffffffffffffffffffffffffffff1673ffffffffffffffffffffffffffffffffffffffff16815260200191505060405180910390a150565b600160009054906101000a900473ffffffffffffffffffffffffffffffffffffffff1673ffffffffffffffffffffffffffffffffffffffff163373ffffffffffffffffffffffffffffffffffffffff16141515613f74576040517f08c379a000000000000000000000000000000000000000000000000000000000815260040180806020018281038252603f8152602001807f452d43432d303031202d204f6e6c792074686520636f6e7472616374206f776e81526020017f65722061646420657865637574652074686973207472616e73616374696f6e0081525060400191505060405180910390fd5b600160159054906101000a900460ff1615151561406b576040517f08c379a00000000000000000000000000000000000000000000000000000000081526004018080602001828103825260768152602001807f452d4c4f434b2d303031202d205468697320636f6e747261637420686173206281526020017f65656e2074656d706f72617279206c6f636b656420666f72207365637572697481526020017f7920726561736f6e732e205468697320616374696f6e2063616e206e6f74206281526020017f6520706572666f726d6564207269676874206e6f772e0000000000000000000081525060800191505060405180910390fd5b60018060156101000a81548160ff0219169083151502179055507f6f5ffb7e2a6656882126927a79e460ca27ab657927d593522b90dc28229f7dbc60405160405180910390a1565b600160159054906101000a900460ff161515156141aa576040517f08c379a00000000000000000000000000000000000000000000000000000000081526004018080602001828103825260768152602001807f452d4c4f434b2d303031202d205468697320636f6e747261637420686173206281526020017f65656e2074656d706f72617279206c6f636b656420666f72207365637572697481526020017f7920726561736f6e732e205468697320616374696f6e2063616e206e6f74206281526020017f6520706572666f726d6564207269676874206e6f772e0000000000000000000081525060800191505060405180910390fd5b600160009054906101000a900473ffffffffffffffffffffffffffffffffffffffff1673ffffffffffffffffffffffffffffffffffffffff163373ffffffffffffffffffffffffffffffffffffffff16141515614295576040517f08c379a000000000000000000000000000000000000000000000000000000000815260040180806020018281038252603f8152602001807f452d43432d303031202d204f6e6c792074686520636f6e7472616374206f776e81526020017f65722061646420657865637574652074686973207472616e73616374696f6e0081525060400191505060405180910390fd5b600160149054906101000a900460ff16151515614366576040517f08c379a00000000000000000000000000000000000000000000000000000000081526004018080602001828103825260428152602001807f452d43432d303034202d2043657274696669636174696f6e206f70657261746981526020017f6f6e732061726520616c7265616479206f70656e20746f20657665727920757381526020017f657200000000000000000000000000000000000000000000000000000000000081525060600191505060405180910390fd5b60018060146101000a81548160ff021916908315150217905550565b6060604051908101604052806060815260200160608152602001600081525090565b828054600181600116156101000203166002900490600052602060002090601f016020900481019282601f106143e557805160ff1916838001178555614413565b82800160010185558215614413579182015b828111156144125782518255916020019190600101906143f7565b5b50905061442091906144a4565b5090565b828054600181600116156101000203166002900490600052602060002090601f016020900481019282601f1061446557805160ff1916838001178555614493565b82800160010185558215614493579182015b82811115614492578251825591602001919060010190614477565b5b5090506144a091906144a4565b5090565b6144c691905b808211156144c25760008160009055506001016144aa565b5090565b9056fea165627a7a72305820c39d51d092bdce2ac2cc6713f8eff2800d1484a3424a07246fc1108869f2f5ab0029",
  "source": "pragma solidity ^0.5.0;\n\nimport \"./ProofOfExistence.sol\";\nimport \"./HasAuditRegistry.sol\";\n\n/* @title Proof of Life */\ncontract ProofOfLife  is ProofOfExistence, HasAuditRegistry{\n  \n  // State\n  mapping(uint256 => AuditRegistry[]) public auditRegistryByDocumentId;\n  \n\n  // Events\n  event DocumentCreation (uint256 id, string description, string timestamp, uint256 blockTimestamp);\n  event NewAuditRegistry (uint256 id, string description, string timestamp, uint256 blockTimestamp);\n \n   /* @notice Certify document creation with hash and timestamp\n   * @dev It registers in the blockchain the proof-of-existence of an external document\n   * @param _documentHash - Hash of the document (it should have 32 bytes)\n   * @return id - returns certified document id\n   */\n  function certifyDocumentCreation(string memory _documentHash, string memory _timestamp) public onlyAuthorizedUsers onlyWhenUnlocked returns(uint256) {\n    return certifyDocumentCreation(_documentHash, \"\", _timestamp);\n  }\n  \n  /* @notice Certify document creation with hash and timestamp\n   * @dev It registers in the blockchain the proof-of-existence of an external document\n   * @param _documentHash - Hash of the document (it should have 32 bytes)\n   * @param _ipfsHash - IPFS Hash, if it exists \n   * @return id - returns certified document id\n   */\n  function certifyDocumentCreationWithIPFSHash(string memory _documentHash,  string memory _ipfsHash, string memory _timestamp) public onlyAuthorizedUsers onlyWhenUnlocked returns(uint256) {\n    return certifyDocumentCreation(_documentHash, _ipfsHash, _timestamp);\n  }\n\n\n  /* @notice Certify document creation\n   * @dev It registers in the blockchain the proof-of-existence of an external document\n   * @param _documentHash - MD5 Hash of the document (it should have 32 bytes)\n   * @param _ipfsHash - IPFS Hash, if it exists \n   * @return _id - returns certified document id\n   */\n  function certifyDocumentCreation(string memory _documentHash, string memory _ipfsHash, string memory _timestamp) public onlyAuthorizedUsers onlyWhenUnlocked returns(uint256) {\n      \n      uint256 _id = certifyDocument(_documentHash, _ipfsHash);\n      \n      //Create an AuditRegistry with a description.\n      AuditRegistry memory creationRegistry = AuditRegistry({timestamp: _timestamp, blockTimestamp: block.timestamp, description: \"{statusChange: 'CERTIFIED'}\"});\n      auditRegistryByDocumentId[_id].push(creationRegistry);\n      \n      emit DocumentCreation(_id, creationRegistry.description, creationRegistry.timestamp, creationRegistry.blockTimestamp);\n      return _id;\n  }  \n  \n  /* @notice Append Audit Registry\n   * @dev A document owner can use this function to append audit information to it\n   * @param _id - Id of the document\n   * @param _description - Content of the audit registry (status change, extra information, etc...)\n   * @param _timestamp - Local timestamp (UNIX Epoch format) from the external system or the UI which executes the contract\n   */\n  function appendAuditRegistry(uint256 _id, string memory _description, string memory _timestamp) public onlyAuthorizedUsers onlyWhenUnlocked {\n      \n      require(_id != 0, \"E-POL-001- There is not a certified document with that identifier\");\n      require(ownerByDocumentId[_id] == msg.sender, \"E-POL-003 - Only the document owner can append audit registry transactions\");\n      \n      AuditRegistry memory auditRegistry = AuditRegistry({ timestamp: _timestamp,\n                                                        blockTimestamp: now,\n                                                        description: _description});\n                                                   \n      auditRegistryByDocumentId[_id].push(auditRegistry);\n      emit NewAuditRegistry(_id, auditRegistry.description, auditRegistry.timestamp, auditRegistry.blockTimestamp);\n      \n  }\n    \n  /* @notice Fallback function\n  /* @dev It reverts the transaction for security reasons\n  */\n  function() external {\n      revert();\n  }\n  \n   /* @notice Get auditRegistry by documentHash\n   * @dev Retrieves the audit registry of a document\n   * @param _documentHash - Hash of the document\n   * @param _index - Position of the auditRegistry in the list\n   * @return string description, string timestamp, uint256 blockTimestamp\n   */\n  function getAuditRegistryByDocumentHash(string memory _documentHash, uint256 _index) public view\n        returns (string memory, string memory, uint256)\n    {\n        uint256 _id = getId(_documentHash);\n        return getAuditRegistryByDocumentId(_id,_index);\n    }\n    \n   /* @notice Get auditRegistry by documentId\n   * @dev Retrieves the audit registry of a document\n   * @param _id - Id of the document\n   * @param _index - Position of the auditRegistry in the list\n   * @return string description, string timestamp, uint256 blockTimestamp\n   */\n  function getAuditRegistryByDocumentId(uint256 _id, uint256 _index) public view\n        returns (string memory, string memory, uint256)\n    {\n        return (auditRegistryByDocumentId[_id][_index].description,auditRegistryByDocumentId[_id][_index].timestamp, auditRegistryByDocumentId[_id][_index].blockTimestamp);\n    }\n    \n   /* @notice CountAuditRegistries by hash\n   * @dev Count the number of audit registries of a document\n   * @param _documentHash - Hash of the document\n   * @return uint256 number of elements\n   */\n   function countAuditRegistriesByDocumentHash(string memory _documentHash) public view returns(uint256) {\n        uint256 _id = getId(_documentHash);\n        return auditRegistryByDocumentId[_id].length;\n    }\n\n  /* @notice CountAuditRegistries by id\n   * @dev Count the number of audit registries of a document\n   * @param _id - Id of the document\n   * @return uint256 number of elements\n   */\n    function countAuditRegistriesByDocumentId(uint256 _id) public view returns(uint256) {\n        return auditRegistryByDocumentId[_id].length;\n    }\n\n}\n",
  "sourcePath": "/Users/xmunch/Desktop/Projects/Ethereum Projects/docuten-blockchain-proof/contracts/ProofOfLife.sol",
  "compiler": {
    "name": "solc",
    "version": "0.5.0+commit.1d4f565a.Emscripten.clang"
  },
  "schemaVersion": "3.0.0",
  "updatedAt": "2018-12-26T14:19:43.635Z",
  "devdoc": {
    "methods": {}
  },
  "userdoc": {
    "methods": {}
  }
}