{
  "contractName": "ProofOfLife",
  "abi": [
    {
      "constant": false,
      "inputs": [
        {
          "name": "user",
          "type": "address"
        }
      ],
      "name": "addAuthorizedUser",
      "outputs": [],
      "payable": false,
      "stateMutability": "nonpayable",
      "type": "function"
    },
    {
      "constant": true,
      "inputs": [
        {
          "name": "",
          "type": "address"
        }
      ],
      "name": "authorizedUsers",
      "outputs": [
        {
          "name": "",
          "type": "bool"
        }
      ],
      "payable": false,
      "stateMutability": "view",
      "type": "function"
    },
    {
      "constant": true,
      "inputs": [],
      "name": "isOpenToEveryUser",
      "outputs": [
        {
          "name": "",
          "type": "bool"
        }
      ],
      "payable": false,
      "stateMutability": "view",
      "type": "function"
    },
    {
      "constant": true,
      "inputs": [
        {
          "name": "",
          "type": "bytes32"
        }
      ],
      "name": "idByDocumentHash",
      "outputs": [
        {
          "name": "",
          "type": "uint256"
        }
      ],
      "payable": false,
      "stateMutability": "view",
      "type": "function"
    },
    {
      "constant": true,
      "inputs": [
        {
          "name": "",
          "type": "uint256"
        },
        {
          "name": "",
          "type": "uint256"
        }
      ],
      "name": "auditRegistryByDocumentId",
      "outputs": [
        {
          "name": "description",
          "type": "string"
        },
        {
          "name": "timestamp",
          "type": "string"
        },
        {
          "name": "blockTimestamp",
          "type": "uint256"
        }
      ],
      "payable": false,
      "stateMutability": "view",
      "type": "function"
    },
    {
      "constant": true,
      "inputs": [
        {
          "name": "",
          "type": "uint256"
        }
      ],
      "name": "hashByDocumentId",
      "outputs": [
        {
          "name": "",
          "type": "bytes32"
        }
      ],
      "payable": false,
      "stateMutability": "view",
      "type": "function"
    },
    {
      "constant": false,
      "inputs": [],
      "name": "closeToAuthorizedUsers",
      "outputs": [],
      "payable": false,
      "stateMutability": "nonpayable",
      "type": "function"
    },
    {
      "constant": true,
      "inputs": [
        {
          "name": "",
          "type": "uint256"
        }
      ],
      "name": "ownerByDocumentId",
      "outputs": [
        {
          "name": "",
          "type": "address"
        }
      ],
      "payable": false,
      "stateMutability": "view",
      "type": "function"
    },
    {
      "constant": false,
      "inputs": [
        {
          "name": "_docHash",
          "type": "bytes32"
        },
        {
          "name": "_ipfsHash",
          "type": "string"
        }
      ],
      "name": "certifyDocument",
      "outputs": [
        {
          "name": "",
          "type": "uint256"
        }
      ],
      "payable": false,
      "stateMutability": "nonpayable",
      "type": "function"
    },
    {
      "constant": false,
      "inputs": [
        {
          "name": "_documentHash",
          "type": "bytes32"
        }
      ],
      "name": "certifyDocument",
      "outputs": [
        {
          "name": "",
          "type": "uint256"
        }
      ],
      "payable": false,
      "stateMutability": "nonpayable",
      "type": "function"
    },
    {
      "constant": true,
      "inputs": [],
      "name": "isLocked",
      "outputs": [
        {
          "name": "",
          "type": "bool"
        }
      ],
      "payable": false,
      "stateMutability": "view",
      "type": "function"
    },
    {
      "constant": false,
      "inputs": [],
      "name": "unlock",
      "outputs": [],
      "payable": false,
      "stateMutability": "nonpayable",
      "type": "function"
    },
    {
      "constant": true,
      "inputs": [
        {
          "name": "",
          "type": "address"
        },
        {
          "name": "",
          "type": "uint256"
        }
      ],
      "name": "documentsByOwnerAddress",
      "outputs": [
        {
          "name": "",
          "type": "uint256"
        }
      ],
      "payable": false,
      "stateMutability": "view",
      "type": "function"
    },
    {
      "constant": true,
      "inputs": [],
      "name": "lastId",
      "outputs": [
        {
          "name": "",
          "type": "uint256"
        }
      ],
      "payable": false,
      "stateMutability": "view",
      "type": "function"
    },
    {
      "constant": true,
      "inputs": [
        {
          "name": "",
          "type": "uint256"
        }
      ],
      "name": "ipfsHashByDocumentId",
      "outputs": [
        {
          "name": "",
          "type": "string"
        }
      ],
      "payable": false,
      "stateMutability": "view",
      "type": "function"
    },
    {
      "constant": true,
      "inputs": [],
      "name": "contractOwner",
      "outputs": [
        {
          "name": "",
          "type": "address"
        }
      ],
      "payable": false,
      "stateMutability": "view",
      "type": "function"
    },
    {
      "constant": false,
      "inputs": [
        {
          "name": "user",
          "type": "address"
        }
      ],
      "name": "removeCredentials",
      "outputs": [],
      "payable": false,
      "stateMutability": "nonpayable",
      "type": "function"
    },
    {
      "constant": false,
      "inputs": [],
      "name": "lock",
      "outputs": [],
      "payable": false,
      "stateMutability": "nonpayable",
      "type": "function"
    },
    {
      "constant": false,
      "inputs": [],
      "name": "openToEveryUser",
      "outputs": [],
      "payable": false,
      "stateMutability": "nonpayable",
      "type": "function"
    },
    {
      "payable": false,
      "stateMutability": "nonpayable",
      "type": "fallback"
    },
    {
      "anonymous": false,
      "inputs": [
        {
          "indexed": false,
          "name": "id",
          "type": "uint256"
        },
        {
          "indexed": false,
          "name": "description",
          "type": "string"
        },
        {
          "indexed": false,
          "name": "timestamp",
          "type": "string"
        },
        {
          "indexed": false,
          "name": "blockTimestamp",
          "type": "uint256"
        }
      ],
      "name": "DocumentCreation",
      "type": "event"
    },
    {
      "anonymous": false,
      "inputs": [
        {
          "indexed": false,
          "name": "id",
          "type": "uint256"
        },
        {
          "indexed": false,
          "name": "description",
          "type": "string"
        },
        {
          "indexed": false,
          "name": "timestamp",
          "type": "string"
        },
        {
          "indexed": false,
          "name": "blockTimestamp",
          "type": "uint256"
        }
      ],
      "name": "NewAuditRegistry",
      "type": "event"
    },
    {
      "anonymous": false,
      "inputs": [],
      "name": "ContractLocked",
      "type": "event"
    },
    {
      "anonymous": false,
      "inputs": [],
      "name": "ContractUnlocked",
      "type": "event"
    },
    {
      "anonymous": false,
      "inputs": [
        {
          "indexed": false,
          "name": "user",
          "type": "address"
        }
      ],
      "name": "AuthorizedUserAdded",
      "type": "event"
    },
    {
      "anonymous": false,
      "inputs": [
        {
          "indexed": false,
          "name": "user",
          "type": "address"
        }
      ],
      "name": "CredentialsRemoved",
      "type": "event"
    },
    {
      "constant": false,
      "inputs": [
        {
          "name": "_documentHash",
          "type": "bytes32"
        },
        {
          "name": "_ipfsHash",
          "type": "string"
        },
        {
          "name": "_timestamp",
          "type": "string"
        }
      ],
      "name": "certifyDocumentCreationWithIPFSHash",
      "outputs": [
        {
          "name": "",
          "type": "uint256"
        }
      ],
      "payable": false,
      "stateMutability": "nonpayable",
      "type": "function"
    },
    {
      "constant": false,
      "inputs": [
        {
          "name": "_documentHash",
          "type": "bytes32"
        },
        {
          "name": "_timestamp",
          "type": "string"
        }
      ],
      "name": "certifyDocumentCreation",
      "outputs": [
        {
          "name": "",
          "type": "uint256"
        }
      ],
      "payable": false,
      "stateMutability": "nonpayable",
      "type": "function"
    },
    {
      "constant": false,
      "inputs": [
        {
          "name": "_documentHash",
          "type": "bytes32"
        },
        {
          "name": "_ipfsHash",
          "type": "string"
        },
        {
          "name": "_timestamp",
          "type": "string"
        }
      ],
      "name": "certifyDocumentCreation",
      "outputs": [
        {
          "name": "",
          "type": "uint256"
        }
      ],
      "payable": false,
      "stateMutability": "nonpayable",
      "type": "function"
    },
    {
      "constant": false,
      "inputs": [
        {
          "name": "_id",
          "type": "uint256"
        },
        {
          "name": "_description",
          "type": "string"
        },
        {
          "name": "_timestamp",
          "type": "string"
        }
      ],
      "name": "appendAuditRegistry",
      "outputs": [],
      "payable": false,
      "stateMutability": "nonpayable",
      "type": "function"
    }
  ],
  "bytecode": "0x6080604052600060025533600160006101000a81548173ffffffffffffffffffffffffffffffffffffffff021916908373ffffffffffffffffffffffffffffffffffffffff1602179055506001600080600160009054906101000a900473ffffffffffffffffffffffffffffffffffffffff1673ffffffffffffffffffffffffffffffffffffffff1673ffffffffffffffffffffffffffffffffffffffff16815260200190815260200160002060006101000a81548160ff02191690831515021790555061318b806100d26000396000f3fe608060405260043610610133576000357c0100000000000000000000000000000000000000000000000000000000900463ffffffff168063177d2a74146101455780631828983a1461019657806339f7b69d146101ff5780633e36da48146103685780633f8f1c6d14610397578063435b022f1461047d5780636e8cc87f146104cc57806371f94e83146105fd5780637214ace71461064c5780637320a287146107c957806378195054146107e05780638a701ed11461095d578063965b72dc146109d85780639e244fc914610abe578063a4e2d63414610b0d578063a69df4b514610b3c578063ad0eafec14610b53578063c1292cc314610bc2578063c85eb04714610bed578063ce606ee014610ca1578063f3c6d71a14610cf8578063f83d08ba14610d49578063feab077714610d60575b34801561013f57600080fd5b50600080fd5b34801561015157600080fd5b506101946004803603602081101561016857600080fd5b81019080803573ffffffffffffffffffffffffffffffffffffffff169060200190929190505050610d77565b005b3480156101a257600080fd5b506101e5600480360360208110156101b957600080fd5b81019080803573ffffffffffffffffffffffffffffffffffffffff169060200190929190505050610fca565b604051808215151515815260200191505060405180910390f35b34801561020b57600080fd5b506103666004803603606081101561022257600080fd5b81019080803590602001909291908035906020019064010000000081111561024957600080fd5b82018360208201111561025b57600080fd5b8035906020019184600183028401116401000000008311171561027d57600080fd5b91908080601f016020809104026020016040519081016040528093929190818152602001838380828437600081840152601f19601f820116905080830192505050505050509192919290803590602001906401000000008111156102e057600080fd5b8201836020820111156102f257600080fd5b8035906020019184600183028401116401000000008311171561031457600080fd5b91908080601f016020809104026020016040519081016040528093929190818152602001838380828437600081840152601f19601f820116905080830192505050505050509192919290505050610fea565b005b34801561037457600080fd5b5061037d611550565b604051808215151515815260200191505060405180910390f35b3480156103a357600080fd5b50610467600480360360408110156103ba57600080fd5b8101908080359060200190929190803590602001906401000000008111156103e157600080fd5b8201836020820111156103f357600080fd5b8035906020019184600183028401116401000000008311171561041557600080fd5b91908080601f016020809104026020016040519081016040528093929190818152602001838380828437600081840152601f19601f820116905080830192505050505050509192919290505050611563565b6040518082815260200191505060405180910390f35b34801561048957600080fd5b506104b6600480360360208110156104a057600080fd5b8101908080359060200190929190505050611730565b6040518082815260200191505060405180910390f35b3480156104d857600080fd5b5061050f600480360360408110156104ef57600080fd5b810190808035906020019092919080359060200190929190505050611748565b604051808060200180602001848152602001838103835286818151815260200191508051906020019080838360005b8381101561055957808201518184015260208101905061053e565b50505050905090810190601f1680156105865780820380516001836020036101000a031916815260200191505b50838103825285818151815260200191508051906020019080838360005b838110156105bf5780820151818401526020810190506105a4565b50505050905090810190601f1680156105ec5780820380516001836020036101000a031916815260200191505b509550505050505060405180910390f35b34801561060957600080fd5b506106366004803603602081101561062057600080fd5b81019080803590602001909291905050506118be565b6040518082815260200191505060405180910390f35b34801561065857600080fd5b506107b36004803603606081101561066f57600080fd5b81019080803590602001909291908035906020019064010000000081111561069657600080fd5b8201836020820111156106a857600080fd5b803590602001918460018302840111640100000000831117156106ca57600080fd5b91908080601f016020809104026020016040519081016040528093929190818152602001838380828437600081840152601f19601f8201169050808301925050505050505091929192908035906020019064010000000081111561072d57600080fd5b82018360208201111561073f57600080fd5b8035906020019184600183028401116401000000008311171561076157600080fd5b91908080601f016020809104026020016040519081016040528093929190818152602001838380828437600081840152601f19601f8201169050808301925050505050505091929192905050506118d6565b6040518082815260200191505060405180910390f35b3480156107d557600080fd5b506107de611a94565b005b3480156107ec57600080fd5b506109476004803603606081101561080357600080fd5b81019080803590602001909291908035906020019064010000000081111561082a57600080fd5b82018360208201111561083c57600080fd5b8035906020019184600183028401116401000000008311171561085e57600080fd5b91908080601f016020809104026020016040519081016040528093929190818152602001838380828437600081840152601f19601f820116905080830192505050505050509192919290803590602001906401000000008111156108c157600080fd5b8201836020820111156108d357600080fd5b803590602001918460018302840111640100000000831117156108f557600080fd5b91908080601f016020809104026020016040519081016040528093929190818152602001838380828437600081840152601f19601f820116905080830192505050505050509192919290505050611d17565b6040518082815260200191505060405180910390f35b34801561096957600080fd5b506109966004803603602081101561098057600080fd5b81019080803590602001909291905050506120e1565b604051808273ffffffffffffffffffffffffffffffffffffffff1673ffffffffffffffffffffffffffffffffffffffff16815260200191505060405180910390f35b3480156109e457600080fd5b50610aa8600480360360408110156109fb57600080fd5b810190808035906020019092919080359060200190640100000000811115610a2257600080fd5b820183602082011115610a3457600080fd5b80359060200191846001830284011164010000000083111715610a5657600080fd5b91908080601f016020809104026020016040519081016040528093929190818152602001838380828437600081840152601f19601f820116905080830192505050505050509192919290505050612114565b6040518082815260200191505060405180910390f35b348015610aca57600080fd5b50610af760048036036020811015610ae157600080fd5b81019080803590602001909291905050506124a5565b6040518082815260200191505060405180910390f35b348015610b1957600080fd5b50610b22612670565b604051808215151515815260200191505060405180910390f35b348015610b4857600080fd5b50610b51612683565b005b348015610b5f57600080fd5b50610bac60048036036040811015610b7657600080fd5b81019080803573ffffffffffffffffffffffffffffffffffffffff16906020019092919080359060200190929190505050612861565b6040518082815260200191505060405180910390f35b348015610bce57600080fd5b50610bd7612891565b6040518082815260200191505060405180910390f35b348015610bf957600080fd5b50610c2660048036036020811015610c1057600080fd5b8101908080359060200190929190505050612897565b6040518080602001828103825283818151815260200191508051906020019080838360005b83811015610c66578082015181840152602081019050610c4b565b50505050905090810190601f168015610c935780820380516001836020036101000a031916815260200191505b509250505060405180910390f35b348015610cad57600080fd5b50610cb6612947565b604051808273ffffffffffffffffffffffffffffffffffffffff1673ffffffffffffffffffffffffffffffffffffffff16815260200191505060405180910390f35b348015610d0457600080fd5b50610d4760048036036020811015610d1b57600080fd5b81019080803573ffffffffffffffffffffffffffffffffffffffff16906020019092919050505061296d565b005b348015610d5557600080fd5b50610d5e612bb7565b005b348015610d6c57600080fd5b50610d75612d95565b005b600160159054906101000a900460ff16151515610e22576040517f08c379a00000000000000000000000000000000000000000000000000000000081526004018080602001828103825260278152602001807f452d4c4f434b2d303031202d20436f6e74726163742074656d706f726172792081526020017f6c6f636b65642e0000000000000000000000000000000000000000000000000081525060400191505060405180910390fd5b600160009054906101000a900473ffffffffffffffffffffffffffffffffffffffff1673ffffffffffffffffffffffffffffffffffffffff163373ffffffffffffffffffffffffffffffffffffffff16141515610f0d576040517f08c379a000000000000000000000000000000000000000000000000000000000815260040180806020018281038252603f8152602001807f452d43432d303031202d204f6e6c792074686520636f6e7472616374206f776e81526020017f65722061646420657865637574652074686973207472616e73616374696f6e0081525060400191505060405180910390fd5b60016000808373ffffffffffffffffffffffffffffffffffffffff1673ffffffffffffffffffffffffffffffffffffffff16815260200190815260200160002060006101000a81548160ff0219169083151502179055507f7e07c71a6d7714652e08d641a843dff01e823c8eeed08945be844015fe33539381604051808273ffffffffffffffffffffffffffffffffffffffff1673ffffffffffffffffffffffffffffffffffffffff16815260200191505060405180910390a150565b60006020528060005260406000206000915054906101000a900460ff1681565b6000803373ffffffffffffffffffffffffffffffffffffffff1673ffffffffffffffffffffffffffffffffffffffff16815260200190815260200160002060009054906101000a900460ff168061104d5750600160149054906101000a900460ff165b15156110e7576040517f08c379a000000000000000000000000000000000000000000000000000000000815260040180806020018281038252603d8152602001807f452d43432d303032202d204f6e6c7920617574686f72697a656420757365727381526020017f2063616e20657865637574652074686973207472616e73616374696f6e00000081525060400191505060405180910390fd5b600160159054906101000a900460ff16151515611192576040517f08c379a00000000000000000000000000000000000000000000000000000000081526004018080602001828103825260278152602001807f452d4c4f434b2d303031202d20436f6e74726163742074656d706f726172792081526020017f6c6f636b65642e0000000000000000000000000000000000000000000000000081525060400191505060405180910390fd5b60008314151515611257576040517f08c379a00000000000000000000000000000000000000000000000000000000081526004018080602001828103825260418152602001807f452d504f4c2d3030312d205468657265206973206e6f7420612063657274696681526020017f69656420646f63756d656e7420776974682074686174206964656e746966696581526020017f720000000000000000000000000000000000000000000000000000000000000081525060600191505060405180910390fd5b3373ffffffffffffffffffffffffffffffffffffffff166004600085815260200190815260200160002060009054906101000a900473ffffffffffffffffffffffffffffffffffffffff1673ffffffffffffffffffffffffffffffffffffffff16141515611379576040517f08c379a000000000000000000000000000000000000000000000000000000000815260040180806020018281038252604a8152602001807f452d504f4c2d303033202d204f6e6c792074686520646f63756d656e74206f7781526020017f6e65722063616e20617070656e6420617564697420726567697374727920747281526020017f616e73616374696f6e730000000000000000000000000000000000000000000081525060600191505060405180910390fd5b611381613018565b60606040519081016040528084815260200183815260200142815250905060086000858152602001908152602001600020819080600181540180825580915050906001820390600052602060002090600302016000909192909190915060008201518160000190805190602001906113fa92919061303a565b50602082015181600101908051906020019061141792919061303a565b50604082015181600201555050507f4de4d5b2e05cf7d3139a39b8a6dd01e1fd84ef8e17d821560779dce59186023c84826000015183602001518460400151604051808581526020018060200180602001848152602001838103835286818151815260200191508051906020019080838360005b838110156114a657808201518184015260208101905061148b565b50505050905090810190601f1680156114d35780820380516001836020036101000a031916815260200191505b50838103825285818151815260200191508051906020019080838360005b8381101561150c5780820151818401526020810190506114f1565b50505050905090810190601f1680156115395780820380516001836020036101000a031916815260200191505b50965050505050505060405180910390a150505050565b600160149054906101000a900460ff1681565b60008060003373ffffffffffffffffffffffffffffffffffffffff1673ffffffffffffffffffffffffffffffffffffffff16815260200190815260200160002060009054906101000a900460ff16806115c85750600160149054906101000a900460ff165b1515611662576040517f08c379a000000000000000000000000000000000000000000000000000000000815260040180806020018281038252603d8152602001807f452d43432d303032202d204f6e6c7920617574686f72697a656420757365727381526020017f2063616e20657865637574652074686973207472616e73616374696f6e00000081525060400191505060405180910390fd5b600160159054906101000a900460ff1615151561170d576040517f08c379a00000000000000000000000000000000000000000000000000000000081526004018080602001828103825260278152602001807f452d4c4f434b2d303031202d20436f6e74726163742074656d706f726172792081526020017f6c6f636b65642e0000000000000000000000000000000000000000000000000081525060400191505060405180910390fd5b61172883602060405190810160405280600081525084611d17565b905092915050565b60036020528060005260406000206000915090505481565b60086020528160005260406000208181548110151561176357fe5b906000526020600020906003020160009150915050806000018054600181600116156101000203166002900480601f0160208091040260200160405190810160405280929190818152602001828054600181600116156101000203166002900480156118105780601f106117e557610100808354040283529160200191611810565b820191906000526020600020905b8154815290600101906020018083116117f357829003601f168201915b505050505090806001018054600181600116156101000203166002900480601f0160208091040260200160405190810160405280929190818152602001828054600181600116156101000203166002900480156118ae5780601f10611883576101008083540402835291602001916118ae565b820191906000526020600020905b81548152906001019060200180831161189157829003601f168201915b5050505050908060020154905083565b60066020528060005260406000206000915090505481565b60008060003373ffffffffffffffffffffffffffffffffffffffff1673ffffffffffffffffffffffffffffffffffffffff16815260200190815260200160002060009054906101000a900460ff168061193b5750600160149054906101000a900460ff165b15156119d5576040517f08c379a000000000000000000000000000000000000000000000000000000000815260040180806020018281038252603d8152602001807f452d43432d303032202d204f6e6c7920617574686f72697a656420757365727381526020017f2063616e20657865637574652074686973207472616e73616374696f6e00000081525060400191505060405180910390fd5b600160159054906101000a900460ff16151515611a80576040517f08c379a00000000000000000000000000000000000000000000000000000000081526004018080602001828103825260278152602001807f452d4c4f434b2d303031202d20436f6e74726163742074656d706f726172792081526020017f6c6f636b65642e0000000000000000000000000000000000000000000000000081525060400191505060405180910390fd5b611a8b848484611d17565b90509392505050565b600160159054906101000a900460ff16151515611b3f576040517f08c379a00000000000000000000000000000000000000000000000000000000081526004018080602001828103825260278152602001807f452d4c4f434b2d303031202d20436f6e74726163742074656d706f726172792081526020017f6c6f636b65642e0000000000000000000000000000000000000000000000000081525060400191505060405180910390fd5b600160009054906101000a900473ffffffffffffffffffffffffffffffffffffffff1673ffffffffffffffffffffffffffffffffffffffff163373ffffffffffffffffffffffffffffffffffffffff16141515611c2a576040517f08c379a000000000000000000000000000000000000000000000000000000000815260040180806020018281038252603f8152602001807f452d43432d303031202d204f6e6c792074686520636f6e7472616374206f776e81526020017f65722061646420657865637574652074686973207472616e73616374696f6e0081525060400191505060405180910390fd5b600160149054906101000a900460ff161515611cfa576040517f08c379a00000000000000000000000000000000000000000000000000000000081526004018080602001828103825260448152602001807f452d43432d303033202d2043657274696669636174696f6e206f70657261746981526020017f6f6e732061726520616c726561647920636c6f73656420746f2065766572792081526020017f757365720000000000000000000000000000000000000000000000000000000081525060600191505060405180910390fd5b6000600160146101000a81548160ff021916908315150217905550565b60008060003373ffffffffffffffffffffffffffffffffffffffff1673ffffffffffffffffffffffffffffffffffffffff16815260200190815260200160002060009054906101000a900460ff1680611d7c5750600160149054906101000a900460ff165b1515611e16576040517f08c379a000000000000000000000000000000000000000000000000000000000815260040180806020018281038252603d8152602001807f452d43432d303032202d204f6e6c7920617574686f72697a656420757365727381526020017f2063616e20657865637574652074686973207472616e73616374696f6e00000081525060400191505060405180910390fd5b600160159054906101000a900460ff16151515611ec1576040517f08c379a00000000000000000000000000000000000000000000000000000000081526004018080602001828103825260278152602001807f452d4c4f434b2d303031202d20436f6e74726163742074656d706f726172792081526020017f6c6f636b65642e0000000000000000000000000000000000000000000000000081525060400191505060405180910390fd5b6000611ecd8585612114565b9050611ed7613018565b6060604051908101604052806040805190810160405280601b81526020017f7b7374617475734368616e67653a2027434552544946494544277d000000000081525081526020018581526020014281525090506008600083815260200190815260200160002081908060018154018082558091505090600182039060005260206000209060030201600090919290919091506000820151816000019080519060200190611f8592919061303a565b506020820151816001019080519060200190611fa292919061303a565b50604082015181600201555050507ffdcfed0cfff2a60f310626a01c493f3fafef4fe7410c8d634d22ef8db8b6740b82826000015183602001518460400151604051808581526020018060200180602001848152602001838103835286818151815260200191508051906020019080838360005b83811015612031578082015181840152602081019050612016565b50505050905090810190601f16801561205e5780820380516001836020036101000a031916815260200191505b50838103825285818151815260200191508051906020019080838360005b8381101561209757808201518184015260208101905061207c565b50505050905090810190601f1680156120c45780820380516001836020036101000a031916815260200191505b50965050505050505060405180910390a181925050509392505050565b60046020528060005260406000206000915054906101000a900473ffffffffffffffffffffffffffffffffffffffff1681565b60008060003373ffffffffffffffffffffffffffffffffffffffff1673ffffffffffffffffffffffffffffffffffffffff16815260200190815260200160002060009054906101000a900460ff16806121795750600160149054906101000a900460ff165b1515612213576040517f08c379a000000000000000000000000000000000000000000000000000000000815260040180806020018281038252603d8152602001807f452d43432d303032202d204f6e6c7920617574686f72697a656420757365727381526020017f2063616e20657865637574652074686973207472616e73616374696f6e00000081525060400191505060405180910390fd5b600160159054906101000a900460ff161515156122be576040517f08c379a00000000000000000000000000000000000000000000000000000000081526004018080602001828103825260278152602001807f452d4c4f434b2d303031202d20436f6e74726163742074656d706f726172792081526020017f6c6f636b65642e0000000000000000000000000000000000000000000000000081525060400191505060405180910390fd5b6000600360008581526020019081526020016000205414151561236f576040517f08c379a00000000000000000000000000000000000000000000000000000000081526004018080602001828103825260408152602001807f452d504f452d303031202d20546865726520697320616c72656164792061206381526020017f657274696669656420646f63756d656e7420776974682074686174206861736881525060400191505060405180910390fd5b60026000815480929190600101919050555060006002549050836006600083815260200190815260200160002081905550826005600083815260200190815260200160002090805190602001906123c79291906130ba565b50806003600086815260200190815260200160002081905550336004600083815260200190815260200160002060006101000a81548173ffffffffffffffffffffffffffffffffffffffff021916908373ffffffffffffffffffffffffffffffffffffffff160217905550600760003373ffffffffffffffffffffffffffffffffffffffff1673ffffffffffffffffffffffffffffffffffffffff1681526020019081526020016000208190806001815401808255809150509060018203906000526020600020016000909192909190915055508091505092915050565b60008060003373ffffffffffffffffffffffffffffffffffffffff1673ffffffffffffffffffffffffffffffffffffffff16815260200190815260200160002060009054906101000a900460ff168061250a5750600160149054906101000a900460ff165b15156125a4576040517f08c379a000000000000000000000000000000000000000000000000000000000815260040180806020018281038252603d8152602001807f452d43432d303032202d204f6e6c7920617574686f72697a656420757365727381526020017f2063616e20657865637574652074686973207472616e73616374696f6e00000081525060400191505060405180910390fd5b600160159054906101000a900460ff1615151561264f576040517f08c379a00000000000000000000000000000000000000000000000000000000081526004018080602001828103825260278152602001807f452d4c4f434b2d303031202d20436f6e74726163742074656d706f726172792081526020017f6c6f636b65642e0000000000000000000000000000000000000000000000000081525060400191505060405180910390fd5b612669826020604051908101604052806000815250612114565b9050919050565b600160159054906101000a900460ff1681565b600160159054906101000a900460ff16151561272d576040517f08c379a00000000000000000000000000000000000000000000000000000000081526004018080602001828103825260308152602001807f452d4c4f434b2d30303220202d205468697320636f6e7472616374206973206181526020017f6c726561647920756e6c6f636b65642e0000000000000000000000000000000081525060400191505060405180910390fd5b600160009054906101000a900473ffffffffffffffffffffffffffffffffffffffff1673ffffffffffffffffffffffffffffffffffffffff163373ffffffffffffffffffffffffffffffffffffffff16141515612818576040517f08c379a000000000000000000000000000000000000000000000000000000000815260040180806020018281038252603f8152602001807f452d43432d303031202d204f6e6c792074686520636f6e7472616374206f776e81526020017f65722061646420657865637574652074686973207472616e73616374696f6e0081525060400191505060405180910390fd5b6000600160156101000a81548160ff0219169083151502179055507f3e5f4fd66bc9f59f15a9304dbc6394e240a57a1b4eb7ca42a75c5d9b298da45560405160405180910390a1565b60076020528160005260406000208181548110151561287c57fe5b90600052602060002001600091509150505481565b60025481565b60056020528060005260406000206000915090508054600181600116156101000203166002900480601f01602080910402602001604051908101604052809291908181526020018280546001816001161561010002031660029004801561293f5780601f106129145761010080835404028352916020019161293f565b820191906000526020600020905b81548152906001019060200180831161292257829003601f168201915b505050505081565b600160009054906101000a900473ffffffffffffffffffffffffffffffffffffffff1681565b600160159054906101000a900460ff16151515612a18576040517f08c379a00000000000000000000000000000000000000000000000000000000081526004018080602001828103825260278152602001807f452d4c4f434b2d303031202d20436f6e74726163742074656d706f726172792081526020017f6c6f636b65642e0000000000000000000000000000000000000000000000000081525060400191505060405180910390fd5b600160009054906101000a900473ffffffffffffffffffffffffffffffffffffffff1673ffffffffffffffffffffffffffffffffffffffff163373ffffffffffffffffffffffffffffffffffffffff16141515612b03576040517f08c379a000000000000000000000000000000000000000000000000000000000815260040180806020018281038252603f8152602001807f452d43432d303031202d204f6e6c792074686520636f6e7472616374206f776e81526020017f65722061646420657865637574652074686973207472616e73616374696f6e0081525060400191505060405180910390fd5b6000808273ffffffffffffffffffffffffffffffffffffffff1673ffffffffffffffffffffffffffffffffffffffff16815260200190815260200160002060006101000a81549060ff02191690557fbebbb6faf74eef3594a83912d2f77145b62aacc4520832f587e2130cdcbf08f081604051808273ffffffffffffffffffffffffffffffffffffffff1673ffffffffffffffffffffffffffffffffffffffff16815260200191505060405180910390a150565b600160159054906101000a900460ff16151515612c62576040517f08c379a00000000000000000000000000000000000000000000000000000000081526004018080602001828103825260278152602001807f452d4c4f434b2d303031202d20436f6e74726163742074656d706f726172792081526020017f6c6f636b65642e0000000000000000000000000000000000000000000000000081525060400191505060405180910390fd5b600160009054906101000a900473ffffffffffffffffffffffffffffffffffffffff1673ffffffffffffffffffffffffffffffffffffffff163373ffffffffffffffffffffffffffffffffffffffff16141515612d4d576040517f08c379a000000000000000000000000000000000000000000000000000000000815260040180806020018281038252603f8152602001807f452d43432d303031202d204f6e6c792074686520636f6e7472616374206f776e81526020017f65722061646420657865637574652074686973207472616e73616374696f6e0081525060400191505060405180910390fd5b60018060156101000a81548160ff0219169083151502179055507f6f5ffb7e2a6656882126927a79e460ca27ab657927d593522b90dc28229f7dbc60405160405180910390a1565b600160159054906101000a900460ff16151515612e40576040517f08c379a00000000000000000000000000000000000000000000000000000000081526004018080602001828103825260278152602001807f452d4c4f434b2d303031202d20436f6e74726163742074656d706f726172792081526020017f6c6f636b65642e0000000000000000000000000000000000000000000000000081525060400191505060405180910390fd5b600160009054906101000a900473ffffffffffffffffffffffffffffffffffffffff1673ffffffffffffffffffffffffffffffffffffffff163373ffffffffffffffffffffffffffffffffffffffff16141515612f2b576040517f08c379a000000000000000000000000000000000000000000000000000000000815260040180806020018281038252603f8152602001807f452d43432d303031202d204f6e6c792074686520636f6e7472616374206f776e81526020017f65722061646420657865637574652074686973207472616e73616374696f6e0081525060400191505060405180910390fd5b600160149054906101000a900460ff16151515612ffc576040517f08c379a00000000000000000000000000000000000000000000000000000000081526004018080602001828103825260428152602001807f452d43432d303034202d2043657274696669636174696f6e206f70657261746981526020017f6f6e732061726520616c7265616479206f70656e20746f20657665727920757381526020017f657200000000000000000000000000000000000000000000000000000000000081525060600191505060405180910390fd5b60018060146101000a81548160ff021916908315150217905550565b6060604051908101604052806060815260200160608152602001600081525090565b828054600181600116156101000203166002900490600052602060002090601f016020900481019282601f1061307b57805160ff19168380011785556130a9565b828001600101855582156130a9579182015b828111156130a857825182559160200191906001019061308d565b5b5090506130b6919061313a565b5090565b828054600181600116156101000203166002900490600052602060002090601f016020900481019282601f106130fb57805160ff1916838001178555613129565b82800160010185558215613129579182015b8281111561312857825182559160200191906001019061310d565b5b509050613136919061313a565b5090565b61315c91905b80821115613158576000816000905550600101613140565b5090565b9056fea165627a7a723058209a78538bd81889f65134fb4d86be4864188b13482ef09339b0854329a36045cd0029",
  "source": "pragma solidity ^0.5.0;\n\nimport \"./ProofOfExistence.sol\";\nimport \"./HasAuditRegistry.sol\";\n\n\n/* @title Proof of Life */\ncontract ProofOfLife  is ProofOfExistence, HasAuditRegistry {\n    \n    // State\n    mapping(uint256 => AuditRegistry[]) public auditRegistryByDocumentId;\n\n    // Events\n    event DocumentCreation (uint256 id, string description, string timestamp, uint256 blockTimestamp);\n    event NewAuditRegistry (uint256 id, string description, string timestamp, uint256 blockTimestamp);\n      \n    /* @notice Fallback function\n    /* @dev It reverts the transaction for security reasons\n    */\n    function() external {\n        revert();\n    }\n    \n    /* @notice Certify document creation with hash and timestamp\n    * @dev It registers in the blockchain the proof-of-existence of an external document\n    * @param _documentHash - Hash of the document (it should have 32 bytes)\n    * @return id - returns certified document id\n    */\n    function certifyDocumentCreation(bytes32 _documentHash, string memory _timestamp) \n    public onlyAuthorizedUsers onlyWhenUnlocked returns(uint256) {\n        return certifyDocumentCreation(_documentHash, \"\", _timestamp);\n    }\n    \n    /* @notice Certify document creation with hash and timestamp\n    * @dev It registers in the blockchain the proof-of-existence of an external document\n    * @param _documentHash - Hash of the document (it should have 32 bytes)\n    * @param _ipfsHash - IPFS Hash, if it exists \n    * @return id - returns certified document id\n    */\n    function certifyDocumentCreationWithIPFSHash(bytes32 _documentHash, string memory _ipfsHash,\n    string memory _timestamp) public onlyAuthorizedUsers onlyWhenUnlocked returns(uint256) {\n        return certifyDocumentCreation(_documentHash, _ipfsHash, _timestamp);\n    }\n\n    /* @notice Certify document creation\n    * @dev It registers in the blockchain the proof-of-existence of an external document\n    * @param _documentHash - Hash of the document (it should have 32 bytes)\n    * @param _ipfsHash - IPFS Hash, if it exists \n    * @return _id - returns certified document id\n    */\n    function certifyDocumentCreation(bytes32 _documentHash, string memory _ipfsHash,\n    string memory _timestamp) public onlyAuthorizedUsers onlyWhenUnlocked returns(uint256) {\n        \n        uint256 _id = certifyDocument(_documentHash, _ipfsHash);\n        \n        //Create an AuditRegistry with a description.\n        AuditRegistry memory creationRegistry = AuditRegistry(\n                                              { timestamp: _timestamp, \n                                                blockTimestamp: block.timestamp, \n                                                description: \"{statusChange: 'CERTIFIED'}\" }\n        );\n\n        auditRegistryByDocumentId[_id].push(creationRegistry);\n        \n        emit DocumentCreation(_id, creationRegistry.description, \n        creationRegistry.timestamp, creationRegistry.blockTimestamp);\n        \n        return _id;\n    }  \n    \n    /* @notice Append Audit Registry\n    * @dev A document owner can use this function to append audit information to it\n    * @param _id - Id of the document\n    * @param _description - Content of the audit registry (status change, extra information, etc...)\n    * @param _timestamp - Local timestamp (UNIX Epoch format) from the external\n    * system or the UI which executes the contract\n    */\n    function appendAuditRegistry(uint256 _id, string memory _description, string memory _timestamp) \n    public onlyAuthorizedUsers onlyWhenUnlocked {\n        \n        require(_id != 0, \"E-POL-001- There is not a certified document with that identifier\");\n\n        require(ownerByDocumentId[_id] == msg.sender, \n        \"E-POL-003 - Only the document owner can append audit registry transactions\");\n        \n        AuditRegistry memory auditRegistry = AuditRegistry(\n                                                        { timestamp: _timestamp,\n                                                          blockTimestamp: now,\n                                                          description: _description }\n        );\n                                                    \n        auditRegistryByDocumentId[_id].push(auditRegistry);\n        emit NewAuditRegistry(_id, auditRegistry.description, auditRegistry.timestamp, auditRegistry.blockTimestamp);\n        \n    }\n\n\n}\n",
  "sourcePath": "/Users/xmunch/Desktop/Projects/Ethereum Projects/docuten-blockchain-proof/contracts/ProofOfLife.sol",
  "compiler": {
    "name": "solc",
    "version": "0.5.0+commit.1d4f565a.Emscripten.clang"
  },
  "schemaVersion": "3.0.1",
  "updatedAt": "2019-01-29T11:05:37.646Z",
  "devdoc": {
    "methods": {}
  },
  "userdoc": {
    "methods": {}
  }
}