{
  "contractName": "ProofOfLifeProxy",
  "abi": [
    {
      "constant": true,
      "inputs": [
        {
          "name": "",
          "type": "address"
        }
      ],
      "name": "authorizedUsers",
      "outputs": [
        {
          "name": "",
          "type": "bool"
        }
      ],
      "payable": false,
      "stateMutability": "view",
      "type": "function"
    },
    {
      "constant": true,
      "inputs": [],
      "name": "isOpenToEveryUser",
      "outputs": [
        {
          "name": "",
          "type": "bool"
        }
      ],
      "payable": false,
      "stateMutability": "view",
      "type": "function"
    },
    {
      "constant": true,
      "inputs": [
        {
          "name": "",
          "type": "bytes32"
        }
      ],
      "name": "idByDocumentHash",
      "outputs": [
        {
          "name": "",
          "type": "uint256"
        }
      ],
      "payable": false,
      "stateMutability": "view",
      "type": "function"
    },
    {
      "constant": true,
      "inputs": [
        {
          "name": "",
          "type": "uint256"
        },
        {
          "name": "",
          "type": "uint256"
        }
      ],
      "name": "auditRegistryByDocumentId",
      "outputs": [
        {
          "name": "description",
          "type": "string"
        },
        {
          "name": "timestamp",
          "type": "string"
        },
        {
          "name": "blockTimestamp",
          "type": "uint256"
        }
      ],
      "payable": false,
      "stateMutability": "view",
      "type": "function"
    },
    {
      "constant": true,
      "inputs": [],
      "name": "delegatedContractAddress",
      "outputs": [
        {
          "name": "",
          "type": "address"
        }
      ],
      "payable": false,
      "stateMutability": "view",
      "type": "function"
    },
    {
      "constant": true,
      "inputs": [
        {
          "name": "",
          "type": "uint256"
        }
      ],
      "name": "ownerByDocumentId",
      "outputs": [
        {
          "name": "",
          "type": "address"
        }
      ],
      "payable": false,
      "stateMutability": "view",
      "type": "function"
    },
    {
      "constant": true,
      "inputs": [],
      "name": "isLocked",
      "outputs": [
        {
          "name": "",
          "type": "bool"
        }
      ],
      "payable": false,
      "stateMutability": "view",
      "type": "function"
    },
    {
      "constant": true,
      "inputs": [],
      "name": "contractOwner",
      "outputs": [
        {
          "name": "",
          "type": "address"
        }
      ],
      "payable": false,
      "stateMutability": "view",
      "type": "function"
    },
    {
      "constant": false,
      "inputs": [],
      "name": "lock",
      "outputs": [],
      "payable": false,
      "stateMutability": "nonpayable",
      "type": "function"
    }
  ],
  "bytecode": "0x6080604052600060025534801561001557600080fd5b506106a5806100256000396000f3fe608060405260043610610099576000357c0100000000000000000000000000000000000000000000000000000000900463ffffffff1680631828983a1461009e5780633e36da4814610107578063435b022f146101365780636e8cc87f1461018557806375b6e378146102b65780638a701ed11461030d578063a4e2d63414610388578063ce606ee0146103b7578063f83d08ba1461040e575b600080fd5b3480156100aa57600080fd5b506100ed600480360360208110156100c157600080fd5b81019080803573ffffffffffffffffffffffffffffffffffffffff169060200190929190505050610425565b604051808215151515815260200191505060405180910390f35b34801561011357600080fd5b5061011c610445565b604051808215151515815260200191505060405180910390f35b34801561014257600080fd5b5061016f6004803603602081101561015957600080fd5b8101908080359060200190929190505050610458565b6040518082815260200191505060405180910390f35b34801561019157600080fd5b506101c8600480360360408110156101a857600080fd5b810190808035906020019092919080359060200190929190505050610470565b604051808060200180602001848152602001838103835286818151815260200191508051906020019080838360005b838110156102125780820151818401526020810190506101f7565b50505050905090810190601f16801561023f5780820380516001836020036101000a031916815260200191505b50838103825285818151815260200191508051906020019080838360005b8381101561027857808201518184015260208101905061025d565b50505050905090810190601f1680156102a55780820380516001836020036101000a031916815260200191505b509550505050505060405180910390f35b3480156102c257600080fd5b506102cb6105e6565b604051808273ffffffffffffffffffffffffffffffffffffffff1673ffffffffffffffffffffffffffffffffffffffff16815260200191505060405180910390f35b34801561031957600080fd5b506103466004803603602081101561033057600080fd5b810190808035906020019092919050505061060b565b604051808273ffffffffffffffffffffffffffffffffffffffff1673ffffffffffffffffffffffffffffffffffffffff16815260200191505060405180910390f35b34801561039457600080fd5b5061039d61063e565b604051808215151515815260200191505060405180910390f35b3480156103c357600080fd5b506103cc610651565b604051808273ffffffffffffffffffffffffffffffffffffffff1673ffffffffffffffffffffffffffffffffffffffff16815260200191505060405180910390f35b34801561041a57600080fd5b50610423610677565b005b600a6020528060005260406000206000915054906101000a900460ff1681565b600160149054906101000a900460ff1681565b60046020528060005260406000206000915090505481565b60096020528160005260406000208181548110151561048b57fe5b906000526020600020906003020160009150915050806000018054600181600116156101000203166002900480601f0160208091040260200160405190810160405280929190818152602001828054600181600116156101000203166002900480156105385780601f1061050d57610100808354040283529160200191610538565b820191906000526020600020905b81548152906001019060200180831161051b57829003601f168201915b505050505090806001018054600181600116156101000203166002900480601f0160208091040260200160405190810160405280929190818152602001828054600181600116156101000203166002900480156105d65780601f106105ab576101008083540402835291602001916105d6565b820191906000526020600020905b8154815290600101906020018083116105b957829003601f168201915b5050505050908060020154905083565b6000809054906101000a900473ffffffffffffffffffffffffffffffffffffffff1681565b60056020528060005260406000206000915054906101000a900473ffffffffffffffffffffffffffffffffffffffff1681565b600360009054906101000a900460ff1681565b600160009054906101000a900473ffffffffffffffffffffffffffffffffffffffff1681565b56fea165627a7a7230582015f72cdd87da5d6db6386f69f3c4f326e2ca149ed7b1054bc161e9d14906b4210029",
  "source": "pragma solidity ^0.5.0;\n\nimport \"./HasAuditRegistry.sol\";\n\n/* @title Proof of Life Proxy with delegateCall */\ncontract ProofOfLifeProxy is HasAuditRegistry {\n \n  // State\n  address public delegatedContractAddress;\n  address public contractOwner;\n  bool public isOpenToEveryUser;\n  uint256 private lastId = 0;\n  bool public isLocked;\n  mapping(bytes32  => uint256) public idByDocumentHash;\n  mapping(uint256  => address) public ownerByDocumentId;\n  mapping(uint256  => string) private ipfsHashByDocumentId;\n  mapping(uint256  => string) private hashByDocumentId;\n  mapping(address  => uint256[]) private documentsByOwnerAddress;\n  mapping(uint256 => AuditRegistry[]) public auditRegistryByDocumentId;\n  mapping(address  => bool) public authorizedUsers;\n  \n  \n  /* @notice Lock contract\n   * @dev Maintenance and security circuit locker\n   */\n  function lock() public{\n  /*   uint256256 val = 100;\n      delegatedContractAddress.delegatecall(abi.encodeWithSignature(\"foo(uint256256,uint256256)\")), val, val);\n    delegatedContractAddress.delegatecall(bytes4(keccak256(\"storeValue(uint256256)\")), val);\n    bytes memory delegateBytes = bytes4(keccak256(\"lock()\"));\n    contractAddress.delegatecall(delegateBytes);*/\n\n  }\n}",
  "sourcePath": "/Users/xmunch/Desktop/Projects/Ethereum Projects/docuten-blockchain-proof/contracts/ProofOfLifeProxy.sol",
  "compiler": {
    "name": "solc",
    "version": "0.5.0+commit.1d4f565a.Emscripten.clang"
  },
  "schemaVersion": "3.0.0",
  "updatedAt": "2018-12-26T14:01:38.762Z",
  "devdoc": {
    "methods": {}
  },
  "userdoc": {
    "methods": {}
  }
}